:020000040800F2
:10000000005000205D560008A5560008A5560008BF
:10001000A5560008A5560008A556000800000000D7
:10002000000000000000000000000000A5560008CD
:10003000A556000800000000A5560008777E0008BD
:10004000A5560008A5560008A5560008A5560008A4
:10005000A5560008A5560008219B0008279B00080C
:100060002D9B0008339B0008399B0008A55600080B
:10007000A5560008A5560008A5560008A556000874
:10008000A5560008A5560008A5560008A556000864
:10009000A5560008A5560008A55600083F9B000875
:1000A000A5560008D1950008A5560008E59500085A
:1000B000E9950008FD950008119600088D89000853
:1000C00099890008A5890008B1890008A55600088B
:1000D000A5560008F98D0008118E0008298E000829
:1000E000559B000881830008A55600080000000009
:1000F0000000000000000000000000000000000000
:0C01000000000000000000005FF808F1A3
:10010C0010F8012B11F8013B012A28BF9A42F7D0B5
:10011C00D01A7047034613F8012B002AFBD1181A8A
:10012C000138704781F0004102E000BF83F00043CA
:10013C0030B54FEA41044FEA430594EA050F08BF76
:10014C0090EA020F1FBF54EA000C55EA020C7FEA3A
:10015C00645C7FEA655C00F0E2804FEA5454D4EBB7
:10016C005555B8BF6D420CDD2C4480EA020281EA81
:10017C00030382EA000083EA010180EA020281EAB9
:10018C000303362D88BF30BD11F0004F4FEA01310B
:10019C004FF4801C4CEA113102D0404261EB41011A
:1001AC0013F0004F4FEA03334CEA133302D05242A0
:1001BC0063EB430394EA050F00F0A780A4F101045C
:1001CC00D5F1200E0DDB02FA0EFC22FA05F2801896
:1001DC0041F1000103FA0EF2801843FA05F359417C
:1001EC000EE0A5F120050EF1200E012A03FA0EFCFB
:1001FC0028BF4CF0020C43FA05F3C01851EBE37125
:10020C0001F0004507D54FF0000EDCF1000C7EEB41
:10021C0000006EEB0101B1F5801F1BD3B1F5001F7F
:10022C000CD349085FEA30004FEA3C0C04F101049E
:10023C004FEA445212F5800F80F09A80BCF1004FC7
:10024C0008BF5FEA500C50F1000041EB045141EA49
:10025C00050130BD5FEA4C0C404141EB010111F44A
:10026C00801FA4F10104E9D191F0000F04BF0146F5
:10027C000020B1FA81F308BF2033A3F10B03B3F1D3
:10028C0020020CDA0C3208DD02F1140CC2F10C0263
:10029C0001FA0CF021FA02F10CE002F11402D8BFC1
:1002AC00C2F1200C01FA02F120FA0CFCDCBF41EA8D
:1002BC000C019040E41AA2BF01EB0451294330BD5C
:1002CC006FEA04041F3C1CDA0C340EDC04F1140439
:1002DC00C4F1200220FA04F001FA02F340EA030010
:1002EC0021FA04F345EA030130BDC4F10C04C4F156
:1002FC00200220FA02F001FA04F340EA0300294636
:10030C0030BD21FA04F0294630BD94F0000F83F47F
:10031C00801306BF81F480110134013D4EE77FEA62
:10032C00645C18BF7FEA655C29D094EA050F08BFAE
:10033C0090EA020F05D054EA000C04BF194610468F
:10034C0030BD91EA030F1EBF0021002030BD5FEAD3
:10035C00545C05D14000494128BF41F0004130BDFB
:10036C0014F580043CBF01F5801130BD01F000454F
:10037C0045F0FE4141F470014FF0000030BD7FEAC2
:10038C00645C1ABF194610467FEA655C1CBF0B46BD
:10039C00024650EA013406BF52EA033591EA030FD4
:1003AC0041F4002130BD00BF90F0000F04BF0021CC
:1003BC00704730B54FF4806404F132044FF00005FF
:1003CC004FF0000150E700BF90F0000F04BF002178
:1003DC00704730B54FF4806404F1320410F00045DE
:1003EC0048BF40424FF000013EE700BF42004FEAD9
:1003FC00E2014FEA31014FEA02701FBF12F07F4356
:10040C0093F07F4F81F06051704732F07F4208BF0C
:10041C00704793F07F4F04BF41F40021704730B513
:10042C004FF4607401F0004521F000411CE700BF5F
:10043C0050EA010208BF704730B54FF000050AE0E2
:10044C0050EA010208BF704730B511F0004502D5E3
:10045C00404261EB41014FF4806404F132045FEAE5
:10046C00915C3FF4D8AE4FF003025FEADC0C18BF8E
:10047C0003325FEADC0C18BF033202EBDC02C2F180
:10048C00200300FA03FC20FA02F001FA03FE40EA12
:10049C000E0021FA02F11444BDE600BF4FF0FF3C00
:1004AC0006E000BF4FF0010C02E000BF4FF0010C62
:1004BC004DF804CD4FEA410C7FEA6C5C4FEA430CDB
:1004CC0018BF7FEA6C5C1BD001B050EA410C0CBF2A
:1004DC0052EA430C91EA030F02BF90EA020F00208C
:1004EC00704710F1000F91EA030F58BF994208BFF3
:1004FC0090422CBFD8176FEAE37040F001007047B0
:10050C004FEA410C7FEA6C5C02D150EA013C07D106
:10051C004FEA430C7FEA6C5CD6D152EA033CD3D051
:10052C005DF8040B704700BF8446104662468C464B
:10053C001946634600E000BF01B5FFF7B7FF00287E
:10054C0048BF10F1000F01BD4DF808EDFFF7F4FFA7
:10055C000CBF012000205DF808FB00BF4DF808ED32
:10056C00FFF7EAFF34BF012000205DF808FB00BF55
:10057C004DF808EDFFF7E0FF94BF012000205DF877
:10058C0008FB00BF4DF808EDFFF7CEFF94BF01202C
:10059C0000205DF808FB00BF4DF808EDFFF7C4FF25
:1005AC0034BF012000205DF808FB00BF80F0004044
:1005BC0002E000BF81F0004142001FBF5FEA41032F
:1005CC0092EA030F7FEA226C7FEA236C6AD04FEA2F
:1005DC001262D2EB1363C1BFD21841404840414074
:1005EC00B8BF5B42192B88BF704710F0004F40F426
:1005FC00000020F07F4018BF404211F0004F41F442
:10060C00000121F07F4118BF494292EA030F3FD00D
:10061C00A2F1010241FA03FC10EB0C00C3F1200320
:10062C0001FA03F100F0004302D5494260EB4000AF
:10063C00B0F5000F13D3B0F1807F06D340084FEA1A
:10064C00310102F10102FE2A51D2B1F1004F40EB0F
:10065C00C25008BF20F0010040EA03007047490077
:10066C0040EB000010F4000FA2F10102EDD1B0FA42
:10067C0080FCACF1080CB2EB0C0200FA0CF0AABF37
:10068C0000EBC25052421843BCBFD04018437047D5
:10069C0092F0000F81F4000106BF80F400000132DB
:1006AC00013BB5E74FEA41037FEA226C18BF7FEAB2
:1006BC00236C21D092EA030F04D092F0000F08BFF4
:1006CC000846704790EA010F1CBF0020704712F0DB
:1006DC007F4F04D1400028BF40F00040704712F11A
:1006EC0000723CBF00F50000704700F0004343F07F
:1006FC00FE4040F4000070477FEA226216BF0846B5
:10070C007FEA23630146420206BF5FEA412390EA77
:10071C00010F40F4800070474FF0000304E000BF6D
:10072C0010F0004348BF40425FEA000C08BF70471E
:10073C0043F0964301464FF000001CE050EA0102E2
:10074C0008BF70474FF000030AE000BF50EA0102F7
:10075C0008BF704711F0004302D5404261EB4101E4
:10076C005FEA010C02BF84460146002043F0B64309
:10077C0008BFA3F18053A3F50003BCFA8CF2083A2E
:10078C00A3EBC25310DB01FA02FC634400FA02FC37
:10079C00C2F12002BCF1004F20FA02F243EB02003E
:1007AC0008BF20F00100704702F1200201FA02FCA0
:1007BC00C2F1200250EA4C0021FA02F243EB020093
:1007CC0008BF20EADC7070474FF0FF0C1CEAD052D7
:1007DC001EBF1CEAD15392EA0C0F93EA0C0F6FD098
:1007EC001A4480EA010C400218BF5FEA41211ED076
:1007FC004FF0006343EA501043EA5111A0FB013162
:10080C000CF00040B1F5000F3EBF490041EAD37136
:10081C005B0040EA010062F17F02FD2A1DD8B3F1B2
:10082C00004F40EBC25008BF20F00100704790F021
:10083C00000F0CF0004C08BF49024CEA502040EA73
:10084C0051207F3AC2BFD2F1FF0340EAC250704739
:10085C0040F400004FF00003013A5DDC12F1190F77
:10086C00DCBF00F000407047C2F10002410021FAE9
:10087C0002F1C2F1200200FA02FC5FEA310040F101
:10088C00000053EA4C0308BF20EADC70704792F07A
:10089C00000F00F0004C02BF400010F4000F013AB2
:1008AC00F9D040EA0C0093F0000F01F0004C02BFAD
:1008BC00490011F4000F013BF9D041EA0C018FE71C
:1008CC000CEAD15392EA0C0F18BF93EA0C0F0AD022
:1008DC0030F0004C18BF31F0004CD8D180EA010048
:1008EC0000F00040704790F0000F17BF90F0004FE1
:1008FC00084691F0000F91F0004F14D092EA0C0FC3
:10090C0001D142020FD193EA0C0F03D14B0218BF55
:10091C00084608D180EA010000F0004040F0FE409B
:10092C0040F40000704740F0FE4040F44000704737
:10093C004FF0FF0C1CEAD0521EBF1CEAD15392EAB6
:10094C000C0F93EA0C0F69D0A2EB030280EA010CA6
:10095C0049024FEA402037D04FF0805343EA11113F
:10096C0043EA10130CF000408B4238BF5B0042F19D
:10097C007D024FF4000C8B4224BF5B1A40EA0C0042
:10098C00B3EB510F24BFA3EB510340EA5C00B3EB74
:10099C00910F24BFA3EB910340EA9C00B3EBD10F62
:1009AC0024BFA3EBD10340EADC001B0118BF5FEAB4
:1009BC001C1CE0D1FD2A3FF650AF8B4240EBC250DD
:1009CC0008BF20F0010070470CF0004C4CEA50209E
:1009DC007F32C2BFD2F1FF0340EAC250704740F4ED
:1009EC0000004FF00003013A37E792F0000F00F0DF
:1009FC00004C02BF400010F4000F013AF9D040EA5D
:100A0C000C0093F0000F01F0004C02BF490011F4F0
:100A1C00000F013BF9D041EA0C0195E70CEAD153E8
:100A2C0092EA0C0F08D142027FF47DAF93EA0C0FCF
:100A3C007FF470AF084676E793EA0C0F04D14B02B3
:100A4C003FF44CAF08466EE730F0004C18BF31F065
:100A5C00004CCAD130F000427FF45CAF31F000435F
:100A6C007FF43CAF5FE700BF4FF0FF3C06E000BFF8
:100A7C004FF0010C02E000BF4FF0010C4DF804CD1B
:100A8C004FEA40024FEA41037FEA226C18BF7FEA2B
:100A9C00236C11D001B052EA530C18BF90EA010F2D
:100AAC0058BFB2EB030088BFC81738BF6FEAE170BC
:100ABC0018BF40F0010070477FEA226C02D15FEA58
:100ACC00402C05D17FEA236CE4D15FEA412CE1D0C4
:100ADC005DF8040B704700BF844608466146FFE78B
:100AEC000FB5FFF7C9FF002848BF10F1000F0FBD6D
:100AFC004DF808EDFFF7F4FF0CBF012000205DF866
:100B0C0008FB00BF4DF808EDFFF7EAFF34BF0120EA
:100B1C0000205DF808FB00BF4DF808EDFFF7E0FF83
:100B2C0094BF012000205DF808FB00BF4DF808EDD4
:100B3C00FFF7D2FF94BF012000205DF808FB00BF37
:100B4C004DF808EDFFF7C8FF34BF012000205DF819
:100B5C0008FB00BF42000ED2B2F1FE4F0BD34FF098
:100B6C009E03B3EB126209D44FEA002343F0004317
:100B7C0023FA02F070474FF00000704712F1610F3A
:100B8C0001D1420202D14FF0FF3070474FF000000C
:100B9C00704700BF0348044B834202D0034B03B1A0
:100BAC001847704740010020400100200000000061
:100BBC0005480649091A891001EBD171491002D078
:100BCC00034B03B11847704740010020400100203F
:100BDC000000000010B5064C237843B9FFF7DAFF8C
:100BEC00044B13B10448AFF300800123237010BDF4
:100BFC004001002000000000F8B1000808B5054BCA
:100C0C001BB105490548AFF30080BDE80840FFF76C
:100C1C00CFBF00BF0000000044010020F8B1000865
:100C2C00BFF34F8F0549064BCA6802F4E0621343C9
:100C3C00CB60BFF34F8F00BFFDE700BF00ED00E0BE
:100C4C000400FA05704708B5112008F097F9BDE8C3
:100C5C000840B0FA80F11120490908F06BB907F08F
:100C6C0033BD000010B5064B01211C5C204608F07A
:100C7C0061F92046BDE81040002108F05BB900BFC7
:100C8C0033B500082DE9F04105460F4608240E4BFC
:100C9C0013F801802B064CBF01210021404608F0BF
:100CAC0049F90A4B0121DE5D013C304608F042F95E
:100CBC000021304608F03EF96D0014F0FF04EDB24F
:100CCC00E8D1BDE8F08100BF14B500080FB50008ED
:100CDC002DE9F0470C460826174FDFF864A00021D9
:100CEC000546385D08F026F900211AF8040008F0D2
:100CFC0021F9124B13F804902B064CBF0121002153
:100D0C00484608F017F91AF804800121404608F00B
:100D1C0011F90021404608F00DF96D00013EEDB2CD
:100D2C00EAD13C5D0121204608F004F93146204609
:100D3C00BDE8F04708F0FEB833B5000814B500085C
:100D4C000FB5000870B51546044610460E46FFF761
:100D5C0089FF0A4B0021585D08F0ECF82644B44298
:100D6C0006D02CB1294614F8010BFFF78BFFF6E7E0
:100D7C002846BDE87040FFF775BF00BF0FB50008EF
:100D8C004FF6FF7307B50322022101A8ADF804301A
:100D9C00FFF7D8FF03B05DF804FBFF2307B5037022
:100DAC0004211846FFF794FF4FF6FF73002202212F
:100DBC0001A8ADF80430FFF7C5FFFFF7E1FF03B062
:100DCC005DF804FB08B55A4809F0CEF8022106205C
:100DDC0008F062F80221012008F05EF802210420DC
:100DEC0008F05AF80221052008F056F802210320D9
:100DFC0008F052F80221084608F04EF802210020B3
:100E0C0008F04AF802210C2008F046F801211120C4
:100E1C0008F042F80121132008F03EF801211220BD
:100E2C0008F03AF80121142008F036F801211620B8
:100E3C0008F032F80121152008F02EF801211020BD
:100E4C0008F02AF801210E2008F026F801210F20C5
:100E5C0008F022F80121092008F01EF801210720D2
:100E6C0008F01AF80121082008F016F801211C20BE
:100E7C0008F012F801211F2008F00EF801211E20A5
:100E8C0008F00AF80021112008F054F80021132072
:100E9C0008F050F80021122008F04CF80021142022
:100EAC0008F048F80021162008F044F8002115201D
:100EBC0008F040F80021102008F03CF800210E202A
:100ECC0008F038F800210F2008F034F80021092030
:100EDC0008F030F80021072008F02CF80021082039
:100EEC0008F028F800211C2008F024F800211F200D
:100EFC0008F020F800211E2008F01CF80121182011
:100F0C0007F0CAFF0121172007F0C6FF01211820A6
:100F1C0008F010F80121172008F00CF8012111201D
:100F2C0007F0BAFFBDE808400021112008F002B814
:100F3C00D5B4000838B1037A016023F07F0343F085
:100F4C000803037201207047D1E9013210339A4231
:100F5C0010B502D20023184610BDA2F110038B600D
:100F6C00002BF7D0416859B15C1A24114C81002137
:100F7C00436022F8061C02F8081C42F8041CEAE73D
:100F8C000360F4E730B544680A44D0E90053AB423F
:100F9C0007D2914205D05D1C456011F8015B1D70B4
:100FAC00F3E700221A704068001B30BD10B50446F0
:100FBC00044808F0D9FF002004212070BDE810403F
:100FCC00FFF786BE8EB80008134B70B50D1E044695
:100FDC001249134808BF194608F040FFA5B1052572
:100FEC000626042106202670FFF772FE142007F057
:100FFC00EFFF002004212070FFF76AFE142007F099
:10100C00E7FF013DEDD170BDFF2004212070BDE84C
:10101C007040FFF75DBE00BFC9B70008BDB7000840
:10102C00CEB7000838B5054602F0ECFD044630B9E1
:10103C000E4808F099FF2046A5F8384438BD02F058
:10104C00D7FD022804D14FF48073A5F83834F5E7A6
:10105C00012395F8382485F839340AB985F8833496
:10106C0085F8383485F83A340120E7E7CDB9000823
:10107C0030B5044685B0182002F0B4FD2B4808F0BA
:10108C0073FF02A802F0CCFD02A9294808F046FB28
:10109C004FF47A6244F62061601C02F019FD05469B
:1010AC0090BB244808F060FF02F0ACFD20B9224848
:1010BC0008F05AFFA4F8385402F09AFD022806D121
:1010CC001E4808F051FF4FF48073A4F838341C4BC1
:1010DC0003241B88ADF804300023ADF8083003223C
:1010EC00022102A8FFF72EFE322007F071FF032227
:1010FC00022101A8FFF726FE322007F069FF013C10
:10110C00EDD1284605B030BD40F20113A4F83834B7
:10111C0001230C4884F83A3408F026FF02A802F0A8
:10112C007FFD02A9024808F0F9FAD0E732B60008B0
:10113C006C0C002051B600087AB60008BEB6000848
:10114C0010B20008E0B6000810B50446FFF76AFFBD
:10115C0094F883343BB10023204684F88334BDE8F3
:10116C001040FFF785BF10BD2DE9F04100F26C4631
:10117C0092B0044630460F4602F0B0FD05460028FA
:10118C0036D1228AA168304602F0C8FD2369194A7B
:10119C0000934021A36802A808F03AFF02A808F0C7
:1011AC005DFE6423B7FBF3F7DFF85480304602F0A2
:1011BC0095FD48B9BD4207DA642007F009FF4046A7
:1011CC00013508F0D1FEF1E7304602F087FD2269C7
:1011DC00A16858B1084808F041FE304602F07EFD87
:1011EC00003018BF012012B0BDE8F0810348F2E7CF
:1011FC000120F8E7E7B8000809B9000832B900087F
:10120C00DDB60008F0B500F26C4491B005462046FE
:10121C0002F064FD78B944F620612846FFF7A4FF7C
:10122C00064628B9214808F09FFE304611B0F0BDA3
:10123C001F4808F099FE05F138063046FEF76AFFA4
:10124C00074640220021684608F059FD3B46194AE2
:10125C004021684608F0DCFE6969204608F054FA23
:10126C00E968204608F050FAE969204608F04CFA83
:10127C00296A204608F048FA696A204608F044FAC0
:10128C00A96A204608F040FAA969204608F03CFA01
:10129C006946204608F038FA204608F02DFA314607
:1012AC00204608F031FA0126BFE700BF85B70008D9
:1012BC0096B70008AAB7000838B50D46044607488B
:1012CC0008F0CCFD45B9207840F0010020700421D5
:1012DC00BDE83840FFF7FCBCFE20F7E753BB000825
:1012EC0038B50D460446074808F0B8FD45B92078D6
:1012FC0040F0020020700421BDE83840FFF7E8BC44
:10130C00FD20F7E79CBB000813B50C46074808F016
:10131C00A5FD074B002233F8143002215BBA01A85B
:10132C00ADF80430FFF70EFD02B010BD9CB80008FC
:10133C00E6B4000813B50C46074808F08FFD074BC0
:10134C00012233F8143002215BBA01A8ADF8043045
:10135C00FFF7F8FC02B010BD54B90008E6B4000861
:10136C0013B50C46074808F079FD074B032233F8F8
:10137C00143002215BBA01A8ADF80430FFF7E2FC8F
:10138C0002B010BD7DBA0008E6B400082DE9F743A1
:10139C0006461A4808F0E8FD194808F0E5FD002457
:1013AC004FF6FF75DFF86480164FDFF86490D6F8BF
:1013BC006024D6F864349B1A08FB03F39C4212D2C7
:1013CC0004EB44031A4453783846FF2B05BF39F815
:1013DC001430012100211D4008F040FD0A4808F09E
:1013EC00C3FD0134E3E702226DBA114601A8ADF842
:1013FC000450FFF7A7FC03B0BDE8F083B8B80008B1
:10140C00D1B80008BAB70008E5B80008ABAAAAAA78
:10141C00E6B4000870B590F8803405460E461446C4
:10142C006BB3174B17491268002E08BF19461648A4
:10143C0008F014FD2368AEB1D5F86424D5F8601417
:10144C000133511A114A23604A43934201D30023BA
:10145C0023602368284685F83E342168BDE8704037
:10146C00FFF752BF013B002B2360F2DAD5F8601472
:10147C00D5F86424521A054901FB0233E8E770BD24
:10148C002ABB000827BB00082FBB0008ABAAAAAADE
:10149C0070B590F8813405460E46144633B3144BA0
:1014AC0014491268002E08BF1946134808F0D6FCE0
:1014BC0023682EB10133072B88BF0023236002E081
:1014CC005A1E11D4226023680C4885F83D3408F06C
:1014DC004BFD95F83D140120FFF7C1FB2168284610
:1014EC00BDE87040FFF726BF0733E7E770BD00BFCC
:1014FC002ABB000827BB00088DB90008B3B9000847
:10150C004FF0FF3373B5044601930D4679B190F853
:10151C0081640EBB314600F023F8204601AA01215C
:10152C00FFF7B6FF84F882642046FFF736FC94F888
:10153C0081340A48002B18BF002508F015FD94F8DB
:10154C003D140120FFF78BFB84F88154294620467B
:10155C00FFF7C6FE02B070BD0025E8E7B3B900087E
:10156C004FF0FF3373B5044601930D46F9B190F873
:10157C0080643EBBFFF704FC1A4808F0F5FCFF2220
:10158C00D4F86034D4F864148B4204D05A7084F8C4
:10159C003F640333F8E700212046FFF7B1FF01AAAF
:1015AC0001212046FFF736FF002384F8823494F89B
:1015BC0080344BB1002384F880342046FFF7EDFBD8
:1015CC00002505E00025F2E784F88054002DF4D0C6
:1015DC002046FFF7DBFE29462046FFF76DFE02B0E2
:1015EC0070BD00BFBCBB000870B590F882340546D6
:1015FC000E461446F3B1104B10491268002E08BF6A
:10160C0019460F4808F02AFC23682EB10133092B28
:10161C0088BF0023236002E05A1E09D4226023688D
:10162C00284685F83F342168BDE87040FFF798BE26
:10163C000933EFE770BD00BF2ABB000827BB0008C9
:10164C0077BB000813B50446144808F08DFC042140
:10165C0021700846FFF73CFB002303220221684659
:10166C00ADF80030FFF76EFB322007F0B1FC4FF6FF
:10167C00FF73032202216846ADF80030FFF762FBCE
:10168C00322007F0A5FC4FF0FF3301AA01212046C0
:10169C000193FFF7A9FF02B010BD00BF72B900089B
:1016AC0073B50D460446124808F05EFCD5B1002512
:1016BC0001262946204684F8826484F88054FFF77A
:1016CC004FFF29462046FFF71BFF2046FFF7BAFFC6
:1016DC004FF0FF3301AA314620460193FFF784FFF8
:1016EC0002B070BD84F88254FFF74AFBF8E700BFE4
:1016FC00CDBB000838B590F8823404460D464BB18A
:10170C000121002380F8801480F88234FFF7D4FD87
:10171C00FFF736FB94F88034002B39D01D4B1E4953
:10172C001E48002D18BF194608F098FBD4F86434F5
:10173C00D4F8602494F83E149A1A194B53438B42F4
:10174C000FD2184808F010FC2046FFF71FFECDB949
:10175C0020460121FFF7A4FF2046BDE83840FFF7E3
:10176C0071BF114808F07AFB2946104808F076FB47
:10177C0094F83E34D4F8602403EB430313445D70B7
:10178C000B48DFE72046BDE838400021FFF788BF53
:10179C0038BD00BF9DBA000899BA0008A0BA00086D
:1017AC00ABAAAAAAC7BA0008DEBA0008F6BA0008A3
:1017BC0009BB000838B590F8823404460D46002B5E
:1017CC0047D0244808F0D0FBD4F86434D4F8602413
:1017DC0094F83E149A1A204B53438B4234D394F80A
:1017EC003F340A2B30D81D4808F038FB94F83F14CE
:1017FC001B4808F033FB94F83E34D4F8602403EB18
:10180C0043031344174994F83F2417488A5C9A7091
:10181C0008F0AAFB154808F0A7FB20460021FFF7AB
:10182C006FFE20462A460121FFF7F4FD0125002317
:10183C00A4F8805484F88234FFF7A2FA2946204693
:10184C00BDE83840FFF738BD0948BDE8384008F01E
:10185C008BBB38BD10BA0008ABAAAAAADEBA000826
:10186C0025BA000829B500083DBA000853BA00088B
:10187C006EBA000870B51C4808F076FB1B4D1C4B6B
:10188C001C4C2B604FF080434FF48670236008F0A3
:10189C00F5F806462968184D07F0D0FD4FF4867010
:1018AC002E6008F0EBF806462168144C07F0C6FDD4
:1018BC00286801224CF25031266007F057FE0122B5
:1018CC0020680F4907F052FE28680E4907F05DFDAD
:1018DC0020680D4907F059FD286807F02DFD206898
:1018EC00BDE8704007F028BD8FB30008F405002058
:1018FC00002C014034060020E80500206001002087
:10190C0080969800530C0008510C000800F0DF037F
:10191C00412B0CD0422B0CD0432B0CD0442B0CD095
:10192C00452B0CD0462B0CD03038C0B270470A2057
:10193C0070470B2070470C2070470D2070470E200D
:10194C0070470F207047000010B504460146094847
:10195C0008F084FA2078FFF7D9FF0201637806D1EA
:10196C001846FFF7D3FF003018BF012010BD01202F
:10197C00FCE700BF9BB3000810B50C461146FFF7FF
:10198C00E3FA20B1037AC46003F07F03037210BD45
:10199C0038B50D46046884B1E168A9420DD035B163
:1019AC0029B12846FEF7ACFB10F0FF0F05D0B4F9B7
:1019BC000A0018B104EB0014EDE7204638BD0331E2
:1019CC0038B521F003040546204608F043F950B120
:1019DC0004442B7FC5E9010023F07F03C5E90344D0
:1019EC002B77284638BD0446F3E700002DE9F84F65
:1019FC00D0E90069214CA9EB06035C4314BF2346D4
:101A0C000123E418074688469346A1EB06052CD221
:101A1C00B4F1553F29D854BBA246BBF800200AEBC1
:101A2C0005032AF805209BF80220B0459A7004D0D3
:101A3C002A463146504608F048F90335C845554406
:101A4C00A9EB080B04D05A464146284608F02FF95A
:101A5C005D4416B1304608F013F804EB44045444CA
:101A6C00C7E900A5BC60BDE8F88F4FF0553404EB16
:101A7C00440008F003F88246CFE700BFABAAAAAA3D
:101A8C002DE9F74304460D4600261C4808F0E6F9FC
:101A9C00D4E90932934218BFA362194B25705F5DDC
:101AAC001848394608F0DAF92946174808F0D6F9EB
:101ABC00B14604F1240804EB8505B7421AD96B68CA
:101ACC009B5D8DF805908DF80430D4E90A1399428A
:101ADC008DF8069009D0BDF804205FFA89F30A80CE
:101AEC008B700331A1620136E7E701AA4046FFF78C
:101AFC007DFFF8E703B0BDE8F08300BFA3B5000895
:101B0C0019B50008B6B50008CCB50008F8B50546FF
:101B1C001D4808F029FA002006F09CFD044601201F
:101B2C0006F098FD06462146184808F097F931460C
:101B3C00174808F093F9631EDBB2092B04D9012175
:101B4C000020FFF78CF801240A2E04D90121084645
:101B5C00FFF785F801262C7021466E702846FFF79A
:101B6C008FFF00240B4FD5E909239B1A7B439C4222
:101B7C0009D204EB440604F10A00164406F06AFD8F
:101B8C0001347070EFE7F8BD4DB500086DB5000875
:101B9C0087B50008ABAAAAAAF8B50446134808F002
:101BAC00E3F904F23C40FFF7B1FF114808F0DCF90F
:101BBC000225104F661C284606F04CFD01350146E7
:101BCC0006F8010B384608F049F9082DF3D12046E8
:101BDC00FFF7DCFB20460021FFF7ACFB2046FFF7AC
:101BEC00DCF82046BDE8F840FFF742BAFEB5000825
:101BFC001CB600082DB6000810B50A4C642120460E
:101C0C0007F0FFFD204606224FF4E13107F0AAFA57
:101C1C00FFF7D8F8FFF72EFEBDE810400248FFF79B
:101C2C00BBBF00BF6C0C00206401002070B50446E3
:101C3C00007A0D4610F07F03164611D120F07F007C
:101C4C00C4E9003340F02000207229462046FFF7FB
:101C5C009FFE40B9324629462046FFF78DFE02E032
:101C6C0010F02000F1D170BD837B33B943685A1C4E
:101C7C0042601B78437301238373407B704770B5BC
:101C8C00044600252046FFF7EFFF0A2805D809284F
:101C9C0009D2D8B14FF000001AE0202803D02F2829
:101CAC0003D00D28F6D1A573ECE7A5732046FFF7FA
:101CBC00DBFF2A2804D02F2815D04FF0020007E0B4
:101CCC000026A5732046FFF7CFFF10B94FF0010097
:101CDC0070BD2F2801D1002EE5D1A0F12A035E4260
:101CEC005E41A573EEE7A5732046FFF7BDFF002804
:101CFC00ECD00A28F7D1C5E770B50C461646054658
:101D0C0040B141B1FFF744FE20B932462146284686
:101D1C00FFF732FE70BD0846FCE700002DE9F041EC
:101D2C0004460F468668FFF79FFF00258046A57383
:101D3C002046FFF799FF8045A57323D018B94FF0C3
:101D4C000100BDE8F0815C2817D12046FFF78CFF1D
:101D5C000028F4D075280CD0104B1A79191D5AB1E3
:101D6C00904203F10203F8D1487828B94FF00200F1
:101D7C00E7E74FF00400E4E7A573A3685A1CA260E0
:101D8C001870D5E7A3685A1CA2601D703E6016B986
:101D9C004FF00300D5E74FF00000D2E7EFB5000895
:101DAC002F2807D9392803D95E280CD97A2805D8C9
:101DBC00012070472B28FBD02D28F9D0A0F12E0341
:101DCC005842584170474028F8D95A28EFE72DE976
:101DDC00F04104460E46FFF747FF272825D022285E
:101DEC0023D02046A568FFF73FFF074618B3FFF73F
:101DFC00D7FF10B34FF00008A36884F80E805A1C6C
:101E0C00A26020461F70FFF72FFF0746FFF7C8FFA1
:101E1C000028F1D1A368002D03F10102A260187013
:101E2C0035600CBF0320002003E031462046FFF74D
:101E3C0075FFBDE8F0810120FBE70220F9E7000007
:101E4C002DE9F0410B7805462B2B12D02D2B11D1FF
:101E5C00012701310B78A3F13002092A0CD92E2B62
:101E6C000AD0002300222B606A602B722846BDE842
:101E7C00F08101310027EDE700204FF00A0C534EA2
:101E8C000A4612F8014BA4F13003DBB2092B09D836
:101E9C00B04208D8DC430CFB00F0844203D3184456
:101EAC001146EDE754B100230A24494EB04203F128
:101EBC0001020CD9B0FBF4F01346F7E72860FEF7EB
:101ECC002BFC002F686014BF0A230823CDE75B1A94
:101EDC005C180E4611F8012B64B2A2F1300CBCF167
:101EEC00090FF5D92E2A11D10A460A21DFF8E8C0CC
:101EFC00164633780132303BDBB2092B06D86045ED
:101F0C00F6D8013C01FB003064B2F1E7337803F002
:101F1C00DF03452B48D173782D2B19D10121B21C2D
:101F2C0000234FF00A0E164612F801CBACF1300C20
:101F3C005FFA8CF8B8F1090F19D80EFB03C3E61839
:101F4C00262EF0DD69B14FB900236B600C238CE7B2
:101F5C002B2B14BF721CB21C0021E1E74FF0004385
:101F6C00F3E717B94FF0FF43EFE71A4BEDE701B179
:101F7C005B423678002E7FF474AF1C44FEF7CCFB2A
:101F8C00002C13DDDFF85480E20704D5F3B258F8C7
:101F9C002310FEF719FC641006F10106F4D10FB101
:101FAC0000F100406860D1E70023E2E7DFF8308001
:101FBC006442002CF3D0E30704D5F3B258F8231095
:101FCC00FEF702FC64100136F3E700BF99999919EA
:101FDC00FFFF7F00000080FFCBCC0C003000002006
:101FEC00180000202DE9F04794B080460D460024DF
:101FFC00FFF73AFEA24607460DF110093846E6B245
:10200C00FFF7CEFE60B13F2C09D088F80EA04046F9
:10201C0004F80970FFF728FE01340746EEE7264660
:10202C00002414AB334403F8404C9DF81030742B4F
:10203C0009D12B7A23F07F0343F006032B72012383
:10204C002B60301F09E0662B0CD12B7A2C6023F00F
:10205C007F0343F006032B72701F18BF012014B0CE
:10206C00BDE8F0876E2BECD004A901A8FFF7E8FEC1
:10207C009DF80C30019A0A2B09D00C2B10D0082B90
:10208C0017D12B7A23F07F0343F0080304E02B7A5B
:10209C0023F07F0343F00A032B722A602046DEE70D
:1020AC002B7A23F07F0343F00C032B72029B2B60E3
:1020BC00F4E74FF00200D2E773B505460C46FFF784
:1020CC00DEFDC6B2002E39D12846FFF7CDFD2728FC
:1020DC0026D006D8222823D021462846FFF782FF97
:1020EC001CE05B280ED07B28F6D1237AC4E900666D
:1020FC0023F07F0343F0200323722146284600F08F
:10210C0004F90BE0237AC4E9006623F07F0343F063
:10211C00400323722146284600F0B0F8C0B20DE00F
:10212C0001A92846FFF7FAFDC0B238B9237A23F08B
:10213C007F0343F005032372019B236002B070BD43
:10214C00F0B500F26C468DB00546304601F056FEF7
:10215C0000287BDD304601F051FE074605F13804BE
:10216C004FF480620021204607F0C9FD3B46224611
:10217C000A21304607F02DFB21463A4807F06EFE47
:10218C007B21204607F078FF00285FD0364807F007
:10219C00EBFE4FF000024FF4806104A8FFF70FFC38
:1021AC00059B09A90693089B684607939DF82C305C
:1021BC00029423F07F038DF82C3005ABCDE900346D
:1021CC000A238DF80C3000238DF80E30FFF774FFC6
:1021DC00C4B25CBB9DF80D3053B19DF82C3013F09C
:1021EC00600F05D103F07F03043B012B88BF022451
:1021FC001E4B53F824101E4807F030FE1CBB9DF8F4
:10220C002C309B062CD51B4909A8FFF7C1FB38B312
:10221C00037A03F07F030C2B11D8DFE803F02110B5
:10222C00101010100B100B100B101900052CDFD90F
:10223C001149E0E70068003018BF012080B101218E
:10224C002846FEF7C1FE059807F00CFD0DB0F0BD59
:10225C0000210068FEF74CFCB0FA80F04009EDE775
:10226C000021EDE778B700084BB7000848B200082A
:10227C0060B700087DB7000847B7000870B5037B4E
:10228C0005460E4613B94FF0050070BDFFF7ECFC88
:10229C005B2802D04FF00200F7E700232846AB730F
:1022AC00FFF7EDFC10F0FF0FEFD12846FFF7DCFC39
:1022BC005D281ED10020A873E7E72B7B2846013B45
:1022CC002B73FFF7F9FE2B7BC0B201332B73002865
:1022DC00DBD12846FFF7D3FCC4B2A4B92846FFF7DC
:1022EC00C3FC5D28E6D02846FFF7BEFC2C28D1D1D4
:1022FC00AC7329683046FEF727FE01460028DCD176
:10230C004FF00300C1E72046BFE7F7B5037B054656
:10231C000E461BB94FF0050003B0F0BDFFF7A4FC4F
:10232C007B2802D04FF00200F6E700232846AB735F
:10233C00FFF7A5FCC4B2002CEED12846FFF794FCA5
:10234C007D2839D1AC732046E6E70746037A63F063
:10235C007F030372019BC3602846FFF790FCC4B255
:10236C00002CF0D12846FFF77FFC3A28DAD12B7BE2
:10237C00AC73013B2B7339462846FFF79DFE2B7B34
:10238C00C0B201332B730028C6D12846FFF777FC67
:10239C00C4B2002CD7D12846FFF766FC7D28D1D0DB
:1023AC002846FFF761FC2C28BCD1AC732846FFF7FC
:1023BC0066FCC0B20028AFD101A92846FFF707FD83
:1023CC00C0B20028A8D101993046FFF7E1FA0746C0
:1023DC000028C1D129683046FEF7B6FD0028B4D1DB
:1023EC004FF0030098E738B5044608460D46FDF754
:1023FC0091FE294602462046FEF7C4FDA368184408
:10240C00A06038BDD0E9002393423FBF5A1C426004
:10241C000022197037BF436800221A7001228368AA
:10242C00134483607047000070B505460C4619B91B
:10243C001049FFF7D8FF70BD2221FFF7E3FF013CE5
:10244C0014F8011F39B10C4B1E7876B15A788A42B8
:10245C0006D00233F8E722212846FFF7D3FFEAE73C
:10246C005C212846FFF7CEFF31462846FFF7CAFF0E
:10247C00E6E700BFEAB50008EFB500082DE9F04724
:10248C0006230E460746837252493046FEF74EFB32
:10249C00002841D0052500244FF02008DFF83891A2
:1024AC00DFF838A1314659F82500FEF735FB38B175
:1024BC0030465AF82510FEF787F90646444424B2F4
:1024CC0015F1FF354FEA6808ECD200213046FEF7D3
:1024DC0037FB30B33046FDF789FF3CA3D3E900232B
:1024EC00FEF746F8E8B1DFF8F890DFF8ECA02B0621
:1024FC0017D4314659F82500FEF722FB40B130467F
:10250C005AF82510FEF760F90646A4EB080424B22D
:10251C004FEA6808013DEAE74FF02008052504461C
:10252C00D3E73C813046FEF715FB0A2105460346EE
:10253C00DFF8B0803860092B07D9BA7AB8FBF1F80C
:10254C00013ABA72B3FBF1F3F5E72846FEF7E4F86B
:10255C0001463046FEF72EF806464046FEF7DCF8FC
:10256C0001463046FEF730F98146FEF7F3FA06468F
:10257C00FEF7D2F801464846FEF71CF80146FEF776
:10258C001BF8FEF7E7FA304440450FD278600A2179
:10259C007B68B3FBF1F201FB1233A3B997F90A3054
:1025AC00002B10DD013B7A60BB72F1E70023013593
:1025BC007B603D60002CEAD0092D81BF01230134E2
:1025CC003C813B60E3E73846BDE8F087F168E3887F
:1025DC00B5F8E43E8096184B30000020180000201F
:1025EC000000002040420F0010B50446521AFEF7BE
:1025FC00C9FCA3681844A06010BD70B586B00DF17D
:10260C0016031A460A26B1FBF6F506FB1514092922
:10261C0004F1300403F8014D04D81946FFF7E4FF28
:10262C0006B070BD2946EEE770B505468AB008467F
:10263C000C46FEF75DFA28B93F492846FFF7D3FE52
:10264C000AB070BD00212046FEF752FA48B9214667
:10265C002046FDF7B1FF01462046FEF749FA002857
:10266C00EAD100212046FEF74DFA28B12D2128464B
:10267C00FFF7C8FE04F10044214601A8FFF7FEFE57
:10268C0001992846FFF7B9FF9DF90E10E1B10A46F2
:10269C000A26029B0DF11F04013A52B2501C08D0BD
:1026AC00B3FBF6F006FB1033303304F80139034664
:1026BC00F2E7C9B208AA531A2E20C94303F8010C39
:1026CC0011442846FFF790FFBDF90C30002B17DAA8
:1026DC001A492846FFF787FE0DF126010A460A24FF
:1026EC00BDF90C305B4293FBF4F004FB1033303338
:1026FC0001F8013D03460028F5D12846FFF774FF89
:10270C00BDF90C30002B9BDD65212846FFF77AFEC6
:10271C000DF126010A460A24BDF90C3093FBF4F0A6
:10272C0004FB1033303301F8013D03B2002BF5D11B
:10273C002846FFF759FF83E7EAB50008E7B500081C
:10274C0038B5037A054603F07F03062B0C4669D097
:10275C000CD8022B11D3032B53D8D0E900122046EE
:10276C00FEF710FCA3681844A06025E00C2B1FD0CA
:10277C0005D8082B54D00A2B48D02F4955E0202BD4
:10278C0020D0402BF9D15B212046FFF73BFE2D6872
:10279C009DB121462846FFF7D3FFB5F90A3063B146
:1027AC0015EB031509D02C212046FFF72BFEEFE784
:1027BC0001682046FFF738FF38BD5D212046FFF742
:1027CC0021FEF9E77B212046FFF71CFE2D68B5B1F1
:1027DC00E9682046FFF728FE3A212046FFF712FE53
:1027EC0021462846FFF7ACFFB5F90A303BB115EB93
:1027FC00031504D02C212046FFF704FEE7E77D21CA
:10280C00DCE701682046FFF70FFED5E705682D21B0
:10281C002046FFF7F7FD29462046FFF7EEFECBE7F3
:10282C000168F9E7036823B104492046FFF7DBFD93
:10283C00C2E70349F9E700BFEAB50008E3BB0008AB
:10284C00E8BB00082DE9F04F0446D0F86024D0F81E
:10285C0064348DB09B1A4C4A4FF4006102FB03F8B0
:10286C0004A84FF0000204F13809FFF7A8F84FF460
:10287C0080620021484607F042FA05AA434909A89C
:10288C00FFF7D4F994F83C14FEF754FB94F83D345C
:10289C003F4A4049D55C09A805AAFFF7C7F9294664
:1028AC00FEF748FB05AA3C4909A8FFF7BFF9064605
:1028BC0040B1037A23F07F0343F0400303720023FB
:1028CC00C0E90033354807F04FFB4146344807F068
:1028DC00C5FA002747453ED0002E3AD005A9304610
:1028EC00FEF732FB054640B1037A23F07F0343F039
:1028FC00200303720023C0E90033D4F860B407EB63
:10290C00470A05AA27492846FFF7F6F91BF80A10CB
:10291C00FEF710FBD4F8603405AA03EB0A0B22492E
:10292C002846FFF7E9F99BF80110FEF703FBD4F8F2
:10293C00603405AA9A441D492846FFF7DDF99AF838
:10294C000210FEF7F7FA3946194807F087FA0137F3
:10295C00C0E73546D1E7002301A984F8383009A82F
:10296C0004F237440393CDE90149FFF7E9FE11481E
:10297C0007F0FAFA4946104807F070FA059807F084
:10298C0071F90DB0BDE8F08FABAAAAAAE7B70008A1
:10299C0021B50008EFB70008FEB7000809B8000819
:1029AC0026B8000841B8000846B800084DB8000821
:1029BC0052B800086EB8000878B7000870B5044625
:1029CC00194807F0D1FA94F8803433B32046FEF757
:1029DC00EDFA2046FFF736FF2046FEF713FC0146C2
:1029EC00E0B1124807F0C0FA0025114ED4F860246B
:1029FC00D4F864349B1A7343AB4209D905EB4503F5
:102A0C001A4405F10A005178FEF729F90135EDE772
:102A1C000023A4F8803484F8823470BD2046BDE8CD
:102A2C007040FEF7D1BA00BF04B7000826B7000803
:102A3C00ABAAAAAAF7B50026294D33463246314631
:102A4C000096284806F010FE2A46274C52F8021F22
:102A5C002346928803F8016B9A80244BC4F801102A
:102A6C00A360234B2349E36047F6F8732361224BA1
:102A7C0004F12C006361214B04F58867A361204BA2
:102A8C000835E3611F4B23621F4B63621F4BA3622C
:102A9C0006F03FFF0123C4F83C340FCD0FC795E877
:102AAC000F0087E80F001A4A4FF47A73C4F86C24AD
:102ABC000822A4F8386484F83A64C4F86064C4F852
:102ACC006464C4F86864C4F87064C4F8743484F83A
:102ADC007C24A4F87E34C4F8806403B0F0BD00BF3D
:102AEC0010B20008740600206401002060B20008D7
:102AFC006CB20008FDB5000884B20008A3B200084F
:102B0C00C2B20008D9B20008F2B200080FB3000834
:102B1C0068BD000808B5054BD3F8600408B106F091
:102B2C00AFFFBDE80840024806F0AEBE64010020CD
:102B3C009001002010B5794886B006F068FA00289C
:102B4C0040F3EA807549684606F05EFE684606F07A
:102B5C006BFF0099724807F081F9724903A806F0DF
:102B6C00D8FE03A9684606F035FF044603A806F014
:102B7C008BFE002C05DB6C4807F0F6F901226B4B41
:102B8C001A706B4903A806F0C4FE03A9684606F048
:102B9C0021FF044603A806F077FE002C05DB6548F0
:102BAC0007F0E2F90222614B1A70634903A806F0A0
:102BBC00B0FE03A9684606F00DFF044603A806F014
:102BCC0063FE002C05DB584807F0CEF90522574B65
:102BDC001A705A4903A806F09CFE03A9684606F031
:102BEC00F9FE044603A806F04FFE002C05DB544802
:102BFC0007F0BAF903224D4B1A70524903A806F09C
:102C0C0088FE03A9684606F0E5FE044603A806F014
:102C1C003BFE002C05DB4C4807F0A6F90422434B85
:102C2C001A704A4903A806F074FE03A9684606F018
:102C3C00D1FE044603A806F027FE002C05DB444811
:102C4C0007F092F90622394B1A70424903A806F094
:102C5C0060FE03A9684606F0BDFE044603A806F014
:102C6C0013FE002C05DB3C4807F07EF907222F4BA6
:102C7C001A703A4903A806F04CFE03A9684606F000
:102C8C00A9FE044603A806F0FFFD002C05DB344822
:102C9C0007F06AF90822254B1A70324903A806F08E
:102CAC0038FE03A9684606F095FE044603A806F014
:102CBC00EBFD002C05DB2C4807F056F909221B4BC9
:102CCC001A702A4903A806F024FE03A9684606F0E8
:102CDC0081FE044603A806F0D7FD002C05DB244832
:102CEC0007F042F90A22114B1A70224903A806F088
:102CFC0010FE03A9684606F06DFE044603A806F014
:102D0C00C3FD002C05DB1C4807F02EF90B22074BEA
:102D1C001A70684606F0B8FD06B010BD6C0C0020A9
:102D2C0078B70008ACB30008B9B300085C01002008
:102D3C00CBB30008D9B30008F3B30008FEB3000806
:102D4C0007B4000815B400081CB4000828B4000827
:102D5C002FB400083BB4000843B4000850B400087A
:102D6C005FB4000871B4000880B4000894B4000883
:102D7C00A0B40008B5B40008C1B400082DE9F04FA8
:102D8C0089B006F021F9B14C2368C01AB0F5FA7F6E
:102D9C0005D906F019F92060AD48FEF7F7FA0620C0
:102DAC0006F0ECF858B9062006F0E8F80028FAD03E
:102DBC00A84807F0D9F80121A548FEF7D1FB01205E
:102DCC0006F0DCF858B9012006F0D8F80028FAD043
:102DDC00A14807F0C9F801219D48FEF791FB00209E
:102DEC0006F0CCF850B9002006F0C8F80028FAD04C
:102DFC009A4807F033F89648FFF7E0FD032006F0F9
:102E0C00BDF858B9032006F0B9F80028FAD0944858
:102E1C0007F0AAF8FF218E48FEF76CFC022006F0A2
:102E2C00ADF8044630B98F4807F09EF82146884823
:102E3C00FEF760FC042006F0A1F8B0B9042006F0FF
:102E4C009DF80028FAD0884807F08EF8874A0021B0
:102E5C007F48FEF7DFFA864A00217D48FEF718FB13
:102E6C00844A00217A48FEF7BFFB052006F086F85D
:102E7C00B0B9052006F082F80028FAD07E4807F099
:102E8C0073F87A4A01217248FEF7C4FA784A012194
:102E9C006F48FEF7FDFA774A01216D48FEF7A4FB57
:102EAC000C2006F06BF860B90C2006F067F80028CF
:102EBC00FAD0724807F058F86E4A6C496448FEF72D
:102ECC0079FC6348FFF73CF9FFF734FE6048FEF7E6
:102EDC003BF900216A4B6B4A6B4D6C4C2B601378A1
:102EEC0021600B2B117071D1694807F03DF8694FC7
:102EFC002B68002B78DD143B38462B6006F087F8E6
:102F0C0000285FDD00246E46394602A806F07CFCE2
:102F1C00A046B246DFF888B1049B9C4229D22146D8
:102F2C0002A806F046FD3A2804F1010914D14246E4
:102F3C00234602A905A806F051FD0598FEF704FDED
:102F4C00014606F8010B584606F088FF05A8C8464E
:102F5C0006F09AFC4C46DFE7214602A806F029FD54
:102F6C002D28E4D0214602A806F023FD2028F1D11B
:102F7C00DDE7424602A905A806F030FD05A806F0DB
:102F8C005FFD06238DF8050000225146424806F0ED
:102F9C0071FE424806F0E8FF02243F4EDFF8008144
:102FAC0020463178FDF75BFE013416F8011B4046D4
:102FBC0006F054FF082CF3D105A806F065FC02A816
:102FCC0006F062FC142006F003F891E7013B092B94
:102FDC000AD8DFE803F0050F18281435676FB069BD
:102FEC0001211B48FEF7BCFA022005F0F1FF09B0E5
:102FFC00BDE8F08F01211648FEF782FAF4E7144879
:10300C00FFF7DCFCF0E7194A00211148FEF702FA41
:10301C00174A00210E48FEF73BFA0021154A0C48CE
:10302C00FEF7E2FAE0E7114A01210948FEF7F2F94E
:10303C000F4A01210648FEF72BFA0E4A0121EEE752
:10304C00FF210348FEF756FBCEE700BF7C060020AD
:10305C0064010020EEBB000807BC000825BC00087A
:10306C0034BC000840BC00084DBC000848000020DF
:10307C00500000204C0000205ABC000866BC000820
:10308C00E09304005C010020F0050020EC0500201A
:10309C0077BC00086C0C00206501002093BC000874
:1030AC002DB600080021CCE7244A25492548FEF717
:1030BC0081FB99E7244806F057FF244E244F2B68D8
:1030CC00002B91DD143B30462B6005F0A0FF00284F
:1030DC0011DD314605A806F097FB05A806F0B0FCFB
:1030EC000146206008B10A2809DD384606F0B6FE14
:1030FC0005A806F0C9FB142005F06AFFDFE71548A8
:10310C0006F0ACFE25680F4C134884F83C5406F0CE
:10311C002BFF94F83C14114806F0A0FE94F83C14D4
:10312C000020FDF79CFD04F23C40E9B2FEF7A8FC40
:10313C000B4806F019FFFDF773FD00BF4C00002093
:10314C00480000206401002077BC00086C0C0020B3
:10315C00A4BC0008BAB70008D4BC0008EDBC000839
:10316C0008BD000814220021103006F0C8BD10B5AF
:10317C000446103106F08AFA204610BD10B50446FC
:10318C00143106F083FA204610BD10B504461831F0
:10319C0006F07CFA204610BD10B50446203106F02E
:1031AC0075FA204610BD302301F8013B02F00F03E5
:1031BC00092B94BF303337330F2AC2F3071001F8B1
:1031CC00013900D870470246F0E70000002307B52C
:1031DC001A4600931946034806F046FA03B05DF808
:1031EC0004FB00BF800600202DE9F0418EB00446A0
:1031FC00884616460021202206A806F080FDFF23F3
:10320C0002A81A461946009306F02EFA4C4B04F10C
:10321C0048050493039B432204A92846059300F018
:10322C00CFFF013000F08980464B76BA0693636875
:10323C00ADF820601BBA0793802326461C2206A9F2
:10324C002846ADF8223000F0CAFF1A2200210DF1F9
:10325C001E0006F054FD56F8080F1022B388069095
:10326C0006A92846ADF81C3000F0B9FF2022002139
:10327C0006A806F044FD0627202206A9284600F0E1
:10328C00AEFF013FF8D1304B3049069340F2351375
:10329C00ADF81C303D238DF81F3040F20713ADF80C
:1032AC00203033680DF12A00CDF82230B3888DF828
:1032BC001E80ADF8263040F60C43ADF8283006F0F1
:1032CC00E8FEE27A0CA92046FFF76DFF227B0DF198
:1032DC0032012046FFF767FF627B0DA92046FFF7FE
:1032EC0062FF1E2206A9284600F079FFB8F1030FF1
:1032FC0014D140F23243ADF81830238A0C22ADF8C9
:10330C001A30638A06A9ADF81C3040F23643ADF88A
:10331C001E30E3692846089300F061FF0C4A0D4B00
:10332C0006A9CDE90623FF23092228468DF8203073
:10333C0000F055FF284600F04CFF0EB0BDE8F081C0
:10334C004CC30008010106006382536353BD00089F
:10335C0037060103060F3A3B2DE9F04391B00546C1
:10336C008846164605F030FE074605F1480420460F
:10337C0000F09CFF002809DC05F026FEC01B404530
:10338C0000F2D080322005F023FEF0E7242207A9BA
:10339C00204600F048FF9DF81C30022B40F0BD8009
:1033AC00B5F86430432B40F0B880089F06223FBA32
:1033BC00376005F108010EA806F06BFC064628B92B
:1033CC002B689F4202D36B689F4207D9204600F0BE
:1033DC0097FE0026304611B0BDE8F0830B9B0146EA
:1033EC002B61CC22204600F01EFF05F1240720465D
:1033FC0000F078FE002840F39180204600F0FCFE9F
:10340C0033287DD015DC012844D006DC0028EED012
:10341C00204600F0F1FEC2B253E0032844D0062847
:10342C00F6D1204600F0E8FE0422804605F120018A
:10343C0041E03A284AD020DC352823D03628E7D181
:10344C00204600F0D9FE05F11C084146814601A832
:10345C0006F01CF9002103A806F012F9029A049B4D
:10346C009A4230D0414605A806F010F92A6E069B08
:10347C009A4228D05FFA89F223E03B2833D0FF2808
:10348C00B5D0C5E7204600F0B7FE204600F0B4FEEC
:10349C00C6B2ACE7204600F0AFFE042205F11401E1
:1034AC00204600F0C0FEA2E7204600F0A5FE042254
:1034BC00804605F11801204600F0B5FE5FFA88F24F
:1034CC00043A0021ECE704224146E9E7204600F0EB
:1034DC0093FE042205F12801204600F0A4FEAB6AFD
:1034EC001BBAAB6283E7204600F086FE042205F18E
:1034FC002C01204600F097FEEB6A1BBAEB6276E7D4
:10350C00204600F079FE04223946204600F08BFE5E
:10351C006B6A1BBA6B622B6369E70026204600F0CE
:10352C00EFFD57E7FF2655E72DE9F34704464FF427
:10353C00FA61012006F090F92746606047F8480BC5
:10354C00384600F0DEFD4421384600F0E6FD002848
:10355C0000F0908005F038FD4FF000098046002502
:10356C004FF0030A94F84430032B1CD043BB636820
:10357C000133636005F028FD4FF47A72A0EB08006C
:10358C00B0FBF2F2012192B22046FFF72DFE01238F
:10359C0084F84430002DE5D105F016FDA36BA0EBAB
:1035AC0008009842DBD9384600F0ABFD6368013364
:1035BC00636005F009FD2064284602B0BDE8F08781
:1035CC00042B11D163680133636005F0FDFC4FF4EB
:1035DC007A72A0EB0800B0FBF2F2032192B2204603
:1035EC00FFF702FE0223D3E7012B19D101AAE16BED
:1035FC002046FFF7B1FE0228064638D1019B6360D6
:10360C0005F0E2FC4FF47A72A0EB0800B0FBF2F28A
:10361C00032192B22046FFF7E7FD84F84460B9E736
:10362C00022BB7D101AAE16B2046FFF795FE0528C6
:10363C00064617D1636A84F844A013B94FF461733A
:10364C006362A36A13B9636A5B08A362E36A1BB97A
:10365C00636AA3EBD303E362A36A01252363E36AE2
:10366C0063637FE7062802D184F8449092E7FF2E2B
:10367C00FAD08FE705469FE7F8B500250F460446BC
:10368C00C0E90955C562C0E90E2385608581FFF745
:10369C0069FD3B682046A360BB8884F84450A38135
:1036AC00BDE8F840FFF740BF4B684360002303813F
:1036BC00704770B500242346013911F8010FB8B1D9
:1036CC00A0F13005EEB2092E08D803EB830305EB0D
:1036DC0043039BB2FF2BF0D900200DE02E28FBD129
:1036EC00032CF9D0601C14442371C4B20023E4E70A
:1036FC00032C01D10120D37170BD0000002307B54C
:10370C001A4600931946034805F0AEFF03B05DF866
:10371C0004FB00BF880600202DE9F34106460D4648
:10372C0005F052FC06F10C04308106F1080102226E
:10373C00204600F054FD012302220DF10601204623
:10374C00ADF8063000F04BFD4FF4807302220DF102
:10375C0006012046ADF8063000F041FD00230222A0
:10376C000DF106012046ADF8063000F038FD0222BE
:10377C000DF10601204600F032FD02220DF106018A
:10378C00204600F02CFD2E462B78E3B135462F4613
:10379C0017F8013B0BB12E2B13D1A5EB0608B8F192
:1037AC00000F0CDD01220DF1050120468DF805807E
:1037BC0000F015FD42463146204600F010FD3E4615
:1037CC00E2E73D46E3E74FF480750DF10501012278
:1037DC0020468DF8053000F002FD0DF106010222A5
:1037EC002046ADF8065000F0FAFC02220DF106015D
:1037FC002046ADF8065000F0F2FC012002B0BDE806
:10380C00F0812DE9F04387B006460F46904605F04F
:10381C00DBFB054606F10C04204600F047FD0028B2
:10382C0009DC05F0D1FB401BB84200F2C980322004
:10383C0005F0CEFBF0E7726A73689A4240F0C380E1
:10384C00338D352B40F0BF80204600F04BFC0B280D
:10385C0040F3BC800C2220460DEB020100F0E3FC8F
:10386C00BDF80E203189130A43EA0223BDF80C205F
:10387C001BB29DB29142ADF8065001D1002B07DB73
:10388C00204600F03DFC4FF6FC7007B0BDE8F0831D
:10389C0040F20F231D4005D0204600F031FC4FF6BE
:1038AC00FB70F2E7BDF812301E0A46EA0326B6B2E8
:1038BC002EB9204600F024FC4FF6FA70E5E7BDF86F
:1038CC001030AAB25BBA9BB29A4218DA01220DF1FF
:1038DC000A01204600F0A7FC9DF80A2032B9042208
:1038EC000021204600F09FFC0135E8E7002120462E
:1038FC0000F099FC9DF80A30002BE7D1EFE7002788
:10390C00B94601220DF10501204600F08CFC9DF812
:10391C00052012F0C00134D132B1204600F083FCF6
:10392C009DF80530002BECD1022202A9204600F0B4
:10393C007AFC02220DF10A01204600F074FC0422EC
:10394C000021204600F06FFC02220DF106012046FA
:10395C0000F069FCBDF80830BDF80620B3F5807F97
:10396C0017D052BA92B200212046013700F05BFC0E
:10397C00BBB2B342C5D3204600F0C2FB4FF6F67083
:10398C0083E701220021204600F04DFC8DF80590C4
:10399C00CAE7BDF80A0040BA85B2012DE1D152BA8E
:1039AC0092B2042A05D0204600F0AAFB4FF6F7701D
:1039BC006BE708F10401204600F035FC284664E76B
:1039CC004FF6FF7061E74FF6FE705EE74FF6FD7045
:1039DC005BE700002DE9F7430546894690461F46F4
:1039EC00FFF767FE044688BB1B4B6A685B689A420C
:1039FC002ED005F0E9FA05F10C0600F00F0101F5E7
:103A0C008061304600F089FB01281BD1134B352215
:103A1C0000936B6869463046019300F0D1FB70B19E
:103A2C0049462846FFF778FE48B1304600F0D1FBF6
:103A3C0028B1424639462846FFF7E3FE0446304695
:103A4C0000F05FFB204603B0BDE8F0830124F9E7EA
:103A5C006FF00104F6E700BF880600204CC3000895
:103A6C0002F1FF3C4160DCF1000141EB0C01817281
:103A7C0002720BB9437205E0012BFBD0022BF9D07B
:103A8C00032BF7D0704710B586B003AC84E80E005A
:103A9C00059B2321009394E80C0001F0B9FC06B0BF
:103AAC0010BD232101F0EEBC01460422012001F0DF
:103ABC007BB901460422052001F076B901460622A5
:103ACC00092001F071B9014604220F2001F06CB9F4
:103ADC002DE9F0433C4E87B03368054613F00103E3
:103AEC0088469146394C0ED1E3644FF47A732365C2
:103AFC00374B04F15C00A36405F0AEFD082384F899
:103B0C00683001233360334E346001F02BFB002806
:103B1C0058D0002703AC002301222F492046FFF781
:103B2C009FFF94E80E002D48FFF7ADFF2846FFF7E6
:103B3C00C5FF3B463A4639460097204605F094FDB2
:103B4C0004A8FFF7C0FF2548FFF7ABFF29464B46FB
:103B5C0042463068FFF790FD012805462ED10246FB
:103B6C003B461D492046FFF77BFF94E80E001B489F
:103B7C00FFF789FF31682046FFF7F9FA04A8FFF731
:103B8C00A2FF31682046FFF700FB04A8FFF78CFF6B
:103B9C0031682046FFF7F2FA04A8FFF78AFF0F48B6
:103BAC00FFF77FFF31682046FFF7F6FA049A0C4BBB
:103BBC005A6005F00BFA80B200F0B4FC284607B04E
:103BCC00BDE8F0830546F9E790060020A806002022
:103BDC00CCBD0008A4060020809FD50090070020D3
:103BEC009C060020014B1870704700BF5600002047
:103BFC0008B501F029FB012803D002280CBF0220D4
:103C0C00002008BD044B1B78333BDBB2042B9ABF5E
:103C1C00024AD05C002070478D0700205ABD000876
:103C2C007FB50D4E01AC054605F016FD00230122B3
:103C3C000A492046FFF714FF94E80E003046FFF7C0
:103C4C0022FF04220F20A91801F06EF93046FFF76D
:103C5C0028FF284604B070BD90070020809FD50037
:103C6C00002307B51A4600931946044805F0FCFCDE
:103C7C00034803B05DF804EB05F0EEBC940600209D
:103C8C009C060020007C07288CBF00200120704778
:103C9C0081F0010070470846704708B503685B6CFB
:103CAC00984780F00100C0B208BD4182704707B54B
:103CBC0003688DF807105B6801220DF10701984726
:103CCC0003B05DF804FB037C087C984204D1072800
:103CDC008CBF0020012070470020704710B50446AF
:103CEC00007C072816D800F07DFD182809D91C285F
:103CFC000ED1236820469B689847003018BF0120DE
:103D0C0005E0054B23FA00F0C04300F0010010BDA4
:103D1C000120FCE70020FAE701001001F0B591B09A
:103D2C00044604A80F46164605F096FC00224FF4F4
:103D3C007A73CDE90823194B0CA8079305F08CFC7A
:103D4C00082368468DF83C3005F086FC207C07285B
:103D5C0007D800F047FD10B1207C00F0A5FD08232A
:103D6C0023740F4B0F4D5B6802A904A803930295B3
:103D7C00FFF79AFC41F288336A46394604A8FFF7EC
:103D8C0029FE40B1019A236802A91B6A20460392BE
:103D9C0002953246984711B0F0BD00BFCCBD00086B
:103DAC009C0600204CC3000808B5007C072802D8EC
:103DBC0000F006FF08BD0020FCE710B50446207C8F
:103DCC0007280BD800F00EFD172801D01C2805D1B0
:103DDC00207C00F0F5FEB0F5006FF0D310BD38B5C7
:103DEC000546007C1446072805D892B200F06CFEFC
:103DFC0010B901236B600024204638BD08B5007C47
:103E0C00072802D800F006FE08BD0020FCE7007C65
:103E1C00072802D812B200F063BD0020704707B526
:103E2C0001220DF10701007C00F05AFD0028D4BFDF
:103E3C004FF0FF309DF8070003B05DF804FB10B5A0
:103E4C00037C0446072B02D94FF0FF3010BD0368EA
:103E5C009B6898470028F7D0207C00F009FEF5E716
:103E6C0038B50446007C07280AD800F01DFD05F083
:103E7C00ABF80546207C00F0B5FC10B90823237480
:103E8C0038BD012005F0A4F805F09EF8638A401BAC
:103E9C009842EFD3207C00F0C3FCEFE77FB50446DB
:103EAC00007C0D460728164607D800F09BFC10B185
:103EBC00207C00F0F9FC082323740021684605F0EF
:103ECC00DFFB6A68019B9A4202D1002004B070BDEE
:103EDC004FF0FF3102A805F0D3FB6A68039B9A42AE
:103EEC00F3D00021212000F027FB07282074ECD808
:103EFC00291D324600F0B0FC05F066F80546207C22
:103F0C0000F070FC172813D01C2811D00028DCD02E
:103F1C0005F05AF8638A401B984203D8012005F03B
:103F2C0057F8ECE7207C00F07BFC08232374CCE7EB
:103F3C000120CBE710B41446054A127801EB02219C
:103F4C0001EB00201A46214680B210BC00F0ECBFF9
:103F5C008C07002070B5037C88B0072B064626D84A
:103F6C0002AD05AC0023012212492846FFF778FD6B
:103F7C0095E8070084E80700079B2321009394E849
:103F8C000C000D4801F044FA022322460421307C37
:103F9C00FFF7D0FF9DF814309DF8154023210648FB
:103FAC0044EA032401F06EFA204608B070BD0024E8
:103FBC00FAE700BF809FD50090070020F0B50B7C7E
:103FCC0089B0072B06460F4605D9002105F058FB92
:103FDC00304609B0F0BD02AD05AC002301220F49FB
:103FEC002846FFF73DFD95E8070084E80700079B8E
:103FFC002321009394E80C00094801F009FA0423EA
:10400C0022460C21387CFFF795FF2321044801F050
:10401C0039FA2146304605F039FBD9E7809FD500A7
:10402C009007002070B5037C88B0072B064626D875
:10403C0002AD05AC0023012212492846FFF710FD02
:10404C0095E8070084E80700079B2321009394E878
:10405C000C000D4801F0DCF9022322461021307CC3
:10406C00FFF768FF9DF814309DF815402321064892
:10407C0044EA032401F006FA204608B070BD00247F
:10408C00FAE700BF809FD50090070020002307B5FA
:10409C001A4600931946034805F0E6FA03B05DF89A
:1040AC0004FB00BF14070020002307B51A46009339
:1040BC001946034805F0D8FA03B05DF804FB00BFBD
:1040CC001C0700200368DB6B18470000024A0260E3
:1040DC008A694260704700BF4CC30008808B7047F0
:1040EC00008A7047408C704707B503688DF807103D
:1040FC005B6801220DF10701984703B05DF804FBE2
:10410C00704710B5044690F82000072804D800F03A
:10411C0087FB082384F8203010BD38B5044690F88E
:10412C0020000D46072801D800F07AFB2946022012
:10413C0000F002FA072884F820004FF000009EBF20
:10414C0025826084012038BDF0B591B0044604A8E6
:10415C000F46164605F080FA00224FF47A73CDE92B
:10416C000823144B0CA8079305F076FA082368462D
:10417C008DF83C3005F070FA0F4B104D5B6802A9BE
:10418C0004A803930295FFF78FFA41F288336A462D
:10419C00394604A8FFF71EFC012808D1019A2368B0
:1041AC0002A9DB6A2046039202953246984711B069
:1041BC00F0BD00BFCCBD00089C0600204CC300081D
:1041CC0008B500230431C38390F8200000F04AFDA9
:1041DC0008BD08B590F8200000F072FD08BD10B5C0
:1041EC00044693B20A46C18B90F8200000F00EFDF5
:1041FC00E38B0344E38310BD13B5438C04461BB916
:10420C004FF0FF3002B010BD01220DF1070190F804
:10421C00200000F065FB0028F2DD638C9DF80700A0
:10422C00013B6384EEE710B5438C044613B94FF0A1
:10423C00FF3010BD934294BF1AB212B290F8200016
:10424C0000F04EFB0028F2DD638C1B1A6384F0E750
:10425C0008B590F82030072B05D8428C1AB11846B7
:10426C0000F006FC08BD4FF0FF30FBE773B50446C9
:10427C0090F820000E460728154601D800F0D0FA19
:10428C00094B2A460093736869468220019300F01B
:10429C00EDF9072884F820004FF000009EBF6084E1
:1042AC000120258202B070BD4CC3000813B5044632
:1042BC00628C2AB123680021DB6B20469847F7E714
:1042CC0094F8200000F0A6FBD8B10822694694F8B7
:1042DC00200000F005FB002813DD694604F11400F2
:1042EC0005F0DCF99DF804209DF805309DF80700D9
:1042FC0003EB0223A3839DF8063000EB032080B26E
:10430C00608402B010BD0000002307B51A4600936C
:10431C001946034805F0A8F903B05DF804FB00BF8B
:10432C003407002007B5084B01221B7801EB032151
:10433C0001EB002080B20DF1070100F0F5FD9DF8B6
:10434C00070003B05DF804FB8C07002007B5094B90
:10435C008DF807201B78012201EB032101EB0020D3
:10436C0080B20DF1070100F01FFDC0B203B05DF883
:10437C0004FB00BF8C07002010B41446054A1278C9
:10438C0001EB022101EB00201A46214680B210BC41
:10439C0000F00ABD8C0700202DE9F3470C460646B9
:1043AC0090461F4601AA02232421FFF7C3FD9DF866
:1043BC0004209DF8053043EA0223204A1C4413785C
:1043CC00A4B2332B0CBF06F1080006F11000C0029A
:1043DC00C4F30A0580B22844372B914680B22AD008
:1043EC00EB19B3F5006F26DDC5F5006A1FFA8AFAE2
:1043FC005246414600F0D8FC99F80030A7F500620F
:10440C00332B0CBF06F1080006F11000C0022A4441
:10441C0080B292B208EB0A013C4400F0C5FC64BACD
:10442C00022301AA24213046ADF80440FFF7A4FF73
:10443C0002B0BDE8F0873A464146EDE78D07002013
:10444C0008B50321FFF76EFF08BD07B549BAADF8F3
:10445C000410022301AA0421FFF78EFF03B05DF8BC
:10446C0004FB08B50A4604230C21FFF785FF08BDA1
:10447C0007B549BAADF80410022301AA1021FFF7C1
:10448C007BFF03B05DF804FB07B5022301AA2021D2
:10449C00FFF750FD9DF804009DF8053043EA00201D
:1044AC0003B05DF804FB000038B50546FFF7ECFFE0
:1044BC0004462846FFF7E8FF8442034604D1034B29
:1044CC0003EBC5039C8038BD1C46F2E74407002073
:1044DC0007B5022301AA2621FFF72CFD9DF8040045
:1044EC009DF8053043EA002003B05DF804FB07B5E6
:1044FC00022301AA2821FFF71DFD9DF804009DF859
:10450C00053043EA002003B05DF804FB044B1B7834
:10451C00332B0CBF0C301830C00280B2704700BF78
:10452C008D070020034BC0F30D001A8850401880F3
:10453C00704700BF540000202DE9FF47424B07464F
:10454C001B780E46B3B301AD332B4FF001024FF085
:10455C0000033E49284614BF4FF008084FF00408EA
:10456C00FFF77EFA95E80E003948FFF78CFAAA4659
:10457C004FF000095FFA89F42046FFF761FF0AF853
:10458C00010BE8B109F101095FFA89F39845F1D8FB
:10459C0000244FF0345215F8013B1D2B03D822FA9E
:1045AC0003F3DB0708D40134E4B2A045F3D1284867
:1045BC00FFF777FA082436E01021204600F098FE29
:1045CC000022244B23F81420234A244B1168244A3C
:1045DC005868B1FBF2F2FA2151435A68121A91420F
:1045EC00FBDC3A4600212046FFF7B0FEFF220221F9
:1045FC002046FFF7ABFED6B1314600262046194DBA
:10460C00FFF723FF0121204600F072FE25F83460ED
:10461C002046FFF76CFF05EBC40358809E719E800B
:10462C000B48FFF73EFA204604B0BDE8F0870E4B6E
:10463C001A88013292B2B2F5404F38BF4FF4404263
:10464C001A801988D9E700BF8D070020809FD500FC
:10465C00900700202407002070000020001000E0CC
:10466C0040420F0044070020540000202DE9F04F79
:10467C00534B87B01B7880460D461646B3B303AF39
:10468C00332B4FF001024FF000034E49384614BF54
:10469C004FF008094FF00409FFF7E2F997E80E0014
:1046AC004948FFF7F0F9BB464FF0000A5FFA8AF46D
:1046BC002046FFF7C5FE0BF8010BE8B10AF1010A21
:1046CC005FFA8AF39945F1D800244FF0345217F869
:1046DC00013B1D2B03D822FA03F3DB0708D401346A
:1046EC00E4B2A145F3D13848FFF7DBF9082456E0D2
:1046FC001021204600F0FCFD0022344B23F814203E
:10470C00334A344B1168344A5868B1FBF2F2FA213F
:10471C0051435A68121A9142FBDC42460021204652
:10472C00FFF714FEFF2202212046FFF70FFE002E9A
:10473C0039D031462046FFF788FE5E2301278DF8DD
:10474C0006306B79291D03F07F038DF80730AB79A8
:10475C0020468DF80830EB79ADF804708DF80930EF
:10476C00FFF77FFE31462046FFF782FE0623002628
:10477C00194601AA194D2046FFF7FEFD3946204681
:10478C0000F0B6FD25F834602046FFF7B0FE05EBCF
:10479C00C40358809E719E800B48FFF782F9204617
:1047AC0007B0BDE8F08F0E4B1A88013292B2B2F509
:1047BC00404F38BF4FF440421A801988BAE700BF07
:1047CC008D070020809FD500900700202407002033
:1047DC0070000020001000E040420F004407002051
:1047EC00540000207FB5064601AC0B4D002301227E
:1047FC000A492046FFF734F994E80E002846FFF7E3
:10480C0042F93046FFF71CFE04462846FFF749F9EB
:10481C00204604B070BD00BF90070020809FD500DB
:10482C007FB5064601AC0A4D0023012209492046FA
:10483C00FFF716F994E80E002846FFF724F910212B
:10484C00304600F055FD2846FFF72BF904B070BD3B
:10485C0090070020809FD5002DE9FF410546884632
:10486C00174601AC0E4E002301220E492046FFF7DD
:10487C00F7F894E80E003046FFF705F94146284654
:10488C00FFF7EFFD39462846FFF7F2FD04212846D5
:10489C0000F02EFD3046FFF704F904B0BDE8F081BE
:1048AC0090070020809FD5007FB5064601AC0A4DCD
:1048BC000023012209492046FFF7D2F894E80E00A4
:1048CC002846FFF7E0F80821304600F011FD284695
:1048DC00FFF7E7F804B070BD90070020809FD5006B
:1048EC002DE9F04F174687B0464E0DF10C0936F8FE
:1048FC0030400023012205468A4648464249FFF7CC
:10490C00AFF899E80E004148FFF7BDF8A7420EDD5D
:10491C002846FFF7DDFD04462846FFF7D9FDA042E7
:10492C00F9D106EBC5039B79E41A26F835408CB90E
:10493C002846FFF785FD142805D020B1B0F11C04E2
:10494C0018BF4FF0FF343148FFF7ABF8204607B0E3
:10495C00BDE8F08FBC42A8BF3C464FEAC50B06EB46
:10496C000B035B88A7B20093BAF1000F23D0284643
:10497C00C3F30A08FFF7CAFD254B40441B7880B2ED
:10498C00372B3BD03B464344B3F5006F36DDC8F5BF
:10499C0000639BB21A465146019300F0C5FA019B85
:1049AC0028469A44FFF7B2FDA8F500623A4492B249
:1049BC00514600F0B9FA06EB0B0136F83520009B96
:1049CC0088793B44D21B0744BFB29BB292B2F92FF9
:1049DC004B8026F8352000D892B900225E445BBA91
:1049EC00B271ADF80C304A46022328212846FFF755
:1049FC00C3FC4021284600F07BFCA4E73A46D7E7ED
:104A0C008F71A0E744070020809FD50090070020FD
:104A1C008D0700207FB5134D064635F83030EBB9C5
:104A2C0001AC012210492046FFF71AF894E80E0059
:104A3C000E48FFF728F83046FFF74AFD044630468B
:104A4C00FFF746FDA042F9D10848FFF72AF805EB1D
:104A5C00C6039B79E31A9BB225F83630184604B08E
:104A6C0070BD00BF44070020809FD5009007002038
:104A7C007FB5064601AC114D00230122104920469A
:104A8C00FEF7EEFF94E80E002846FEF7FCFF3046DA
:104A9C00FFF73CFD0B4B012203EBC6035B88214661
:104AAC00C3F30A03184480B200F03EFA2846FEF71E
:104ABC00F8FF9DF8040004B070BD00BF9007002003
:104ACC00809FD50044070020B2F5006F28BF4FF43B
:104ADC0000622DE9F04F05468946164685B0DFF891
:104AEC00DCB0354F01AC0023012259462046FEF7BD
:104AFC00B7FF94E80E003846FEF7C5FF2846FFF7CF
:104B0C00D3FC82462846FFF79BFC80463846FEF7CE
:104B1C00C8FFB8F1170F02D0B8F11C0F2FD100F05D
:104B2C00BEFDB245DFD30023012224492046FEF707
:104B3C0097FF94E80E002048FEF7A5FF4A4633463F
:104B4C0000212846FFF728FC2021284600F0D0FB46
:104B5C00194FDFF8689002212846FFF7E3FB10F0AD
:104B6C00100A1FD12846FFF76BFC804648B9124843
:104B7C00FEF797FF4646304605B0BDE8F08F00269D
:104B8C00D1E73846FEF78DFF00F089FD53464946C4
:104B9C0001222046FEF764FF94E80E003846FEF72B
:104BAC0072FFD8E7102202212846FFF7CFFB0248FC
:104BBC00FEF777FFDFE700BF90070020809FD5004E
:104BCC0030B5054685B001AC002301220D492046C5
:104BDC00FEF746FF94E80E000B48FEF754FF2846FC
:104BEC00FFF762FC04462846FFF72AFC05460648F8
:104BFC00FEF757FF172D02D01C2D18BF002420469E
:104C0C0005B030BD809FD500900700202DE9F04302
:104C1C00074685B001AD114E1C46884691460023CF
:104C2C0001220F492846FEF71BFF95E80E0030467F
:104C3C00FEF729FF3846FFF737FC844228BF0446AD
:104C4C00A4B223464A4641463846FFF7A5FB3046F8
:104C5C00FEF727FF204605B0BDE8F0839007002043
:104C6C00809FD500F0B50B7885B007460D461446ED
:104C7C002BB94B781BB98B780BB9C878C0B1CCB1B8
:104C8C0001AE002301220C493046FEF7E9FE96E8FE
:104C9C000E000A48FEF7F7FE29463846FFF7E1FBFF
:104CAC0021463846FFF7E4FB0448FEF7FAFE0120E4
:104CBC0005B0F0BD2046FBE7809FD5009007002093
:104CCC002DE9F043054685B001AC002301222249B1
:104CDC002046FEF7C5FE94E80E002048FEF7D3FEF2
:104CEC002021284600F004FB1C4FDFF86C800221C9
:104CFC002846FFF717FB10F0100623D10221284697
:104D0C00FFF710FB10F008090BD0182202212846DF
:104D1C00FFF71CFB1148FEF7C4FE304605B0BDE89A
:104D2C00F0833846FEF7BDFE00F0B9FC4B46414619
:104D3C0001222046FEF794FE94E80E003846FEF75A
:104D4C00A2FED4E7102202212846FFF7FFFA0348FF
:104D5C00FEF7A7FE0120E1E7809FD5009007002019
:104D6C00002307B51A4600931946034804F07CFC4F
:104D7C0003B05DF804FB00BF3C07002013460A4655
:104D8C00232100F09DBB0000024B0021187804F099
:104D9C00D1B800BF56000020024B0121187804F056
:104DAC00C9B800BF560000202DE9FF41534B044603
:104DBC001B780D46332B164623D100EB0208504FBF
:104DCC004D1E1FFA88F8A0457DD0FFF7DDFF0122AC
:104DDC00F0213846FFF7D2FF210A01223846FFF7AF
:104DEC00CDFFE1B201223846FFF7C8FF01340122A2
:104DFC0015F8011F3846A4B2FFF7C0FFFFF7CCFF30
:104E0C00E1E7342BC7B21ED1FFF7BEFF330A63F0C4
:104E1C007F038DF80A30012364BA009302AA04239D
:104E2C0023213748ADF808408DF80B6000F090FB5B
:104E3C00334CAF19AF4244D0012215F8011B204668
:104E4C00FFF79CFFF6E7FFF79FFFFF2C08D8002326
:104E5C008DF8083004238DF809708DF80A300DE0B8
:104E6C00230417D40023E41024F01F0444F00C0492
:104E7C008DF808308DF809708DF80A40052E26D86B
:104E8C000023B34215DAE95C04AA1A4402F8051CA3
:104E9C000133F6E744F38713B4F5404F23F01F03B7
:104EAC0064BAADF8084034BF43F0140343F01C035C
:104EBC00D3E7012302AA00932321F31C104800F02E
:104ECC0047FBFFF769FF304604B0BDE8F0810123D2
:104EDC0002AA009323210323094800F039FB731E17
:104EEC009BB2074F6C1E1D4414F8011F012238465B
:104EFC00FFF744FFAC42F7D1E3E700BF8D0700207A
:104F0C009007002007B501228DF807100DF107015D
:104F1C00FFF74AFFC0B203B05DF804FB08B50146C9
:104F2C000020FFF7EFFF08BD2DE9FF41404B044681
:104F3C001B780E46332B154624D100EB02083D4F4F
:104F4C004E1E1FFA88F8A04540D0FFF71DFF012226
:104F5C000F213846FFF712FF210A01223846FFF7CE
:104F6C000DFFE1B201223846FFF708FF01220021B4
:104F7C003846FFF703FF013406F8010FA4B2FFF720
:104F8C000BFFE0E7342BC7B224D164BAFFF7FCFE69
:104F9C00C5F30623ADF80C4001248DF80E30042324
:104FAC008DF80F50009403AA2321224800F0D0FA68
:104FBC002A460021304604F0A2FE2B46324623211D
:104FCC001C48009400F0C4FAFFF7E6FE284604B033
:104FDC00BDE8F081FFF7D8FEFF2C07D800238DF831
:104FEC000D708DF80C308DF80E300DE023040FD4BD
:104FFC000023E41024F01F0444F008048DF80C3056
:10500C008DF80D708DF80E40012403230094CAE72F
:10501C0044F38713B4F5404F23F01F0364BAADF883
:10502C000C4034BF43F0100343F01803DBE700BF20
:10503C008D0700209007002007B501220DF1070114
:10504C00FFF772FF9DF8070003B05DF804FB08B58D
:10505C000020FFF7F1FF08BD10B58020FFF75EFFC1
:10506C001424FFF7F4FF40B1013C0120A4B203F07B
:10507C00AFFF002CF5D1204610BD0120FCE700004D
:10508C00332208B50E4B1A70FFF7E6FF08B9002063
:10509C0008BD1020FFF742FFFFF7D9FF1028F6D10B
:1050AC001220FFF73BFFFFF7D2FF1228EFD10020B1
:1050BC00FFF734FFFFF7CBFFB0FA80F04009E7E7CA
:1050CC008D070020342208B5114B1A70FFF7C4FF6E
:1050DC0008B9002008BD0820FFF720FFFFF7B7FF35
:1050EC000828F6D11020FFF719FFFFF7B0FF1028A2
:1050FC00EFD10020FFF712FFFFF7A9FF0028E8D13E
:10510C001F20FFF799FFC31E58425841E2E700BF2A
:10511C008D070020372208B5114B1A70FFF79CFF42
:10512C0008B9002008BD0820FFF7F8FEFFF78FFF35
:10513C000828F6D11020FFF7F1FEFFF788FF1028A2
:10514C00EFD10020FFF7EAFEFFF781FF0028E8D13E
:10515C003920FFF771FF031F58425841E2E700BFA7
:10516C008D07002070B5324E88B03478002C5CD19D
:10517C004FF40C7003F02CFF23212E4800F020F983
:10518C002D4B0121187802AD03F086FEFFF704FECB
:10519C002346012229492846FEF762FC95E80700C0
:1051AC0005AB83E80700079A232100920CCB21481A
:1051BC0000F02EF9FFF786FFB8B14022204B1A7091
:1051CC00E5B202221E212846FFF7C0F80134022264
:1051DC001F212846FFF7BAF8082CF1D1012423210E
:1051EC00144800F04FF934701CE0FFF793FF18B12E
:1051FC001022134B1A70F1E7FFF742FF044658B127
:10520C0004220F4B55211B201A70FFF77BFE5521F2
:10521C001A20FFF777FEE1E70A4B232118700548A7
:10522C0000F030F9204608B070BD0124FAE700BF49
:10523C008E0700209007002056000020809FD5008C
:10524C008C0700208D07002010B588B0FFF78AFF6F
:10525C0030B1244B1B78342B04D0372B23D00020B7
:10526C0008B010BD02AC002301221F492046FEF7F6
:10527C00F7FB94E8070005AB83E80700079A2321A6
:10528C0000920CCB194800F0C3F83520FFF7D4FE80
:10529C0004462321154800F0F5F814F0200F0CBF3C
:1052AC0002200120DCE702AC002301220E4920463B
:1052BC00FEF7D6FB94E8070005AB83E80700079AD6
:1052CC00232100920CCB094800F0A2F82E20FFF706
:1052DC00B3FE04462321054800F0D4F814F0010F66
:1052EC00DDE700BF8D070020809FD50090070020D0
:1052FC0038B50A4604460121FFF728F8054D24026B
:10530C00287804EB0020013080B2FFF795FE0028CE
:10531C00F6D138BD8C070020002307B51A46009340
:10532C001946034804F0A0F903B05DF804FB00BF74
:10533C0084070020232970B504461BD800230C25B4
:10534C0005FB03F6A65FD8B2B1420DD00133042B96
:10535C00F6D1012A0CD100230C2505FB03F2A65E25
:10536C00D8B2013601D1A15270BD0133042BF4D156
:10537C001846F9E70420F7E770B503464FF6FF72BD
:10538C00012100250C4E00F130041A805E60197268
:10539C0099725D720C33A342F7D1084B0286998E39
:1053AC00A0F89010D98EA0F892105B8EA0F89620E1
:1053BC00A0F8943070BD00BF00093D008CC00008FF
:1053CC00232970B505460E4621D80122FFF7B2FFFE
:1053DC00032804461BD8232E0BD0B5F99630013385
:1053EC0007D10121304603F057FD0121304603F06F
:1053FC00A1FD0C20002300FB045085F88530837A36
:10540C00427A416805F1340002F0E4FF2E8670BD4B
:10541C0082B0F8B5232906AC06460F4684E80C008A
:10542C002CD80122FFF786FF0328054626D80C242A
:10543C0004FB0064079BBDF8202063609DF82030BE
:10544C0022815A1E53425341232FA3720BD0B6F91B
:10545C009630013307D10121384603F01DFD01219F
:10546C00384603F067FD0C2303FB05656168AB7AD6
:10547C006A7A06F1340002F0ADFF3786BDE8F840D9
:10548C0002B070472329F0B516D803464FF6FF75C6
:10549C0001220027094E00F13004B3F900C08C45FD
:1054AC0004D11D805E601A729A725F720C33A34233
:1054BC00F3D14FF6FF730386F0BD00BF00093D002A
:1054CC0070B586B08DF80F200022232905460C46B6
:1054DC001E468DF8172039D8B0F93030994212D0C9
:1054EC00FFF728FF032803D99DF8170006B070BDFD
:1054FC000C2303FB0050837A427A416805F1340097
:10550C0002F068FF2C86232C07D0B5F996300133B6
:10551C0003D10021204603F00DFD4FF47A730DF1F9
:10552C00170200930DF10F01012305F1340003F074
:10553C0075F8232CD8D0012ED6D1B5F9963001337D
:10554C00D2D13146204603F0F5FCCDE71046CDE72D
:10555C002DE9F34105460C4617469DF82060984608
:10556C00002B3BD0002A39D0232937D8B0F9303062
:10557C0099420FD00022FFF7DDFE03282ED80C2312
:10558C0003FB0050837A427A416805F1340002F043
:10559C0021FF2C86232C07D0B5F99630013303D18B
:1055AC000021204603F0C6FC4FF47A733A46009370
:1055BC0039461FFA88F305F1340003F02FF8232C39
:1055CC000CD0012E0AD1B5F99630013306D13146F3
:1055DC00204602B0BDE8F04103F0ACBC02B0BDE81F
:1055EC00F08100000148FFF7C7BE00BF9007002004
:1055FC0010B54FF480330122022494B0CDE90A2374
:10560C000021CDE911434FF4E0130AA80C910E923E
:10561C00139301F0E3F800B1FEE70F23CDE9053455
:10562C004FF480630790CDE90830214605A801F0BE
:10563C00ADFA00B1FEE7122301934FF40043CDE91C
:10564C00033001A801F07CFB00B1FEE714B010BDE3
:10565C00002103E00B4B5B58435004310A480B4BC1
:10566C0042189A42F6D30A4A02E0002342F8043B5D
:10567C00084B9A42F9D303F02DF804F0C7FA04F062
:10568C00EDF9704730C500080000002040010020F3
:10569C0040010020F80E0020FEE702F00BBC704722
:1056AC007047000038B50E4B054618784FF47A73E6
:1056BC00B3FBF0F30B4A1068B0FBF3F000F0A2F868
:1056CC00044658B90F2D09D8024629464FF0FF3031
:1056DC0000F042F82046044B1D6038BD0120FCE769
:1056EC00570000207000002058000020074A08B521
:1056FC001368032043F01003136000F01BF8002024
:10570C00FFF7D0FFFFF7CCFF002008BD00200240C0
:10571C00034A044B11681B780B441360704700BF9D
:10572C00C40E002057000020014B1868704700BFC2
:10573C00C40E0020074A0002D36800F4E06023F492
:10574C00E0631B041B0C184340F0BF6040F40030B6
:10575C00D060704700ED00E0174B70B5DC684FF07F
:10576C00FF36C4F30224C4F10705042D04F104032D
:10577C0028BF0425062B98BF002406FA05F588BF20
:10578C00033C21EA0501A14006FA04F422EA0403D1
:10579C00002843EA0103A8BF00F160404FEA03135D
:1057AC00B8BF064ADBB2ABBF00F5614000F00F009A
:1057BC0080F80033135470BD00ED00E014ED00E0F0
:1057CC00002808DB0123420900F01F0003FA00F057
:1057DC00014B43F82200704700E100E000280DDB8C
:1057EC000122430900F01F0002FA00F0044A2033A2
:1057FC0042F82300BFF34F8FBFF36F8F704700BF8A
:10580C0000E100E00138B0F1807F0AD2F021064BB4
:10581C00064A586082F823100020072298601A600C
:10582C0070470120704700BF10E000E000ED00E081
:10583C00002809DB0122430900F01F0002FA00F0E6
:10584C00024A603342F82300704700BF00E100E0D9
:10585C00704708B5FFF7FCFF08BD000008B590F8CD
:10586C002130022B03D004238363012008BD03687D
:10587C001A6822F00E021A601A6822F001021A60ED
:10588C00174A93421CD0143293421BD014329342C9
:10589C001AD0143293421AD0143293421AD01432C2
:1058AC0093420CBF4FF480134FF080730D4A53603A
:1058BC004FF480730384436B7BB198470020D5E78A
:1058CC000123F3E71023F1E74FF48073EEE74FF475
:1058DC008053EBE74FF48033E8E71846C6E700BF88
:1058EC00080002400000024090F8210070470000C0
:1058FC00114AD36813F0100305D01049CB6943F05B
:10590C000203CB611023D268500706D50B4943F034
:10591C000403CA6942F00102CA61074AD169C90786
:10592C0008D50648C16941F00401C161D16921F073
:10593C000101D161D360704700200240C80E0020E5
:10594C00064B186910F0800007D0054A5A6002F126
:10595C0088325A601869C0F3C010704700200240AA
:10596C0023016745034A0020136943F08003136148
:10597C00704700BF00200240F8B50646FFF7D4FE82
:10598C00114C07462546E368D80712D4E3689906FC
:10599C0044BF2023E360EB68DA0606D4EB69DB072F
:1059AC0003D4E86810F0040007D0FFF7A1FF012032
:1059BC0003E0731CE7D00EB90320F8BDFFF7B4FE6B
:1059CC00C01BB042DFD9F7E7002002402DE9F84FA9
:1059DC00244C1E46237E0546012B0F4690463FD095
:1059EC0001234CF250302376FFF7C6FFA0BB012DEC
:1059FC0003D0022D0CBF022504254FF00009CB4625
:105A0C00DFF864A04FEA0913C3F12001A3F12002CF
:105A1C0006FA01F128FA03F3C4F81CB00B4326FA7A
:105A2C0002F21343DAF810209BB242F00102CAF8DA
:105A3C0010204CF2503027F81930FFF79DFFDAF8A0
:105A4C00103023F00103CAF8103028B909F101090C
:105A5C005FFA89F39D42D5D800232376BDE8F88FF1
:105A6C000220FBE7C80E0020002002400022064B5B
:105A7C00DA61064B1A6942F004021A611A6942F0A3
:105A8C0040021A61704700BFC80E0020002002407F
:105A9C000022064BDA61064B1A6942F002021A61C7
:105AAC0058611A6942F040021A617047C80E002012
:105ABC00002002402DE9F041224D07462B7E8846FE
:105ACC00012B3DD0012403682C76022B4CF2503074
