:020000040800F2
:100000000050002029530008715300087153000864
:10001000715300087153000871530008000000007C
:100020000000000000000000000000007153000804
:10003000715300080000000071530008437B000862
:100040007153000871530008715300087153000880
:100050007153000871530008699700086F970008F2
:10006000759700087B970008819700087153000876
:100070007153000871530008715300087153000850
:100080007153000871530008715300087153000840
:1000900071530008715300087153000887970008D6
:1000A000715300089D92000871530008B192000836
:1000B000B5920008C9920008DD9200085986000830
:1000C00065860008718600087D8600087153000867
:1000D00071530008C58A0008DD8A0008F58A000807
:1000E0009D9700084D800008715300080000000033
:1000F0000000000000000000000000000000000000
:0C01000000000000000000005FF808F1A3
:10010C0010F8012B11F8013B012A28BF9A42F7D0B5
:10011C00D01A7047034613F8012B002AFBD1181A8A
:10012C000138704781F0004102E000BF83F00043CA
:10013C0030B54FEA41044FEA430594EA050F08BF76
:10014C0090EA020F1FBF54EA000C55EA020C7FEA3A
:10015C00645C7FEA655C00F0E2804FEA5454D4EBB7
:10016C005555B8BF6D420CDD2C4480EA020281EA81
:10017C00030382EA000083EA010180EA020281EAB9
:10018C000303362D88BF30BD11F0004F4FEA01310B
:10019C004FF4801C4CEA113102D0404261EB41011A
:1001AC0013F0004F4FEA03334CEA133302D05242A0
:1001BC0063EB430394EA050F00F0A780A4F101045C
:1001CC00D5F1200E0DDB02FA0EFC22FA05F2801896
:1001DC0041F1000103FA0EF2801843FA05F359417C
:1001EC000EE0A5F120050EF1200E012A03FA0EFCFB
:1001FC0028BF4CF0020C43FA05F3C01851EBE37125
:10020C0001F0004507D54FF0000EDCF1000C7EEB41
:10021C0000006EEB0101B1F5801F1BD3B1F5001F7F
:10022C000CD349085FEA30004FEA3C0C04F101049E
:10023C004FEA445212F5800F80F09A80BCF1004FC7
:10024C0008BF5FEA500C50F1000041EB045141EA49
:10025C00050130BD5FEA4C0C404141EB010111F44A
:10026C00801FA4F10104E9D191F0000F04BF0146F5
:10027C000020B1FA81F308BF2033A3F10B03B3F1D3
:10028C0020020CDA0C3208DD02F1140CC2F10C0263
:10029C0001FA0CF021FA02F10CE002F11402D8BFC1
:1002AC00C2F1200C01FA02F120FA0CFCDCBF41EA8D
:1002BC000C019040E41AA2BF01EB0451294330BD5C
:1002CC006FEA04041F3C1CDA0C340EDC04F1140439
:1002DC00C4F1200220FA04F001FA02F340EA030010
:1002EC0021FA04F345EA030130BDC4F10C04C4F156
:1002FC00200220FA02F001FA04F340EA0300294636
:10030C0030BD21FA04F0294630BD94F0000F83F47F
:10031C00801306BF81F480110134013D4EE77FEA62
:10032C00645C18BF7FEA655C29D094EA050F08BFAE
:10033C0090EA020F05D054EA000C04BF194610468F
:10034C0030BD91EA030F1EBF0021002030BD5FEAD3
:10035C00545C05D14000494128BF41F0004130BDFB
:10036C0014F580043CBF01F5801130BD01F000454F
:10037C0045F0FE4141F470014FF0000030BD7FEAC2
:10038C00645C1ABF194610467FEA655C1CBF0B46BD
:10039C00024650EA013406BF52EA033591EA030FD4
:1003AC0041F4002130BD00BF90F0000F04BF0021CC
:1003BC00704730B54FF4806404F132044FF00005FF
:1003CC004FF0000150E700BF90F0000F04BF002178
:1003DC00704730B54FF4806404F1320410F00045DE
:1003EC0048BF40424FF000013EE700BF42004FEAD9
:1003FC00E2014FEA31014FEA02701FBF12F07F4356
:10040C0093F07F4F81F06051704732F07F4208BF0C
:10041C00704793F07F4F04BF41F40021704730B513
:10042C004FF4607401F0004521F000411CE700BF5F
:10043C0050EA010208BF704730B54FF000050AE0E2
:10044C0050EA010208BF704730B511F0004502D5E3
:10045C00404261EB41014FF4806404F132045FEAE5
:10046C00915C3FF4D8AE4FF003025FEADC0C18BF8E
:10047C0003325FEADC0C18BF033202EBDC02C2F180
:10048C00200300FA03FC20FA02F001FA03FE40EA12
:10049C000E0021FA02F11444BDE600BF4FF0FF3C00
:1004AC0006E000BF4FF0010C02E000BF4FF0010C62
:1004BC004DF804CD4FEA410C7FEA6C5C4FEA430CDB
:1004CC0018BF7FEA6C5C1BD001B050EA410C0CBF2A
:1004DC0052EA430C91EA030F02BF90EA020F00208C
:1004EC00704710F1000F91EA030F58BF994208BFF3
:1004FC0090422CBFD8176FEAE37040F001007047B0
:10050C004FEA410C7FEA6C5C02D150EA013C07D106
:10051C004FEA430C7FEA6C5CD6D152EA033CD3D051
:10052C005DF8040B704700BF8446104662468C464B
:10053C001946634600E000BF01B5FFF7B7FF00287E
:10054C0048BF10F1000F01BD4DF808EDFFF7F4FFA7
:10055C000CBF012000205DF808FB00BF4DF808ED32
:10056C00FFF7EAFF34BF012000205DF808FB00BF55
:10057C004DF808EDFFF7E0FF94BF012000205DF877
:10058C0008FB00BF4DF808EDFFF7CEFF94BF01202C
:10059C0000205DF808FB00BF4DF808EDFFF7C4FF25
:1005AC0034BF012000205DF808FB00BF80F0004044
:1005BC0002E000BF81F0004142001FBF5FEA41032F
:1005CC0092EA030F7FEA226C7FEA236C6AD04FEA2F
:1005DC001262D2EB1363C1BFD21841404840414074
:1005EC00B8BF5B42192B88BF704710F0004F40F426
:1005FC00000020F07F4018BF404211F0004F41F442
:10060C00000121F07F4118BF494292EA030F3FD00D
:10061C00A2F1010241FA03FC10EB0C00C3F1200320
:10062C0001FA03F100F0004302D5494260EB4000AF
:10063C00B0F5000F13D3B0F1807F06D340084FEA1A
:10064C00310102F10102FE2A51D2B1F1004F40EB0F
:10065C00C25008BF20F0010040EA03007047490077
:10066C0040EB000010F4000FA2F10102EDD1B0FA42
:10067C0080FCACF1080CB2EB0C0200FA0CF0AABF37
:10068C0000EBC25052421843BCBFD04018437047D5
:10069C0092F0000F81F4000106BF80F400000132DB
:1006AC00013BB5E74FEA41037FEA226C18BF7FEAB2
:1006BC00236C21D092EA030F04D092F0000F08BFF4
:1006CC000846704790EA010F1CBF0020704712F0DB
:1006DC007F4F04D1400028BF40F00040704712F11A
:1006EC0000723CBF00F50000704700F0004343F07F
:1006FC00FE4040F4000070477FEA226216BF0846B5
:10070C007FEA23630146420206BF5FEA412390EA77
:10071C00010F40F4800070474FF0000304E000BF6D
:10072C0010F0004348BF40425FEA000C08BF70471E
:10073C0043F0964301464FF000001CE050EA0102E2
:10074C0008BF70474FF000030AE000BF50EA0102F7
:10075C0008BF704711F0004302D5404261EB4101E4
:10076C005FEA010C02BF84460146002043F0B64309
:10077C0008BFA3F18053A3F50003BCFA8CF2083A2E
:10078C00A3EBC25310DB01FA02FC634400FA02FC37
:10079C00C2F12002BCF1004F20FA02F243EB02003E
:1007AC0008BF20F00100704702F1200201FA02FCA0
:1007BC00C2F1200250EA4C0021FA02F243EB020093
:1007CC0008BF20EADC7070474FF0FF0C1CEAD052D7
:1007DC001EBF1CEAD15392EA0C0F93EA0C0F6FD098
:1007EC001A4480EA010C400218BF5FEA41211ED076
:1007FC004FF0006343EA501043EA5111A0FB013162
:10080C000CF00040B1F5000F3EBF490041EAD37136
:10081C005B0040EA010062F17F02FD2A1DD8B3F1B2
:10082C00004F40EBC25008BF20F00100704790F021
:10083C00000F0CF0004C08BF49024CEA502040EA73
:10084C0051207F3AC2BFD2F1FF0340EAC250704739
:10085C0040F400004FF00003013A5DDC12F1190F77
:10086C00DCBF00F000407047C2F10002410021FAE9
:10087C0002F1C2F1200200FA02FC5FEA310040F101
:10088C00000053EA4C0308BF20EADC70704792F07A
:10089C00000F00F0004C02BF400010F4000F013AB2
:1008AC00F9D040EA0C0093F0000F01F0004C02BFAD
:1008BC00490011F4000F013BF9D041EA0C018FE71C
:1008CC000CEAD15392EA0C0F18BF93EA0C0F0AD022
:1008DC0030F0004C18BF31F0004CD8D180EA010048
:1008EC0000F00040704790F0000F17BF90F0004FE1
:1008FC00084691F0000F91F0004F14D092EA0C0FC3
:10090C0001D142020FD193EA0C0F03D14B0218BF55
:10091C00084608D180EA010000F0004040F0FE409B
:10092C0040F40000704740F0FE4040F44000704737
:10093C004FF0FF0C1CEAD0521EBF1CEAD15392EAB6
:10094C000C0F93EA0C0F69D0A2EB030280EA010CA6
:10095C0049024FEA402037D04FF0805343EA11113F
:10096C0043EA10130CF000408B4238BF5B0042F19D
:10097C007D024FF4000C8B4224BF5B1A40EA0C0042
:10098C00B3EB510F24BFA3EB510340EA5C00B3EB74
:10099C00910F24BFA3EB910340EA9C00B3EBD10F62
:1009AC0024BFA3EBD10340EADC001B0118BF5FEAB4
:1009BC001C1CE0D1FD2A3FF650AF8B4240EBC250DD
:1009CC0008BF20F0010070470CF0004C4CEA50209E
:1009DC007F32C2BFD2F1FF0340EAC250704740F4ED
:1009EC0000004FF00003013A37E792F0000F00F0DF
:1009FC00004C02BF400010F4000F013AF9D040EA5D
:100A0C000C0093F0000F01F0004C02BF490011F4F0
:100A1C00000F013BF9D041EA0C0195E70CEAD153E8
:100A2C0092EA0C0F08D142027FF47DAF93EA0C0FCF
:100A3C007FF470AF084676E793EA0C0F04D14B02B3
:100A4C003FF44CAF08466EE730F0004C18BF31F065
:100A5C00004CCAD130F000427FF45CAF31F000435F
:100A6C007FF43CAF5FE700BF4FF0FF3C06E000BFF8
:100A7C004FF0010C02E000BF4FF0010C4DF804CD1B
:100A8C004FEA40024FEA41037FEA226C18BF7FEA2B
:100A9C00236C11D001B052EA530C18BF90EA010F2D
:100AAC0058BFB2EB030088BFC81738BF6FEAE170BC
:100ABC0018BF40F0010070477FEA226C02D15FEA58
:100ACC00402C05D17FEA236CE4D15FEA412CE1D0C4
:100ADC005DF8040B704700BF844608466146FFE78B
:100AEC000FB5FFF7C9FF002848BF10F1000F0FBD6D
:100AFC004DF808EDFFF7F4FF0CBF012000205DF866
:100B0C0008FB00BF4DF808EDFFF7EAFF34BF0120EA
:100B1C0000205DF808FB00BF4DF808EDFFF7E0FF83
:100B2C0094BF012000205DF808FB00BF4DF808EDD4
:100B3C00FFF7D2FF94BF012000205DF808FB00BF37
:100B4C004DF808EDFFF7C8FF34BF012000205DF819
:100B5C0008FB00BF42000ED2B2F1FE4F0BD34FF098
:100B6C009E03B3EB126209D44FEA002343F0004317
:100B7C0023FA02F070474FF00000704712F1610F3A
:100B8C0001D1420202D14FF0FF3070474FF000000C
:100B9C00704700BF0348044B834202D0034B03B1A0
:100BAC001847704740010020400100200000000061
:100BBC0005480649091A891001EBD171491002D078
:100BCC00034B03B11847704740010020400100203F
:100BDC000000000010B5064C237843B9FFF7DAFF8C
:100BEC00044B13B10448AFF300800123237010BDF4
:100BFC00400100200000000020AE000808B5054BA5
:100C0C001BB105490548AFF30080BDE80840FFF76C
:100C1C00CFBF00BF000000004401002020AE000840
:100C2C00BFF34F8F0549064BCA6802F4E0621343C9
:100C3C00CB60BFF34F8F00BFFDE700BF00ED00E0BE
:100C4C000400FA05704708B5112007F0FDFFBDE858
:100C5C000840B0FA80F11120490907F0D1BF07F024
:100C6C0099BB000010B5064B01211C5C204607F017
:100C7C00C7FF2046BDE81040002107F0C1BF00BFF0
:100C8C0000B100082DE9F04105460F4608240E4B33
:100C9C0013F801802B064CBF01210021404607F0C0
:100CAC00AFFF0A4B0121DE5D013C304607F0A8FF87
:100CBC000021304607F0A4FF6D0014F0FF04EDB2E4
:100CCC00E8D1BDE8F08100BFDFB00008DAB0000861
:100CDC002DE9F0470C460826174FDFF864A00021D9
:100CEC000546385D07F08CFF00211AF8040007F068
:100CFC0087FF124B13F804902B064CBF01210021E7
:100D0C00484607F07DFF1AF804800121404607F0A1
:100D1C0077FF0021404607F073FF6D00013EEDB2F6
:100D2C00EAD13C5D0121204607F06AFF314620469E
:100D3C00BDE8F04707F064BF00B10008DFB0000861
:100D4C00DAB0000870B51546044610460E46FFF79B
:100D5C0089FF0A4B0021585D07F052FF2644B4422C
:100D6C0006D02CB1294614F8010BFFF78BFFF6E7E0
:100D7C002846BDE87040FFF775BF00BFDAB0000829
:100D8C0008B5584808F004FF0221062007F0EAFED7
:100D9C000221012007F0E6FE0221042007F0E2FE0A
:100DAC000221052007F0DEFE0221032007F0DAFE07
:100DBC000221084607F0D6FE0221002007F0D2FEE1
:100DCC000121112007F0CEFE0121132007F0CAFEED
:100DDC000121122007F0C6FE0121142007F0C2FEEB
:100DEC000121162007F0BEFE0121152007F0BAFEE6
:100DFC000121102007F0B6FE01210E2007F0B2FEF3
:100E0C0001210F2007F0AEFE0121092007F0AAFEF8
:100E1C000121072007F0A6FE0121082007F0A2FE01
:100E2C0001211C2007F09EFE01211F2007F09AFED5
:100E3C0001211E2007F096FE0021112007F0E0FE94
:100E4C000021132007F0DCFE0021122007F0D8FE51
:100E5C000021142007F0D4FE0021162007F0D0FE4C
:100E6C000021152007F0CCFE0021102007F0C8FE51
:100E7C0000210E2007F0C4FE00210F2007F0C0FE59
:100E8C000021092007F0BCFE0021072007F0B8FE66
:100E9C000021082007F0B4FE00211C2007F0B0FE52
:100EAC0000211F2007F0ACFE00211E2007F0A8FE39
:100EBC000121182007F056FE0121172007F052FEE1
:100ECC000121182007F09CFE0121172007F098FE45
:100EDC000121112007F046FEBDE808400021112039
:100EEC0007F08EBEA7B0000838B1037A016023F07A
:100EFC007F0343F00803037201207047D1E90132EC
:100F0C0010339A4210B502D20023184610BDA2F13C
:100F1C0010038B60002BF7D0416859B15C1A241177
:100F2C004C810021436022F8061C02F8081C42F890
:100F3C00041CEAE70360F4E730B544680A44D0E9DE
:100F4C000053AB4207D2914205D05D1C456011F8AD
:100F5C00015B1D70F3E700221A704068001B30BD66
:100F6C0010B50446044808F013FE0020042120703C
:100F7C00BDE81040FFF7ACBE45B40008134B70B58C
:100F8C000D1E04461249134808BF194608F07AFD95
:100F9C00A5B105250626042106202670FFF798FE2C
:100FAC00142007F07BFE002004212070FFF790FE38
:100FBC00142007F073FE013DEDD170BDFF2004211C
:100FCC002070BDE87040FFF783BE00BF80B30008FF
:100FDC0074B3000885B3000838B5054602F078FCF8
:100FEC00044630B90E4808F0D3FD2046A5F8384425
:100FFC0038BD02F063FC022804D14FF48073A5F8CD
:10100C003834F5E7012395F8382485F839340AB9D2
:10101C0085F8833485F8383485F83A340120E7E7CD
:10102C0084B5000837B50446182002F041FC1F486F
:10103C0008F0AEFD684602F059FC69461C4808F001
:10104C00D3F94FF47A6244F62061601C02F0A6FBDF
:10105C000546C0B9174808F09BFD02F039FC20B9D1
:10106C00154808F095FDA4F8385402F027FC022826
:10107C0006D1124808F08CFD4FF48073A4F8383474
:10108C00284603B030BD40F20113A4F838340123D4
:10109C000B4884F83A3408F07BFD684602F026FCD5
:1010AC006946034808F0A0F9EAE700BFE9B1000877
:1010BC00680C002008B2000831B2000875B20008B4
:1010CC0097B2000810B50446FFF786FF94F88334F6
:1010DC003BB10023204684F88334BDE81040FFF771
:1010EC00A1BF10BD2DE9F04100F26C4692B0044650
:1010FC0030460F4602F058FC0546002836D1228AAD
:10110C00A168304602F070FC2369194A0093402113
:10111C00A36802A808F090FD02A808F0B3FC6423B1
:10112C00B7FBF3F7DFF85480304602F03DFC48B9CA
:10113C00BD4207DA642007F0B1FD4046013508F0E6
:10114C0027FDF1E7304602F02FFC2269A16858B167
:10115C00084808F097FC304602F026FC003018BF17
:10116C00012012B0BDE8F0810348F2E70120F8E756
:10117C009EB40008C0B40008E9B4000894B200089A
:10118C00F0B500F26C4491B00546204602F00CFC20
:10119C0078B944F620612846FFF7A4FF064628B923
:1011AC00214808F0F5FC304611B0F0BD1F4808F09E
:1011BC00EFFC05F138063046FEF7ACFF074640223F
:1011CC000021684608F0B0FB3B46194A40216846AE
:1011DC0008F032FD6969204608F0FCF8E968204601
:1011EC0008F0F8F8E969204608F0F4F8296A204676
:1011FC0008F0F0F8696A204608F0ECF8A96A204675
:10120C0008F0E8F8A969204608F0E4F86946204699
:10121C0008F0E0F8204608F0D5F83146204608F0F2
:10122C00D9F80126BFE700BF3CB300084DB3000856
:10123C0061B3000838B50D460446074808F022FC97
:10124C0045B9207800F0FE0020700421BDE838403C
:10125C00FFF73EBD0120F7E70AB7000838B50D4689
:10126C000446074808F00EFC45B9207800F0FD0054
:10127C0020700421BDE83840FFF72ABD0220F7E7B3
:10128C0053B7000810B50C46074808F0FBFB074B9A
:10129C00002133F81440200AFFF71AFDE0B20021B8
:1012AC00BDE81040FFF714BD53B40008B0B00008FF
:1012BC0010B50C46074808F0E5FB074B012133F845
:1012CC001440200AFFF704FDE0B20121BDE81040F4
:1012DC00FFF7FEBC0BB50008B0B0000810B50C460B
:1012EC00074808F0CFFB074B032133F81440200AC2
:1012FC00FFF7EEFCE0B20321BDE81040FFF7E8BCBD
:10130C0034B60008B0B000082DE9F84306461A4878
:10131C0008F03EFC194808F03BFC00244FF6FF7522
:10132C00DFF86480164FDFF86490D6F86024D6F8A6
:10133C0064349B1A08FB03F39C4212D204EB440363
:10134C001A4453783846FF2B05BF39F81430012165
:10135C0000211D4008F096FB0A4808F019FC0134E6
:10136C00E3E7280A0221FFF7B3FCE8B20221BDE84B
:10137C00F843FFF7ADBC00BF6FB4000888B4000899
:10138C0071B300089CB40008ABAAAAAAB0B00008BC
:10139C0070B590F8803405460E4614466BB3174B67
:1013AC0017491268002E08BF1946164808F06AFB48
:1013BC002368AEB1D5F86424D5F860140133511A02
:1013CC00114A23604A43934201D3002323602368CC
:1013DC00284685F83E342168BDE87040FFF752BFBF
:1013EC00013B002B2360F2DAD5F86014D5F86424A5
:1013FC00521A054901FB0233E8E770BDE1B600085B
:10140C00DEB60008E6B60008ABAAAAAA70B590F83A
:10141C00813405460E46144633B3144B14491268F6
:10142C00002E08BF1946134808F02CFB23682EB178
:10143C000133072B88BF0023236002E05A1E11D40E
:10144C00226023680C4885F83D3408F0A1FB95F820
:10145C003D140120FFF703FC21682846BDE87040CD
:10146C00FFF726BF0733E7E770BD00BFE1B6000802
:10147C00DEB6000844B500086AB500084FF0FF332B
:10148C0073B5044601930D4661B190F88164F6B9C9
:10149C00314600F021F801AA01212046FFF7B6FFE2
:1014AC0084F8826494F881340A48002B18BF002514
:1014BC0008F06EFB94F83D140120FFF7D0FB84F884
:1014CC00815429462046FFF7C9FE02B070BD0025A5
:1014DC00E8E700BF6AB500084FF0FF3337B50446A4
:1014EC0001930D46D9B190F880342BBB134808F00A
:1014FC004FFBFF22D4F86034D4F864148B4202D032
:10150C005A700333FAE700212046FFF7B7FF01AA10
:10151C0001212046FFF73CFF002384F8823494F825
:10152C0080342046002B18BF002584F880542946AF
:10153C00FFF780FE03B030BD0025F0E773B700085D
:10154C0070B590F8823405460E461446F3B1104B34
:10155C0010491268002E08BF19460F4808F092FA7D
:10156C0023682EB101330B2B88BF0023236002E0CC
:10157C005A1E09D422602368284685F83F34216816
:10158C00BDE87040FFF7AABE0B33EFE770BD00BF9C
:10159C00E1B60008DEB600082EB7000813B5044605
:1015AC00144808F0F5FA042121700846FFF790FB67
:1015BC00114B03221B8802216846ADF80030FFF75F
:1015CC00C1FB322007F06AFB00230322022168468C
:1015DC00ADF80030FFF7B6FB322007F05FFB4FF0A1
:1015EC00FF3301AA012120460193FFF7A9FF02B0A6
:1015FC0010BD00BF29B5000838AE000837B5044649
:10160C0001250D4808F0C4FA204684F882540021C4
:10161C00FFF762FF00212046FFF730FF2046FFF75F
:10162C00BDFF4FF0FF3301AA294620460193FFF777
:10163C0087FF03B030BD00BF84B7000838B590F801
:10164C00803404460D469BB31A4B1B491B48002D96
:10165C0018BF194608F016FAD4F86434D4F860248C
:10166C0094F83E149A1A164B53438B420FD21548DA
:10167C0008F08EFA2046FFF747FECDB9204601212F
:10168C00FFF7BCFF2046BDE83840FFF787BF0E4888
:10169C0008F0F8F929460D4808F0F4F994F83E34AE
:1016AC00D4F8602403EB430313445D700848DFE770
:1016BC0038BD00BF54B6000850B6000857B6000835
:1016CC00ABAAAAAA7EB6000895B60008ADB600086B
:1016DC00C0B6000838B590F8823404460D46002B8D
:1016EC0044D0234808F054FAD4F86434D4F8602475
:1016FC0094F83E149A1A1F4B53438B4231D394F8EF
:10170C003F340C2B2DD81C4808F0BCF994F83F142E
:10171C001A4808F0B7F994F83E34D4F8602403EB77
:10172C0043031344164994F83F2416488A5C9A7074
:10173C0008F02EFA144808F02BFA20460021FFF787
:10174C009DFE20462A460121FFF722FE002301219F
:10175C0084F88234A4F880142046BDE83840FFF7A2
:10176C0069BD0A48BDE8384008F012BA38BD00BF60
:10177C00C7B50008ABAAAAAA95B60008DCB5000844
:10178C00F4B00008F4B500080AB6000825B6000845
:10179C0070B51C4808F0FCF91B4D1C4B1C4C2B6005
:1017AC004FF080434FF48670236007F08BFF0646A2
:1017BC002968184D07F0A8FC4FF486702E6007F0CE
:1017CC0081FF06462168144C07F09EFC2868012214
:1017DC004CF25031266007F02FFD012220680F4992
:1017EC0007F02AFD28680E4907F035FC20680D49E2
:1017FC0007F031FC286807F005FC2068BDE8704054
:10180C0007F000BCB3AF0008F4050020002C014029
:10181C0034060020E8050020600100208096980026
:10182C00530C0008510C000810B50C461146FFF77C
:10183C0065FB20B1037AC46003F07F03037210BD13
:10184C0038B50D46046884B1E168A9420DD035B1B4
:10185C0029B12846FEF754FC10F0FF0F05D0B4F95F
:10186C000A0018B104EB0014EDE7204638BD033133
:10187C0038B521F003040546204608F00FF850B1A6
:10188C0004442B7FC5E9010023F07F03C5E9034421
:10189C002B77284638BD0446F3E700002DE9F84FB6
:1018AC00D0E90069214CA9EB06035C4314BF234625
:1018BC000123E418074688469346A1EB06052CD273
:1018CC00B4F1553F29D854BBA246BBF800200AEB13
:1018DC0005032AF805209BF80220B0459A7004D025
:1018EC002A463146504608F005F80335C84555449C
:1018FC00A9EB080B04D05A464146284607F0ECFFEA
:10190C005D4416B1304607F0DFFE04EB440454444A
:10191C00C7E900A5BC60BDE8F88F4FF0553404EB67
:10192C00440007F0CFFE8246CFE700BFABAAAAAABD
:10193C002DE9F74304460D4600261C4808F0A2F892
:10194C00D4E90932934218BFA362194B25705F5D2D
:10195C001848394608F096F82946174808F092F8C6
:10196C00B14604F1240804EB8505B7421AD96B681B
:10197C009B5D8DF805908DF80430D4E90A139942DB
:10198C008DF8069009D0BDF804205FFA89F30A801F
:10199C008B700331A1620136E7E701AA4046FFF7DD
:1019AC007DFFF8E703B0BDE8F08300BF70B100081D
:1019BC00E4B0000883B1000899B10008F8B50546F9
:1019CC001D4808F0E5F8002006F0AAFC04460120AA
:1019DC0006F0A6FC06462146184808F053F8314696
:1019EC00174808F04FF8631EDBB2092B04D901210C
:1019FC000020FFF734F901240A2E04D901210846EE
:101A0C00FFF72DF901262C7021466E702846FFF742
:101A1C008FFF00240B4FD5E909239B1A7B439C4273
:101A2C0008D204EB4406A01C164406F079FC0134E1
:101A3C007070F0E7F8BD00BF1AB100083AB10008A9
:101A4C0054B10008ABAAAAAA10B50446054808F080
:101A5C009FF804F23C40FFF7B1FF2046BDE8104070
:101A6C00FFF7E0BACBB1000810B50C4C642120464E
:101A7C0007F02DFD20460A4C06224FF4E13107F009
:101A8C00D7F9FFF77DF9FFF783FE2046FFF7DCFF60
:101A9C002046BDE81040FFF737BC00BF680C0020A3
:101AAC006401002070B50446007A0D4610F07F03E7
:101ABC00164611D120F07F00C4E9003340F020001D
:101ACC00207229462046FFF7BBFE40B93246294614
:101ADC002046FFF7A9FE02E010F02000F1D170BD06
:101AEC00837B33B943685A1C42601B7843730123D0
:101AFC008373407B704770B5044600252046FFF782
:101B0C00EFFF0A2805D8092809D2D8B14FF00000F8
:101B1C001AE0202803D02F2803D00D28F6D1A57366
:101B2C00ECE7A5732046FFF7DBFF2A2804D02F280B
:101B3C0015D04FF0020007E00026A5732046FFF7F2
:101B4C00CFFF10B94FF0010070BD2F2801D1002E2E
:101B5C00E5D1A0F12A035E425E41A573EEE7A573C1
:101B6C002046FFF7BDFF0028ECD00A28F7D1C5E7C7
:101B7C0070B50C461646054640B141B1FFF760FE04
:101B8C0020B9324621462846FFF74EFE70BD084666
:101B9C00FCE700002DE9F04104460F468668FFF78C
:101BAC009FFF00258046A5732046FFF799FF8045CF
:101BBC00A57323D018B94FF00100BDE8F0815C2863
:101BCC0017D12046FFF78CFF0028F4D075280CD0D5
:101BDC00104B1A79191D5AB1904203F10203F8D136
:101BEC00487828B94FF00200E7E74FF00400E4E72B
:101BFC00A573A3685A1CA2601870D5E7A3685A1C79
:101C0C00A2601D703E6016B94FF00300D5E74FF08F
:101C1C000000D2E7BCB100082F2807D9392803D916
:101C2C005E280CD97A2805D8012070472B28FBD0C8
:101C3C002D28F9D0A0F12E03584258417047402866
:101C4C00F8D95A28EFE72DE9F04104460E46FFF784
:101C5C0047FF272825D0222823D02046A568FFF748
:101C6C003FFF074618B3FFF7D7FF10B34FF000083C
:101C7C00A36884F80E805A1CA26020461F70FFF7E0
:101C8C002FFF0746FFF7C8FF0028F1D1A368002DEE
:101C9C0003F10102A260187035600CBF0320002014
:101CAC0003E031462046FFF775FFBDE8F0810120C7
:101CBC00FBE70220F9E700002DE9F0410B7805461F
:101CCC002B2B12D02D2B11D1012701310B78A3F125
:101CDC003002092A0CD92E2B0AD0002300222B60AB
:101CEC006A602B722846BDE8F08101310027EDE7D0
:101CFC0000204FF00A0C534E0A4612F8014BA4F187
:101D0C003003DBB2092B09D8B04208D8DC430CFBFA
:101D1C0000F0844203D318441146EDE754B100237C
:101D2C000A24494EB04203F101020CD9B0FBF4F085
:101D3C001346F7E72860FEF7EFFC002F686014BF2E
:101D4C000A230823CDE75B1A5C180E4611F8012B09
:101D5C0064B2A2F1300CBCF1090FF5D92E2A11D1C5
:101D6C000A460A21DFF8E8C0164633780132303BC8
:101D7C00DBB2092B06D86045F6D8013C01FB0030DC
:101D8C0064B2F1E7337803F0DF03452B48D1737865
:101D9C002D2B19D10121B21C00234FF00A0E16462F
:101DAC0012F801CBACF1300C5FFA8CF8B8F1090FDA
:101DBC0019D80EFB03C3E618262EF0DD69B14FB916
:101DCC0000236B600C238CE72B2B14BF721CB21CF2
:101DDC000021E1E74FF00043F3E717B94FF0FF4361
:101DEC00EFE71A4BEDE701B15B423678002E7FF43A
:101DFC0074AF1C44FEF790FC002C13DDDFF854800C
:101E0C00E20704D5F3B258F82310FEF7DDFC64109A
:101E1C0006F10106F4D10FB100F100406860D1E782
:101E2C000023E2E7DFF830806442002CF3D0E307B4
:101E3C0004D5F3B258F82310FEF7C6FC6410013633
:101E4C00F3E700BF99999919FFFF7F00000080FF0D
:101E5C00CBCC0C0030000020180000202DE9F047FE
:101E6C0094B080460D460024FFF73AFEA246074682
:101E7C000DF110093846E6B2FFF7CEFE60B13F2CEB
:101E8C0009D088F80EA0404604F80970FFF728FE28
:101E9C0001340746EEE72646002414AB334403F81E
:101EAC00404C9DF81030742B09D12B7A23F07F0312
:101EBC0043F006032B7201232B60301F09E0662BC5
:101ECC000CD12B7A2C6023F07F0343F006032B728A
:101EDC00701F18BF012014B0BDE8F0876E2BECD03A
:101EEC0004A901A8FFF7E8FE9DF80C30019A0A2B13
:101EFC0009D00C2B10D0082B17D12B7A23F07F0391
:101F0C0043F0080304E02B7A23F07F0343F00A0329
:101F1C002B722A602046DEE72B7A23F07F0343F0F6
:101F2C000C032B72029B2B60F4E74FF00200D2E7FC
:101F3C0073B505460C46FFF7DEFDC6B2002E39D14F
:101F4C002846FFF7CDFD272826D006D8222823D0F7
:101F5C0021462846FFF782FF1CE05B280ED07B2829
:101F6C00F6D1237AC4E9006623F07F0343F0200303
:101F7C0023722146284600F004F90BE0237AC4E9C9
:101F8C00006623F07F0343F040032372214628466A
:101F9C0000F0B0F8C0B20DE001A92846FFF7FAFD39
:101FAC00C0B238B9237A23F07F0343F005032372C0
:101FBC00019B236002B070BDF0B500F26C468DB091
:101FCC000546304601F080FD00287BDD304601F0EF
:101FDC007BFD074605F138044FF480620021204652
:101FEC0007F0A2FC3B4622460A21304607F057FA7E
:101FFC0021463A4807F046FD7B21204607F050FE6B
:10200C0000285FD0364807F0C3FD4FF000024FF4B4
:10201C00806104A8FFF72BFC059B09A90693089B7C
:10202C00684607939DF82C30029423F07F038DF8BB
:10203C002C3005ABCDE900340A238DF80C3000238D
:10204C008DF80E30FFF774FFC4B25CBB9DF80D30F9
:10205C0053B19DF82C3013F0600F05D103F07F03C2
:10206C00043B012B88BF02241E4B53F824101E483E
:10207C0007F008FD1CBB9DF82C309B062CD51B498A
:10208C0009A8FFF7DDFB38B3037A03F07F030C2BB1
:10209C0011D8DFE803F02110101010100B100B10EA
:1020AC000B101900052CDFD91149E0E7006800304E
:1020BC0018BF012080B101212846FEF75FFF05986B
:1020CC0007F0F4FB0DB0F0BD00210068FEF710FD29
:1020DC00B0FA80F04009EDE70021EDE72FB30008DE
:1020EC0002B3000870AE000817B3000834B3000840
:1020FC00FEB2000870B5037B05460E4613B94FF0CF
:10210C00050070BDFFF7ECFC5B2802D04FF002001D
:10211C00F7E700232846AB73FFF7EDFC10F0FF0F39
:10212C00EFD12846FFF7DCFC5D281ED10020A873F8
:10213C00E7E72B7B2846013B2B73FFF7F9FE2B7B44
:10214C00C0B201332B730028DBD12846FFF7D3FC38
:10215C00C4B2A4B92846FFF7C3FC5D28E6D02846D4
:10216C00FFF7BEFC2C28D1D1AC7329683046FEF7A2
:10217C00C5FE01460028DCD14FF00300C1E7204624
:10218C00BFE7F7B5037B05460E461BB94FF00500BC
:10219C0003B0F0BDFFF7A4FC7B2802D04FF0020087
:1021AC00F6E700232846AB73FFF7A5FCC4B2002C5E
:1021BC00EED12846FFF794FC7D2839D1AC7320462C
:1021CC00E6E70746037A63F07F030372019BC36063
:1021DC002846FFF790FCC4B2002CF0D12846FFF73C
:1021EC007FFC3A28DAD12B7BAC73013B2B7339463D
:1021FC002846FFF79DFE2B7BC0B201332B730028C2
:10220C00C6D12846FFF777FCC4B2002CD7D128469C
:10221C00FFF766FC7D28D1D02846FFF761FC2C28FF
:10222C00BCD1AC732846FFF766FCC0B20028AFD116
:10223C0001A92846FFF707FDC0B20028A8D10199D3
:10224C003046FFF7FDFA07460028C1D12968304611
:10225C00FEF754FE0028B4D14FF0030098E738B5D0
:10226C00044608460D46FDF755FF29460246204612
:10227C00FEF762FEA3681844A06038BDD0E90023C5
:10228C0093423FBF5A1C42600022197037BF43680B
:10229C0000221A7001228368134483607047000087
:1022AC0070B505460C4619B91049FFF7D8FF70BD3B
:1022BC002221FFF7E3FF013C14F8011F39B10C4B4D
:1022CC001E7876B15A788A4206D00233F8E722217A
:1022DC002846FFF7D3FFEAE75C212846FFF7CEFF3D
:1022EC0031462846FFF7CAFFE6E700BFB7B1000842
:1022FC00BCB100082DE9F04706230E460746837251
:10230C0052493046FEF712FC002841D00525002426
:10231C004FF02008DFF83891DFF838A1314659F832
:10232C002500FEF7F9FB38B130465AF82510FEF7B8
:10233C004BFA0646444424B215F1FF354FEA6808BF
:10234C00ECD200213046FEF7FBFB30B33046FEF7F3
:10235C004DF83CA3D3E90023FEF70AF9E8B1DFF806
:10236C00F890DFF8ECA02B0617D4314659F825006D
:10237C00FEF7E6FB40B130465AF82510FEF724FA7A
:10238C000646A4EB080424B24FEA6808013DEAE7CC
:10239C004FF0200805250446D3E73C813046FEF774
:1023AC00D9FB0A2105460346DFF8B0803860092BBB
:1023BC0007D9BA7AB8FBF1F8013ABA72B3FBF1F368
:1023CC00F5E72846FEF7A8F901463046FEF7F2F885
:1023DC0006464046FEF7A0F901463046FEF7F4F9F2
:1023EC008146FEF7B7FB0646FEF796F901464846CE
:1023FC00FEF7E0F80146FEF7DFF8FEF7ABFB3044E2
:10240C0040450FD278600A217B68B3FBF1F201FBE7
:10241C001233A3B997F90A30002B10DD013B7A6017
:10242C00BB72F1E7002301357B603D60002CEAD0E4
:10243C00092D81BF012301343C813B60E3E7384621
:10244C00BDE8F087F168E388B5F8E43E8096184B58
:10245C0030000020180000200000002040420F0037
:10246C0010B50446521AFEF767FDA3681844A06025
:10247C0010BD70B586B00DF116031A460A26B1FBD5
:10248C00F6F506FB1514092904F1300403F8014D87
:10249C0004D81946FFF7E4FF06B070BD2946EEE7F5
:1024AC0070B505468AB008460C46FEF721FB28B9E4
:1024BC003F492846FFF7D3FE0AB070BD00212046E5
:1024CC00FEF716FB48B921462046FEF775F8014683
:1024DC002046FEF70DFB0028EAD100212046FEF72E
:1024EC0011FB28B12D212846FFF7C8FE04F100444A
:1024FC00214601A8FFF7FEFE01992846FFF7B9FF18
:10250C009DF90E10E1B10A460A26029B0DF11F043B
:10251C00013A52B2501C08D0B3FBF6F006FB103354
:10252C00303304F801390346F2E7C9B208AA531A4A
:10253C002E20C94303F8010C11442846FFF790FFE5
:10254C00BDF90C30002B17DA1A492846FFF787FE25
:10255C000DF126010A460A24BDF90C305B4293FBAF
:10256C00F4F004FB1033303301F8013D034600282E
:10257C00F5D12846FFF774FFBDF90C30002B9BDD1D
:10258C0065212846FFF77AFE0DF126010A460A243A
:10259C00BDF90C3093FBF4F004FB1033303301F82D
:1025AC00013D03B2002BF5D12846FFF759FF83E715
:1025BC00B7B10008B4B1000838B5037A054603F08A
:1025CC007F03062B0C4669D00CD8022B11D3032B9E
:1025DC0053D8D0E900122046FEF7AEFCA36818448D
:1025EC00A06025E00C2B1FD005D8082B54D00A2B4B
:1025FC0048D02F4955E0202B20D0402BF9D15B211E
:10260C002046FFF73BFE2D689DB121462846FFF77B
:10261C00D3FFB5F90A3063B115EB031509D02C21A2
:10262C002046FFF72BFEEFE701682046FFF738FF47
:10263C0038BD5D212046FFF721FEF9E77B212046BE
:10264C00FFF71CFE2D68B5B1E9682046FFF728FEA0
:10265C003A212046FFF712FE21462846FFF7ACFF31
:10266C00B5F90A303BB115EB031504D02C212046EB
:10267C00FFF704FEE7E77D21DCE701682046FFF762
:10268C000FFED5E705682D212046FFF7F7FD2946FB
:10269C002046FFF7EEFECBE70168F9E7036823B1AC
:1026AC0004492046FFF7DBFDC2E70349F9E700BF09
:1026BC00B7B100089AB700089FB700082DE9F04F92
:1026CC000446D0F86024D0F864348DB09B1A4C4A80
:1026DC004FF4006102FB03F804A84FF0000204F170
:1026EC003809FFF7C4F84FF480620021484607F020
:1026FC001BF905AA434909A8FFF7D4F994F83C142F
:10270C00FEF7F2FB94F83D343F4A4049D55C09A8EA
:10271C0005AAFFF7C7F92946FEF7E6FB05AA3C49CF
:10272C0009A8FFF7BFF9064640B1037A23F07F03EF
:10273C0043F0400303720023C0E90033354807F02F
:10274C0027FA4146344807F09DF9002747453ED00B
:10275C00002E3AD005A93046FEF7D0FB054640B115
:10276C00037A23F07F0343F0200303720023C0E9B4
:10277C000033D4F860B407EB470A05AA274928466A
:10278C00FFF7F6F91BF80A10FEF7AEFBD4F860342D
:10279C0005AA03EB0A0B22492846FFF7E9F99BF837
:1027AC000110FEF7A1FBD4F8603405AA9A441D4928
:1027BC002846FFF7DDF99AF80210FEF795FB39462B
:1027CC00194807F05FF90137C0E73546D1E7002318
:1027DC0001A984F8383009A804F237440393CDE9F1
:1027EC000149FFF7E9FE114807F0D2F949461048B4
:1027FC0007F048F9059807F059F80DB0BDE8F08FCF
:10280C00ABAAAAAA9EB30008ECB00008A6B30008B5
:10281C00B5B30008C0B30008DDB30008F8B3000876
:10282C00FDB3000804B4000809B4000825B400087E
:10283C002FB3000870B50446184807F0A9F994F8AE
:10284C0080342BB32046FEF78BFB2046FFF736FF78
:10285C002046FEF795FC0146D8B1114807F098F9CF
:10286C000025104ED4F86024D4F864349B1A7343BA
:10287C00AB4208D905EB45031A44A81C5178FEF766
:10288C00EEF90135EEE70023A4F8803484F88234A5
:10289C0070BD2046BDE87040FEF770BBBBB20008AF
:1028AC00DDB20008ABAAAAAAF7B50026294D33461B
:1028BC00324631460096284806F03CFD2A46274C05
:1028CC0052F8021F2346928803F8016B9A80244B1E
:1028DC00C4F80110A360234B2349E36047F6F87357
:1028EC002361224B04F12C006361214B04F58867B2
:1028FC00A361204B0835E3611F4B23621F4B6362BE
:10290C001F4BA36206F06BFE0123C4F83C340FCDC1
:10291C000FC795E80F0087E80F001A4A4FF47A7337
:10292C00C4F86C240822A4F8386484F83A64C4F817
:10293C006064C4F86464C4F86864C4F87064C4F86F
:10294C00743484F87C24A4F87E34C4F8806403B016
:10295C00F0BD00BF38AE00087406002064010020F2
:10296C0088AE000892AE0008CAB10008A8AE0008F4
:10297C00C7AE0008E6AE0008FDAE000816AF0008B2
:10298C0033AF0008FCB8000808B5054BD3F8600459
:10299C0008B106F099FEBDE80840024806F0DABD21
:1029AC00640100209001002010B5654886B006F047
:1029BC0094F9002840F3C2806149684606F08AFD0C
:1029CC00684606F054FE00995E4807F05BF85E49D5
:1029DC0003A806F004FE03A9684606F045FE04466B
:1029EC0003A806F0B7FD002C05DB584807F0D0F81B
:1029FC000122574B1A70574903A806F0F0FD03A9A2
:102A0C00684606F031FE044603A806F0A3FD002C30
:102A1C0005DB514807F0BCF802224D4B1A704F49A8
:102A2C0003A806F0DCFD03A9684606F01DFE04466B
:102A3C0003A806F08FFD002C05DB444807F0A8F82E
:102A4C000522434B1A70464903A806F0C8FD03A99A
:102A5C00684606F009FE044603A806F07BFD002C30
:102A6C0005DB404807F094F80322394B1A703E49B5
:102A7C0003A806F0B4FD03A9684606F0F5FD04466C
:102A8C0003A806F067FD002C05DB384807F080F83A
:102A9C0004222F4B1A70364903A806F0A0FD03A997
:102AAC00684606F0E1FD044603A806F053FD002C31
:102ABC0005DB304807F06CF80622254B1A702E49BE
:102ACC0003A806F08CFD03A9684606F0CDFD04466C
:102ADC0003A806F03FFD002C05DB284807F058F84A
:102AEC0007221B4B1A70264903A806F078FD03A990
:102AFC00684606F0B9FD044603A806F02BFD002C31
:102B0C0005DB204807F044F80822114B1A701E49C7
:102B1C0003A806F064FD03A9684606F0A5FD04466B
:102B2C0003A806F017FD002C05DB184807F030F859
:102B3C000922074B1A70684606F00CFD06B010BD52
:102B4C00680C00202FB30008BFAF0008CCAF000802
:102B5C005C010020DEAF0008ECAF000806B00008F6
:102B6C0011B000081AB0000828B000082FB00008F7
:102B7C003BB0000842B000084EB0000856B0000848
:102B8C0063B0000872B0000884B0000893B000086D
:102B9C00F0B5062085B006F057F858B9062006F0B7
:102BAC0053F80028FAD08C4806F0F2FF01218B482C
:102BBC00FEF792FC012006F047F858B9012006F008
:102BCC0043F80028FAD0864806F0E2FF012183483A
:102BDC00FEF754FC002006F037F850B9002006F040
:102BEC0033F80028FAD07F4806F04CFF7B48FFF7FB
:102BFC0021FE032006F028F880B9032006F024F803
:102C0C000028FAD0784806F0C3FFFF217348FEF77E
:102C1C0015FD764A76497148FEF75CFD022006F0F8
:102C2C0013F8044630B9734806F0B2FF21466B48DE
:102C3C00FEF704FD042006F007F8B0B9042006F0F6
:102C4C0003F80028FAD06C4806F0A2FF684A00216D
:102C5C006248FEF79DFB694A00216048FEF7D6FBEF
:102C6C00624A00215D48FEF76BFC052005F0ECFF85
:102C7C00B0B9052005F0E8FF0028FAD0604806F04E
:102C8C0087FF5B4A01215548FEF782FB5B4A012115
:102C9C005248FEF7BBFB554A01215048FEF750FC49
:102CAC004E48FFF789F9FFF77FFE4C48FEF70AFA0A
:102CBC000021544B544A554C554D236013782960D0
:102CCC00013B1170082B0AD8DFE803F0050E17271B
:102CDC0013343E43840001214048FEF7FDFB0220E3
:102CEC0005F0DCFF05B0F0BD01213C48FEF7C6FB4A
:102CFC00F5E73A48FFF79EFDF1E73D4A00213748DA
:102D0C00FEF746FB3D4A00213448FEF77FFB0021CD
:102D1C00364A3248FEF714FCE1E7354A01212F48C8
:102D2C00FEF736FB354A01212C48FEF76FFB2F4A84
:102D3C000121EEE7FF212948FEF780FC2B4A2C49A4
:102D4C002648FEF7C7FCCAE700212448FEF776FCAC
:102D5C00C5E7304806F01CFF2F4E304F2368002B80
:102D6C00BDDD143B3046236005F0B7FF002811DDB4
:102D7C00314601A806F0AEFB01A806F084FC014622
:102D8C00286008B10A2809DD384606F07BFE01A848
:102D9C0006F0E0FB142005F081FFDFE7204806F089
:102DAC0071FE0E4C2D681F4884F83C5406F0F0FE62
:102DBC0094F83C141C4806F065FE94F83C14002072
:102DCC00FDF74DFF04F23C40E9B2FEF7B1FD1748A8
:102DDC0006F0DEFEFDF724FFA5B700086401002015
:102DEC00BEB70008DCB70008EBB700084C000020A9
:102DFC0048000020F7B7000804B800085000002075
:102E0C0011B80008E09304005C010020F0050020DC
:102E1C00EC0500201DB80008680C002039B800082B
:102E2C0071B3000869B8000882B800089DB80008A2
:102E3C0014220021103006F077BD10B50446103175
:102E4C0006F08AFA204610BD10B50446143106F07F
:102E5C0083FA204610BD10B50446183106F07CFAF2
:102E6C00204610BD10B50446203106F075FA2046F8
:102E7C0010BD302301F8013B02F00F03092B94BF66
:102E8C00303337330F2AC2F3071001F8013900D859
:102E9C0070470246F0E70000002307B51A4600937E
:102EAC001946034806F046FA03B05DF804FB00BF70
:102EBC007C0600202DE9F0418EB00446884616466B
:102ECC000021202206A806F02FFDFF2302A81A4697
:102EDC001946009306F02EFA4C4B04F14805049366
:102EEC00039B432204A92846059300F0CFFF013031
:102EFC0000F08980464B76BA06936368ADF8206083
:102F0C001BBA0793802326461C2206A92846ADF837
:102F1C00223000F0CAFF1A2200210DF11E0006F02B
:102F2C0003FD56F8080F1022B388069006A9284610
:102F3C00ADF81C3000F0B9FF2022002106A806F0E5
:102F4C00F3FC0627202206A9284600F0AEFF013F1D
:102F5C00F8D1304B3049069340F23513ADF81C30A4
:102F6C003D238DF81F3040F20713ADF82030336845
:102F7C000DF12A00CDF82230B3888DF81E80ADF803
:102F8C00263040F60C43ADF8283006F096FEE27A77
:102F9C000CA92046FFF76DFF227B0DF13201204674
:102FAC00FFF767FF627B0DA92046FFF762FF1E2229
:102FBC0006A9284600F079FFB8F1030F14D140F2AE
:102FCC003243ADF81830238A0C22ADF81A30638ADC
:102FDC0006A9ADF81C3040F23643ADF81E30E3695B
:102FEC002846089300F061FF0C4A0D4B06A9CDE969
:102FFC000623FF23092228468DF8203000F055FFC8
:10300C00284600F04CFF0EB0BDE8F081E0BE000891
:10301C000101060063825363E8B800083706010318
:10302C00060F3A3B2DE9F04391B00546884616460B
:10303C0005F030FE074605F14804204600F09CFFE1
:10304C00002809DC05F026FEC01B404500F2D080AC
:10305C00322005F023FEF0E7242207A9204600F0D9
:10306C0048FF9DF81C30022B40F0BD80B5F8643051
:10307C00432B40F0B880089F06223FBA376005F119
:10308C0008010EA806F01AFC064628B92B689F42C8
:10309C0002D36B689F4207D9204600F097FE0026AA
:1030AC00304611B0BDE8F0830B9B01462B61CC225E
:1030BC00204600F01EFF05F12407204600F078FEA4
:1030CC00002840F39180204600F0FCFE33287DD090
:1030DC0015DC012844D006DC0028EED0204600F098
:1030EC00F1FEC2B253E0032844D00628F6D12046A4
:1030FC0000F0E8FE0422804605F1200141E03A2868
:10310C004AD020DC352823D03628E7D1204600F0E1
:10311C00D9FE05F11C084146814601A806F01CF9B0
:10312C00002103A806F012F9029A049B9A4230D0AF
:10313C00414605A806F010F92A6E069B9A4228D043
:10314C005FFA89F223E03B2833D0FF28B5D0C5E7DE
:10315C00204600F0B7FE204600F0B4FEC6B2ACE745
:10316C00204600F0AFFE042205F11401204600F0C9
:10317C00C0FEA2E7204600F0A5FE0422804605F121
:10318C001801204600F0B5FE5FFA88F2043A0021DF
:10319C00ECE704224146E9E7204600F093FE0422C6
:1031AC0005F12801204600F0A4FEAB6A1BBAAB6205
:1031BC0083E7204600F086FE042205F12C01204610
:1031CC0000F097FEEB6A1BBAEB6276E7204600F044
:1031DC0079FE04223946204600F08BFE6B6A1BBA3E
:1031EC006B622B6369E70026204600F0EFFD57E782
:1031FC00FF2655E72DE9F34704464FF4FA61012009
:10320C0006F090F92746606047F8480B384600F006
:10321C00DEFD4421384600F0E6FD002800F09080E9
:10322C0005F038FD4FF00009804600254FF0030AE9
:10323C0094F84430032B1CD043BB636801336360A8
:10324C0005F028FD4FF47A72A0EB0800B0FBF2F207
:10325C00012192B22046FFF72DFE012384F8443061
:10326C00002DE5D105F016FDA36BA0EB08009842EC
:10327C00DBD9384600F0ABFD63680133636005F0C1
:10328C0009FD2064284602B0BDE8F087042B11D15B
:10329C0063680133636005F0FDFC4FF47A72A0EBB8
:1032AC000800B0FBF2F2032192B22046FFF702FEB7
:1032BC000223D3E7012B19D101AAE16B2046FFF7BA
:1032CC00B1FE0228064638D1019B636005F0E2FC92
:1032DC004FF47A72A0EB0800B0FBF2F2032192B229
:1032EC002046FFF7E7FD84F84460B9E7022BB7D11D
:1032FC0001AAE16B2046FFF795FE0528064617D17B
:10330C00636A84F844A013B94FF461736362A36ACF
:10331C0013B9636A5B08A362E36A1BB9636AA3EB24
:10332C00D303E362A36A01252363E36A63637FE744
:10333C00062802D184F8449092E7FF2EFAD08FE74A
:10334C0005469FE7F8B500250F460446C0E9095528
:10335C00C562C0E90E2385608581FFF769FD3B6876
:10336C002046A360BB8884F84450A381BDE8F84094
:10337C00FFF740BF4B68436000230381704770B573
:10338C0000242346013911F8010FB8B1A0F1300522
:10339C00EEB2092E08D803EB830305EB43039BB273
:1033AC00FF2BF0D900200DE02E28FBD1032CF9D0F7
:1033BC00601C14442371C4B20023E4E7032C01D134
:1033CC000120D37170BD0000002307B51A4600938D
:1033DC001946034805F0AEFF03B05DF804FB00BFCF
:1033EC00840600202DE9F34106460D4605F052FCFB
:1033FC0006F10C04308106F108010222204600F08F
:10340C0054FD012302220DF106012046ADF80630D1
:10341C0000F04BFD4FF4807302220DF106012046A3
:10342C00ADF8063000F041FD002302220DF106013B
:10343C002046ADF8063000F038FD02220DF10601F1
:10344C00204600F032FD02220DF10601204600F06C
:10345C002CFD2E462B78E3B135462F4617F8013B51
:10346C000BB12E2B13D1A5EB0608B8F1000F0CDD18
:10347C0001220DF1050120468DF8058000F015FDA7
:10348C0042463146204600F010FD3E46E2E73D46FE
:10349C00E3E74FF480750DF10501012220468DF80C
:1034AC00053000F002FD0DF1060102222046ADF8B8
:1034BC00065000F0FAFC02220DF106012046ADF890
:1034CC00065000F0F2FC012002B0BDE8F0812DE9BD
:1034DC00F04387B006460F46904605F0DBFB0546E9
:1034EC0006F10C04204600F047FD002809DC05F02D
:1034FC00D1FB401BB84200F2C980322005F0CEFB54
:10350C00F0E7726A73689A4240F0C380338D352BB2
:10351C0040F0BF80204600F04BFC0B2840F3BC80F1
:10352C000C2220460DEB020100F0E3FCBDF80E204E
:10353C003189130A43EA0223BDF80C201BB29DB259
:10354C009142ADF8065001D1002B07DB204600F06C
:10355C003DFC4FF6FC7007B0BDE8F08340F20F2342
:10356C001D4005D0204600F031FC4FF6FB70F2E711
:10357C00BDF812301E0A46EA0326B6B22EB9204612
:10358C0000F024FC4FF6FA70E5E7BDF81030AAB253
:10359C005BBA9BB29A4218DA01220DF10A0120465D
:1035AC0000F0A7FC9DF80A2032B904220021204625
:1035BC0000F09FFC0135E8E70021204600F099FC63
:1035CC009DF80A30002BE7D1EFE70027B94601221E
:1035DC000DF10501204600F08CFC9DF8052012F041
:1035EC00C00134D132B1204600F083FC9DF8053087
:1035FC00002BECD1022202A9204600F07AFC022218
:10360C000DF10A01204600F074FC04220021204632
:10361C0000F06FFC02220DF10601204600F069FC5F
:10362C00BDF80830BDF80620B3F5807F17D052BA2C
:10363C0092B200212046013700F05BFCBBB2B342D2
:10364C00C5D3204600F0C2FB4FF6F67083E701228B
:10365C000021204600F04DFC8DF80590CAE7BDF81E
:10366C000A0040BA85B2012DE1D152BA92B2042AB5
:10367C0005D0204600F0AAFB4FF6F7706BE708F177
:10368C000401204600F035FC284664E74FF6FF7035
:10369C0061E74FF6FE705EE74FF6FD705BE70000EA
:1036AC002DE9F7430546894690461F46FFF767FE0E
:1036BC00044688BB1B4B6A685B689A422ED005F0A7
:1036CC00E9FA05F10C0600F00F0101F580613046B6
:1036DC0000F089FB01281BD1134B352200936B683A
:1036EC0069463046019300F0D1FB70B1494628463B
:1036FC00FFF778FE48B1304600F0D1FB28B14246C6
:10370C0039462846FFF7E3FE0446304600F05FFBDF
:10371C00204603B0BDE8F0830124F9E76FF0010403
:10372C00F6E700BF84060020E0BE000802F1FF3C73
:10373C004160DCF1000141EB0C01817202720BB9AA
:10374C00437205E0012BFBD0022BF9D0032BF7D0F1
:10375C00704710B586B003AC84E80E00059B23219E
:10376C00009394E80C0001F0B9FC06B010BD2321C5
:10377C0001F0EEBC01460422012001F07BB90146A8
:10378C000422052001F076B901460622092001F039
:10379C0071B9014604220F2001F06CB92DE9F043F8
:1037AC003C4E87B03368054613F0010388469146BA
:1037BC00394C0ED1E3644FF47A732365374B04F123
:1037CC005C00A36405F0AEFD082384F86830012387
:1037DC003360334E346001F02BFB002858D00027A7
:1037EC0003AC002301222F492046FFF79FFF94E8EA
:1037FC000E002D48FFF7ADFF2846FFF7C5FF3B46EF
:10380C003A4639460097204605F094FD04A8FFF788
:10381C00C0FF2548FFF7ABFF29464B4642463068B0
:10382C00FFF790FD012805462ED102463B461D4967
:10383C002046FFF77BFF94E80E001B48FFF789FF3B
:10384C0031682046FFF7F9FA04A8FFF7A2FF3168A8
:10385C002046FFF700FB04A8FFF78CFF31682046D9
:10386C00FFF7F2FA04A8FFF78AFF0F48FFF77FFF74
:10387C0031682046FFF7F6FA049A0C4B5A6005F0B3
:10388C000BFA80B200F0B4FC284607B0BDE8F08318
:10389C000546F9E78C060020A406002060B9000854
:1038AC00A0060020809FD5008C07002098060020E1
:1038BC00014B1870704700BF5600002008B501F08E
:1038CC0029FB012803D002280CBF0220002008BDD0
:1038DC00044B1B78333BDBB2042B9ABF024AD05CFF
:1038EC000020704789070020EFB800087FB50D4E07
:1038FC0001AC054605F016FD002301220A492046BD
:10390C00FFF714FF94E80E003046FFF722FF042265
:10391C000F20A91801F06EF93046FFF728FF284652
:10392C0004B070BD8C070020809FD500002307B524
:10393C001A4600931946044805F0FCFC034803B0F2
:10394C005DF804EB05F0EEBC900600209806002014
:10395C00007C07288CBF00200120704781F00100FB
:10396C0070470846704708B503685B6C984780F051
:10397C000100C0B208BD4182704707B503688DF8DD
:10398C0007105B6801220DF10701984703B05DF841
:10399C0004FB037C087C984204D107288CBF0020D0
:1039AC00012070470020704710B50446007C0728A2
:1039BC0016D800F07DFD182809D91C280ED12368D3
:1039CC0020469B689847003018BF012005E0054B46
:1039DC0023FA00F0C04300F0010010BD0120FCE709
:1039EC000020FAE701001001F0B591B0044604A8DC
:1039FC000F46164605F096FC00224FF47A73CDE97B
:103A0C000823194B0CA8079305F08CFC0823684677
:103A1C008DF83C3005F086FC207C072807D800F098
:103A2C0047FD10B1207C00F0A5FD082323740F4B3B
:103A3C000F4D5B6802A904A803930295FFF79AFC4B
:103A4C0041F288336A46394604A8FFF729FE40B193
:103A5C00019A236802A91B6A2046039202953246FA
:103A6C00984711B0F0BD00BF60B90008980600205F
:103A7C00E0BE000808B5007C072802D800F006FF5D
:103A8C0008BD0020FCE710B50446207C07280BD8A5
:103A9C0000F00EFD172801D01C2805D1207C00F069
:103AAC00F5FEB0F5006FF0D310BD38B50546007CBF
:103ABC001446072805D892B200F06CFE10B9012309
:103ACC006B600024204638BD08B5007C072802D85E
:103ADC0000F006FE08BD0020FCE7007C072802D899
:103AEC0012B200F063BD0020704707B501220DF142
:103AFC000701007C00F05AFD0028D4BF4FF0FF30C6
:103B0C009DF8070003B05DF804FB10B5037C044678
:103B1C00072B02D94FF0FF3010BD03689B68984704
:103B2C000028F7D0207C00F009FEF5E738B50446F4
:103B3C00007C07280AD800F01DFD05F0ABF80546FF
:103B4C00207C00F0B5FC10B90823237438BD01208B
:103B5C0005F0A4F805F09EF8638A401B9842EFD359
:103B6C00207C00F0C3FCEFE77FB50446007C0D46DB
:103B7C000728164607D800F09BFC10B1207C00F0FB
:103B8C00F9FC082323740021684605F0DFFB6A6802
:103B9C00019B9A4202D1002004B070BD4FF0FF315E
:103BAC0002A805F0D3FB6A68039B9A42F3D000216C
:103BBC00212000F027FB07282074ECD8291D324661
:103BCC0000F0B0FC05F066F80546207C00F070FCB7
:103BDC00172813D01C2811D00028DCD005F05AF877
:103BEC00638A401B984203D8012005F057F8ECE794
:103BFC00207C00F07BFC08232374CCE70120CBE76E
:103C0C0010B41446054A127801EB022101EB002096
:103C1C001A46214680B210BC00F0ECBF8807002089
:103C2C0070B5037C88B0072B064626D802AD05ACD0
:103C3C000023012212492846FFF778FD95E807007A
:103C4C0084E80700079B2321009394E80C000D489F
:103C5C0001F044FA022322460421307CFFF7D0FF06
:103C6C009DF814309DF815402321064844EA03249E
:103C7C0001F06EFA204608B070BD0024FAE700BFD0
:103C8C00809FD5008C070020F0B50B7C89B0072BEA
:103C9C0006460F4605D9002105F058FB304609B001
:103CAC00F0BD02AD05AC002301220F492846FFF7F9
:103CBC003DFD95E8070084E80700079B232100934E
:103CCC0094E80C00094801F009FA042322460C215F
:103CDC00387CFFF795FF2321044801F039FA21467F
:103CEC00304605F039FBD9E7809FD5008C070020C2
:103CFC0070B5037C88B0072B064626D802AD05AC00
:103D0C000023012212492846FFF710FD95E8070011
:103D1C0084E80700079B2321009394E80C000D48CE
:103D2C0001F0DCF9022322461021307CFFF768FFFA
:103D3C009DF814309DF815402321064844EA0324CD
:103D4C0001F006FA204608B070BD0024FAE700BF67
:103D5C00809FD5008C070020002307B51A460093DE
:103D6C001946034805F0E6FA03B05DF804FB00BF02
:103D7C0010070020002307B51A4600931946034884
:103D8C0005F0D8FA03B05DF804FB00BF180700205B
:103D9C000368DB6B18470000024A02608A694260C4
:103DAC00704700BFE0BE0008808B7047008A7047E8
:103DBC00408C704707B503688DF807105B680122CB
:103DCC000DF10701984703B05DF804FB704710B57F
:103DDC00044690F82000072804D800F087FB08233D
:103DEC0084F8203010BD38B5044690F820000D46FC
:103DFC00072801D800F07AFB2946022000F002FACD
:103E0C00072884F820004FF000009EBF25826084B4
:103E1C00012038BDF0B591B0044604A80F461646F3
:103E2C0005F080FA00224FF47A73CDE90823144B85
:103E3C000CA8079305F076FA082368468DF83C30F9
:103E4C0005F070FA0F4B104D5B6802A904A80393A0
:103E5C000295FFF78FFA41F288336A46394604A877
:103E6C00FFF71EFC012808D1019A236802A9DB6A1E
:103E7C002046039202953246984711B0F0BD00BF20
:103E8C0060B9000898060020E0BE000808B50023C1
:103E9C000431C38390F8200000F04AFD08BD08B53A
:103EAC0090F8200000F072FD08BD10B5044693B2E6
:103EBC000A46C18B90F8200000F00EFDE38B034402
:103ECC00E38310BD13B5438C04461BB94FF0FF3090
:103EDC0002B010BD01220DF1070190F8200000F096
:103EEC0065FB0028F2DD638C9DF80700013B6384C1
:103EFC00EEE710B5438C044613B94FF0FF3010BDFC
:103F0C00934294BF1AB212B290F8200000F04EFB0C
:103F1C000028F2DD638C1B1A6384F0E708B590F877
:103F2C002030072B05D8428C1AB1184600F006FC3D
:103F3C0008BD4FF0FF30FBE773B5044690F8200046
:103F4C000E460728154601D800F0D0FA094B2A4630
:103F5C000093736869468220019300F0EDF90728FD
:103F6C0084F820004FF000009EBF60840120258261
:103F7C0002B070BDE0BE000813B50446628C2AB1D5
:103F8C0023680021DB6B20469847F7E794F8200064
:103F9C0000F0A6FBD8B10822694694F8200000F086
:103FAC0005FB002813DD694604F1140005F0DCF96B
:103FBC009DF804209DF805309DF8070003EB0223C3
:103FCC00A3839DF8063000EB032080B2608402B01E
:103FDC0010BD0000002307B51A460093194603488C
:103FEC0005F0A8F903B05DF804FB00BF3007002012
:103FFC0007B5084B01221B7801EB032101EB0020D4
:10400C0080B20DF1070100F0F5FD9DF8070003B03B
:10401C005DF804FB8807002007B5094B8DF80720D5
:10402C001B78012201EB032101EB002080B20DF182
:10403C00070100F01FFDC0B203B05DF804FB00BF28
:10404C008807002010B41446054A127801EB0221AF
:10405C0001EB00201A46214680B210BC00F00ABDCC
:10406C00880700202DE9F3470C46064690461F466C
:10407C0001AA02232421FFF7C3FD9DF804209DF81B
:10408C00053043EA0223204A1C441378A4B2332B94
:10409C000CBF06F1080006F11000C002C4F30A05BB
:1040AC0080B22844372B914680B22AD0EB19B3F555
:1040BC00006F26DDC5F5006A1FFA8AFA52464146A2
:1040CC0000F0D8FC99F80030A7F50062332B0CBF38
:1040DC0006F1080006F11000C0022A4480B292B228
:1040EC0008EB0A013C4400F0C5FC64BA022301AAA7
:1040FC0024213046ADF80440FFF7A4FF02B0BDE820
:10410C00F0873A464146EDE78907002008B50321C0
:10411C00FFF76EFF08BD07B549BAADF804100223CE
:10412C0001AA0421FFF78EFF03B05DF804FB08B56C
:10413C000A4604230C21FFF785FF08BD07B549BAD1
:10414C00ADF80410022301AA1021FFF77BFF03B086
:10415C005DF804FB07B5022301AA2021FFF750FDEF
:10416C009DF804009DF8053043EA002003B05DF88B
:10417C0004FB000038B50546FFF7ECFF0446284663
:10418C00FFF7E8FF8442034604D1034B03EBC5035E
:10419C009C8038BD1C46F2E74007002007B502237F
:1041AC0001AA2621FFF72CFD9DF804009DF805308F
:1041BC0043EA002003B05DF804FB07B5022301AA13
:1041CC002821FFF71DFD9DF804009DF8053043EAFA
:1041DC00002003B05DF804FB044B1B78332B0CBFA1
:1041EC000C301830C00280B2704700BF8907002025
:1041FC00034BC0F30D001A8850401880704700BF65
:10420C00540000202DE9FF47424B07461B780E4611
:10421C00B3B301AD332B4FF001024FF000033E4915
:10422C00284614BF4FF008084FF00408FFF77EFA39
:10423C0095E80E003948FFF78CFAAA464FF00009B2
:10424C005FFA89F42046FFF761FF0AF8010BE8B129
:10425C0009F101095FFA89F39845F1D800244FF070
:10426C00345215F8013B1D2B03D822FA03F3DB075C
:10427C0008D40134E4B2A045F3D12848FFF777FA0B
:10428C00082436E01021204600F098FE0022244B32
:10429C0023F81420234A244B1168244A5868B1FB94
:1042AC00F2F2FA2151435A68121A9142FBDC3A4657
:1042BC0000212046FFF7B0FEFF2202212046FFF727
:1042CC00ABFED6B1314600262046194DFFF723FF31
:1042DC000121204600F072FE25F834602046FFF7DD
:1042EC006CFF05EBC40358809E719E800B48FFF752
:1042FC003EFA204604B0BDE8F0870E4B1A88013216
:10430C0092B2B2F5404F38BF4FF440421A80198830
:10431C00D9E700BF89070020809FD5008C070020BB
:10432C002007002070000020001000E040420F0029
:10433C0040070020540000202DE9F04F534B87B06C
:10434C001B7880460D461646B3B303AF332B4FF0A4
:10435C0001024FF000034E49384614BF4FF00809D4
:10436C004FF00409FFF7E2F997E80E004948FFF710
:10437C00F0F9BB464FF0000A5FFA8AF42046FFF7CB
:10438C00C5FE0BF8010BE8B10AF1010A5FFA8AF3DA
:10439C009945F1D800244FF0345217F8013B1D2BEE
:1043AC0003D822FA03F3DB0708D40134E4B2A145A5
:1043BC00F3D13848FFF7DBF9082456E010212046EA
:1043CC0000F0FCFD0022344B23F81420334A344B0C
:1043DC001168344A5868B1FBF2F2FA2151435A6819
:1043EC00121A9142FBDC424600212046FFF714FED4
:1043FC00FF2202212046FFF70FFE002E39D0314656
:10440C002046FFF788FE5E2301278DF806306B7976
:10441C00291D03F07F038DF80730AB7920468DF80A
:10442C000830EB79ADF804708DF80930FFF77FFE9A
:10443C0031462046FFF782FE06230026194601AAC4
:10444C00194D2046FFF7FEFD3946204600F0B6FD1B
:10445C0025F834602046FFF7B0FE05EBC403588006
:10446C009E719E800B48FFF782F9204607B0BDE88D
:10447C00F08F0E4B1A88013292B2B2F5404F38BF12
:10448C004FF440421A801988BAE700BF8907002010
:10449C00809FD5008C070020200700207000002092
:1044AC00001000E040420F004007002054000020A4
:1044BC007FB5064601AC0B4D002301220A4920466C
:1044CC00FFF734F994E80E002846FFF742F930461E
:1044DC00FFF71CFE04462846FFF749F9204604B0B6
:1044EC0070BD00BF8C070020809FD5007FB50646AD
:1044FC0001AC0A4D0023012209492046FFF716F9A9
:10450C0094E80E002846FFF724F91021304600F0FD
:10451C0055FD2846FFF72BF904B070BD8C07002021
:10452C00809FD5002DE9FF4105468846174601AC12
:10453C000E4E002301220E492046FFF7F7F894E8AF
:10454C000E003046FFF705F941462846FFF7EFFD10
:10455C0039462846FFF7F2FD0421284600F02EFDCF
:10456C003046FFF704F904B0BDE8F0818C07002059
:10457C00809FD5007FB5064601AC0A4D0023012271
:10458C0009492046FFF7D2F894E80E002846FFF7B9
:10459C00E0F80821304600F011FD2846FFF7E7F857
:1045AC0004B070BD8C070020809FD5002DE9F04F22
:1045BC00174687B0464E0DF10C0936F830400023F3
:1045CC00012205468A4648464249FFF7AFF899E86A
:1045DC000E004148FFF7BDF8A7420EDD2846FFF755
:1045EC00DDFD04462846FFF7D9FDA042F9D106EBC4
:1045FC00C5039B79E41A26F835408CB92846FFF799
:10460C0085FD142805D020B1B0F11C0418BF4FF063
:10461C00FF343148FFF7ABF8204607B0BDE8F08F08
:10462C00BC42A8BF3C464FEAC50B06EB0B035B88AC
:10463C00A7B20093BAF1000F23D02846C3F30A089F
:10464C00FFF7CAFD254B40441B7880B2372B3BD07B
:10465C003B464344B3F5006F36DDC8F500639BB2AF
:10466C001A465146019300F0C5FA019B28469A441C
:10467C00FFF7B2FDA8F500623A4492B2514600F041
:10468C00B9FA06EB0B0136F83520009B88793B44D0
:10469C00D21B0744BFB29BB292B2F92F4B8026F8C3
:1046AC00352000D892B900225E445BBAB271ADF8E5
:1046BC000C304A46022328212846FFF7C3FC402130
:1046CC00284600F07BFCA4E73A46D7E78F71A0E7B9
:1046DC0040070020809FD5008C0700208907002010
:1046EC007FB5134D064635F83030EBB901AC0122DD
:1046FC0010492046FFF71AF894E80E000E48FFF711
:10470C0028F83046FFF74AFD04463046FFF746FDD1
:10471C00A042F9D10848FFF72AF805EBC6039B79AC
:10472C00E31A9BB225F83630184604B070BD00BFB2
:10473C0040070020809FD5008C0700207FB50646DF
:10474C0001AC114D0023012210492046FEF7EEFF6B
:10475C0094E80E002846FEF7FCFF3046FFF73CFDC0
:10476C000B4B012203EBC6035B882146C3F30A0300
:10477C00184480B200F03EFA2846FEF7F8FF9DF888
:10478C00040004B070BD00BF8C070020809FD500D2
:10479C0040070020B2F5006F28BF4FF400622DE9EE
:1047AC00F04F05468946164685B0DFF8DCB0354F2C
:1047BC0001AC0023012259462046FEF7B7FF94E8CE
:1047CC000E003846FEF7C5FF2846FFF7D3FC82469D
:1047DC002846FFF79BFC80463846FEF7C8FFB8F129
:1047EC00170F02D0B8F11C0F2FD100F0BEFDB2454F
:1047FC00DFD30023012224492046FEF797FF94E8DB
:10480C000E002048FEF7A5FF4A46334600212846F5
:10481C00FFF728FC2021284600F0D0FB194FDFF8C9
:10482C00689002212846FFF7E3FB10F0100A1FD115
:10483C002846FFF76BFC804648B91248FEF797FFF5
:10484C004646304605B0BDE8F08F0026D1E7384625
:10485C00FEF78DFF00F089FD5346494601222046A4
:10486C00FEF764FF94E80E003846FEF772FFD8E7B7
:10487C00102202212846FFF7CFFB0248FEF777FFF4
:10488C00DFE700BF8C070020809FD50030B50546C0
:10489C0085B001AC002301220D492046FEF746FFEE
:1048AC0094E80E000B48FEF754FF2846FFF762FC15
:1048BC0004462846FFF72AFC05460648FEF757FF34
:1048CC00172D02D01C2D18BF0024204605B030BD7A
:1048DC00809FD5008C0700202DE9F043074685B05A
:1048EC0001AD114E1C4688469146002301220F490A
:1048FC002846FEF71BFF95E80E003046FEF729FF11
:10490C003846FFF737FC844228BF0446A4B223463E
:10491C004A4641463846FFF7A5FB3046FEF727FFCF
:10492C00204605B0BDE8F0838C070020809FD500A1
:10493C00F0B50B7885B007460D4614462BB94B786D
:10494C001BB98B780BB9C878C0B1CCB101AE0023C0
:10495C0001220C493046FEF7E9FE96E80E000A48A3
:10496C00FEF7F7FE29463846FFF7E1FB21463846AD
:10497C00FFF7E4FB0448FEF7FAFE012005B0F0BD9A
:10498C002046FBE7809FD5008C0700202DE9F043E3
:10499C00054685B001AC0023012222492046FEF7D2
:1049AC00C5FE94E80E002048FEF7D3FE20212846D1
:1049BC0000F004FB1C4FDFF86C8002212846FFF747
:1049CC0017FB10F0100623D102212846FFF710FB2D
:1049DC0010F008090BD0182202212846FFF71CFB07
:1049EC001148FEF7C4FE304605B0BDE8F0833846EA
:1049FC00FEF7BDFE00F0B9FC4B46414601222046B5
:104A0C00FEF794FE94E80E003846FEF7A2FED4E7BB
:104A1C00102202212846FFF7FFFA0348FEF7A7FEF3
:104A2C000120E1E7809FD5008C070020002307B50B
:104A3C001A4600931946034804F07CFC03B05DF859
:104A4C0004FB00BF3807002013460A46232100F060
:104A5C009DBB0000024B0021187804F0D1B800BFB8
:104A6C0056000020024B0121187804F0C9B800BF91
:104A7C00560000202DE9FF41534B04461B780D4690
:104A8C00332B164623D100EB0208504F4D1E1FFA54
:104A9C0088F8A0457DD0FFF7DDFF0122F0213846D4
:104AAC00FFF7D2FF210A01223846FFF7CDFFE1B212
:104ABC0001223846FFF7C8FF0134012215F8011F07
:104ACC003846A4B2FFF7C0FFFFF7CCFFE1E7342B69
:104ADC00C7B21ED1FFF7BEFF330A63F07F038DF818
:104AEC000A30012364BA009302AA04232321374815
:104AFC00ADF808408DF80B6000F090FB334CAF190B
:104B0C00AF4244D0012215F8011B2046FFF79CFF51
:104B1C00F6E7FFF79FFFFF2C08D800238DF808302D
:104B2C0004238DF809708DF80A300DE0230417D496
:104B3C000023E41024F01F0444F00C048DF808301A
:104B4C008DF809708DF80A40052E26D80023B34243
:104B5C0015DAE95C04AA1A4402F8051C0133F6E7DD
:104B6C0044F38713B4F5404F23F01F0364BAADF838
:104B7C00084034BF43F0140343F01C03D3E7012374
:104B8C0002AA00932321F31C104800F047FBFFF707
:104B9C0069FF304604B0BDE8F081012302AA0093FE
:104BAC0023210323094800F039FB731E9BB2074FE6
:104BBC006C1E1D4414F8011F01223846FFF744FFF8
:104BCC00AC42F7D1E3E700BF890700208C07002037
:104BDC0007B501228DF807100DF10701FFF74AFF09
:104BEC00C0B203B05DF804FB08B501460020FFF726
:104BFC00EFFF08BD2DE9FF41404B04461B780E46E4
:104C0C00332B154624D100EB02083D4F4E1E1FFAE4
:104C1C0088F8A04540D0FFF71DFF01220F21384630
:104C2C00FFF712FF210A01223846FFF70DFFE1B210
:104C3C0001223846FFF708FF012200213846FFF712
:104C4C0003FF013406F8010FA4B2FFF70BFFE0E7F6
:104C5C00342BC7B224D164BAFFF7FCFEC5F306238C
:104C6C00ADF80C4001248DF80E3004238DF80F5054
:104C7C00009403AA2321224800F0D0FA2A460021EE
:104C8C00304604F051FE2B46324623211C4800943A
:104C9C0000F0C4FAFFF7E6FE284604B0BDE8F08148
:104CAC00FFF7D8FEFF2C07D800238DF80D708DF878
:104CBC000C308DF80E300DE023040FD40023E410DB
:104CCC0024F01F0444F008048DF80C308DF80D709E
:104CDC008DF80E40012403230094CAE744F3871394
:104CEC00B4F5404F23F01F0364BAADF80C4034BF49
:104CFC0043F0100343F01803DBE700BF89070020E3
:104D0C008C07002007B501220DF10701FFF772FF98
:104D1C009DF8070003B05DF804FB08B50020FFF711
:104D2C00F1FF08BD10B58020FFF75EFF1424FFF7DC
:104D3C00F4FF40B1013C0120A4B203F0AFFF002C02
:104D4C00F5D1204610BD0120FCE70000332208B548
:104D5C000E4B1A70FFF7E6FF08B9002008BD1020B3
:104D6C00FFF742FFFFF7D9FF1028F6D11220FFF70B
:104D7C003BFFFFF7D2FF1228EFD10020FFF734FFE3
:104D8C00FFF7CBFFB0FA80F04009E7E78907002076
:104D9C00342208B5114B1A70FFF7C4FF08B9002074
:104DAC0008BD0820FFF720FFFFF7B7FF0828F6D152
:104DBC001020FFF719FFFFF7B0FF1028EFD10020EC
:104DCC00FFF712FFFFF7A9FF0028E8D11F20FFF71C
:104DDC0099FFC31E58425841E2E700BF89070020E3
:104DEC00372208B5114B1A70FFF79CFF08B9002049
:104DFC0008BD0820FFF7F8FEFFF78FFF0828F6D153
:104E0C001020FFF7F1FEFFF788FF1028EFD10020EC
:104E1C00FFF7EAFEFFF781FF0028E8D13920FFF702
:104E2C0071FF031F58425841E2E700BF8907002079
:104E3C0070B5324E88B03478002C5CD14FF40C70C5
:104E4C0003F02CFF23212E4800F020F92D4B0121DB
:104E5C00187802AD03F086FEFFF704FE234601220C
:104E6C0029492846FEF762FC95E8070005AB83E864
:104E7C000700079A232100920CCB214800F02EF951
:104E8C00FFF786FFB8B14022204B1A70E5B2022220
:104E9C001E212846FFF7C0F8013402221F212846A4
:104EAC00FFF7BAF8082CF1D101242321144800F0A3
:104EBC004FF934701CE0FFF793FF18B11022134B1D
:104ECC001A70F1E7FFF742FF044658B104220F4B6A
:104EDC0055211B201A70FFF77BFE55211A20FFF776
:104EEC0077FEE1E70A4B23211870054800F030F9F2
:104EFC00204608B070BD0124FAE700BF8A070020E5
:104F0C008C07002056000020809FD50088070020C9
:104F1C008907002010B588B0FFF78AFF30B1244B09
:104F2C001B78342B04D0372B23D0002008B010BDB5
:104F3C0002AC002301221F492046FEF7F7FB94E840
:104F4C00070005AB83E80700079A232100920CCBDE
:104F5C00194800F0C3F83520FFF7D4FE044623218E
:104F6C00154800F0F5F814F0200F0CBF02200120BA
:104F7C00DCE702AC002301220E492046FEF7D6FBEB
:104F8C0094E8070005AB83E80700079A23210092F9
:104F9C000CCB094800F0A2F82E20FFF7B3FE044614
:104FAC002321054800F0D4F814F0010FDDE700BF11
:104FBC0089070020809FD5008C07002038B50A4651
:104FCC0004460121FFF728F8054D2402287804EB4C
:104FDC000020013080B2FFF795FE0028F6D138BDD5
:104FEC0088070020002307B51A460093194603488A
:104FFC0004F0A0F903B05DF804FB00BF80070020AB
:10500C00232970B504461BD800230C2505FB03F699
:10501C00A65FD8B2B1420DD00133042BF6D1012AD0
:10502C000CD100230C2505FB03F2A65ED8B2013689
:10503C0001D1A15270BD0133042BF4D11846F9E70C
:10504C000420F7E770B503464FF6FF7201210025E7
:10505C000C4E00F130041A805E60197299725D7208
:10506C000C33A342F7D1084B0286998EA0F890100E
:10507C00D98EA0F892105B8EA0F89620A0F89430F0
:10508C0070BD00BF00093D0020BC0008232970B58D
:10509C0005460E4621D80122FFF7B2FF032804462D
:1050AC001BD8232E0BD0B5F99630013307D1012133
:1050BC00304603F057FD0121304603F0A1FD0C20D2
:1050CC00002300FB045085F88530837A427A4168CE
:1050DC0005F1340002F0E4FF2E8670BD82B0F8B505
:1050EC00232906AC06460F4684E80C002CD8012276
:1050FC00FFF786FF0328054626D80C2404FB006422
:10510C00079BBDF8202063609DF8203022815A1E39
:10511C0053425341232FA3720BD0B6F9963001336F
:10512C0007D10121384603F01DFD0121384603F05B
:10513C0067FD0C2303FB05656168AB7A6A7A06F19F
:10514C00340002F0ADFF3786BDE8F84002B070477E
:10515C002329F0B516D803464FF6FF750122002718
:10516C00094E00F13004B3F900C08C4504D11D8008
:10517C005E601A729A725F720C33A342F3D14FF6CF
:10518C00FF730386F0BD00BF00093D0070B586B00B
:10519C008DF80F200022232905460C461E468DF85B
:1051AC00172039D8B0F93030994212D0FFF728FFC8
:1051BC00032803D99DF8170006B070BD0C2303FB20
:1051CC000050837A427A416805F1340002F068FF9E
:1051DC002C86232C07D0B5F99630013303D100214E
:1051EC00204603F00DFD4FF47A730DF11702009376
:1051FC000DF10F01012305F1340003F075F8232C98
:10520C00D8D0012ED6D1B5F996300133D2D1314652
:10521C00204603F0F5FCCDE71046CDE72DE9F34130
:10522C0005460C4617469DF820609846002B3BD04F
:10523C00002A39D0232937D8B0F9303099420FD011
:10524C000022FFF7DDFE03282ED80C2303FB0050B1
:10525C00837A427A416805F1340002F021FF2C86F2
:10526C00232C07D0B5F99630013303D10021204609
:10527C0003F0C6FC4FF47A733A46009339461FFA92
:10528C0088F305F1340003F02FF8232C0CD0012EF9
:10529C000AD1B5F99630013306D13146204602B019
:1052AC00BDE8F04103F0ACBC02B0BDE8F0810000F9
:1052BC000148FFF7C7BE00BF8C07002010B54FF4A4
:1052CC0080330122022494B0CDE90A230021CDE9D8
:1052DC0011434FF4E0130AA80C910E92139301F0B2
:1052EC00E3F800B1FEE70F23CDE905344FF48063FA
:1052FC000790CDE90830214605A801F0ADFA00B1C0
:10530C00FEE7122301934FF40043CDE9033001A8CB
:10531C0001F07CFB00B1FEE714B010BD002103E0EE
:10532C000B4B5B58435004310A480B4B42189A42C2
:10533C00F6D30A4A02E0002342F8043B084B9A4297
:10534C00F9D303F02DF804F085FA04F0ABF97047AB
:10535C00C4C00008000000204001002040010020D3
:10536C00F80E0020FEE702F00BBC704770470000FF
:10537C0038B50E4B054618784FF47A73B3FBF0F33F
:10538C000B4A1068B0FBF3F000F0A2F8044658B9D1
:10539C000F2D09D8024629464FF0FF3000F042F895
:1053AC002046044B1D6038BD0120FCE7570000204F
:1053BC007000002058000020074A08B5136803202D
:1053CC0043F01003136000F01BF80020FFF7D0FF30
:1053DC00FFF7CCFF002008BD00200240034A044B1D
:1053EC0011681B780B441360704700BFC00E00207F
:1053FC0057000020014B1868704700BFC00E0020FA
:10540C00074A0002D36800F4E06023F4E0631B0455
:10541C001B0C184340F0BF6040F40030D060704764
:10542C0000ED00E0174B70B5DC684FF0FF36C4F3AD
:10543C000224C4F10705042D04F1040328BF04253C
:10544C00062B98BF002406FA05F588BF033C21EA19
:10545C000501A14006FA04F422EA0403002843EAF9
:10546C000103A8BF00F160404FEA0313B8BF064A1E
:10547C00DBB2ABBF00F5614000F00F0080F80033E9
:10548C00135470BD00ED00E014ED00E0002808DBC3
:10549C000123420900F01F0003FA00F0014B43F80E
:1054AC002200704700E100E000280DDB01224309D7
:1054BC0000F01F0002FA00F0044A203342F82300E7
:1054CC00BFF34F8FBFF36F8F704700BF00E100E059
:1054DC000138B0F1807F0AD2F021064B064A5860A1
:1054EC0082F823100020072298601A607047012070
:1054FC00704700BF10E000E000ED00E0002809DB81
:10550C000122430900F01F0002FA00F0024A603346
:10551C0042F82300704700BF00E100E0704708B577
:10552C00FFF7FCFF08BD000008B590F82130022BF6
:10553C0003D004238363012008BD03681A6822F09A
:10554C000E021A601A6822F001021A60174A93427E
:10555C001CD0143293421BD0143293421AD0143202
:10556C0093421AD0143293421AD0143293420CBF85
:10557C004FF480134FF080730D4A53604FF48073D7
:10558C000384436B7BB198470020D5E70123F3E7F5
:10559C001023F1E74FF48073EEE74FF48053EBE701
:1055AC004FF48033E8E71846C6E700BF0800024016
:1055BC000000024090F8210070470000114AD368A7
:1055CC0013F0100305D01049CB6943F00203CB61F3
:1055DC001023D268500706D50B4943F00403CA695F
:1055EC0042F00102CA61074AD169C90708D50648C9
:1055FC00C16941F00401C161D16921F00101D1619E
:10560C00D360704700200240C80E0020064B18697A
:10561C0010F0800007D0054A5A6002F188325A60B7
:10562C001869C0F3C0107047002002402301674581
:10563C00034A0020136943F080031361704700BFD5
:10564C0000200240F8B50646FFF7D4FE114C074681
:10565C002546E368D80712D4E368990644BF202393
:10566C00E360EB68DA0606D4EB69DB0703D4E86881
:10567C0010F0040007D0FFF7A1FF012003E0731C1A
:10568C00E7D00EB90320F8BDFFF7B4FEC01BB04243
:10569C00DFD9F7E7002002402DE9F84F244C1E46D5
:1056AC00237E0546012B0F4690463FD001234CF23A
:1056BC0050302376FFF7C6FFA0BB012D03D0022D7F
:1056CC000CBF022504254FF00009CB46DFF864A07F
:1056DC004FEA0913C3F12001A3F1200206FA01F1EC
:1056EC0028FA03F3C4F81CB00B4326FA02F2134356
:1056FC00DAF810209BB242F00102CAF810204CF2EA
:10570C00503027F81930FFF79DFFDAF8103023F0EE
:10571C000103CAF8103028B909F101095FFA89F3BD
:10572C009D42D5D800232376BDE8F88F0220FBE7F5
:10573C00C80E0020002002400022064BDA61064B06
:10574C001A6942F004021A611A6942F040021A61A5
:10575C00704700BFC80E0020002002400022064BFC
:10576C00DA61064B1A6942F002021A6158611A6931
:10577C0042F040021A617047C80E0020002002401F
:10578C002DE9F041224D07462B7E8846012B3DD05A
:10579C00012403682C76022B4CF2503013D1FFF706
:1057AC0051FF20B1012000232B76BDE8F081FFF7DB
:1057BC00C3FF4CF25030FFF745FF164A136923F034
:1057CC0004031361EFE7FFF73DFF0028EAD14FF028
:1057DC00FF33C8F800302046BE680E4CD7E90232C1
:1057EC0003EB8223B342DED93046FFF7B7FF4CF20E
:1057FC005030FFF727FF236923F00203236110B118
:10580C00C8F80060CFE706F58066E7E70220CCE732
:10581C00C80E00200020024008B5044B5969014213
:10582C0002D0586103F084FF08BD00BF00040140A2
:10583C0037B590F83D4004F02804282C34D10029C9
:10584C0030D0002A2ED090F83C40012C2CD00124D2
:10585C00056880F83C402C68E4075EBF2C6844F077
:10586C0001042C602C6824F400642C60292480F83A
:10587C003D40202480F83E40002404644285428D43
:10588C00C36201946B6941620193AB69028580F834
:10589C003C4020460193019B6B6843F4E0636B60D2
:1058AC0003B030BD0120FBE70220F9E737B590F8D3
:1058BC003D4004F02804282C34D1002930D0002A93
:1058CC002ED090F83C40012C2CD00124056880F897
:1058DC003C402C68E4075EBF2C6844F001042C604B
:1058EC002C6824F400642C602A2480F83D40202489
:1058FC0080F83E40002404644285428DC3620194CA
:10590C006B6941620193AB69028580F83C4020468B
:10591C000193019B6B6843F4E0636B6003B030BD93
:10592C000120FBE70220F9E790F83D30202B14D141
:10593C00282380F83D30036800201A68D2075EBF28
:10594C001A6842F001021A601A6842F480621A6006
:10595C005A6842F440725A60704702207047704790
:10596C0070477047704770470023406A70B50268F3
:10597C0090F83D101468466B856B24F48064B36218
:10598C00AB62146043851468736324F001046B6389
:10599C00146090F83D40C9B2602C08D1202280F8E8
:1059AC003D2080F83E300364FFF7DDFF70BD01F051
:1059BC00280128290DD1146844F0010414601468DE
:1059CC0044F480641460036380F83D1002F038FEE8
:1059DC00ECE7202280F83D2080F83E30F6E700000E
:1059EC0090F83D2090F83E1010B510290446D2B224
:1059FC00036812D1222A10D1196821F400611960B0
:105A0C005968090504D4602A1CBF202284F83D2063
:105A1C000022226384F83E2007E002F028012829A6
:105A2C00EED10022226384F83D105A6812F4006211
:105A3C004CD05A68606B22F400625A6090F82130A6
:105A4C00012B364B28D04363FFF76EFD50B1226813
:105A5C00606B136823F001031360202384F83D303E
:105A6C00436B984794F83D30226CDBB2520712D549
:105A7C00282B10D122682046536823F4E06353602E
:105A8C00274B2022E3620023236384F83D2084F813
:105A9C003E3002F0A8FD10BDA06B4363FFF744FD40
:105AAC000028DFD023685A69520605D51A69636A43
:105ABC001A70636A013363622268A06B136823F067
:105ACC0001031360202384F83D30C9E794F83D109E
