:020000040800F2
:100000000050002069590008B1590008B159000892
:10001000B1590008B1590008B159000800000000AA
:10002000000000000000000000000000B1590008BE
:10003000B159000800000000B15900088381000890
:10004000B1590008B1590008B1590008B159000868
:10005000B1590008B15900087D9E0008839E000830
:10006000899E00088F9E0008959E0008B1590008DF
:10007000B1590008B1590008B1590008B159000838
:10008000B1590008B1590008B1590008B159000828
:10009000B1590008B1590008B15900089B9E0008E9
:1000A000B1590008DD980008B1590008F19800081E
:1000B000F5980008099900081D990008998C000816
:1000C000A58C0008B18C0008BD8C0008B15900084F
:1000D000B1590008059100081D91000835910008EC
:1000E000B19E00088D860008B1590008000000008C
:1000F0000000000000000000000000000000000000
:0C01000000000000000000005FF808F1A3
:10010C0010F8012B11F8013B012A28BF9A42F7D0B5
:10011C00D01A7047034613F8012B002AFBD1181A8A
:10012C000138704781F0004102E000BF83F00043CA
:10013C0030B54FEA41044FEA430594EA050F08BF76
:10014C0090EA020F1FBF54EA000C55EA020C7FEA3A
:10015C00645C7FEA655C00F0E2804FEA5454D4EBB7
:10016C005555B8BF6D420CDD2C4480EA020281EA81
:10017C00030382EA000083EA010180EA020281EAB9
:10018C000303362D88BF30BD11F0004F4FEA01310B
:10019C004FF4801C4CEA113102D0404261EB41011A
:1001AC0013F0004F4FEA03334CEA133302D05242A0
:1001BC0063EB430394EA050F00F0A780A4F101045C
:1001CC00D5F1200E0DDB02FA0EFC22FA05F2801896
:1001DC0041F1000103FA0EF2801843FA05F359417C
:1001EC000EE0A5F120050EF1200E012A03FA0EFCFB
:1001FC0028BF4CF0020C43FA05F3C01851EBE37125
:10020C0001F0004507D54FF0000EDCF1000C7EEB41
:10021C0000006EEB0101B1F5801F1BD3B1F5001F7F
:10022C000CD349085FEA30004FEA3C0C04F101049E
:10023C004FEA445212F5800F80F09A80BCF1004FC7
:10024C0008BF5FEA500C50F1000041EB045141EA49
:10025C00050130BD5FEA4C0C404141EB010111F44A
:10026C00801FA4F10104E9D191F0000F04BF0146F5
:10027C000020B1FA81F308BF2033A3F10B03B3F1D3
:10028C0020020CDA0C3208DD02F1140CC2F10C0263
:10029C0001FA0CF021FA02F10CE002F11402D8BFC1
:1002AC00C2F1200C01FA02F120FA0CFCDCBF41EA8D
:1002BC000C019040E41AA2BF01EB0451294330BD5C
:1002CC006FEA04041F3C1CDA0C340EDC04F1140439
:1002DC00C4F1200220FA04F001FA02F340EA030010
:1002EC0021FA04F345EA030130BDC4F10C04C4F156
:1002FC00200220FA02F001FA04F340EA0300294636
:10030C0030BD21FA04F0294630BD94F0000F83F47F
:10031C00801306BF81F480110134013D4EE77FEA62
:10032C00645C18BF7FEA655C29D094EA050F08BFAE
:10033C0090EA020F05D054EA000C04BF194610468F
:10034C0030BD91EA030F1EBF0021002030BD5FEAD3
:10035C00545C05D14000494128BF41F0004130BDFB
:10036C0014F580043CBF01F5801130BD01F000454F
:10037C0045F0FE4141F470014FF0000030BD7FEAC2
:10038C00645C1ABF194610467FEA655C1CBF0B46BD
:10039C00024650EA013406BF52EA033591EA030FD4
:1003AC0041F4002130BD00BF90F0000F04BF0021CC
:1003BC00704730B54FF4806404F132044FF00005FF
:1003CC004FF0000150E700BF90F0000F04BF002178
:1003DC00704730B54FF4806404F1320410F00045DE
:1003EC0048BF40424FF000013EE700BF42004FEAD9
:1003FC00E2014FEA31014FEA02701FBF12F07F4356
:10040C0093F07F4F81F06051704732F07F4208BF0C
:10041C00704793F07F4F04BF41F40021704730B513
:10042C004FF4607401F0004521F000411CE700BF5F
:10043C0050EA010208BF704730B54FF000050AE0E2
:10044C0050EA010208BF704730B511F0004502D5E3
:10045C00404261EB41014FF4806404F132045FEAE5
:10046C00915C3FF4D8AE4FF003025FEADC0C18BF8E
:10047C0003325FEADC0C18BF033202EBDC02C2F180
:10048C00200300FA03FC20FA02F001FA03FE40EA12
:10049C000E0021FA02F11444BDE600BF4FF0FF3C00
:1004AC0006E000BF4FF0010C02E000BF4FF0010C62
:1004BC004DF804CD4FEA410C7FEA6C5C4FEA430CDB
:1004CC0018BF7FEA6C5C1BD001B050EA410C0CBF2A
:1004DC0052EA430C91EA030F02BF90EA020F00208C
:1004EC00704710F1000F91EA030F58BF994208BFF3
:1004FC0090422CBFD8176FEAE37040F001007047B0
:10050C004FEA410C7FEA6C5C02D150EA013C07D106
:10051C004FEA430C7FEA6C5CD6D152EA033CD3D051
:10052C005DF8040B704700BF8446104662468C464B
:10053C001946634600E000BF01B5FFF7B7FF00287E
:10054C0048BF10F1000F01BD4DF808EDFFF7F4FFA7
:10055C000CBF012000205DF808FB00BF4DF808ED32
:10056C00FFF7EAFF34BF012000205DF808FB00BF55
:10057C004DF808EDFFF7E0FF94BF012000205DF877
:10058C0008FB00BF4DF808EDFFF7CEFF94BF01202C
:10059C0000205DF808FB00BF4DF808EDFFF7C4FF25
:1005AC0034BF012000205DF808FB00BF80F0004044
:1005BC0002E000BF81F0004142001FBF5FEA41032F
:1005CC0092EA030F7FEA226C7FEA236C6AD04FEA2F
:1005DC001262D2EB1363C1BFD21841404840414074
:1005EC00B8BF5B42192B88BF704710F0004F40F426
:1005FC00000020F07F4018BF404211F0004F41F442
:10060C00000121F07F4118BF494292EA030F3FD00D
:10061C00A2F1010241FA03FC10EB0C00C3F1200320
:10062C0001FA03F100F0004302D5494260EB4000AF
:10063C00B0F5000F13D3B0F1807F06D340084FEA1A
:10064C00310102F10102FE2A51D2B1F1004F40EB0F
:10065C00C25008BF20F0010040EA03007047490077
:10066C0040EB000010F4000FA2F10102EDD1B0FA42
:10067C0080FCACF1080CB2EB0C0200FA0CF0AABF37
:10068C0000EBC25052421843BCBFD04018437047D5
:10069C0092F0000F81F4000106BF80F400000132DB
:1006AC00013BB5E74FEA41037FEA226C18BF7FEAB2
:1006BC00236C21D092EA030F04D092F0000F08BFF4
:1006CC000846704790EA010F1CBF0020704712F0DB
:1006DC007F4F04D1400028BF40F00040704712F11A
:1006EC0000723CBF00F50000704700F0004343F07F
:1006FC00FE4040F4000070477FEA226216BF0846B5
:10070C007FEA23630146420206BF5FEA412390EA77
:10071C00010F40F4800070474FF0000304E000BF6D
:10072C0010F0004348BF40425FEA000C08BF70471E
:10073C0043F0964301464FF000001CE050EA0102E2
:10074C0008BF70474FF000030AE000BF50EA0102F7
:10075C0008BF704711F0004302D5404261EB4101E4
:10076C005FEA010C02BF84460146002043F0B64309
:10077C0008BFA3F18053A3F50003BCFA8CF2083A2E
:10078C00A3EBC25310DB01FA02FC634400FA02FC37
:10079C00C2F12002BCF1004F20FA02F243EB02003E
:1007AC0008BF20F00100704702F1200201FA02FCA0
:1007BC00C2F1200250EA4C0021FA02F243EB020093
:1007CC0008BF20EADC7070474FF0FF0C1CEAD052D7
:1007DC001EBF1CEAD15392EA0C0F93EA0C0F6FD098
:1007EC001A4480EA010C400218BF5FEA41211ED076
:1007FC004FF0006343EA501043EA5111A0FB013162
:10080C000CF00040B1F5000F3EBF490041EAD37136
:10081C005B0040EA010062F17F02FD2A1DD8B3F1B2
:10082C00004F40EBC25008BF20F00100704790F021
:10083C00000F0CF0004C08BF49024CEA502040EA73
:10084C0051207F3AC2BFD2F1FF0340EAC250704739
:10085C0040F400004FF00003013A5DDC12F1190F77
:10086C00DCBF00F000407047C2F10002410021FAE9
:10087C0002F1C2F1200200FA02FC5FEA310040F101
:10088C00000053EA4C0308BF20EADC70704792F07A
:10089C00000F00F0004C02BF400010F4000F013AB2
:1008AC00F9D040EA0C0093F0000F01F0004C02BFAD
:1008BC00490011F4000F013BF9D041EA0C018FE71C
:1008CC000CEAD15392EA0C0F18BF93EA0C0F0AD022
:1008DC0030F0004C18BF31F0004CD8D180EA010048
:1008EC0000F00040704790F0000F17BF90F0004FE1
:1008FC00084691F0000F91F0004F14D092EA0C0FC3
:10090C0001D142020FD193EA0C0F03D14B0218BF55
:10091C00084608D180EA010000F0004040F0FE409B
:10092C0040F40000704740F0FE4040F44000704737
:10093C004FF0FF0C1CEAD0521EBF1CEAD15392EAB6
:10094C000C0F93EA0C0F69D0A2EB030280EA010CA6
:10095C0049024FEA402037D04FF0805343EA11113F
:10096C0043EA10130CF000408B4238BF5B0042F19D
:10097C007D024FF4000C8B4224BF5B1A40EA0C0042
:10098C00B3EB510F24BFA3EB510340EA5C00B3EB74
:10099C00910F24BFA3EB910340EA9C00B3EBD10F62
:1009AC0024BFA3EBD10340EADC001B0118BF5FEAB4
:1009BC001C1CE0D1FD2A3FF650AF8B4240EBC250DD
:1009CC0008BF20F0010070470CF0004C4CEA50209E
:1009DC007F32C2BFD2F1FF0340EAC250704740F4ED
:1009EC0000004FF00003013A37E792F0000F00F0DF
:1009FC00004C02BF400010F4000F013AF9D040EA5D
:100A0C000C0093F0000F01F0004C02BF490011F4F0
:100A1C00000F013BF9D041EA0C0195E70CEAD153E8
:100A2C0092EA0C0F08D142027FF47DAF93EA0C0FCF
:100A3C007FF470AF084676E793EA0C0F04D14B02B3
:100A4C003FF44CAF08466EE730F0004C18BF31F065
:100A5C00004CCAD130F000427FF45CAF31F000435F
:100A6C007FF43CAF5FE700BF4FF0FF3C06E000BFF8
:100A7C004FF0010C02E000BF4FF0010C4DF804CD1B
:100A8C004FEA40024FEA41037FEA226C18BF7FEA2B
:100A9C00236C11D001B052EA530C18BF90EA010F2D
:100AAC0058BFB2EB030088BFC81738BF6FEAE170BC
:100ABC0018BF40F0010070477FEA226C02D15FEA58
:100ACC00402C05D17FEA236CE4D15FEA412CE1D0C4
:100ADC005DF8040B704700BF844608466146FFE78B
:100AEC000FB5FFF7C9FF002848BF10F1000F0FBD6D
:100AFC004DF808EDFFF7F4FF0CBF012000205DF866
:100B0C0008FB00BF4DF808EDFFF7EAFF34BF0120EA
:100B1C0000205DF808FB00BF4DF808EDFFF7E0FF83
:100B2C0094BF012000205DF808FB00BF4DF808EDD4
:100B3C00FFF7D2FF94BF012000205DF808FB00BF37
:100B4C004DF808EDFFF7C8FF34BF012000205DF819
:100B5C0008FB00BF42000ED2B2F1FE4F0BD34FF098
:100B6C009E03B3EB126209D44FEA002343F0004317
:100B7C0023FA02F070474FF00000704712F1610F3A
:100B8C0001D1420202D14FF0FF3070474FF000000C
:100B9C00704700BF0348044B834202D0034B03B1A0
:100BAC001847704740010020400100200000000061
:100BBC0005480649091A891001EBD171491002D078
:100BCC00034B03B11847704740010020400100203F
:100BDC000000000010B5064C237843B9FFF7DAFF8C
:100BEC00044B13B10448AFF300800123237010BDF4
:100BFC00400100200000000064B5000808B5054B5A
:100C0C001BB105490548AFF30080BDE80840FFF76C
:100C1C00CFBF00BF000000004401002064B50008F5
:100C2C00BFF34F8F0549064BCA6802F4E0621343C9
:100C3C00CB60BFF34F8F00BFFDE700BF00ED00E0BE
:100C4C000400FA05704708B5112008F01DFBBDE83B
:100C5C000840B0FA80F11120490908F0F1BA07F008
:100C6C007FBE07F0B7BE000010B5064B01211C5C1F
:100C7C00204608F0E5FA2046BDE81040002108F0B7
:100C8C00DFBA00BF35B800082DE9F04105460F4624
:100C9C0008240E4B13F801802B064CBF01210021B8
:100CAC00404608F0CDFA0A4B0121DE5D013C30468E
:100CBC0008F0C6FA0021304608F0C2FA6D0014F0B4
:100CCC00FF04EDB2E8D1BDE8F08100BF16B8000812
:100CDC0011B800082DE9F0470C460826174FDFF82D
:100CEC0064A000210546385D08F0AAFA00211AF824
:100CFC00040008F0A5FA124B13F804902B064CBF15
:100D0C0001210021484608F09BFA1AF804800121C1
:100D1C00404608F095FA0021404608F091FA6D0023
:100D2C00013EEDB2EAD13C5D0121204608F088FA83
:100D3C0031462046BDE8F04708F082BA35B80008C5
:100D4C0016B8000811B8000870B5154604461046D0
:100D5C000E46FFF789FF0A4B0021585D08F070FA28
:100D6C002644B44206D02CB1294614F8010BFFF7E7
:100D7C008BFFF6E72846BDE87040FFF775BF00BF54
:100D8C0011B800084FF6FF7307B50322022101A822
:100D9C00ADF80430FFF7D8FF03B05DF804FBFF2378
:100DAC0007B5037004211846FFF794FF4FF6FF7345
:100DBC000022022101A8ADF80430FFF7C5FFFFF7B0
:100DCC00E1FF03B05DF804FB08B55A4809F082FA5C
:100DDC000221062008F0E6F90221012008F0E2F9D0
:100DEC000221042008F0DEF90221052008F0DAF9CE
:100DFC000221032008F0D6F90221084608F0D2F9A6
:100E0C000221002008F0CEF902210C2008F0CAF9CA
:100E1C000121112008F0C6F90121132008F0C2F9B4
:100E2C000121122008F0BEF90121142008F0BAF9B2
:100E3C000121162008F0B6F90121152008F0B2F9AD
:100E4C000121102008F0AEF901210E2008F0AAF9BA
:100E5C0001210F2008F0A6F90121092008F0A2F9C0
:100E6C000121072008F09EF90121082008F09AF9C9
:100E7C0001211C2008F096F901211F2008F092F99D
:100E8C0001211E2008F08EF90021112008F0D8F95C
:100E9C000021132008F0D4F90021122008F0D0F919
:100EAC000021142008F0CCF90021162008F0C8F914
:100EBC000021152008F0C4F90021102008F0C0F919
:100ECC0000210E2008F0BCF900210F2008F0B8F921
:100EDC000021092008F0B4F90021072008F0B0F92E
:100EEC000021082008F0ACF900211C2008F0A8F91A
:100EFC0000211F2008F0A4F900211E2008F0A0F901
:100F0C000121182008F04EF90121172008F04AF9A8
:100F1C000121182008F094F90121172008F090F90C
:100F2C000121112008F03EF9BDE8084000211120F4
:100F3C0008F086B9D8B7000838B1037A016023F0FD
:100F4C007F0343F00803037201207047D1E901329B
:100F5C0010339A4210B502D20023184610BDA2F1EC
:100F6C0010038B60002BF7D0416859B15C1A241127
:100F7C004C810021436022F8061C02F8081C42F840
:100F8C00041CEAE70360F4E730B544680A44D0E98E
:100F9C000053AB4207D2914205D05D1C456011F85D
:100FAC00015B1D70F3E700221A704068001B30BD16
:100FBC0010B50446044809F08DF900200421207076
:100FCC00BDE81040FFF786BEE9BB0008134B70B5B7
:100FDC000D1E04461249134808BF194609F0F4F8CF
:100FEC00A5B105250626042106202670FFF772FE02
:100FFC00142008F073F9002004212070FFF76AFE1A
:10100C00142008F06BF9013DEDD170BDFF200421D7
:10101C002070BDE87040FFF75DBE00BF24BB000828
:10102C0018BB000829BB000810B5044602F030FFBD
:10103C0010B9A4F87C0410BD02F020FF022804D1E2
:10104C004FF48073A4F87C34F5E7012394F87C24E6
:10105C0084F87D340AB984F8E73484F87C3484F855
:10106C007E340120E7E7000010B504468AB0182052
:10107C0002F0FEFE114809F02DF9114BD4F884242E
:10108C000293CDE90323D4F88C2402A9CDE90523DE
:10109C00D4F89424601CCDE90723D4F89C3404AA1A
:1010AC00099308AB009306AB02F0B0FE012384F861
:1010BC007C3484F87E340AB010BD00BF81BA0008BD
:1010CC00B0C600087FB50446182002F0D1FE38489F
:1010DC0009F000F902A802F0E9FE02A9354808F06F
:1010EC00A3FC4FF47A6241F28831601C02F004FEDA
:1010FC000546C0B9304809F0EDF802F0C9FE20B938
:10110C002E4809F0E7F8A4F87C5402F0B7FE022848
:10111C0006D12B4809F0DEF84FF48073A4F87C3428
:10112C00284604B070BD40F201130126A4F87C34AB
:10113C0084F87E64234809F0CDF802A802F0B6FECC
:10114C0002A91C4808F070FC02A802F0AFFE039B39
:10115C0002A8C4F884341C4B5B68C4F88C34039329
:10116C0002F0E4FE039B02A8C4F8943402F0BEFE25
:10117C00039B84F87F64C4F89C344FF6FF73ADF87E
:10118C00043000230324ADF808300322022102A806
:10119C00FFF7DAFD322008F0A1F80322022101A8A2
:1011AC00FFF7D2FD322008F099F8013CEDD1B7E7FA
:1011BC006CB90008D00C00208BB90008B4B9000839
:1011CC00F8B900081ABA00080007002038B505461F
:1011DC0006242846FFF776FF08B9013CF9D138BD43
:1011EC0010B5044608F076F8D4F87834C01AB0F587
:1011FC007A7F16D908F06EF8C4F878042046FFF709
:10120C0013FF94F8E73463B1002384F8E73494F8BF
:10121C007F3420461BB1BDE81040FFF725BFFFF718
:10122C00D5FF10BD2DE9F04300F59A6693B0044646
:10123C003046884602F0D8FE0546002838D1E71D16
:10124C00B4F85C203946304602F0EEFEE36D194AE4
:10125C00009340213B4602A809F090F802A808F040
:10126C00B3FF6423B8FBF3F8DFF85490304602F078
:10127C00BBFE48B9454507DA642008F02FF848460C
:10128C00013509F027F8F1E7304602F0ADFEE26DCA
:10129C00394658B1084808F097FF304602F0A4FED2
:1012AC00003018BF012013B0BDE8F0830348F2E70B
:1012BC000120F8E742BC000864BC00088DBC0008A3
:1012CC0017BA0008F0B590F87F3491B00546A3B179
:1012DC00FFF7CAFE05F59A64204602F085FE90B928
:1012EC0044F620612846FFF79DFF064640B91D488D
:1012FC0008F0F0FF304611B0F0BDFFF767FFE9E7EB
:10130C00194808F0E7FF05F178063046FEF702FFB2
:10131C00074640220021684608F0A7FE3B46134AC8
:10132C004021684609F02AF8296E204608F072FB25
:10133C0005F11B01204608F06DFBA96E204608F054
:10134C0069FB696E204608F065FB6946204608F08B
:10135C0061FB204608F056FB3146204608F05AFB4C
:10136C000126C7E7E0BA0008F1BA000805BB00087F
:10137C0038B50D460446074808F026FF45B92078D5
:10138C0040F0010020700421BDE83840FFF7A2BCFA
:10139C00FE20F7E76BBE000838B50D46044607483B
:1013AC0008F012FF45B9207840F0020020700421AB
:1013BC00BDE83840FFF78EBCFD20F7E7B4BE00084F
:1013CC0013B50C46074808F0FFFE074B002233F814
:1013DC00143002215BBA01A8ADF80430FFF7B4FC5D
:1013EC0002B010BDF7BB0008E8B7000813B50C46F7
:1013FC00074808F0E9FE074B012233F814300221AC
:10140C005BBA01A8ADF80430FFF79EFC02B010BD2A
:10141C00AFBC0008E8B7000813B50C46074808F045
:10142C00D3FE074B032233F8143002215BBA01A818
:10143C00ADF80430FFF788FC02B010BD95BD000874
:10144C00E8B700082DE9F74306461A4808F042FFB2
:10145C00194808F03FFF00244FF6FF75DFF8648051
:10146C00164FDFF86490D6F8C424D6F8C8349B1A0B
:10147C0008FB03F39C4212D204EB44031A44537846
:10148C003846FF2B05BF39F81430012100211D40CF
:10149C0008F09AFE0A4808F01DFF0134E3E7022227
:1014AC006DBA114601A8ADF80450FFF74DFC03B01E
:1014BC00BDE8F08313BC00082CBC000815BB000869
:1014CC0040BC0008ABAAAAAAE8B7000870B590F80F
:1014DC00E43405460E4614466BB3174B1749126895
:1014EC00002E08BF1946164808F06EFE2368AEB1F0
:1014FC00D5F8C824D5F8C4140133511A114A236005
:10150C004A43934201D3002323602368284685F87D
:10151C00A2342168BDE87040FFF752BF013B002B9D
:10152C002360F2DAD5F8C414D5F8C824521A054948
:10153C0001FB0233E8E770BD42BE00083FBE000865
:10154C0047BE0008ABAAAAAA70B590F8E5340546C8
:10155C000E46144633B3144B14491268002E08BFC0
:10156C001946134808F030FE23682EB10133072BBF
:10157C0088BF0023236002E05A1E11D42260236826
:10158C000C4885F8A13408F0A5FE95F8A1140120AB
:10159C00FFF767FB21682846BDE87040FFF726BFC0
:1015AC000733E7E770BD00BF42BE00083FBE00082E
:1015BC00E8BC00080EBD00084FF0FF3373B50446BD
:1015CC0001930D4679B190F8E5640EBB314600F0FD
:1015DC0023F8204601AA0121FFF7B6FF84F8E66440
:1015EC002046FFF7DCFB94F8E5340A48002B18BFC3
:1015FC00002508F06FFE94F8A1140120FFF731FBD1
:10160C0084F8E55429462046FFF7C6FE02B070BDAB
:10161C000025E8E70EBD00084FF0FF3373B5044614
:10162C0001930D46F9B190F8E4643EBBFFF7AAFBB9
:10163C001A4808F04FFEFF22D4F8C434D4F8C8146A
:10164C008B4204D05A7084F8A3640333F8E700216A
:10165C002046FFF7B1FF01AA01212046FFF736FF14
:10166C00002384F8E63494F8E4344BB1002384F876
:10167C00E4342046FFF793FB002505E00025F2E754
:10168C0084F8E454002DF4D02046FFF7DBFE294605
:10169C002046FFF76DFE02B070BD00BFD4BE00083F
:1016AC0070B590F8E63405460E461446F3B1104B6F
:1016BC0010491268002E08BF19460F4808F084FD27
:1016CC0023682EB10133092B88BF0023236002E06D
:1016DC005A1E09D422602368284685F8A334216851
:1016EC00BDE87040FFF798BE0933EFE770BD00BF4F
:1016FC0042BE00083FBE00088FBE000813B504466A
:10170C00144808F0E7FD042121700846FFF7E2FABF
:10171C000023032202216846ADF80030FFF714FBCA
:10172C00322007F0DBFD4FF6FF73032202216846DF
:10173C00ADF80030FFF708FB322007F0CFFD4FF07B
:10174C00FF3301AA012120460193FFF7A9FF02B044
:10175C0010BD00BFCDBC000873B50D460446124841
:10176C0008F0B8FDD5B1002501262946204684F89D
:10177C00E66484F8E454FFF74FFF29462046FFF750
:10178C001BFF2046FFF7BAFF4FF0FF3301AA31468B
:10179C0020460193FFF784FF02B070BD84F8E65435
:1017AC00FFF7F0FAF8E700BFE5BE000838B590F88F
:1017BC00E63404460D464BB10121002380F8E414B5
:1017CC0080F8E634FFF7D4FDFFF7DCFA94F8E43444
:1017DC00002B39D01D4B1E491E48002D18BF194631
:1017EC0008F0F2FCD4F8C834D4F8C42494F8A21449
:1017FC009A1A194B53438B420FD2184808F06AFDC2
:10180C002046FFF71FFECDB920460121FFF7A4FFAC
:10181C002046BDE83840FFF771BF114808F0D4FCF2
:10182C002946104808F0D0FC94F8A234D4F8C4240B
:10183C0003EB430313445D700B48DFE72046BDE820
:10184C0038400021FFF788BF38BD00BFB5BD000888
:10185C00B1BD0008B8BD0008ABAAAAAADFBD00083C
:10186C00F6BD00080EBE000821BE000838B590F881
:10187C00E63404460D46002B47D0244808F02AFDD8
:10188C00D4F8C834D4F8C42494F8A2149A1A204B6F
:10189C0053438B4234D394F8A3340A2B30D81D48CD
:1018AC0008F092FC94F8A3141B4808F08DFC94F8F3
:1018BC00A234D4F8C42403EB43031344174994F81B
:1018CC00A32417488A5C9A7008F004FD154808F0A8
:1018DC0001FD20460021FFF76FFE20462A4601211C
:1018EC00FFF7F4FD01250023A4F8E45484F8E63452
:1018FC00FFF748FA29462046BDE83840FFF738BDC7
:10190C000948BDE8384008F0E5BC38BD28BD0008E2
:10191C00ABAAAAAAF6BD00083DBD00082BB800086A
:10192C0055BD00086BBD000886BD000870B51C488D
:10193C0008F0D0FC1B4D1C4B1C4C2B604FF0804313
:10194C004FF48670236008F047FA06462968184D54
:10195C0007F0FAFE4FF486702E6008F03DFA06464A
:10196C002168144C07F0F0FE286801224CF250312B
:10197C00266007F081FF012220680F4907F07CFFE9
:10198C0028680E4907F087FE20680D4907F083FE92
:10199C00286807F057FE2068BDE8704007F052BE7B
:1019AC0070B6000858060020002C01409806002054
:1019BC004C0600206001002080969800530C000813
:1019CC00510C000800F0DF03412B0CD0422B0CD043
:1019DC00432B0CD0442B0CD0452B0CD0462B0CD0CD
:1019EC003038C0B270470A2070470B2070470C206B
:1019FC0070470D2070470E2070470F207047000075
:101A0C0010B504460146074808F0DEFB2078FFF7C6
:101A1C00D9FF02466078FFF7D5FF00EB0210C0B289
:101A2C0010BD00BF7CB6000810B50C461146FFF780
:101A3C008DFA20B1037AC46003F07F03037210BDEA
:101A4C0038B50D46046884B1E168A9420DD035B1B2
:101A5C0029B12846FEF754FB10F0FF0F05D0B4F95E
:101A6C000A0018B104EB0014EDE7204638BD033131
:101A7C0038B521F003040546204608F0A1FA50B110
:101A8C0004442B7FC5E9010023F07F03C5E903441F
:101A9C002B77284638BD0446F3E700002DE9F84FB4
:101AAC00D0E90069214CA9EB06035C4314BF234623
:101ABC000123E418074688469346A1EB06052CD271
:101ACC00B4F1553F29D854BBA246BBF800200AEB11
:101ADC0005032AF805209BF80220B0459A7004D023
:101AEC002A463146504608F0A6FA0335C8455544F7
:101AFC00A9EB080B04D05A464146284608F08DFA4B
:101B0C005D4416B1304608F069F904EB44045444C2
:101B1C00C7E900A5BC60BDE8F88F4FF0553404EB65
:101B2C00440008F059F98246CFE700BFABAAAAAA35
:101B3C002DE9F74304460D4600261C4808F044FBEB
:101B4C00D4E90932934218BFA362194B25705F5D2B
:101B5C001848394608F038FB2946174808F034FB7A
:101B6C00B14604F1240804EB8505B7421AD96B6819
:101B7C009B5D8DF805908DF80430D4E90A139942D9
:101B8C008DF8069009D0BDF804205FFA89F30A801D
:101B9C008B700331A1620136E7E701AA4046FFF7DB
:101BAC007DFFF8E703B0BDE8F08300BFA5B80008DF
:101BBC001BB80008B8B80008CEB80008F8B5054640
:101BCC001D4808F087FB0020FFF749F80446012068
:101BDC00FFF745F806462146184808F0F5FA314655
:101BEC00174808F0F1FA631EDBB2092B04D9012166
:101BFC000020FFF736F801240A2E04D901210846EB
:101C0C00FFF72FF801262C7021466E702846FFF73F
:101C1C008FFF00240B4FD5E909239B1A7B439C4271
:101C2C0009D204EB440604F11C001644FFF717F824
:101C3C0001347070EFE7F8BD4FB800086FB80008BA
:101C4C0089B80008ABAAAAAAF7B50446234808F03D
:101C5C0041FB04F59460FFF7B1FF214808F03AFB13
:101C6C000225204F661C2846FEF7F9FF0135014678
:101C7C0006F8010B384608F0A7FA082DF3D11A48DC
:101C8C00E61D08F027FB37462846FEF7E8FF01352E
:101C9C001C2D06F8010BF7D13946144808F094FABC
:101CAC00E36D04F11B05124A009340213B46284684
:101CBC0008F064FB29460F4808F086FA2046FFF727
:101CCC00C1FB94F8A1142046FFF790FB2046FFF7C8
:101CDC0066F82046FFF77AFA03B0F0BD00B90008A9
:101CEC001EB900082FB9000834B90008D3BA00088F
:101CFC004AB9000856B9000810B50C4C64212046AE
:101D0C0007F005FF20460A4C06224FF4E13107F09C
:101D1C00AFFBFFF759F8FFF709FE2046FFF794FFDA
:101D2C0094F8A124034B1A6010BD00BFD00C002006
:101D3C00640100205000002070B50446007A0D4666
:101D4C0010F07F03164611D120F07F00C4E9003358
:101D5C0040F02000207229462046FFF771FE40B962
:101D6C00324629462046FFF75FFE02E010F02000C5
:101D7C00F1D170BD837B33B943685A1C42601B7828
:101D8C00437301238373407B704770B50446002571
:101D9C002046FFF7EFFF0A2805D8092809D2D8B149
:101DAC004FF000001AE0202803D02F2803D00D2874
:101DBC00F6D1A573ECE7A5732046FFF7DBFF2A28C5
:101DCC0004D02F2815D04FF0020007E00026A57391
:101DDC002046FFF7CFFF10B94FF0010070BD2F2840
:101DEC0001D1002EE5D1A0F12A035E425E41A5731C
:101DFC00EEE7A5732046FFF7BDFF0028ECD00A28BC
:101E0C00F7D1C5E770B50C461646054640B141B151
:101E1C00FFF716FE20B9324621462846FFF704FE8E
:101E2C0070BD0846FCE700002DE9F04104460F4662
:101E3C008668FFF79FFF00258046A5732046FFF7B5
:101E4C0099FF8045A57323D018B94FF00100BDE868
:101E5C00F0815C2817D12046FFF78CFF0028F4D0C6
:101E6C0075280CD0104B1A79191D5AB1904203F1F8
:101E7C000203F8D1487828B94FF00200E7E74FF099
:101E8C000400E4E7A573A3685A1CA2601870D5E798
:101E9C00A3685A1CA2601D703E6016B94FF0030077
:101EAC00D5E74FF00000D2E7F1B800082F2807D98A
:101EBC00392803D95E280CD97A2805D80120704717
:101ECC002B28FBD02D28F9D0A0F12E0358425841D5
:101EDC0070474028F8D95A28EFE72DE9F04104461D
:101EEC000E46FFF747FF272825D0222823D020466F
:101EFC00A568FFF73FFF074618B3FFF7D7FF10B3EE
:101F0C004FF00008A36884F80E805A1CA26020468B
:101F1C001F70FFF72FFF0746FFF7C8FF0028F1D10E
:101F2C00A368002D03F10102A260187035600CBF8C
:101F3C000320002003E031462046FFF775FFBDE883
:101F4C00F0810120FBE70220F9E700002DE9F041C8
:101F5C000B7805462B2B12D02D2B11D101270131DB
:101F6C000B78A3F13002092A0CD92E2B0AD00023AE
:101F7C0000222B606A602B722846BDE8F08101318B
:101F8C000027EDE700204FF00A0C534E0A4612F8DA
:101F9C00014BA4F13003DBB2092B09D8B04208D8AD
:101FAC00DC430CFB00F0844203D318441146EDE7EC
:101FBC0054B100230A24494EB04203F101020CD95A
:101FCC00B0FBF4F01346F7E72860FEF7A5FB002FF3
:101FDC00686014BF0A230823CDE75B1A5C180E4611
:101FEC0011F8012B64B2A2F1300CBCF1090FF5D938
:101FFC002E2A11D10A460A21DFF8E8C0164633789A
:10200C000132303BDBB2092B06D86045F6D8013CD7
:10201C0001FB003064B2F1E7337803F0DF03452BAA
:10202C0048D173782D2B19D10121B21C00234FF00C
:10203C000A0E164612F801CBACF1300C5FFA8CF894
:10204C00B8F1090F19D80EFB03C3E618262EF0DDE4
:10205C0069B14FB900236B600C238CE72B2B14BF99
:10206C00721CB21C0021E1E74FF00043F3E717B9F3
:10207C004FF0FF43EFE71A4BEDE701B15B423678C7
:10208C00002E7FF474AF1C44FEF746FB002C13DDCE
:10209C00DFF85480E20704D5F3B258F82310FEF7AA
:1020AC0093FB641006F10106F4D10FB100F100406E
:1020BC006860D1E70023E2E7DFF830806442002C4F
:1020CC00F3D0E30704D5F3B258F82310FEF77CFBEA
:1020DC0064100136F3E700BF99999919FFFF7F004F
:1020EC00000080FFCBCC0C0030000020180000203A
:1020FC002DE9F04794B080460D460024FFF73AFED8
:10210C00A24607460DF110093846E6B2FFF7CEFE9F
:10211C0060B13F2C09D088F80EA0404604F8097035
:10212C00FFF728FE01340746EEE72646002414ABE1
:10213C00334403F8404C9DF81030742B09D12B7AA2
:10214C0023F07F0343F006032B7201232B60301F17
:10215C0009E0662B0CD12B7A2C6023F07F0343F023
:10216C0006032B72701F18BF012014B0BDE8F08756
:10217C006E2BECD004A901A8FFF7E8FE9DF80C30FB
:10218C00019A0A2B09D00C2B10D0082B17D12B7AC3
:10219C0023F07F0343F0080304E02B7A23F07F0342
:1021AC0043F00A032B722A602046DEE72B7A23F0D9
:1021BC007F0343F00C032B72029B2B60F4E74FF070
:1021CC000200D2E773B505460C46FFF7DEFDC6B23A
:1021DC00002E39D12846FFF7CDFD272826D006D86A
:1021EC00222823D021462846FFF782FF1CE05B28DB
:1021FC000ED07B28F6D1237AC4E9006623F07F0346
:10220C0043F0200323722146284600F004F90BE02A
:10221C00237AC4E9006623F07F0343F04003237262
:10222C002146284600F0B0F8C0B20DE001A92846BE
:10223C00FFF7FAFDC0B238B9237A23F07F0343F0DD
:10224C0005032372019B236002B070BDF0B500F54D
:10225C009A668DB00546304601F056FF00287BDDAE
:10226C00304601F051FF074605F178044FF48062C7
:10227C000021204607F0F9FE3B4622460A21304653
:10228C0007F02DFC21463A4807F09EFF7B212046A3
:10229C0008F0A8F800285FD0364808F01BF84FF07B
:1022AC0000024FF4806104A8FFF7E1FB059B09A92C
:1022BC000693089B684607939DF82C30029423F0F4
:1022CC007F038DF82C3005ABCDE900340A238DF853
:1022DC000C3000238DF80E30FFF774FFC4B25CBBDA
:1022EC009DF80D3053B19DF82C3013F0600F05D1D3
:1022FC0003F07F03043B012B88BF02241E4B53F8D1
:10230C0024101E4807F060FF1CBB9DF82C309B0668
:10231C002CD51B4909A8FFF793FB38B3037A03F0BC
:10232C007F030C2B11D8DFE803F0211010101010D4
:10233C000B100B100B101900052CDFD91149E0E71D
:10234C000068003018BF012080B101212846FEF73B
:10235C003DFE059807F03CFE0DB0F0BD0021006875
:10236C00FEF7C6FBB0FA80F04009EDE70021EDE77F
:10237C00D3BA0008A6BA000808B60008BBBA000811
:10238C00D8BA0008A2BA000870B5037B05460E4601
:10239C0013B94FF0050070BDFFF7ECFC5B2802D0C1
:1023AC004FF00200F7E700232846AB73FFF7EDFC74
:1023BC0010F0FF0FEFD12846FFF7DCFC5D281ED193
:1023CC000020A873E7E72B7B2846013B2B73FFF714
:1023DC00F9FE2B7BC0B201332B730028DBD12846CE
:1023EC00FFF7D3FCC4B2A4B92846FFF7C3FC5D28A1
:1023FC00E6D02846FFF7BEFC2C28D1D1AC73296857
:10240C003046FEF7A3FD01460028DCD14FF0030057
:10241C00C1E72046BFE7F7B5037B05460E461BB95F
:10242C004FF0050003B0F0BDFFF7A4FC7B2802D0F1
:10243C004FF00200F6E700232846AB73FFF7A5FC2C
:10244C00C4B2002CEED12846FFF794FC7D2839D17C
:10245C00AC732046E6E70746037A63F07F0303720A
:10246C00019BC3602846FFF790FCC4B2002CF0D14E
:10247C002846FFF77FFC3A28DAD12B7BAC73013B63
:10248C002B7339462846FFF79DFE2B7BC0B20133D8
:10249C002B730028C6D12846FFF777FCC4B2002C5A
:1024AC00D7D12846FFF766FC7D28D1D02846FFF708
:1024BC0061FC2C28BCD1AC732846FFF766FCC0B27B
:1024CC000028AFD101A92846FFF707FDC0B20028AC
:1024DC00A8D101993046FFF7B3FA07460028C1D1BD
:1024EC0029683046FEF732FD0028B4D14FF00300C6
:1024FC0098E738B5044608460D46FDF70BFE29460D
:10250C0002462046FEF740FDA3681844A06038BD83
:10251C00D0E9002393423FBF5A1C4260002219703D
:10252C0037BF436800221A7001228368134483600A
:10253C007047000070B505460C4619B91049FFF7F5
:10254C00D8FF70BD2221FFF7E3FF013C14F8011FF7
:10255C0039B10C4B1E7876B15A788A4206D00233C8
:10256C00F8E722212846FFF7D3FFEAE75C2128464B
:10257C00FFF7CEFF31462846FFF7CAFFE6E700BF5C
:10258C00ECB80008F1B80008000000002DE9F04795
:10259C0006230E460746837252493046FEF7C6FAAA
:1025AC00002841D0052500244FF02008DFF8389191
:1025BC00DFF838A1314659F82500FEF7ADFA38B1ED
:1025CC0030465AF82510FEF7FFF80646444424B26C
:1025DC0015F1FF354FEA6808ECD200213046FEF7C2
:1025EC00AFFA30B33046FDF701FF3CA3D3E900232B
:1025FC00FDF7BEFFE8B1DFF8F890DFF8ECA02B0692
:10260C0017D4314659F82500FEF79AFA40B13046F6
:10261C005AF82510FEF7D8F80646A4EB080424B2A5
:10262C004FEA6808013DEAE74FF02008052504460B
:10263C00D3E73C813046FEF78DFA0A210546034666
:10264C00DFF8B0803860092B07D9BA7AB8FBF1F8FB
:10265C00013ABA72B3FBF1F3F5E72846FEF75CF8E2
:10266C0001463046FDF7A6FF06464046FEF754F8F5
:10267C0001463046FEF7A8F88146FEF76BFA06468F
:10268C00FEF74AF801464846FDF794FF0146FDF770
:10269C0093FFFEF75FFA304440450FD278600A2171
:1026AC007B68B3FBF1F201FB1233A3B997F90A3043
:1026BC00002B10DD013B7A60BB72F1E70023013582
:1026CC007B603D60002CEAD0092D81BF01230134D1
:1026DC003C813B60E3E73846BDE8F087F168E3886E
:1026EC00B5F8E43E8096184B30000020180000200E
:1026FC000000002040420F0010B50446521AFEF7AD
:10270C0043FCA3681844A06010BD70B586B00DF1F1
:10271C0016031A460A26B1FBF6F506FB1514092911
:10272C0004F1300403F8014D04D81946FFF7E4FF17
:10273C0006B070BD2946EEE770B505468AB008466E
:10274C000C46FEF7D5F928B93F492846FFF7D1FECC
:10275C000AB070BD00212046FEF7CAF948B92146DF
:10276C002046FDF729FF01462046FEF7C1F9002857
:10277C00EAD100212046FEF7C5F928B12D212846C3
:10278C00FFF7C6FE04F10044214601A8FFF7FEFE48
:10279C0001992846FFF7B9FF9DF90E10E1B10A46E1
:1027AC000A26029B0DF11F04013A52B2501C08D0AC
:1027BC00B3FBF6F006FB1033303304F80139034653
:1027CC00F2E7C9B208AA531A2E20C94303F8010C28
:1027DC0011442846FFF790FFBDF90C30002B17DA97
:1027EC001A492846FFF785FE0DF126010A460A24F0
:1027FC00BDF90C305B4293FBF4F004FB1033303327
:10280C0001F8013D03460028F5D12846FFF774FF77
:10281C00BDF90C30002B9BDD65212846FFF778FEB7
:10282C000DF126010A460A24BDF90C3093FBF4F095
:10283C0004FB1033303301F8013D03B2002BF5D10A
:10284C002846FFF759FF83E7ECB80008E9B8000801
:10285C0038B5037A054603F07F03062B0C4669D086
:10286C000CD8022B11D3032B53D8D0E900122046DD
:10287C00FEF78AFBA3681844A06025E00C2B1FD040
:10288C0005D8082B54D00A2B48D02F4955E0202BC3
:10289C0020D0402BF9D15B212046FFF739FE2D6863
:1028AC009DB121462846FFF7D3FFB5F90A3063B135
:1028BC0015EB031509D02C212046FFF729FEEFE775
:1028CC0001682046FFF738FF38BD5D212046FFF731
:1028DC001FFEF9E77B212046FFF71AFE2D68B5B1E4
:1028EC00E9682046FFF726FE3A212046FFF710FE46
:1028FC0021462846FFF7ACFFB5F90A303BB115EB82
:10290C00031504D02C212046FFF702FEE7E77D21BA
:10291C00DCE701682046FFF70DFED5E705682D21A1
:10292C002046FFF7F5FD29462046FFF7EEFECBE7E4
:10293C000168F9E7036823B104492046FFF7D9FD84
:10294C00C2E70349F9E700BFECB80008FBBE00087A
:10295C0000BF00082DE9F04F0446D0F8C424D0F88D
:10296C00C8348DB09B1A4C4A4FF4006102FB03F83B
:10297C0004A84FF0000204F17809FFF778F84FF43F
:10298C0080620021484607F070FB05AA434909A85C
:10299C00FFF7D2F994F8A014FEF7CEFA94F8A1340C
:1029AC003F4A4049D55C09A805AAFFF7C5F9294655
:1029BC00FEF7C2FA05AA3C4909A8FFF7BDF906467D
:1029CC0040B1037A23F07F0343F0400303720023EA
:1029DC00C0E90033354807F07DFC4146344807F028
:1029EC00F3FB002747453ED0002E3AD005A93046D0
:1029FC00FEF7ACFA054640B1037A23F07F0343F0AF
:102A0C00200303720023C0E90033D4F8C4B407EBED
:102A1C00470A05AA27492846FFF7F4F91BF80A10BC
:102A2C00FEF78AFAD4F8C43405AA03EB0A0B224940
:102A3C002846FFF7E7F99BF80110FEF77DFAD4F86A
:102A4C00C43405AA9A441D492846FFF7DBF99AF8C5
:102A5C000210FEF771FA3946194807F0B5FB013739
:102A6C00C0E73546D1E7002301A984F8783009A8DE
:102A7C0004F277440393CDE90149FFF7E9FE1148CD
:102A8C0007F028FC4946104807F09EFB059807F014
:102A9C009FFA0DB0BDE8F08FABAAAAAA42BB000802
:102AAC0023B800084ABB000859BB000864BB0008E7
:102ABC0081BB00089CBB0008A1BB0008A8BB000898
:102ACC00ADBB0008C9BB0008D3BA000870B50446FA
:102ADC00194807F0FFFB94F8E43433B32046FEF7B3
:102AEC0067FA2046FFF736FF2046FEF7EBFB014660
:102AFC00E0B1124807F0EEFB0025114ED4F8C424C7
:102B0C00D4F8C8349B1A7343AB4209D905EB45037F
:102B1C001A4405F11C005178FEF7A3F80135EDE7D6
:102B2C000023A4F8E43484F8E63470BD2046BDE8F4
:102B3C007040FEF74BBA00BF3EBA000860BA0008FE
:102B4C00ABAAAAAAF7B500253B4C2B462A46294628
:102B5C0000953A4806F00EFF2246394B02F8015B0D
:102B6C001968C4F81250C4F801109988C4F81650AA
:102B7C0091801A4652F8060FA576C4F807005068E3
:102B8C0004F11B01C4F80B001089927AA4F80F0011
:102B9C00627403F11A022E3352F8040B9A4241F874
:102BAC00040BF9D1138827480B80937829228B705A
:102BBC00002107F05AFA47F6F8730027E365224B19
:102BCC0022492366224B23486366234B234DA3667D
:102BDC0007F025F82248C4F87874C4F87C7406F021
:102BEC00C1FE204806F0BEFE1F4806F0BBFE1F4883
:102BFC0006F0B8FE01231E4EC4F8A0340FCE0FC54C
:102C0C0096E80F0085E80F001A4A4FF47A73C4F85F
:102C1C00D0240822C4F8C474C4F8C874C4F8CC74A2
:102C2C00C4F8D474C4F8D83484F8E024A4F8E2349A
:102C3C00C4F8E47403B0F0BD64010020D806002091
:102C4C007CB500089601002020B60008FFB80008EB
:102C5C003FB60008D00100205EB600080806002030
:102C6C00E4050020EC050020F4050020FC05002004
:102C7C00D8B50008CCC0000808B5054BD3F8C4047F
:102C8C0008B107F0ABF8BDE80840024806F082BF77
:102C9C0064010020D001002010B5834886B006F0F6
:102CAC003CFB002840F3FE807F49684606F032FF6B
:102CBC00684607F03FF800997C4807F085FA7C4994
:102CCC0003A806F0ACFF03A9684607F009F8044610
:102CDC0003A806F05FFF002C05DB764807F0FAFA34
:102CEC000122754B1A70754903A806F098FF03A9C9
:102CFC00684606F0F5FF044603A806F04BFF002CCF
:102D0C0005DB6F4807F0E6FA02226B4B1A706D492F
:102D1C0003A806F084FF03A9684606F0E1FF044609
:102D2C0003A806F037FF002C05DB624807F0D2FA47
:102D3C000522614B1A70644903A806F070FF03A9C1
:102D4C00684606F0CDFF044603A806F023FF002CCE
:102D5C0005DB5E4807F0BEFA0322574B1A705C493C
:102D6C0003A806F05CFF03A9684606F0B9FF044609
:102D7C0003A806F00FFF002C05DB564807F0AAFA53
:102D8C0004224D4B1A70544903A806F048FF03A9BE
:102D9C00684606F0A5FF044603A806F0FBFE002CCF
:102DAC0005DB4E4807F096FA0622434B1A704C4945
:102DBC0003A806F034FF03A9684606F091FF044609
:102DCC0003A806F0E7FE002C05DB464807F082FA64
:102DDC000722394B1A70444903A806F020FF03A9B7
:102DEC00684606F07DFF044603A806F0D3FE002CCF
:102DFC0005DB3E4807F06EFA08222F4B1A703C494F
:102E0C0003A806F00CFF03A9684606F069FF044608
:102E1C0003A806F0BFFE002C05DB364807F05AFA73
:102E2C000922254B1A70344903A806F0F8FE03A9B1
:102E3C00684606F055FF044603A806F0ABFE002CCE
:102E4C0005DB2E4807F046FA0A221B4B1A702C4958
:102E5C0003A806F0E4FE03A9684606F041FF044609
:102E6C0003A806F097FE002C05DB264807F032FA83
:102E7C000B22114B1A70244903A806F0D0FE03A9AB
:102E8C00684606F02DFF044603A806F083FE002CCE
:102E9C0005DB1E4807F01EFA0C22074B1A70684619
:102EAC0006F078FE06B010BDD00C0020D3BA000896
:102EBC008DB600089AB600085C010020ACB600087C
:102ECC00BAB60008D4B60008DFB60008E8B60008A9
:102EDC00F6B60008FDB6000809B7000810B70008E0
:102EEC001CB7000824B7000831B7000840B7000829
:102EFC0052B7000861B7000875B7000881B7000821
:102F0C0096B70008A2B70008B6B70008C1B700080A
:102F1C002DE9F04389B006F0DDF9B84C2368C01AEE
:102F2C00B0F5FA7F05D906F0D5F92060B448FEF764
:102F3C0089FA062006F0A8F958B9062006F0A4F97B
:102F4C000028FAD0AF4807F0C5F90121AC48FEF7CC
:102F5C0063FB012006F098F958B9012006F094F9AA
:102F6C000028FAD0A84807F0B5F90121A448FEF7CB
:102F7C0023FB002006F088F950B9002006F084F9F4
:102F8C000028FAD0A14807F01FF99D48FFF79EFDD5
:102F9C00032006F079F958B9032006F075F90028DA
:102FAC00FAD09B4807F096F9FF219548FEF7FEFBF7
:102FBC00022006F069F9044630B9964807F08AF900
:102FCC0021468F48FEF7F2FB042006F05DF9B0B9FC
:102FDC00042006F059F90028FAD08F4807F07AF946
:102FEC008E4A00218648FEF771FA8D4A00218448EA
:102FFC00FEF7AAFA8B4A00218148FEF751FB052007
:10300C0006F042F9B0B9052006F03EF90028FAD0D6
:10301C00854807F05FF9814A01217948FEF756FA95
:10302C007F4A01217648FEF78FFA7E4A01217448C7
:10303C00FEF736FB0C2006F027F960B90C2006F0E1
:10304C0023F90028FAD0794807F044F9754A7349F6
:10305C006B48FEF70BFC6A48FFF7F8F8FFF71CFE0D
:10306C006748FEF7BDF80021714B724A724C734DE4
:10307C002360137829600B2B11706FD1704807F007
:10308C0029F9704D2368002B40F3F080143B28463F
:10309C00236006F042F900285CDD6C460025694986
:1030AC0002A806F037FD2E46A046DFF8A491049B3B
:1030BC009D4229D2294602A806F001FE3A2805F1C4
:1030CC00010714D132462B4602A905A806F00CFEC6
:1030DC000598FEF795FC014604F8010B484607F0ED
:1030EC0073F805A83E4606F055FD3D46DFE7294638
:1030FC0002A806F0E4FD2D28E4D0294602A806F02B
:10310C00DEFD2028F1D1DDE7324602A905A806F044
:10311C00EBFD0598FEF774FC062320700022414657
:10312C00494806F05DFF494807F0D4F80224464DA3
:10313C00474E20462978FDF794FD013415F8011B04
:10314C00304607F041F8082CF3D1424807F0C2F89A
:10315C00FDF766FD142006F0C1F893E70C2B32D175
:10316C00374807F0B7F8374D2368002B7EDD143B4A
:10317C002846236006F0D1F8002820DD314905A847
:10318C0006F0C8FC05A806F0E1FD14230022059901
:10319C00314806F025FF314807F09CF808242E4DE5
:1031AC002B4E20462978FDF75CFD013415F8011BE8
:1031BC00304607F009F81C2CF3D12948C6E7142037
:1031CC0006F08CF8D0E7013B092B4FD801A252F83E
:1031DC0023F000BF713200088532000897320008D6
:1031EC00B73200088F320008D1320008DB320008F9
:1031FC00EB3200085D310008DF320008E0060020E9
:10320C006401002006BF00081FBF00083DBF000876
:10321C004CBF000858BF000865BF000848000020DC
:10322C00500000204C00002072BF00087EBF000838
:10323C00E09304005C01002054060020500600209E
:10324C008FBF0008D00C002065010020ABBF000828
:10325C002FB90008BCBF00086B010020D5BF0008C7
:10326C00EBBF000801213E48FEF7D6F9022006F01C
:10327C0035F809B0BDE8F08301213948FEF79CF917
:10328C00F4E73748FFF722FCF0E7364A00213448D0
:10329C00FEF71CF9344A00213148FEF755F900219C
:1032AC00324A2F48FEF7FCF9E0E72E4A01212C4860
:1032BC00FEF70CF92C4A01212948FEF745F92B4A57
:1032CC000121EEE7FF212648FEF770FACEE7002138
:1032DC00F9E7264A23492248FEF7C8FAC6E72448EC
:1032EC0006F0F8FF234E244F2368002BBEDD143B61
:1032FC003046236006F011F8002811DD314605A890
:10330C0006F008FC05A806F049FD0146286008B146
:10331C000A2809DD384606F057FF05A806F03AFCE6
:10332C00142005F0DBFFDFE7144806F04DFF0C4CD2
:10333C002D68134884F8A05406F0CCFF94F8A01420
:10334C00104806F041FF94F8A0140020FDF789FC0A
:10335C0004F59460E9B2FEF7EBFB0B48F6E600BF10
:10336C006401002048000020500000204C00002088
:10337C008FBF0008D00C002009C0000815BB000846
:10338C0039C0000852C000086DC00008142200218A
:10339C00103006F06ABE10B50446103106F0FCFA87
:1033AC00204610BD10B50446143106F0F5FA20463F
:1033BC0010BD10B50446183106F0EEFA204610BDCB
:1033CC0010B50446203106F0E7FA204610BD302334
:1033DC0001F8013B02F00F03092B94BF3033373354
:1033EC000F2AC2F3071001F8013900D870470246C2
:1033FC00F0E70000002307B51A460093194603486E
:10340C0006F0B8FA03B05DF804FB00BFE406002038
:10341C002DE9F0418EB00446884616460021202244
:10342C0006A806F022FEFF2302A81A4619460093AE
:10343C0006F0A0FA4C4B04F148050493039B43227D
:10344C0004A92846059301F041F8013000F0898069
:10345C00464B76BA06936368ADF820601BBA0793A7
:10346C00802326461C2206A92846ADF8223001F0FE
:10347C003CF81A2200210DF11E0006F0F6FD56F85C
:10348C00080F1022B388069006A92846ADF81C3008
:10349C0001F02BF82022002106A806F0E6FD0627F5
:1034AC00202206A9284601F020F8013FF8D1304B24
:1034BC003049069340F23513ADF81C303D238DF89E
:1034CC001F3040F20713ADF8203033680DF12A009D
:1034DC00CDF82230B3888DF81E80ADF8263040F63A
:1034EC000C43ADF8283006F08AFFE27A0CA920468E
:1034FC00FFF76DFF227B0DF132012046FFF767FFCE
:10350C00627B0DA92046FFF762FF1E2206A9284602
:10351C0000F0EBFFB8F1030F14D140F23243ADF8D9
:10352C001830238A0C22ADF81A30638A06A9ADF83C
:10353C001C3040F23643ADF81E30E3692846089340
:10354C0000F0D3FF0C4A0D4B06A9CDE90623FF234F
:10355C00092228468DF8203000F0C7FF284600F0DD
:10356C00BEFF0EB0BDE8F081B0C600080101060038
:10357C0063825363B8C0000837060103060F3A3B59
:10358C002DE9F04391B005468846164605F0A2FE9B
:10359C00074605F14804204601F00EF8002809DC26
:1035AC0005F098FEC01B404500F2D080322005F09B
:1035BC0095FEF0E7242207A9204600F0BAFF9DF8FB
:1035CC001C30022B40F0BD80B5F86430432B40F02A
:1035DC00B880089F06223FBA376005F108010EA893
:1035EC0006F00DFD064628B92B689F4202D36B6886
:1035FC009F4207D9204600F009FF0026304611B043
:10360C00BDE8F0830B9B01462B61CC22204600F0D9
:10361C0090FF05F12407204600F0EAFE002840F355
:10362C009180204600F06EFF33287DD015DC0128F8
:10363C0044D006DC0028EED0204600F063FFC2B276
:10364C0053E0032844D00628F6D1204600F05AFF58
:10365C000422804605F1200141E03A284AD020DCC2
:10366C00352823D03628E7D1204600F04BFF05F152
:10367C001C084146814601A806F08EF9002103A8DA
:10368C0006F084F9029A049B9A4230D0414605A870
:10369C0006F082F92A6E069B9A4228D05FFA89F2CC
:1036AC0023E03B2833D0FF28B5D0C5E7204600F0F7
:1036BC0029FF204600F026FFC6B2ACE7204600F0FA
:1036CC0021FF042205F11401204600F032FFA2E78D
:1036DC00204600F017FF0422804605F11801204611
:1036EC0000F027FF5FFA88F2043A0021ECE704228D
:1036FC004146E9E7204600F005FF042205F12801C8
:10370C00204600F016FFAB6A1BBAAB6283E720467B
:10371C0000F0F8FE042205F12C01204600F009FF10
:10372C00EB6A1BBAEB6276E7204600F0EBFE042254
:10373C003946204600F0FDFE6B6A1BBA6B622B63A8
:10374C0069E70026204600F061FE57E7FF2655E7A3
:10375C002DE9F34704464FF4FA61012006F002FA12
:10376C002746606047F8480B384600F050FE44216D
:10377C00384600F058FE002800F0908005F0AAFDB5
:10378C004FF00009804600254FF0030A94F84430AE
:10379C00032B1CD043BB63680133636005F09AFDB7
:1037AC004FF47A72A0EB0800B0FBF2F2012192B256
:1037BC002046FFF72DFE012384F84430002DE5D17F
:1037CC0005F088FDA36BA0EB08009842DBD93846C6
:1037DC0000F01DFE63680133636005F07BFD20641F
:1037EC00284602B0BDE8F087042B11D16368013381
:1037FC00636005F06FFD4FF47A72A0EB0800B0FB2C
:10380C00F2F2032192B22046FFF702FE0223D3E725
:10381C00012B19D101AAE16B2046FFF7B1FE02285A
:10382C00064638D1019B636005F054FD4FF47A7263
:10383C00A0EB0800B0FBF2F2032192B22046FFF796
:10384C00E7FD84F84460B9E7022BB7D101AAE16B1C
:10385C002046FFF795FE0528064617D1636A84F8C3
:10386C0044A013B94FF461736362A36A13B9636A1A
:10387C005B08A362E36A1BB9636AA3EBD303E3623D
:10388C00A36A01252363E36A63637FE7062802D1F9
:10389C0084F8449092E7FF2EFAD08FE705469FE715
:1038AC00F8B500250F460446C0E90955C562C0E9C4
:1038BC000E2385608581FFF769FD3B682046A36078
:1038CC00BB8884F84450A381BDE8F840FFF740BFA3
:1038DC004B68436000230381704770B50024234676
:1038EC00013911F8010FB8B1A0F13005EEB2092E73
:1038FC0008D803EB830305EB43039BB2FF2BF0D9F2
:10390C0000200DE02E28FBD1032CF9D0601C1444B0
:10391C002371C4B20023E4E7032C01D10120D3713D
:10392C0070BD0000002307B51A46009319460348E2
:10393C0006F020F803B05DF804FB00BFEC06002095
:10394C002DE9F34106460D4605F0C4FC06F10C04C6
:10395C00308106F108010222204600F0C6FD012349
:10396C0002220DF106012046ADF8063000F0BDFD37
:10397C004FF4807302220DF106012046ADF806309B
:10398C0000F0B3FD002302220DF106012046ADF834
:10399C00063000F0AAFD02220DF10601204600F0CF
:1039AC00A4FD02220DF10601204600F09EFD2E46DC
:1039BC002B78E3B135462F4617F8013B0BB12E2B74
:1039CC0013D1A5EB0608B8F1000F0CDD01220DF1A7
:1039DC00050120468DF8058000F087FD42463146F2
:1039EC00204600F082FD3E46E2E73D46E3E74FF419
:1039FC0080750DF10501012220468DF8053000F08F
:103A0C0074FD0DF1060102222046ADF8065000F0BF
:103A1C006CFD02220DF106012046ADF8065000F0B7
:103A2C0064FD012002B0BDE8F0812DE9F04387B0C0
:103A3C0006460F46904605F04DFC054606F10C0473
:103A4C00204600F0B9FD002809DC05F043FC401BC2
:103A5C00B84200F2C980322005F040FCF0E7726AEF
:103A6C0073689A4240F0C380338D352B40F0BF8091
:103A7C00204600F0BDFC0B2840F3BC800C222046F5
:103A8C000DEB020100F055FDBDF80E203189130A33
:103A9C0043EA0223BDF80C201BB29DB29142ADF853
:103AAC00065001D1002B07DB204600F0AFFC4FF68F
:103ABC00FC7007B0BDE8F08340F20F231D4005D029
:103ACC00204600F0A3FC4FF6FB70F2E7BDF8123075
:103ADC001E0A46EA0326B6B22EB9204600F096FC22
:103AEC004FF6FA70E5E7BDF81030AAB25BBA9BB29C
:103AFC009A4218DA01220DF10A01204600F019FD54
:103B0C009DF80A2032B904220021204600F011FD54
:103B1C000135E8E70021204600F00BFD9DF80A3046
:103B2C00002BE7D1EFE70027B94601220DF1050183
:103B3C00204600F0FEFC9DF8052012F0C00134D1A7
:103B4C0032B1204600F0F5FC9DF80530002BECD18D
:103B5C00022202A9204600F0ECFC02220DF10A011F
:103B6C00204600F0E6FC04220021204600F0E1FC97
:103B7C0002220DF10601204600F0DBFCBDF80830F6
:103B8C00BDF80620B3F5807F17D052BA92B200214F
:103B9C002046013700F0CDFCBBB2B342C5D3204662
:103BAC0000F034FC4FF6F67083E70122002120462A
:103BBC0000F0BFFC8DF80590CAE7BDF80A0040BACA
:103BCC0085B2012DE1D152BA92B2042A05D0204619
:103BDC0000F01CFC4FF6F7706BE708F1040120466F
:103BEC0000F0A7FC284664E74FF6FF7061E74FF63C
:103BFC00FE705EE74FF6FD705BE700002DE9F743C2
:103C0C000546894690461F46FFF767FE044688BB6B
:103C1C001B4B6A685B689A422ED005F05BFB05F182
:103C2C000C0600F00F0101F58061304600F0FBFB43
:103C3C0001281BD1134B352200936B686946304623
:103C4C00019300F043FC70B149462846FFF778FE1B
:103C5C0048B1304600F043FC28B14246394628466C
:103C6C00FFF7E3FE0446304600F0D1FB204603B0DC
:103C7C00BDE8F0830124F9E76FF00104F6E700BF1B
:103C8C00EC060020B0C6000802F1FF3C4160DCF1FC
:103C9C00000141EB0C01817202720BB9437205E019
:103CAC00012BFBD0022BF9D0032BF7D0704710B5AA
:103CBC0086B003AC84E80E00059B2321009394E8A6
:103CCC000C0001F02BFD06B010BD232101F060BDEE
:103CDC0001460422012001F0EDB901460422052021
:103CEC0001F0E8B901460622092001F0E3B90146CA
:103CFC0004220F2001F0DEB92DE9F0433C4E87B0D1
:103D0C003368054613F0010388469146394C0ED1B1
:103D1C00E3644FF47A732365374B04F15C00A364BE
:103D2C0005F020FE082384F8683001233360334EFD
:103D3C00346001F09DFB002858D0002703AC002311
:103D4C0001222F492046FFF79FFF94E80E002D48D3
:103D5C00FFF7ADFF2846FFF7C5FF3B463A4639460D
:103D6C000097204605F006FE04A8FFF7C0FF254883
:103D7C00FFF7ABFF29464B4642463068FFF790FDF4
:103D8C00012805462ED102463B461D492046FFF729
:103D9C007BFF94E80E001B48FFF789FF3168204633
:103DAC00FFF7F9FA04A8FFF7A2FF31682046FFF7E6
:103DBC0000FB04A8FFF78CFF31682046FFF7F2FAEE
:103DCC0004A8FFF78AFF0F48FFF77FFF31682046F2
:103DDC00FFF7F6FA049A0C4B5A6005F07DFA80B2A4
:103DEC0000F026FD284607B0BDE8F0830546F9E74C
:103DFC00F40600200C07002030C100080807002042
:103E0C00809FD500F4070020000700202DE9FF411A
:103E1C0080460F4615461E4601F02AFBF0B101AC58
:103E2C00002301220F492046FFF72EFF94E80E00D5
:103E3C000D48FFF73CFF4046FFF754FF381DFFF7D6
:103E4C0056FF301DFFF744FF0A980430FFF745FF7B
:103E5C000548FFF73AFF6A68044B5A6004B0BDE8A6
:103E6C00F08100BF809FD500F407002000070020E0
:103E7C00014B1870704700BF5600002008B501F0C8
:103E8C0069FB012803D002280CBF0220002008BDCA
:103E9C00044B1B78333BDBB2042B9ABF024AD05C39
:103EAC0000207047F1070020BFC000087FB50D4E01
:103EBC0001AC054605F056FD002301220A492046B7
:103ECC00FFF7E2FE94E80E003046FFF7F0FE042206
:103EDC000F20A91801F0AEF93046FFF7F6FE284680
:103EEC0004B070BDF4070020809FD5007FB50D4E47
:103EFC0001AC054605F036FD002301220A49204697
:103F0C00FFF7C2FE94E80E003046FFF7D0FE042205
:103F1C000520A91801F08EF93046FFF7D6FE284689
:103F2C0004B070BDF4070020809FD5007FB50D4E06
:103F3C0001AC054605F016FD002301220A49204676
:103F4C00FFF7A2FE94E80E003046FFF7B0FE042205
:103F5C000120A91801F06EF93046FFF7B6FE28468D
:103F6C0004B070BDF4070020809FD500002307B576
:103F7C001A4600931946044805F0FCFC034803B0AC
:103F8C005DF804EB05F0EEBCF806002000070020FD
:103F9C00007C07288CBF00200120704781F00100B5
:103FAC0070470846704708B503685B6C984780F00B
:103FBC000100C0B208BD4182704707B503688DF897
:103FCC0007105B6801220DF10701984703B05DF8FB
:103FDC0004FB037C087C984204D107288CBF00208A
:103FEC00012070470020704710B50446007C07285C
:103FFC0016D800F07DFD182809D91C280ED123688D
:10400C0020469B689847003018BF012005E0054BFF
:10401C0023FA00F0C04300F0010010BD0120FCE7C2
:10402C000020FAE701001001F0B591B0044604A895
:10403C000F46164605F096FC00224FF47A73CDE934
:10404C000823194B0CA8079305F08CFC0823684631
:10405C008DF83C3005F086FC207C072807D800F052
:10406C0047FD10B1207C00F0A5FD082323740F4BF5
:10407C000F4D5B6802A904A803930295FFF728FC77
:10408C0041F288336A46394604A8FFF7B7FD40B1C0
:10409C00019A236802A91B6A2046039202953246B4
:1040AC00984711B0F0BD00BF30C1000800070020D8
:1040BC00B0C6000808B5007C072802D800F006FF3F
:1040CC0008BD0020FCE710B50446207C07280BD85F
:1040DC0000F00EFD172801D01C2805D1207C00F023
:1040EC00F5FEB0F5006FF0D310BD38B50546007C79
:1040FC001446072805D892B200F06CFE10B90123C3
:10410C006B600024204638BD08B5007C072802D817
:10411C0000F006FE08BD0020FCE7007C072802D852
:10412C0012B200F063BD0020704707B501220DF1FB
:10413C000701007C00F05AFD0028D4BF4FF0FF307F
:10414C009DF8070003B05DF804FB10B5037C044632
:10415C00072B02D94FF0FF3010BD03689B689847BE
:10416C000028F7D0207C00F009FEF5E738B50446AE
:10417C00007C07280AD800F01DFD05F0ABF80546B9
:10418C00207C00F0B5FC10B90823237438BD012045
:10419C0005F0A4F805F09EF8638A401B9842EFD313
:1041AC00207C00F0C3FCEFE77FB50446007C0D4695
:1041BC000728164607D800F09BFC10B1207C00F0B5
:1041CC00F9FC082323740021684605F0DFFB6A68BC
:1041DC00019B9A4202D1002004B070BD4FF0FF3118
:1041EC0002A805F0D3FB6A68039B9A42F3D0002126
:1041FC00212000F027FB07282074ECD8291D32461B
:10420C0000F0B0FC05F066F80546207C00F070FC70
:10421C00172813D01C2811D00028DCD005F05AF830
:10422C00638A401B984203D8012005F057F8ECE74D
:10423C00207C00F07BFC08232374CCE70120CBE727
:10424C0010B41446054A127801EB022101EB002050
:10425C001A46214680B210BC00F0ECBFF0070020DB
:10426C0070B5037C88B0072B064626D802AD05AC8A
:10427C000023012212492846FFF706FD95E80700A6
:10428C0084E80700079B2321009394E80C000D4859
:10429C0001F044FA022322460421307CFFF7D0FFC0
:1042AC009DF814309DF815402321064844EA032458
:1042BC0001F06EFA204608B070BD0024FAE700BF8A
:1042CC00809FD500F4070020F0B50B7C89B0072B3C
:1042DC0006460F4605D9002105F058FB304609B0BB
:1042EC00F0BD02AD05AC002301220F492846FFF7B3
:1042FC00CBFC95E8070084E80700079B232100937B
:10430C0094E80C00094801F009FA042322460C2118
:10431C00387CFFF795FF2321044801F039FA214638
:10432C00304605F039FBD9E7809FD500F407002013
:10433C0070B5037C88B0072B064626D802AD05ACB9
:10434C000023012212492846FFF79EFC95E807003E
:10435C0084E80700079B2321009394E80C000D4888
:10436C0001F0DCF9022322461021307CFFF768FFB4
:10437C009DF814309DF815402321064844EA032487
:10438C0001F006FA204608B070BD0024FAE700BF21
:10439C00809FD500F4070020002307B51A46009330
:1043AC001946034805F0E6FA03B05DF804FB00BFBC
:1043BC0078070020002307B51A46009319460348D6
:1043CC0005F0D8FA03B05DF804FB00BF80070020AD
:1043DC000368DB6B18470000024A02608A6942607E
:1043EC00704700BFB0C60008808B7047008A7047CA
:1043FC00408C704707B503688DF807105B68012285
:10440C000DF10701984703B05DF804FB704710B538
:10441C00044690F82000072804D800F087FB0823F6
:10442C0084F8203010BD38B5044690F820000D46B5
:10443C00072801D800F07AFB2946022000F002FA86
:10444C00072884F820004FF000009EBF258260846E
:10445C00012038BDF0B591B0044604A80F461646AD
:10446C0005F080FA00224FF47A73CDE90823144B3F
:10447C000CA8079305F076FA082368468DF83C30B3
:10448C0005F070FA0F4B104D5B6802A904A803935A
:10449C000295FFF71DFA41F288336A46394604A8A3
:1044AC00FFF7ACFB012808D1019A236802A9DB6A4B
:1044BC002046039202953246984711B0F0BD00BFDA
:1044CC0030C1000800070020B0C6000808B5002362
:1044DC000431C38390F8200000F04AFD08BD08B5F4
:1044EC0090F8200000F072FD08BD10B5044693B2A0
:1044FC000A46C18B90F8200000F00EFDE38B0344BC
:10450C00E38310BD13B5438C04461BB94FF0FF3049
:10451C0002B010BD01220DF1070190F8200000F04F
:10452C0065FB0028F2DD638C9DF80700013B63847A
:10453C00EEE710B5438C044613B94FF0FF3010BDB5
:10454C00934294BF1AB212B290F8200000F04EFBC6
:10455C000028F2DD638C1B1A6384F0E708B590F831
:10456C002030072B05D8428C1AB1184600F006FCF7
:10457C0008BD4FF0FF30FBE773B5044690F8200000
:10458C000E460728154601D800F0D0FA094B2A46EA
:10459C000093736869468220019300F0EDF90728B7
:1045AC0084F820004FF000009EBF6084012025821B
:1045BC0002B070BDB0C6000813B50446628C2AB1B7
:1045CC0023680021DB6B20469847F7E794F820001E
:1045DC0000F0A6FBD8B10822694694F8200000F040
:1045EC0005FB002813DD694604F1140005F0DCF925
:1045FC009DF804209DF805309DF8070003EB02237D
:10460C00A3839DF8063000EB032080B2608402B0D7
:10461C0010BD0000002307B51A4600931946034845
:10462C0005F0A8F903B05DF804FB00BF9807002063
:10463C0007B5084B01221B7801EB032101EB00208D
:10464C0080B20DF1070100F0F5FD9DF8070003B0F5
:10465C005DF804FBF007002007B5094B8DF8072027
:10466C001B78012201EB032101EB002080B20DF13C
:10467C00070100F01FFDC0B203B05DF804FB00BFE2
:10468C00F007002010B41446054A127801EB022101
:10469C0001EB00201A46214680B210BC00F00ABD86
:1046AC00F00700202DE9F3470C46064690461F46BE
:1046BC0001AA02232421FFF7C3FD9DF804209DF8D5
:1046CC00053043EA0223204A1C441378A4B2332B4E
:1046DC000CBF06F1080006F11000C002C4F30A0575
:1046EC0080B22844372B914680B22AD0EB19B3F50F
:1046FC00006F26DDC5F5006A1FFA8AFA524641465C
:10470C0000F0D8FC99F80030A7F50062332B0CBFF1
:10471C0006F1080006F11000C0022A4480B292B2E1
:10472C0008EB0A013C4400F0C5FC64BA022301AA60
:10473C0024213046ADF80440FFF7A4FF02B0BDE8D9
:10474C00F0873A464146EDE7F107002008B5032112
:10475C00FFF76EFF08BD07B549BAADF80410022388
:10476C0001AA0421FFF78EFF03B05DF804FB08B526
:10477C000A4604230C21FFF785FF08BD07B549BA8B
:10478C00ADF80410022301AA1021FFF77BFF03B040
:10479C005DF804FB07B5022301AA2021FFF750FDA9
:1047AC009DF804009DF8053043EA002003B05DF845
:1047BC0004FB000038B50546FFF7ECFF044628461D
:1047CC00FFF7E8FF8442034604D1034B03EBC50318
:1047DC009C8038BD1C46F2E7A807002007B50223D1
:1047EC0001AA2621FFF72CFD9DF804009DF8053049
:1047FC0043EA002003B05DF804FB07B5022301AACD
:10480C002821FFF71DFD9DF804009DF8053043EAB3
:10481C00002003B05DF804FB044B1B78332B0CBF5A
:10482C000C301830C00280B2704700BFF107002076
:10483C00034BC0F30D001A8850401880704700BF1E
:10484C00540000202DE9FF47424B07461B780E46CB
:10485C00B3B301AD332B4FF001024FF000033E49CF
:10486C00284614BF4FF008084FF00408FFF70CFA65
:10487C0095E80E003948FFF71AFAAA464FF00009DE
:10488C005FFA89F42046FFF761FF0AF8010BE8B1E3
:10489C0009F101095FFA89F39845F1D800244FF02A
:1048AC00345215F8013B1D2B03D822FA03F3DB0716
:1048BC0008D40134E4B2A045F3D12848FFF705FA37
:1048CC00082436E01021204600F098FE0022244BEC
:1048DC0023F81420234A244B1168244A5868B1FB4E
:1048EC00F2F2FA2151435A68121A9142FBDC3A4611
:1048FC0000212046FFF7B0FEFF2202212046FFF7E1
:10490C00ABFED6B1314600262046194DFFF723FFEA
:10491C000121204600F072FE25F834602046FFF796
:10492C006CFF05EBC40358809E719E800B48FFF70B
:10493C00CCF9204604B0BDE8F0870E4B1A88013242
:10494C0092B2B2F5404F38BF4FF440421A801988EA
:10495C00D9E700BFF1070020809FD500F4070020A5
:10496C008807002070000020001000E040420F007B
:10497C00A8070020540000202DE9F04F534B87B0BE
:10498C001B7880460D461646B3B303AF332B4FF05E
:10499C0001024FF000034E49384614BF4FF008098E
:1049AC004FF00409FFF770F997E80E004948FFF73C
:1049BC007EF9BB464FF0000A5FFA8AF42046FFF7F7
:1049CC00C5FE0BF8010BE8B10AF1010A5FFA8AF394
:1049DC009945F1D800244FF0345217F8013B1D2BA8
:1049EC0003D822FA03F3DB0708D40134E4B2A1455F
:1049FC00F3D13848FFF769F9082456E01021204616
:104A0C0000F0FCFD0022344B23F81420334A344BC5
:104A1C001168344A5868B1FBF2F2FA2151435A68D2
:104A2C00121A9142FBDC424600212046FFF714FE8D
:104A3C00FF2202212046FFF70FFE002E39D031460F
:104A4C002046FFF788FE5E2301278DF806306B7930
:104A5C00291D03F07F038DF80730AB7920468DF8C4
:104A6C000830EB79ADF804708DF80930FFF77FFE54
:104A7C0031462046FFF782FE06230026194601AA7E
:104A8C00194D2046FFF7FEFD3946204600F0B6FDD5
:104A9C0025F834602046FFF7B0FE05EBC4035880C0
:104AAC009E719E800B48FFF710F9204607B0BDE8B9
:104ABC00F08F0E4B1A88013292B2B2F5404F38BFCC
:104ACC004FF440421A801988BAE700BFF107002062
:104ADC00809FD500F407002088070020700000207C
:104AEC00001000E040420F00A807002054000020F6
:104AFC007FB5064601AC0B4D002301220A49204626
:104B0C00FFF7C2F894E80E002846FFF7D0F83046BD
:104B1C00FFF71CFE04462846FFF7D7F8204604B0E2
:104B2C0070BD00BFF4070020809FD5007FB50646FE
:104B3C0001AC0A4D0023012209492046FFF7A4F8D5
:104B4C0094E80E002846FFF7B2F81021304600F02A
:104B5C0055FD2846FFF7B9F804B070BDF4070020E6
:104B6C00809FD5002DE9FF4105468846174601ACCC
:104B7C000E4E002301220E492046FFF785F894E8DB
:104B8C000E003046FFF793F841462846FFF7EFFD3D
:104B9C0039462846FFF7F2FD0421284600F02EFD89
:104BAC003046FFF792F804B0BDE8F081F40700201E
:104BBC00809FD5007FB5064601AC0A4D002301222B
:104BCC0009492046FFF760F894E80E002846FFF7E5
:104BDC006EF80821304600F011FD2846FFF775F8F5
:104BEC0004B070BDF4070020809FD5002DE9F04F74
:104BFC00174687B0464E0DF10C0936F830400023AD
:104C0C00012205468A4648464249FFF73DF899E895
:104C1C000E004148FFF74BF8A7420EDD2846FFF780
:104C2C00DDFD04462846FFF7D9FDA042F9D106EB7D
:104C3C00C5039B79E41A26F835408CB92846FFF752
:104C4C0085FD142805D020B1B0F11C0418BF4FF01D
:104C5C00FF343148FFF739F8204607B0BDE8F08F34
:104C6C00BC42A8BF3C464FEAC50B06EB0B035B8866
:104C7C00A7B20093BAF1000F23D02846C3F30A0859
:104C8C00FFF7CAFD254B40441B7880B2372B3BD035
:104C9C003B464344B3F5006F36DDC8F500639BB269
:104CAC001A465146019300F0C5FA019B28469A44D6
:104CBC00FFF7B2FDA8F500623A4492B2514600F0FB
:104CCC00B9FA06EB0B0136F83520009B88793B448A
:104CDC00D21B0744BFB29BB292B2F92F4B8026F87D
:104CEC00352000D892B900225E445BBAB271ADF89F
:104CFC000C304A46022328212846FFF7C3FC4021EA
:104D0C00284600F07BFCA4E73A46D7E78F71A0E772
:104D1C00A8070020809FD500F4070020F107002091
:104D2C007FB5134D064635F83030EBB901AC012296
:104D3C0010492046FEF7A8FF94E80E000E48FEF737
:104D4C00B6FF3046FFF74AFD04463046FFF746FDF6
:104D5C00A042F9D10848FEF7B8FF05EBC6039B79D2
:104D6C00E31A9BB225F83630184604B070BD00BF6C
:104D7C00A8070020809FD500F40700207FB50646C9
:104D8C0001AC114D0023012210492046FEF77CFF97
:104D9C0094E80E002846FEF78AFF3046FFF73CFDEC
:104DAC000B4B012203EBC6035B882146C3F30A03BA
:104DBC00184480B200F03EFA2846FEF786FF9DF8B4
:104DCC00040004B070BD00BFF4070020809FD50024
:104DDC00A8070020B2F5006F28BF4FF400622DE940
:104DEC00F04F05468946164685B0DFF8DCB0354FE6
:104DFC0001AC0023012259462046FEF745FF94E8FA
:104E0C000E003846FEF753FF2846FFF7D3FC8246C8
:104E1C002846FFF79BFC80463846FEF756FFB8F154
:104E2C00170F02D0B8F11C0F2FD100F0BEFDB24508
:104E3C00DFD30023012224492046FEF725FF94E806
:104E4C000E002048FEF733FF4A4633460021284621
:104E5C00FFF728FC2021284600F0D0FB194FDFF883
:104E6C00689002212846FFF7E3FB10F0100A1FD1CF
:104E7C002846FFF76BFC804648B91248FEF725FF21
:104E8C004646304605B0BDE8F08F0026D1E73846DF
:104E9C00FEF71BFF00F089FD5346494601222046D0
:104EAC00FEF7F2FE94E80E003846FEF700FFD8E756
:104EBC00102202212846FFF7CFFB0248FEF705FF20
:104ECC00DFE700BFF4070020809FD50030B5054612
:104EDC0085B001AC002301220D492046FEF7D4FE1B
:104EEC0094E80E000B48FEF7E2FE2846FFF762FC42
:104EFC0004462846FFF72AFC05460648FEF7E5FE61
:104F0C00172D02D01C2D18BF0024204605B030BD33
:104F1C00809FD500F40700202DE9F043074685B0AB
:104F2C0001AD114E1C4688469146002301220F49C3
:104F3C002846FEF7A9FE95E80E003046FEF7B7FEB0
:104F4C003846FFF737FC844228BF0446A4B22346F8
:104F5C004A4641463846FFF7A5FB3046FEF7B5FEFC
:104F6C00204605B0BDE8F083F4070020809FD500F3
:104F7C00F0B50B7885B007460D4614462BB94B7827
:104F8C001BB98B780BB9C878C0B1CCB101AE00237A
:104F9C0001220C493046FEF777FE96E80E000A48CF
:104FAC00FEF785FE29463846FFF7E1FB21463846D9
:104FBC00FFF7E4FB0448FEF788FE012005B0F0BDC6
:104FCC002046FBE7809FD500F40700202DE9F04335
:104FDC00054685B001AC0023012222492046FEF78C
:104FEC0053FE94E80E002048FEF761FE202128466F
:104FFC0000F004FB1C4FDFF86C8002212846FFF701
:10500C0017FB10F0100623D102212846FFF710FBE6
:10501C0010F008090BD0182202212846FFF71CFBC0
:10502C001148FEF752FE304605B0BDE8F083384615
:10503C00FEF74BFE00F0B9FC4B46414601222046E0
:10504C00FEF722FE94E80E003846FEF730FED4E759
:10505C00102202212846FFF7FFFA0348FEF735FE1F
:10506C000120E1E7809FD500F4070020002307B55D
:10507C001A4600931946034804F07CFC03B05DF813
:10508C0004FB00BFA007002013460A46232100F0B2
:10509C009DBB0000024B0021187804F0D1B800BF72
:1050AC0056000020024B0121187804F0C9B800BF4B
:1050BC00560000202DE9FF41534B04461B780D464A
:1050CC00332B164623D100EB0208504F4D1E1FFA0E
:1050DC0088F8A0457DD0FFF7DDFF0122F02138468E
:1050EC00FFF7D2FF210A01223846FFF7CDFFE1B2CC
:1050FC0001223846FFF7C8FF0134012215F8011FC1
:10510C003846A4B2FFF7C0FFFFF7CCFFE1E7342B22
:10511C00C7B21ED1FFF7BEFF330A63F07F038DF8D1
:10512C000A30012364BA009302AA042323213748CE
:10513C00ADF808408DF80B6000F090FB334CAF19C4
:10514C00AF4244D0012215F8011B2046FFF79CFF0B
:10515C00F6E7FFF79FFFFF2C08D800238DF80830E7
:10516C0004238DF809708DF80A300DE0230417D450
:10517C000023E41024F01F0444F00C048DF80830D4
:10518C008DF809708DF80A40052E26D80023B342FD
:10519C0015DAE95C04AA1A4402F8051C0133F6E797
:1051AC0044F38713B4F5404F23F01F0364BAADF8F2
:1051BC00084034BF43F0140343F01C03D3E701232E
:1051CC0002AA00932321F31C104800F047FBFFF7C1
:1051DC0069FF304604B0BDE8F081012302AA0093B8
:1051EC0023210323094800F039FB731E9BB2074FA0
:1051FC006C1E1D4414F8011F01223846FFF744FFB2
:10520C00AC42F7D1E3E700BFF1070020F407002020
:10521C0007B501228DF807100DF10701FFF74AFFC2
:10522C00C0B203B05DF804FB08B501460020FFF7DF
:10523C00EFFF08BD2DE9FF41404B04461B780E469D
:10524C00332B154624D100EB02083D4F4E1E1FFA9E
:10525C0088F8A04540D0FFF71DFF01220F213846EA
:10526C00FFF712FF210A01223846FFF70DFFE1B2CA
:10527C0001223846FFF708FF012200213846FFF7CC
:10528C0003FF013406F8010FA4B2FFF70BFFE0E7B0
:10529C00342BC7B224D164BAFFF7FCFEC5F3062346
:1052AC00ADF80C4001248DF80E3004238DF80F500E
:1052BC00009403AA2321224800F0D0FA2A460021A8
:1052CC00304604F0D2FE2B46324623211C48009473
:1052DC0000F0C4FAFFF7E6FE284604B0BDE8F08102
:1052EC00FFF7D8FEFF2C07D800238DF80D708DF832
:1052FC000C308DF80E300DE023040FD40023E41095
:10530C0024F01F0444F008048DF80C308DF80D7057
:10531C008DF80E40012403230094CAE744F387134D
:10532C00B4F5404F23F01F0364BAADF80C4034BF02
:10533C0043F0100343F01803DBE700BFF107002034
:10534C00F407002007B501220DF10701FFF772FFEA
:10535C009DF8070003B05DF804FB08B50020FFF7CB
:10536C00F1FF08BD10B58020FFF75EFF1424FFF796
:10537C00F4FF40B1013C0120A4B203F0AFFF002CBC
:10538C00F5D1204610BD0120FCE70000332208B502
:10539C000E4B1A70FFF7E6FF08B9002008BD10206D
:1053AC00FFF742FFFFF7D9FF1028F6D11220FFF7C5
:1053BC003BFFFFF7D2FF1228EFD10020FFF734FF9D
:1053CC00FFF7CBFFB0FA80F04009E7E7F1070020C8
:1053DC00342208B5114B1A70FFF7C4FF08B900202E
:1053EC0008BD0820FFF720FFFFF7B7FF0828F6D10C
:1053FC001020FFF719FFFFF7B0FF1028EFD10020A6
:10540C00FFF712FFFFF7A9FF0028E8D11F20FFF7D5
:10541C0099FFC31E58425841E2E700BFF107002034
:10542C00372208B5114B1A70FFF79CFF08B9002002
:10543C0008BD0820FFF7F8FEFFF78FFF0828F6D10C
:10544C001020FFF7F1FEFFF788FF1028EFD10020A6
:10545C00FFF7EAFEFFF781FF0028E8D13920FFF7BC
:10546C0071FF031F58425841E2E700BFF1070020CB
:10547C0070B5324E88B03478002C5CD14FF40C707F
:10548C0003F02CFF23212E4800F020F92D4B012195
:10549C00187802AD03F086FEFFF704FE23460122C6
:1054AC0029492846FEF7F0FB95E8070005AB83E891
:1054BC000700079A232100920CCB214800F02EF90B
:1054CC00FFF786FFB8B14022204B1A70E5B20222DA
:1054DC001E212846FFF7C0F8013402221F2128465E
:1054EC00FFF7BAF8082CF1D101242321144800F05D
:1054FC004FF934701CE0FFF793FF18B11022134BD7
:10550C001A70F1E7FFF742FF044658B104220F4B23
:10551C0055211B201A70FFF77BFE55211A20FFF72F
:10552C0077FEE1E70A4B23211870054800F030F9AB
:10553C00204608B070BD0124FAE700BFF207002036
:10554C00F407002056000020809FD500F0070020B3
:10555C00F107002010B588B0FFF78AFF30B1244B5B
:10556C001B78342B04D0372B23D0002008B010BD6F
:10557C0002AC002301221F492046FEF785FB94E86C
:10558C00070005AB83E80700079A232100920CCB98
:10559C00194800F0C3F83520FFF7D4FE0446232148
:1055AC00154800F0F5F814F0200F0CBF0220012074
:1055BC00DCE702AC002301220E492046FEF764FB17
:1055CC0094E8070005AB83E80700079A23210092B3
:1055DC000CCB094800F0A2F82E20FFF7B3FE0446CE
:1055EC002321054800F0D4F814F0010FDDE700BFCB
:1055FC00F1070020809FD500F407002038B50A463B
:10560C0004460121FFF728F8054D2402287804EB05
:10561C000020013080B2FFF795FE0028F6D138BD8E
:10562C00F0070020002307B51A46009319460348DB
:10563C0004F0A0F903B05DF804FB00BFE8070020FC
:10564C00232970B504461BD800230C2505FB03F653
:10565C00A65FD8B2B1420DD00133042BF6D1012A8A
:10566C000CD100230C2505FB03F2A65ED8B2013643
:10567C0001D1A15270BD0133042BF4D11846F9E7C6
:10568C000420F7E770B503464FF6FF7201210025A1
:10569C000C4E00F130041A805E60197299725D72C2
:1056AC000C33A342F7D1084B0286998EA0F89010C8
:1056BC00D98EA0F892105B8EA0F89620A0F89430AA
:1056CC0070BD00BF00093D00F0C30008232970B570
:1056DC0005460E4621D80122FFF7B2FF03280446E7
:1056EC001BD8232E0BD0B5F99630013307D10121ED
:1056FC00304603F057FD0121304603F0A1FD0C208C
:10570C00002300FB045085F88530837A427A416887
:10571C0005F1340002F0E4FF2E8670BD82B0F8B5BE
:10572C00232906AC06460F4684E80C002CD801222F
:10573C00FFF786FF0328054626D80C2404FB0064DB
:10574C00079BBDF8202063609DF8203022815A1EF3
:10575C0053425341232FA3720BD0B6F99630013329
:10576C0007D10121384603F01DFD0121384603F015
:10577C0067FD0C2303FB05656168AB7A6A7A06F159
:10578C00340002F0ADFF3786BDE8F84002B0704738
:10579C002329F0B516D803464FF6FF7501220027D2
:1057AC00094E00F13004B3F900C08C4504D11D80C2
:1057BC005E601A729A725F720C33A342F3D14FF689
:1057CC00FF730386F0BD00BF00093D0070B586B0C5
:1057DC008DF80F200022232905460C461E468DF815
:1057EC00172039D8B0F93030994212D0FFF728FF82
:1057FC00032803D99DF8170006B070BD0C2303FBDA
:10580C000050837A427A416805F1340002F068FF57
:10581C002C86232C07D0B5F99630013303D1002107
:10582C00204603F00DFD4FF47A730DF1170200932F
:10583C000DF10F01012305F1340003F075F8232C51
:10584C00D8D0012ED6D1B5F996300133D2D131460C
:10585C00204603F0F5FCCDE71046CDE72DE9F341EA
:10586C0005460C4617469DF820609846002B3BD009
:10587C00002A39D0232937D8B0F9303099420FD0CB
:10588C000022FFF7DDFE03282ED80C2303FB00506B
:10589C00837A427A416805F1340002F021FF2C86AC
:1058AC00232C07D0B5F99630013303D100212046C3
:1058BC0003F0C6FC4FF47A733A46009339461FFA4C
:1058CC0088F305F1340003F02FF8232C0CD0012EB3
:1058DC000AD1B5F99630013306D13146204602B0D3
:1058EC00BDE8F04103F0ACBC02B0BDE8F0810000B3
:1058FC000148FFF7C7BE00BFF407002010B54FF4F6
:10590C0080330122022494B0CDE90A230021CDE991
:10591C0011434FF4E0130AA80C910E92139301F06B
:10592C00E3F800B1FEE70F23CDE905344FF48063B3
:10593C000790CDE90830214605A801F0ADFA00B179
:10594C00FEE7122301934FF40043CDE9033001A885
:10595C0001F07CFB00B1FEE714B010BD002103E0A8
:10596C000B4B5B58435004310A480B4B42189A427C
:10597C00F6D30A4A02E0002342F8043B084B9A4251
:10598C00F9D303F02DF804F0EFFA04F015FA704790
:10599C0094C80008000000204001002040010020B5
:1059AC00600F0020FEE702F00BBC70477047000050
:1059BC0038B50E4B054618784FF47A73B3FBF0F3F9
:1059CC000B4A1068B0FBF3F000F0A2F8044658B98B
:1059DC000F2D09D8024629464FF0FF3000F042F84F
:1059EC002046044B1D6038BD0120FCE75700002009
:1059FC007000002058000020074A08B513680320E7
:105A0C0043F01003136000F01BF80020FFF7D0FFE9
:105A1C00FFF7CCFF002008BD00200240034A044BD6
:105A2C0011681B780B441360704700BF280F0020CF
:105A3C0057000020014B1868704700BF280F00204A
:105A4C00074A0002D36800F4E06023F4E0631B040F
:105A5C001B0C184340F0BF6040F40030D06070471E
:105A6C0000ED00E0174B70B5DC684FF0FF36C4F367
:105A7C000224C4F10705042D04F1040328BF0425F6
:105A8C00062B98BF002406FA05F588BF033C21EAD3
:105A9C000501A14006FA04F422EA0403002843EAB3
:105AAC000103A8BF00F160404FEA0313B8BF064AD8
:105ABC00DBB2ABBF00F5614000F00F0080F80033A3
:105ACC00135470BD00ED00E014ED00E0002808DB7D
