:020000040800F2
:1000000000500020ED80000835810008358100088F
:1000100035810008358100083581000800000000A6
:100020000000000000000000000000003581000812
:100030003581000800000000358100081F720008AB
:1000400035810008358100083581000835810008B8
:1000500035810008358100087D7F0008837F000816
:10006000897F00088F7F0008957F00083581000890
:100070003581000835810008358100083581000888
:100080003581000835810008358100083581000878
:100090003581000835810008358100089B7F000804
:1000A00035810008BD88000835810008D188000826
:1000B000D5880008E9880008FD8800083581000817
:1000C0003581000835810008358100083581000838
:1000D00035810008A97E0008C17E0008D97E00088D
:1000E000B17F000829770008358100080000000072
:1000F0000000000000000000000000000000000000
:0C01000000000000000000005FF808F1A3
:10010C0010F8012B11F8013B012A28BF9A42F7D0B5
:10011C00D01A7047034613F8012B002AFBD1181A8A
:10012C00013870474FF0FF0C1CEAD0521EBF1CEA7E
:10013C00D15392EA0C0F93EA0C0F6FD01A4480EA59
:10014C00010C400218BF5FEA41211ED04FF0006342
:10015C0043EA501043EA5111A0FB01310CF000406E
:10016C00B1F5000F3EBF490041EAD3715B0040EA94
:10017C00010062F17F02FD2A1DD8B3F1004F40EB64
:10018C00C25008BF20F00100704790F0000F0CF037
:10019C00004C08BF49024CEA502040EA51207F3AFB
:1001AC00C2BFD2F1FF0340EAC250704740F40000D6
:1001BC004FF00003013A5DDC12F1190FDCBF00F0C7
:1001CC0000407047C2F10002410021FA02F1C2F175
:1001DC00200200FA02FC5FEA310040F1000053EA11
:1001EC004C0308BF20EADC70704792F0000F00F05F
:1001FC00004C02BF400010F4000F013AF9D040EA65
:10020C000C0093F0000F01F0004C02BF490011F4F8
:10021C00000F013BF9D041EA0C018FE70CEAD153F6
:10022C0092EA0C0F18BF93EA0C0F0AD030F0004C76
:10023C0018BF31F0004CD8D180EA010000F000402A
:10024C00704790F0000F17BF90F0004F084691F0E8
:10025C00000F91F0004F14D092EA0C0F01D1420222
:10026C000FD193EA0C0F03D14B0218BF084608D1EB
:10027C0080EA010000F0004040F0FE4040F4000035
:10028C00704740F0FE4040F44000704781F0004160
:10029C0002E000BF83F0004330B54FEA41044FEA5F
:1002AC00430594EA050F08BF90EA020F1FBF54EAFA
:1002BC00000C55EA020C7FEA645C7FEA655C00F096
:1002CC00E2804FEA5454D4EB5555B8BF6D420CDD67
:1002DC002C4480EA020281EA030382EA000083EAEA
:1002EC00010180EA020281EA0303362D88BF30BD8A
:1002FC0011F0004F4FEA01314FF4801C4CEA1131E0
:10030C0002D0404261EB410113F0004F4FEA03333E
:10031C004CEA133302D0524263EB430394EA050FC9
:10032C0000F0A780A4F10104D5F1200E0DDB02FA38
:10033C000EFC22FA05F2801841F1000103FA0EF2CC
:10034C00801843FA05F359410EE0A5F120050EF192
:10035C00200E012A03FA0EFC28BF4CF0020C43FAC3
:10036C0005F3C01851EBE37101F0004507D54FF0D0
:10037C00000EDCF1000C7EEB00006EEB0101B1F520
:10038C00801F1BD3B1F5001F0CD349085FEA300066
:10039C004FEA3C0C04F101044FEA445212F5800F71
:1003AC0080F09A80BCF1004F08BF5FEA500C50F10E
:1003BC00000041EB045141EA050130BD5FEA4C0CF1
:1003CC00404141EB0101013C28BFB1F5801FE9D24E
:1003DC0091F0000F04BF01460020B1FA81F308BF71
:1003EC002033A3F10B03B3F120020CDA0C3208DD3D
:1003FC0002F1140CC2F10C0201FA0CF021FA02F118
:10040C000CE002F11402D8BFC2F1200C01FA02F187
:10041C0020FA0CFCDCBF41EA0C019040E41AA2BFAC
:10042C0001EB0451294330BD6FEA04041F3C1CDA74
:10043C000C340EDC04F11404C4F1200220FA04F094
:10044C0001FA02F340EA030021FA04F345EA03013E
:10045C0030BDC4F10C04C4F1200220FA02F001FA00
:10046C0004F340EA0300294630BD21FA04F0294682
:10047C0030BD94F0000F83F4801306BF81F480111B
:10048C000134013D4EE77FEA645C18BF7FEA655C8E
:10049C0029D094EA050F08BF90EA020F05D054EA60
:1004AC00000C04BF1946104630BD91EA030F1EBF65
:1004BC000021002030BD5FEA545C05D14000494169
:1004CC0028BF41F0004130BD14F580043CBF01F55C
:1004DC00801130BD01F0004545F0FE4141F4700142
:1004EC004FF0000030BD7FEA645C1ABF194610461D
:1004FC007FEA655C1CBF0B46024650EA013406BF1E
:10050C0052EA033591EA030F41F4002130BD00BFDC
:10051C0090F0000F04BF0021704730B54FF4806499
:10052C0004F132044FF000054FF0000150E700BF1A
:10053C0090F0000F04BF0021704730B54FF4806479
:10054C0004F1320410F0004548BF40424FF0000166
:10055C003EE700BF42004FEAE2014FEA31014FEAA9
:10056C0002701FBF12F07F4393F07F4F81F06051F8
:10057C00704732F07F4208BF704793F07F4F04BF43
:10058C0041F40021704730B54FF4607401F0004520
:10059C0021F000411CE700BF50EA010208BF704780
:1005AC0030B54FF000050AE050EA010208BF704771
:1005BC0030B511F0004502D5404261EB41014FF4DA
:1005CC00806404F132045FEA915C3FF4D8AE4FF0E2
:1005DC0003025FEADC0C18BF03325FEADC0C18BFC5
:1005EC00033202EBDC02C2F1200300FA03FC20FA16
:1005FC0002F001FA03FE40EA0E0021FA02F1144463
:10060C00BDE600BF4FF0FF3C06E000BF4FF0010C11
:10061C0002E000BF4FF0010C4DF804CD4FEA410C45
:10062C007FEA6C5C4FEA430C18BF7FEA6C5C1BD012
:10063C0001B050EA410C0CBF52EA430C91EA030F93
:10064C0002BF90EA020F0020704710F1000F91EAF0
:10065C00030F58BF994208BF90422CBFD8176FEABE
:10066C00E37040F0010070474FEA410C7FEA6C5C8C
:10067C0002D150EA013C07D14FEA430C7FEA6C5C93
:10068C00D6D152EA033CD3D05DF8040B704700BFBF
:10069C008446104662468C461946634600E000BF0D
:1006AC0001B5FFF7B7FF002848BF10F1000F01BDDF
:1006BC004DF808EDFFF7F4FF0CBF012000205DF8AA
:1006CC0008FB00BF4DF808EDFFF7EAFF34BF01202F
:1006DC0000205DF808FB00BF4DF808EDFFF7E0FFC8
:1006EC0094BF012000205DF808FB00BF4DF808ED19
:1006FC00FFF7CEFF94BF012000205DF808FB00BF80
:10070C004DF808EDFFF7C4FF34BF012000205DF861
:10071C0008FB00BF80F0004002E000BF81F0004108
:10072C0042001FBF5FEA410392EA030F7FEA226C8B
:10073C007FEA236C6AD04FEA1262D2EB1363C1BF1B
:10074C00D218414048404140B8BF5B42192B88BF8A
:10075C00704710F0004F40F4000020F07F4018BFAD
:10076C00404211F0004F41F4000121F07F4118BFCD
:10077C00494292EA030F3FD0A2F1010241FA03FC75
:10078C0010EB0C00C3F1200301FA03F100F000435D
:10079C0002D5494260EB4000B0F5000F13D3B0F125
:1007AC00807F06D340084FEA310102F10102FE2A94
:1007BC0051D2B1F1004F40EBC25008BF20F0010004
:1007CC0040EA03007047490040EB0000013A28BFA3
:1007DC00B0F5000FEDD2B0FA80FCACF1080CB2EB26
:1007EC000C0200FA0CF0AABF00EBC25052421843A4
:1007FC00BCBFD0401843704792F0000F81F4000149
:10080C0006BF80F400000132013BB5E74FEA41031B
:10081C007FEA226C18BF7FEA236C21D092EA030F87
:10082C0004D092F0000F08BF0846704790EA010F01
:10083C001CBF0020704712F07F4F04D1400028BF2E
:10084C0040F00040704712F100723CBF00F5000010
:10085C00704700F0004343F0FE4040F40000704746
:10086C007FEA226216BF08467FEA236301464202F2
:10087C0006BF5FEA412390EA010F40F48000704705
:10088C004FF0000304E000BF10F0004348BF4042AB
:10089C005FEA000C08BF704743F0964301464FF0E7
:1008AC0000001CE050EA010208BF70474FF0000343
:1008BC000AE000BF50EA010208BF704711F0004384
:1008CC0002D5404261EB41015FEA010C02BF844654
:1008DC000146002043F0B64308BFA3F18053A3F5B3
:1008EC000003BCFA8CF2083AA3EBC25310DB01FAFA
:1008FC0002FC634400FA02FCC2F12002BCF1004F7E
:10090C0020FA02F243EB020008BF20F0010070470E
:10091C0002F1200201FA02FCC2F1200250EA4C0062
:10092C0021FA02F243EB020008BF20EADC707047A8
:10093C004FF0FF3C06E000BF4FF0010C02E000BF9F
:10094C004FF0010C4DF804CD4FEA40024FEA410341
:10095C007FEA226C18BF7FEA236C11D001B052EAF7
:10096C00530C18BF90EA010F58BFB2EB030088BFBD
:10097C00C81738BF6FEAE17018BF40F0010070472C
:10098C007FEA226C02D15FEA402C05D17FEA236C0E
:10099C00E4D15FEA412CE1D05DF8040B704700BF55
:1009AC00844608466146FFE70FB5FFF7C9FF0028EC
:1009BC0048BF10F1000F0FBD4DF808EDFFF7F4FF25
:1009CC000CBF012000205DF808FB00BF4DF808EDBE
:1009DC00FFF7EAFF34BF012000205DF808FB00BFE1
:1009EC004DF808EDFFF7E0FF94BF012000205DF803
:1009FC0008FB00BF4DF808EDFFF7D2FF94BF0120B4
:100A0C0000205DF808FB00BF4DF808EDFFF7C8FFAC
:100A1C0034BF012000205DF808FB00BF42000ED25D
:100A2C00B2F1FE4F0BD34FF09E03B3EB126209D41D
:100A3C004FEA002343F0004323FA02F070474FF0D3
:100A4C000000704712F1610F01D1420202D14FF048
:100A5C00FF3070474FF00000704700BF10B5054CD9
:100A6C00237833B9044B13B10448AFF3008001234E
:100A7C00237010BD4801002000000000B0A5000844
:100A8C0008B5034B1BB103490348AFF3008008BD05
:100A9C00000000004C010020B0A50008BFF34F8FF0
:100AAC000549064BCA6802F4E0621343CB60BFF3FE
:100ABC004F8F00BFFDE700BF00ED00E00400FA051A
:100ACC00704703681847012A03D0022A03D000207C
:100ADC0070470160FBE70B680360F8E708B511206D
:100AEC0007F096FBBDE80840B0FA80F111204909E7
:100AFC0007F06ABB06F05EBE836810B5044613B1FE
:100B0C00032201469847204610BD000010B5064B45
:100B1C0001211C5C204607F057FB2046BDE8104025
:100B2C00002107F051BB00BFC9B100082DE9F0410D
:100B3C000446884608250E4B5F5C23064CBF0121FA
:100B4C000021384607F040FB0A4B012113F80860DE
:100B5C00013D304607F038FB0021304607F034FBEE
:100B6C00640015F0FF05E4B2E7D1BDE8F08100BFE9
:100B7C00AAB10008A5B100082DE9F0410D460826E0
:100B8C00164B04465F5C0021384607F01DFB144BE6
:100B9C00002113F80580404607F016FB114B5D5DF4
:100BAC0023064CBF01210021284607F00DFB012133
:100BBC00404607F009FB0021404607F005FB6400A6
:100BCC00013EE4B2ECD13846012107F0FDFA314682
:100BDC003846BDE8F04107F0F7BA00BFC9B10008CC
:100BEC00A5B10008AAB1000870B515460446104618
:100BFC000E46FFF78BFF0A4B0021585D07F0E4FA15
:100C0C002644B44206D02CB1294614F8010BFFF748
:100C1C008DFFF6E72846BDE87040FFF777BF00BFB1
:100C2C00A5B100084FF6FF7307B50322022101A8F6
:100C3C00ADF80430FFF7D8FF03B05DF804FBFF23D9
:100C4C0007B5037004211846FFF796FF4FF6FF73A4
:100C5C000022022101A8ADF80430FFF7C5FFFFF711
:100C6C00E1FF03B05DF804FB08B55A4808F0EAFA56
:100C7C000221062007F05AFA0221012007F056FA49
:100C8C000221042007F052FA0221052007F04EFA47
:100C9C000221032007F04AFA0221084607F046FA1F
:100CAC000221002007F042FA02210C2007F03EFA44
:100CBC000121112007F03AFA0121132007F036FA2E
:100CCC000121122007F032FA0121142007F02EFA2C
:100CDC000121162007F02AFA0121152007F026FA27
:100CEC000121102007F022FA01210E2007F01EFA34
:100CFC0001210F2007F01AFA0121092007F016FA3A
:100D0C000121072007F012FA0121082007F00EFA42
:100D1C0001211C2007F00AFA01211F2007F006FA16
:100D2C0001211E2007F002FA0021112007F04CFAD5
:100D3C000021132007F048FA0021122007F044FA92
:100D4C000021142007F040FA0021162007F03CFA8D
:100D5C000021152007F038FA0021102007F034FA92
:100D6C0000210E2007F030FA00210F2007F02CFA9A
:100D7C000021092007F028FA0021072007F024FAA7
:100D8C000021082007F020FA00211C2007F01CFA93
:100D9C0000211F2007F018FA00211E2007F014FA7A
:100DAC000121182007F0C2F90121172007F0BEF924
:100DBC000121182007F008FA0121172007F004FA86
:100DCC000121112007F0B2F9BDE8084000211120E3
:100DDC0007F0FAB94AA600080346B0F90A0008B1B0
:100DEC0003EB0010704738B50D46044660B1C1687E
:100DFC00A94209D025B119B12846FFF781F918B1DC
:100E0C002046FFF7E9FFF0E7204638BD0346D1E95D
:100E1C0001021030824210B512D3A2F1100088608A
:100E2C00596859B1441A24114C815860002322F896
:100E3C00063C02F8083C42F8043C10BD1860F4E78C
:100E4C000020FAE730B544680A44D0E90053AB42BD
:100E5C0007D2914205D05D1C456011F8015B1D70F5
:100E6C00F3E700221A704068001B30BD10B5044631
:100E7C00044808F0E7F9002004212070BDE8104078
:100E8C00FFF77ABE53A60008134B70B50D1E04462F
:100E9C001249134808BF194608F04EF9A5B10525AB
:100EAC000626042106202670FFF766FE142007F0A4
:100EBC00D9F9002004212070FFF75EFE142007F002
:100ECC00D1F9013DEDD170BDFF2004212070BDE8AA
:100EDC007040FFF751BE00BF6DA6000861A6000868
:100EEC0072A6000810B5044603F016F810B9A4F861
:100EFC007C0410BD03F006F8022804D14FF4807373
:100F0C00A4F87C34F5E7012394F87C2484F87D3430
:100F1C000AB984F8E734012084F87C3484F87E34F0
:100F2C00E7E7000010B504468AB0182002F0E4FF91
:100F3C00114808F087F9114BD4F884240293CDE9B9
:100F4C000323D4F88C2402A9CDE90523D4F89424E6
:100F5C00601CCDE90723D4F89C3404AA099308AB90
:100F6C00009306AB02F094FF012384F87C3484F8E0
:100F7C007E340AB010BD00BF8BA6000804B8000870
:100F8C007FB50446182002F0B7FF384808F05AF92C
:100F9C0002A802F0CFFF02A9354807F0B9FD4FF4C3
:100FAC007A6241F28831601C02F0E6FE0546C0B957
:100FBC00304808F047F902F0AFFF20B92E4808F08E
:100FCC0041F9A4F87C5402F09DFF022806D12B486D
:100FDC0008F038F94FF48073A4F87C34284604B038
:100FEC0070BD40F201130126A4F87C3484F87E64B1
:100FFC00234808F027F902A802F09CFF02A91C481C
:10100C0007F086FD02A802F095FF039B02A8C4F826
:10101C0084341C4B5B68C4F88C34039302F0CEFF11
:10102C00039B02A8C4F8943402F0A6FF039B84F837
:10103C007F64C4F89C344FF6FF73ADF80430002382
:10104C000324ADF808300322022102A8FFF7CCFDDF
:10105C00322007F007F90322022101A8FFF7C4FD93
:10106C00322007F0FFF8013CEDD1B7E7ACA6000841
:10107C00FC0D0020CBA60008F4A6000838A7000839
:10108C005AA700080807002038B50546062428464C
:10109C00FFF776FF08B9013CF9D138BD10B504460D
:1010AC0007F0DCF8D4F87834C01AB0F57A7F16D98A
:1010BC0007F0D4F8C4F878042046FFF713FF94F82F
:1010CC00E73463B1002384F8E73494F87F34204686
:1010DC001BB1BDE81040FFF725BFFFF7D5FF10BDD2
:1010EC002DE9F04300F59A66044693B030460F465E
:1010FC0002F0C4FF0546002839D104F10708414627
:10110C00B4F85C20304602F0D9FFE36D4021194A57
:10111C00009302A8434608F0E9F802A808F00CF87E
:10112C006421B7FBF1F7DFF85890304602F0A6FFC8
:10113C0048B9BD4207DA642007F094F848460135F7
:10114C0008F080F8F1E7304602F098FF4146E26D76
:10115C0058B1094807F0F0FF304602F08FFF003815
:10116C0018BF012013B0BDE8F0830448F2E701205A
:10117C00F8E700BF7EA70008A0A70008C9A70008D1
:10118C0057A70008F0B590F87F34044691B0A3B18E
:10119C00FFF7C8FE04F59A65284602F06FFF90B978
:1011AC0044F620612046FFF79BFF064640B91E48D7
:1011BC0008F048F8304611B0F0BDFFF765FFE9E7DD
:1011CC001A4808F03FF804F178073846FEF7A2FFFA
:1011DC00002106463C2201A8009107F0FEFE334692
:1011EC00134A4021684608F081F8216E284607F022
:1011FC0085FC04F11B01284607F080FCA16E2846F3
:10120C0007F07CFC616E284607F078FC694628469E
:10121C0007F074FC284607F069FC3946284607F0AD
:10122C006DFC0126C6E700BFEBA70008FCA7000871
:10123C0010A8000838B50D460446074807F07CFF97
:10124C0045B9237843F0010020700421BDE83840F3
:10125C00FFF792BCFE20F7E723A8000838B50D462F
:10126C000446074807F068FF45B9237843F00200AD
:10127C0020700421BDE83840FFF77EBCFD20F7E765
:10128C0047A8000813B50C46074807F055FF074B55
:10129C00002233F8143002215BBA01A8ADF80430F7
:1012AC00FFF7A2FC02B010BD67A800087CB10008D3
:1012BC0013B50C46074807F03FFF074B012233F8E4
:1012CC00143002215BBA01A8ADF80430FFF78CFC96
:1012DC0002B010BD83A800087CB1000813B50C4601
:1012EC00074807F029FF074B032233F8143002217B
:1012FC005BBA01A8ADF80430FFF776FC02B010BD64
:10130C00A1A800087CB100082DE9F74306461A484D
:10131C0007F098FF194807F095FF00244FF6FF756A
:10132C00DFF86480164FDFF86490D6F8C424D6F842
:10133C00C8349B1A08FB03F39C4212D204EB4403FF
:10134C001A4453783846FF2B05BF39F81430012165
:10135C0000211D4007F0F0FE0A4807F073FF01342E
:10136C00E3E702226DBA114601A8ADF80450FFF76D
:10137C003BFC03B0BDE8F083BDA80008D6A800086C
:10138C0020A80008EAA80008ABAAAAAA7CB1000809
:10139C0090F8E43470B505460E4614466BB3174B03
:1013AC0017491268002E08BF1946164807F0C4FEEC
:1013BC002368AEB1D5F8C824D5F8C4140133511A3A
:1013CC00114A23604A43934201D3002323602368CC
:1013DC00284685F8A2342168BDE87040FFF752BF5B
:1013EC00013B002B2360F2DAD5F8C414D5F8C824DD
:1013FC00521A054901FB0233E8E770BDEFA800085B
:10140C00ECA80008F4A80008ABAAAAAA90F8E53446
:10141C0070B505460E46144633B3144B1449126886
:10142C00002E08BF1946134807F086FE23682EB11C
:10143C000133072B88BF0023236002E05A1E11D40E
:10144C00226023680C4885F8A13407F0FBFE95F860
:10145C00A1140120FFF74EFB28462168BDE870401F
:10146C00FFF726BF0733E7E770BD00BFEFA8000802
:10147C00ECA8000818A900083EA900084FF0FF339B
:10148C0073B504460D46019379B190F8E5640EBB33
:10149C00314600F023F82046012101AAFFF7B6FFE0
:1014AC00204684F8E664FFF7CAFB94F8E5340A4852
:1014BC00002B18BF002507F0C5FE94F8A1140120DD
:1014CC00FFF718FB2946204684F8E554FFF7C6FEC3
:1014DC0002B070BD0025E8E73EA900084FF0FF33CD
:1014EC0073B504460D460193F9B190F8E4643EBB24
:1014FC00FFF798FB1A4807F0A5FEFF22D4F8C43476
:10150C00D4F8C8148B4204D05A7084F8A364033303
:10151C00F8E700212046FFF7B1FF0121204601AA80
:10152C00FFF736FF002384F8E63494F8E4344BB12B
:10153C00002384F8E4342046FFF781FB002505E006
:10154C000025F2E784F8E454002DF4D02046FFF790
:10155C00DBFE29462046FFF76DFE02B070BD00BFD2
:10156C0058A9000890F8E63470B505460E461446A6
:10157C00F3B1104B10491268002E08BF19460F48E2
:10158C0007F0DAFD23682EB10133092B88BF002345
:10159C00236002E05A1E09D422602368284685F88D
:1015AC00A3342168BDE87040FFF798BE0933EFE71C
:1015BC0070BD00BFEFA80008ECA8000869A90008DE
:1015CC0013B50446144807F03DFE0421084621706B
:1015DC00FFF7D2FA0023032202216846ADF800304F
:1015EC00FFF702FB322006F03DFE4FF6FF7303229D
:1015FC0002216846ADF80030FFF7F6FA322006F00B
:10160C0031FE4FF0FF330121204601AA0193FFF771
:10161C00A9FF02B010BD00BF8EA9000873B50D461E
:10162C000446124807F00EFED5B1002501262946C6
:10163C00204684F8E66484F8E454FFF74FFF29460B
:10164C002046FFF71BFF2046FFF7BAFF4FF0FF3392
:10165C003146204601AA0193FFF784FF02B070BD0A
:10166C0084F8E654FFF7DEFAF8E700BFA9A90008F2
:10167C0038B590F8E63404460D464BB101210023F1
:10168C0080F8E41480F8E634FFF7D4FDFFF7CAFACB
:10169C0094F8E434002B39D01D4B1E491E48002D04
:1016AC0018BF194607F048FDD4F8C834D4F8C42440
:1016BC0094F8A2149A1A194B53438B420FD2184820
:1016CC0007F0C0FD2046FFF71FFECDB920460121D3
:1016DC00FFF7A4FF2046BDE83840FFF771BF114863
:1016EC0007F02AFD2946104807F026FD94F8A2348D
:1016FC00D4F8C42403EB430313440C485D70DFE7B8
:10170C002046BDE838400021FFF788BF38BD00BF38
:10171C00C3A90008BFA90008C6A90008ABAAAAAAB9
:10172C00EDA9000804AA00081CAA00082FAA0008AA
:10173C0038B590F8E63404460D46002B47D02448C3
:10174C0007F080FDD4F8C834D4F8C42494F8A2145B
:10175C009A1A204B53438B4234D394F8A3340A2B5C
:10176C0030D81D4807F0E8FC94F8A3141B4807F088
:10177C00E3FC94F8A234D4F8C42403EB43031344DD
:10178C00174994F8A32417488A5C9A7007F05AFDFD
:10179C00154807F057FD20460021FFF76FFE204645
:1017AC002A460121FFF7F4FD01250023A4F8E45497
:1017BC0084F8E634FFF736FA29462046BDE838406F
:1017CC00FFF738BD0948BDE8384007F03BBD38BDD0
:1017DC004DAA0008ABAAAAAA04AA000862AA00088B
:1017EC00BFB100087AAA000890AA0008ABAA0008AA
:1017FC00F0B5244885B007F025FD234D234B244F2D
:10180C002B604FF08043A8203B6007F04AFB044656
:10181C002968204D06F0A0FFA8202C6007F041FBA2
:10182C0006461D4C396806F097FF286801224CF2D9
:10183C005031266007F01AF801222068174907F08A
:10184C0015F8174F174B184E6946286800930397E5
:10185C00029607F079F86846FFF74EF9134B694684
:10186C0020680093CDE9026707F06EF86846FFF731
:10187C0043F9286806F012FF206806F00FFF05B048
:10188C00F0BD00BFBAAA000860060020002C014081
:10189C00A0060020540600206801002080969800C5
:1018AC00CF0A0008E90A0008D30A0008CD0A00088C
:1018BC0000F0DF03412B0CD0422B0CD0432B0CD06F
:1018CC00442B0CD0452B0CD0462B0CD03038C0B24E
:1018DC0070470A2070470B2070470C2070470D2072
:1018EC0070470E2070470F207047000010B504465B
:1018FC000146074807F020FC2078FFF7D9FF024685
:10190C006078FFF7D5FF00EB0210C0B210BD00BF2E
:10191C00C6AA0008033138B521F003040546204659
:10192C0007F006FB50B104442B7FC5E9010023F0FE
:10193C007F032846C5E903442B7738BD0446F3E7FB
:10194C002DE9F84FD0E90087254CA7EB08035C4341
:10195C00244B06469C428946934602D1224808F005
:10196C00CFFD012C224638BF0122A418A1EB08059B
:10197C0034D244B19C4228BF1C4604EB440007F00F
:10198C0090FA824600E0A246BBF800200AEB050361
:10199C002AF805209BF80220002D9A7004DD2A46B7
:1019AC004146504607F0FFFAA7EB09070335002F15
:1019BC00554404DD3A464946284607F0E6FA3D44CC
:1019CC00B8F1000F02D0404607F06DFA04EB440466
:1019DC005444C6E900A5B460BDE8F88F1C46CCE7BA
:1019EC00ABAAAAAAAAAAAA2AD7AA00082DE9F74341
:1019FC0004460D4600261C4807F09EFBD4E909322C
:101A0C00934218BFA362194B25705F5D1848394685
:101A1C0007F092FB2946174807F08EFBB14604F1FC
:101A2C00240804EB8505B7421AD96B689B5D8DF8C9
:101A3C0005908DF80430D4E90A1399428DF806907C
:101A4C0009D0BDF804205FFA89F30A808B7003314A
:101A5C00A1620136E7E7404601AAFFF771FFF8E7FC
:101A6C0003B0BDE8F08300BFF1AA0008AFB10008D5
:101A7C0004AB00081AAB00082DE9F84304462248D1
:101A8C0007F0E0FB002005F05DFE0546012005F0A7
:101A9C0059FE064629461D4807F04EFB31461C48A8
:101AAC0007F04AFB6B1EDBB2092B04D90121002085
:101ABC00FFF720F801250A2E04D901210846FFF76B
:101ACC0019F801262946257020466670FFF78EFF0F
:101ADC000025DFF844900F4FD4E909239B1A09FB2A
:101AEC0003F39D420ED205F11C0805EB450640465A
:101AFC00164405F027FE41467070384607F01CFB73
:101B0C000135E9E7BDE8F88335AB000855AB0008B3
:101B1C006FAB00088BAB0008ABAAAAAAF7B50446BA
:101B2C00294807F08FFB04F59460FFF7A5FF2748C1
:101B3C0007F088FBFA2005F005FE0546FB2005F0B2
:101B4C0001FE00EB0521E165214807F0F5FA21487B
:101B5C0007F078FB0225204F661C284605F0F2FDA5
:101B6C000135014606F8010B384607F0E5FA082D59
:101B7C00F3D11A48E61D07F065FB3746284605F0F9
:101B8C00E1FD01351C2D06F8010BF7D1E36D04F1D5
:101B9C001B05134A009340213B46284607F0A6FB41
:101BAC002946104807F0C8FA2046FFF7ADFB94F819
:101BBC00A1142046FFF77CFB2046FFF740F8204697
:101BCC00FFF762FA03B0F0BDA1AB0008BFAB000891
:101BDC00D7AB0008F3AB000804AC000809AC000854
:101BEC001FAC00082BAC000810B50C4C642120462F
:101BFC0007F011F820460A4C06224FF4E13106F0AA
:101C0C0027FCFFF731F8FFF7F3FD2046FFF786FFBF
:101C1C0094F8A124034B1A6010BD00BFFC0D0020EA
:101C2C006C0100205000002038B1037A016023F0D1
:101C3C007F0343F0080303720120704770B505461B
:101C4C000C461646084669B12868FFF7CCF848B927
:101C5C0031462846FFF7DAF820B1037AC46003F066
:101C6C007F03037270BD10B5037A13F07F0402BFBB
:101C7C0023F07F0343F020030372037A08BFC0E90B
:101C8C00004413F0200302D0FFF7D8FF10BD184614
:101C9C00FCE7437B33B983685A1C82601B7803735F
:101CAC0001234373007B7047F8B5044601260025D9
:101CBC000A4F2046FFF7EDFF48B10938C3B2172B86
:101CCC0003D806FA03F33B4205D1012002E00123BD
:101CDC0084F85430F8BD6573EBE700BF1300800047
:101CEC0038B504460D46FFF7D4FFA8424FF000006C
:101CFC0004BF6073012038BD2F2807D9392803D9B8
:101D0C005E280CD97A2805D8012070472B28FBD0E7
:101D1C002D28F9D0A0F12E03584258417047402885
:101D2C00F8D95A28EFE700002DE9F04103780D4669
:101D3C002B2B21D02D2B20D1012601300378A3F1A0
:101D4C003002092A01D92E2B2BD103464FF00A0C55
:101D5C000020544F194611F8014BA4F13002D2B2B5
:101D6C00092A0CD8B8420BD8D4430CFB00F084429F
:101D7C0006D30B461044EDE701300026DEE754B1E4
:101D8C0000220A24B0F5000F02F101010BD3B0FBC5
:101D9C00F4F00A46F6E7002E14BF0A230823286045
:101DAC002B71BDE8F081D41AE7181A4679B213F8F2
:101DBC00017BA7F1300CBCF1090FF5D92E2F12D1F4
:101DCC001C464FF00A0CDFF8E4E02246137801348D
:101DDC00303BDBB2092B06D87045F6D84F1E0CFBF6
:101DEC00003079B2F1E7137803F0DF03452B48D1CB
:101DFC0053782D2B19D10124931C00274FF00A0E78
:101E0C001A4613F801CBACF1300C5FFA8CF8B8F130
:101E1C00090F1AD80EFB07C7CA19262AF0DD74B1B0
:101E2C0056B900232B600C23BAE72B2B4FF0000480
:101E3C0014BF531C931CE0E74FF00043F2E716B9B4
:101E4C004FF0FF43EEE7184BECE704B17F421478F8
:101E5C00002CA6D10F44FEF713FD002F13DDDFF885
:101E6C005080FA0704D5E3B258F82310FEF75AF95C
:101E7C007F1004F10104F4D10EB100F10040286090
:101E8C00D1E70027E3E7DFF82C807F42002FF3D067
:101E9C00FB0704D5E3B258F82310FEF743F97F1083
:101EAC000134F3E799999919000080FFCBCC0C0011
:101EBC0030000020180000202DE9F74F06460C4694
:101ECC00FFF7E7FE06F1140B0546D8464FF0000964
:101EDC0006F1530AA8EB0B072846FFB2FFF70CFFDD
:101EEC0058B1D04508D086F80D90304608F8015B03
:101EFC00FFF7CFFE0546EDE73F270025F3191D75CB
:101F0C00337D742B12D1237A23F07F0343F0060325
:101F1C00237201232360042F01D1012003E001234C
:101F2C00002086F8543003B0BDE8F08F662B08D142
:101F3C00237A256023F07F0343F006032372052FD9
:101F4C00EAE76E2BE7D0694658468DF80450FFF748
:101F5C00EBFE9DF804300A2B09D00C2B10D0082B6B
:101F6C0017D1237A23F07F0343F0080304E0237A8C
:101F7C0023F07F0343F00A032372009B2360CCE71A
:101F8C00237A23F07F0343F00C032372009B23601E
:101F9C00C3E70223284686F85430C4E7002313B560
:101FAC007F288DF80030C3B20BD88DF801300DF1BD
:101FBC00020313F8010DD0B30A68541C0C601070A6
:101FCC00F7E703F03F0363F07F038DF80130C0F3B4
:101FDC0087128309C0F38F101F2806D862F03F02C6
:101FEC008DF802200DF10303E3E7981102F03F0294
:101FFC0062F07F0210F47C7F8DF80220C3F389120B
:10200C00C3F3871305D163F01F038DF8033001ABC5
:10201C00CFE703F03F0363F07F038DF80330931198
:10202C0063F00F038DF804300DF10503C1E702B026
:10203C0010BD00002DE9F84307460024FFF729FEE8
:10204C00254606467C733846FFF723FE8642034638
:10205C007D735BD028B90123002087F85430BDE88C
:10206C00F8835C284BD13846FFF713FE0028F2D0DA
:10207C0075283AD14FF004084FF000097D733846AB
:10208C00FFF707FE0028E6D040288ABF20F0200387
:10209C00A0F13003373BDBB20F2B01D90223DBE776
:1020AC0008F1FF3843EA091318F0FF081FFA83F907
:1020BC007D73E4D109F520539BB2B3F5806F02D246
:1020CC00C9F30904BFE709F510539BB2B3F5806F50
:1020DC003ABFC9F3090949EA84294846394638BF49
:1020EC0009F58030FFF75AFFADE70B4B1A78002A41
:1020FC00D4D0904208D15B78002BCFD07D733A6856
:10210C00511C396013709EE70233EFE73B680120E6
:10211C005A1C3A601D70A2E741AC0008F8B5036880
:10212C0004464360FFF7B5FD27281CD022281AD09F
:10213C002046FFF7AEFD0646FFF7DEFD0546C0B1B3
:10214C000027236867735A1C226020461E70FFF715
:10215C00A0FD0646FFF7D0FD0028F2D123685A1CDB
:10216C002260187003E02046FFF764FF05462846FE
:10217C00F8BD022384F85430F9E7F8B505460E464D
:10218C001C46FFF791FD08B90020F8BD2846FFF763
:10219C0080FD5B281CD008D822285CD027285AD078
:1021AC0031462846FFF788FEEFE77B28F8D1337AD3
:1021BC004FF0000223F07F0343F02003337200231F
:1021CC003146C6E900332846234600F0FDF8DCE72B
:1021DC00337AE4B223F07F0343F0400333720023DD
:1021EC00C6E900331CB9052385F85430CCE72846E2
:1021FC006B73FFF759FD07460028C5D05D212846B3
:10220C00FFF76EFD08B13846BFE7013C304629693F
:10221C00FEF7FCFD18B9032385F85430B5E70146E9
:10222C0023464FF000022846FFF7A7FF0028ABD04B
:10223C002846FFF739FD0028A6D05D212846FFF778
:10224C004FFD0028DFD12C212846FFF749FD00283F
:10225C00DCD10223E0E72B6828466B60FFF7EAFE2F
:10226C00002891D0337A6A6823F07F0343F004038B
:10227C003372326089E70000F0B500F59A660446C7
:10228C009FB0304601F08AFF002840F3858030462D
:10229C0001F084FF074604F178054FF480620021B9
:1022AC00284606F09AFE3B462A460A21304606F09E
:1022BC009AFC29463E4806F03FFF7B21284607F052
:1022CC0049F8002868D03B4806F0BCFF4FF00002EC
:1022DC004FF480616846FFF71DFB019B01AA029336
:1022EC00049B0C9203939DF81C304FF0000223F0DA
:1022FC007F038DF81C30002305A9CDE909358DF835
:10230C002D308DF8743008A84FF00A030895FFF7AC
:10231C0034FF9DF874307BB99DF82C3063B19DF877
:10232C001C3003F07F020C2A03D003F07D03082B32
:10233C0002D102238DF874309DF874501E48052D7F
:10234C0096BF1E4B1E4953F8251006F0F5FEFDB93D
:10235C009DF81C309B0629D51A490598FEF743FDBC
:10236C0020B3037A03F07F030C2B0DD8DFE803F0C6
:10237C001E0C0C0C0C0C070C070C070C160003683D
:10238C00003B18BF01238BB101212046FEF77CFDD9
:10239C00019808B106F0D4FD1FB0F0BD0021006813
:1023AC00FEF70AFBB0FA80F35B09ECE70021ECE7DF
:1023BC0083AC000856AC00086BAC00085CB100089C
:1023CC0052AC000888AC00082DE9F843DEB2044694
:1023DC00884626B9052380F85430002521E00023D7
:1023EC004373FFF761FC07460028F6D07D21204699
:1023FC00FFF776FC054698B9013E2046FFF78EFEA6
:10240C000028EAD02046FFF74FFC0028E5D03A21FF
:10241C002046FFF765FC38B9022384F8543000E0FD
:10242C003D462846BDE8F883D4F80490D8F800005F
:10243C004946FEF7D8FC014668B921694046FEF7CB
:10244C00E5FC014608B90323E7E7037AC0F80C90D2
:10245C0003F07F03037233464FF000022046FFF770
:10246C008CFE0028B9D02046FFF71EFC0028B4D003
:10247C007D212046FFF734FC0028D1D12C212046A9
:10248C00FFF72EFC0028C7D02046FFF70DFC0028D4
:10249C00B3D1A2E738B5044608460D46FDF73AFE1F
:1024AC00294602462046FEF7CDFCA3680344A360F0
:1024BC0038BDD0E9002393423FBF5A1C4260002232
:1024CC00197037BF436800221A70012283681344C5
:1024DC008360704770B50D4622210446FFF7E9FF73
:1024EC00013D15F8011F79B10A4B9E7846B1DA7897
:1024FC0002338A42F9D15C212046FFF7DAFF3146DC
:10250C002046FFF7D6FFECE722212046FFF7D1FF4C
:10251C0070BD00BF41AC0008000000002DE9F04781
:10252C0006230D468372074652492846FEF762FA87
:10253C000446002840D0052600244FF02008DFF880
:10254C003891DFF838A1294659F82600FEF748FAE9
:10255C0038B128465AF82610FDF7E4FD05464444E8
:10256C0024B2013E4FEA6808EDD200212846FEF75E
:10257C004BFA28B32846FDF7EDFF3CA3D3E9002323
:10258C00FEF7AAF8E0B1DFF8F890DFF8ECA033061C
:10259C0016D4294659F82600FEF736FA40B12846DB
:1025AC005AF82610FDF7BEFD0546A4EB080424B22C
:1025BC004FEA6808013EEAE74FF020080526D4E709
:1025CC0028463C81FEF72AFA0A2106460346DFF824
:1025DC00B4803860092B07D9BA7AB8FBF1F8013A04
:1025EC00B3FBF1F3BA72F5E73046FEF749F9014651
:1025FC002846FEF793F805464046FEF741F901469A
:10260C002846FDF78FFD8146FEF708FA0546FEF7D2
:10261C0037F901464846FEF781F80146FEF780F887
:10262C00FEF7FCF9284440450FD278600A217B68FC
:10263C00B3FBF1F201FB1233A3B997F90A30002B6B
:10264C0010DD013B7A60BB72F1E7002301367B6041
:10265C003E60002CEAD0092E81BF012301343C815D
:10266C003B60E3E73846BDE8F08700BFF168E388DC
:10267C00B5F8E43E8096184B30000020180000207E
:10268C000000002040420F0010B50446521AFEF71D
:10269C00D9FBA3680344A36010BD70B586B00B468C
:1026AC000DF116010A460A26B3FBF6F506FB1534A6
:1026BC00303401F8014D1C46092C2B46F4D8FFF799
:1026CC00E3FF06B070BD000070B505468AB0084641
:1026DC000C46FEF771F928B928463F49FFF7DAFE98
:1026EC000AB070BD00212046FEF766F948B92146B4
:1026FC002046FEF715F801462046FEF75DF9002846
:10270C00EAD100212046FEF761F928B12D21284697
:10271C00FFF7CFFE04F10044214601A8FFF7FEFEAF
:10272C0001992846FFF7B9FF9DF90E10E1B10A4651
:10273C000A26029B0DF11F04013A52B2501C08D01C
:10274C00B3FBF6F006FB1033303304F801390346C3
:10275C00F2E7C9B208AA2E20531AC94303F8010C98
:10276C0011442846FFF790FFBDF90C30002B17DA07
:10277C001A492846FFF78EFE0DF126010A460A2457
:10278C00BDF90C305B4293FBF4F004FB1033303397
:10279C0001F8013D03460028F5D12846FFF774FFE8
:1027AC00BDF90C30002B9BDD65212846FFF781FE1F
:1027BC000DF126010A460A24BDF90C3093FBF4F006
:1027CC0004FB1033303301F8013D03B20028F5D17E
:1027DC002846FFF759FF83E790AC000895AC00083A
:1027EC0038B5027A054602F07F030C2B0C460DD847
:1027FC0012F07E0F0ED0023B0A2B0BD8DFE803F051
:10280C004D4D4848620A600A560A0C00202B21D014
:10281C00402B06D0304958E001682046FFF754FFA2
:10282C0038BD5B212046FFF744FE2D686DB128466C
:10283C002146FFF7D5FF2846FEF7CEFA054620B114
:10284C002C212046FFF735FEF0E75D212046FFF7EF
:10285C0030FEE5E77B212046FFF72BFE2D68ADB15E
:10286C00E9682046FFF736FE3A212046FFF721FEA5
:10287C0028462146FFF7B4FF2846FEF7ADFA054679
:10288C0020B12C212046FFF714FEE8E77D21DDE77F
:10289C0001682046FFF71EFEC2E7D0E90012204671
:1028AC00FEF7D0FAA3680344A360B9E705682D21AD
:1028BC002046FFF7FEFD29462046FFF7EEFEAFE768
:1028CC000168F9E7036823B104492046FFF7E2FDEC
:1028DC00A6E70349F9E700BF90AC000898AC0008E4
:1028EC009DAC00082DE9F04F0546D0F8C424D0F873
:1028FC00C8348FB09B1A534A4FF4006102FB03F8A3
:10290C0006A84FF0000205F17809FFF703F84FF421
:10291C0080620021484606F060FB07AA4A490BA8D2
:10292C00FFF7A1F995F8A014FFF77EF995F8A134FB
:10293C00464A4749D45C0BA807AAFFF794F92146ED
:10294C00FFF772F9434907AA0BA8FFF78CF9064663
:10295C0040B1037A23F07F0343F04003037200235A
:10296C00C0E900333C4806F06DFC41463B4806F09C
:10297C00E3FB0027DFF8FCB0474549D0002E41D0DF
:10298C00304607A9FEF742FA044640B1037A23F019
:10299C007F0343F0200303720023C0E90033D5F812
:1029AC00C43407EB470A7CB320462D4907AA019390
:1029BC00FFF744F9019B13F80A10FFF735F9D5F826
:1029CC00C434534414B32046264907AA0193FFF795
:1029DC0035F9019B5978FFF727F9D5F8C4349A4497
:1029EC002CB12046594607AAFFF728F904469AF855
:1029FC0002102046FFF718F939461B4806F09CFBDD
:102A0C000137B9E73446CAE72046D4E72046E1E768
:102A1C00002303A985F878300BA805F277450593B8
:102A2C00CDE90359FFF7DCFE104806F00BFC4946D4
:102A3C000F4806F081FB079808B106F081FA0FB039
:102A4C00BDE8F08FABAAAAAAA3AC0008B7B10008E6
:102A5C00ABAC0008BAAC0008C5AC0008E2AC00088E
:102A6C00FDAC000802AD00080EAD00082AAD000850
:102A7C0083AC000809AD000870B50446194806F08F
:102A8C00E1FB94F8E43433B32046FEF7EFF920462B
:102A9C00FFF728FF2046FEF775FB0146E0B1124810
:102AAC0006F0D0FB0025114ED4F8C424D4F8C83459
:102ABC009B1A7343AB4209D905EB45031A4405F144
:102ACC001C005178FEF716F80135EDE70023A4F849
:102ADC00E43484F8E63470BD2046BDE87040FEF75F
:102AEC00D3B900BF4AAD00086CAD0008ABAAAAAAC6
:102AFC00F7B500253B4C2B462A4629463A4800950B
:102B0C0005F0ACFF2246394B02F8015B1968C4F89A
:102B1C001250C4F801109988C4F8165091801A46C6
:102B2C0052F8061FA576C4F807105168C4F80B10AC
:102B3C001189927AA4F80F10627404F11B0103F14D
:102B4C001A022E3352F8040B9A4241F8040BF9D1B5
:102B5C00138827480B80937829228B70002106F06C
:102B6C003CFA47F6F8730027E365224B22492366AB
:102B7C00224B23486366234B234DA36606F0BCF817
:102B8C002248C4F87874C4F87C7405F05FFF2048C0
:102B9C0005F05CFF1F4805F059FF1F4805F056FF74
:102BAC0001231E4EC4F8A0340FCE0FC596E80F00BB
:102BBC0085E80F001A4A4FF47A73C4F8D02408221F
:102BCC00C4F8C474C4F8C874C4F8CC74C4F8D4740D
:102BDC00C4F8D83484F8E024A4F8E234C4F8E474DB
:102BEC0003B0F0BD6C010020E0060020C8A5000871
:102BFC009E0100208DAD000851AC0008ACAD000862
:102C0C00D8010020CBAD000810060020EC050020F8
:102C1C00F4050020FC0500200406002024A6000872
:102C2C00F8B1000808B5054BD3F8C40408B106F098
:102C3C003AF9BDE80840024806F019B86C010020CA
:102C4C00D801002010B58D4886B005F02BFB00286C
:102C5C0040F312818949684605F0E0FF684606F0AA
:102C6C00D5F80099864806F067FA864903A806F05D
:102C7C0043F803A9684606F0A0F8044603A805F03B
:102C8C00F6FF002C05DB804806F0DCFA01227F4BB6
:102C9C001A707F4903A806F02FF803A9684606F0BE
:102CAC008CF8044603A805F0E2FF002C05DB7948FC
:102CBC0006F0C8FA0222754B1A70774903A806F081
:102CCC001BF803A9684606F078F8044603A805F03B
:102CDC00CEFF002C05DB6C4806F0B4FA05226B4BDA
:102CEC001A706E4903A806F007F803A9684606F0A7
:102CFC0064F8044603A805F0BAFF002C05DB68480D
:102D0C0006F0A0FA0322614B1A70664903A805F07D
:102D1C00F3FF03A9684606F050F8044603A805F033
:102D2C00A6FF002C05DB604806F08CFA0422574BFA
:102D3C001A705E4903A805F0DFFF03A9684606F088
:102D4C003CF8044603A805F092FF002C05DB58481C
:102D5C0006F078FA06224D4B1A70564903A805F076
:102D6C00CBFF03A9684606F028F8044603A805F033
:102D7C007EFF002C05DB504806F064FA0722434B1B
:102D8C001A704E4903A805F0B7FF03A9684606F070
:102D9C0014F8044603A805F06AFF002C05DB48482C
:102DAC0006F050FA0822394B1A70464903A805F070
:102DBC00A3FF03A9684606F000F8044603A805F033
:102DCC0056FF002C05DB404806F03CFA09222F4B3D
:102DDC001A703E4903A805F08FFF03A9684605F059
:102DEC00ECFF044603A805F042FF002C05DB384835
:102DFC0006F028FA0A22254B1A70364903A805F06A
:102E0C007BFF03A9684605F0D8FF044603A805F02C
:102E1C002EFF002C05DB304806F014FA0B221B4B5E
:102E2C001A702E4903A805F067FF03A9684605F040
:102E3C00C4FF044603A805F01AFF002C05DB284844
:102E4C0006F000FA0C22114B1A70264903A805F063
:102E5C0053FF03A9684605F0B0FF044603A805F02C
:102E6C0006FF002C05DB204806F0ECF90D22074B81
:102E7C001A70684605F0FBFE06B010BDFC0D002074
:102E8C0083AC0008DDAD0008EAAD00086401002049
:102E9C00FCAD00080AAE000824AE00082FAE0008F6
:102EAC0038AE000846AE00084DAE000859AE00081A
:102EBC0060AE00086CAE000874AE000881AE00086D
:102ECC0090AE0008A2AE0008B1AE0008C5AE000876
:102EDC00D1AE0008E6AE0008F2AE000806AF00085E
:102EEC0011AF000828AF000835AF00082DE9F043FA
:102EFC0089B005F0B3F9AB4C2368C01AB0F5FA7F72
:102F0C0005D905F0ABF92060A748FEF7FDF90620BE
:102F1C0005F07EF958B9062005F07AF90028FAD0A8
:102F2C00A24806F08FF901219F48FEF7D7FA01203D
:102F3C0005F06EF958B9012005F06AF90028FAD0AD
:102F4C009B4806F07FF901219748FEF797FA00207D
:102F5C0005F05EF950B9002005F05AF90028FAD0B6
:102F6C00944806F0E9F89048FFF786FD032005F039
:102F7C004FF958B9032005F04BF90028FAD08E48C8
:102F8C0006F060F9FF218848FEF772FB022005F07D
:102F9C003FF9044630B9894806F054F92146824875
:102FAC00FEF766FB042005F033F9B0B9042005F0F8
:102FBC002FF90028FAD0824806F044F90021814A02
:102FCC007948FEF7E5F900217F4A7748FEF71EFAAB
:102FDC0000217E4A7448FEF7C5FA052005F018F961
:102FEC00B0B9052005F014F90028FAD0784806F09D
:102FFC0029F90121734A6C48FEF7CAF90121724A7A
:10300C006948FEF703FA0121704A6748FEF7AAFAED
:10301C000C2005F0FDF860B90C2005F0F9F800283B
:10302C00FAD06C4806F00EF9684A66495E48FEF71D
:10303C007FFB5D48FFF720F9FFF704FE5A48FEF7C7
:10304C002DF80021644B654A654C664D236013785E
:10305C0029600B2B11706FD1634806F0F3F8634DA8
:10306C002368002B40F32A81143B2846236005F08B
:10307C0019F900285CDD00256C465C4902A805F0B6
:10308C00CDFD2E46A046DFF87091049B9D4229D2BF
:10309C00294602A805F080FE3A2805F1010714D153
:1030AC0032462B4602A905A805F08AFE0598FEF7C4
:1030BC001DFC014604F8010B484606F03DF805A836
:1030CC003E4605F0D4FD3D46DFE7294602A805F053
:1030DC0063FE2D28E4D0294602A805F05DFE2028C9
:1030EC00F1D1DDE7324602A905A805F069FE059885
:1030FC00FEF7FCFB06232070002241463C4805F0FD
:10310C0027FF3C4806F09EF80224394D3A4E2046E3
:10311C002978FDF7EFFC0134304615F8011B06F059
:10312C000BF8082CF3D1354806F08CF8FDF7B6FCFB
:10313C00142005F097F893E70C2B67D12A4806F07A
:10314C0081F82A4D2368002B40F3B880143B2846A5
:10315C00236005F0A7F8002820DD244905A805F018
:10316C005DFD05A805F05EFE142300220599244898
:10317C0005F0EEFE234806F065F80824204D1E4E9F
:10318C0020462978FDF7B6FC0134304615F8011BB2
:10319C0005F0D2FF1C2CF3D11B48C5E7142005F019
:1031AC0061F8CFE7E80600206C0100204EAF000864
:1031BC0067AF000885AF000894AF0008A0AF000807
:1031CC00ADAF000848000020500000204C0000204B
:1031DC00BAAF0008C6AF0008E093040064010020F9
:1031EC005C06002058060020D7AF0008FC0D00201C
:1031FC006D010020F3AF000804AC000804B0000817
:10320C00730100201DB0000833B000080D2B36D11F
:10321C00674806F017F8674D2368002B4EDD143B0A
:10322C002846236005F03EF8002824DD614905A8F6
:10323C0005F0F4FC05A805F0F5FD05A805F01AFE4F
:10324C005D4C0146E0655D4805F076FF5C4805F095
:10325C00F9FF94F85D10FA20FDF74CFC94F85C1023
:10326C00FB20FDF747FC574805F0ECFFE16D564895
:10327C0005F062FF5AE7142004F0F4FFCCE7013BA1
:10328C00092B1BD801A252F823F000BFC132000851
:10329C00D5320008E732000807330008DF32000897
:1032AC00213300082B3300083B3300083931000868
:1032BC002F33000801214048FEF710F9022004F0DA
:1032CC00D1FF09B0BDE8F08301213B48FEF7D6F8E9
:1032DC00F4E73948FFF7D0FBF0E700213B4A3648CA
:1032EC00FEF756F800213A4A3348FEF78FF80021D2
:1032FC00384A3148FEF736F9E0E70121334A2E48C7
:10330C00FEF746F80121324A2B48FEF77FF80121DF
:10331C00304AEEE7FF212848FEF7AAF9CEE7002154
:10332C00F9E72C4A29492448FEF702FAC6E7204857
:10333C0005F088FF1F4E284F2368002BBEDD143B81
:10334C003046236004F0AEFF002811DD314605A89D
:10335C0005F064FC05A805F08DFD0146286008B158
:10336C000A2809DD384605F0E7FE05A805F07FFCC4
:10337C00142004F077FFDFE7184805F0DDFE0E4C53
:10338C002D68174884F8A05405F05CFF94F8A0143D
:10339C00144805F0D1FE002094F8A014FDF7AAFB08
:1033AC0004F59460E9B2FEF721FB0F48BCE600BFC0
:1033BC00D7AF0008FC0D00206C01002030AB0008DA
:1033CC0051B0000869B0000889B00008480000201E
:1033DC00500000204C000020ACB0000820A80008D1
:1033EC00DCB00008F5B0000810B100081422002170
:1033FC00103005F0F2BD10B50446103105F040FB5D
:10340C00204610BD10B50446143105F039FB20469A
:10341C0010BD10B50446183105F032FB204610BD26
:10342C0010B50446203105F02BFB204610BD30238F
:10343C0001F8013B104600F00F03092B94BF303309
:10344C0037330F284FEA121201F80139F2D87047BE
:10345C00002307B51A4619460093034805F0FEFAF7
:10346C0003B05DF804FB00BFEC0600202DE9F04131
:10347C008EB00446884616460021202206A805F088
:10348C00ACFDFF2302A81A461946009305F0E6FA94
:10349C004C4B04F148050493039B4322284604A992
:1034AC00059301F063F8013000F08980464B1C2233
:1034BC000693636876BA1BBA0793802306A928463D
:1034CC00ADF82230ADF8206001F05FF81C222646E2
:1034DC0000210DEB020005F080FD56F8080F1022BC
:1034EC00B388069006A92846ADF81C3001F04DF8BB
:1034FC002022002106A805F070FD06272022284670
:10350C0006A901F042F8013FF8D1304B304906933F
:10351C0040F23513ADF81C303D238DF81F3040F2CE
:10352C000713ADF8203033680DF12A00CDF82230A6
:10353C00B3888DF81E80ADF8263040F60C43ADF8FC
:10354C00283005F014FF2046E27A0CA9FFF76FFF34
:10355C002046227B0DF13201FFF769FF2046627B8A
:10356C000DA9FFF764FF1E22284606A901F00DF8ED
:10357C00B8F1030F14D140F23243ADF81830238A5E
:10358C000C22ADF81A30638A2846ADF81C3040F294
:10359C003643ADF81E30E36906A9089300F0F5FF39
:1035AC000C4A0D4B2846CDE90623FF23092206A918
:1035BC008DF8203000F0E9FF284600F0E0FF0EB057
:1035CC00BDE8F08104B80008010106006382536372
:1035DC00E3B1000837060103060F3A3B2DE9F0432F
:1035EC0091B005468846164604F038FE074605F1AC
:1035FC004804204601F030F8002809DC04F02EFEC7
:10360C00C01B404500F2ED80322004F02BFEF0E7A9
:10361C002422204607A900F0DCFF9DF81C30022B69
:10362C0040F0DA80B5F86430432B40F0D580089F29
:10363C0006223FBA376005F108010EA805F097FC89
:10364C00064628B92B689F4202D36B689F4207D964
:10365C00204600F02BFF0026304611B0BDE8F08369
:10366C000B9B0146CC2220462B6100F0B2FF05F1EA
:10367C002408204600F00CFF002840F3AE802046C2
:10368C0000F090FF3B2835DC322806DC06281DD9DB
:10369C00204600F087FFC2B24DE033380828F7D837
:1036AC0001A353F820F000BFCB3700089D3600086B
:1036BC0007370008573700089D3600089D3600086C
:1036CC009D36000897370008B13700080628DFD868
:1036DC0001A353F820F000BF7F360008173700080D
:1036EC009D3600082B3700089D3600089D360008D3
:1036FC0047370008FF28BCD0CAE7204600F052FF2D
:10370C00204600F04FFFC6B2B3E7204600F04AFF58
:10371C00042205F11401204600F05BFFA9E72046C6
:10372C0000F040FF0422074605F11801204600F086
:10373C0050FFFAB2043A0021EDE7204600F032FFC8
:10374C000422074605F12001F0E7204600F02AFF8D
:10375C0005F11C073946814601A805F091F90021B5
:10376C0003A805F087F9029A049B9A420AD03946BD
:10377C0005A805F085F92A6E069B9A4202D05FFADD
:10378C0089F2D8E704223946C5E7204600F00AFF43
:10379C000422204605F1280100F01BFFAB6A1BBA7E
:1037AC00AB6266E7204600F0FDFE0422204605F1E0
:1037BC002C0100F00EFFEB6A1BBAEB6259E72046B6
:1037CC0000F0F0FE04224146204600F002FF6B6A36
:1037DC001BBA6B622B634CE70026204600F066FE9A
:1037EC003AE7FF2638E700BF2DE9F34704464FF4CC
:1037FC00FA61012005F031FAA046606048F8480BE8
:10380C00404600F054FE4421404600F05CFE064663
:10381C0078B304F023FD4FF00009074600264FF063
:10382C00030A94F84430032B1AD033BB636801337A
:10383C00636004F013FDC21B4FF47A70B2FBF0F21C
:10384C000121204692B2FFF711FE012384F8443087
:10385C00002EE6D104F002FDA36BC01B9842DDD90B
:10386C00404600F024FE63680133636004F0F6FC0C
:10387C002064304602B0BDE8F087042B10D1636899
:10388C000133636004F0EAFCC21B4FF47A70B2FBA4
:10389C00F0F20321204692B2FFF7E8FD0223D5E7B0
:1038AC00012B18D12046E16B01AAFFF797FE0228E5
:1038BC00054637D1019B636004F0D0FCC21B4FF46A
:1038CC007A70B2FBF0F20321204692B2FFF7CEFDE4
:1038DC0084F84450BCE7022BBAD12046E16B01AA14
:1038EC00FFF77CFE0528054617D1636A84F844A0CF
:1038FC0013B94FF461736362A36A13B9636A5B080B
:10390C00A362E36A1BB9636AA3EBD303E362A36A02
:10391C0001262363E36A636383E7062802D184F8F4
:10392C00449095E7FF2DFAD092E7F8B500250E46A6
:10393C000446C0E90955C0E90E23C562856085813E
:10394C00FFF754FD33682046A360B38884F84450D5
:10395C00A381BDE8F840FFF747BF4B6843600023E5
:10396C000381704770B500242346013911F8010F0B
:10397C00B8B1A0F13005EEB2092E08D803EB8303E1
:10398C0005EB43039BB2FF2BF0D900200DE02E2852
:10399C00FBD1032CF9D0601C144423710023C4B256
:1039AC00E4E7032C01D10120D37170BD002307B5CE
:1039BC001A4619460093034805F050F803B05DF819
:1039CC0004FB00BFF40600202DE9F34106460D462A
:1039DC0004F044FC06F10C040222308106F10801CB
:1039EC00204600F0D2FD012302220DF106012046F3
:1039FC00ADF8063000F0C9FD4FF4807302220DF1D2
:103A0C0006012046ADF8063000F0BFFD002302226F
:103A1C000DF106012046ADF8063000F0B6FD02228D
:103A2C000DF10601204600F0B0FD022220460DF1FA
:103A3C00060100F0AAFD2F462B78D3B13E46337811
:103A4C00354601360BB12E2BF9D1A5EB0708B8F191
:103A5C00000F0CDD01220DF1050120468DF80580CB
:103A6C0000F093FD42463946204600F08EFD374665
:103A7C00E2E74FF480750DF10501012220468DF827
:103A8C00053000F082FD0DF1060102222046ADF852
:103A9C00065000F07AFD022220460DF10601ADF829
:103AAC00065000F072FD012002B0BDE8F0812DE956
:103ABC00F04387B007468846164604F0CFFB054610
:103ACC0007F10C04204600F0C7FD002809DC04F0C7
:103ADC00C5FB401B404500F2CB80322004F0C2FBFA
:103AEC00F0E77A6A7B689A4240F0C5803B8D352BB3
:103AFC0040F0C180204600F0CBFC0B2840F3BE8088
:103B0C000C2220460DEB020100F063FDBDF80E30D7
:103B1C0039891D0ABDF80C2045EA03252BB29142C8
:103B2C00ADB2ADF8065001D1002B08DB204600F0F9
:103B3C00BDFC4FF6FC75284607B0BDE8F08340F29B
:103B4C000F231D4005D0204600F0B0FC4FF6FB754E
:103B5C00F1E7BDF812301F0A47EA0327BFB22FB9AD
:103B6C00204600F0A3FC4FF6FA75E4E7BDF81030E0
:103B7C00AAB25BBA9BB29A4218DA012220460DF126
:103B8C000A0100F026FD9DF80A2032B9042200211A
:103B9C00204600F01EFD0135E8E70021204600F02C
:103BAC0018FD9DF80A30002BE7D1EFE74FF0000825
:103BBC00C14601220DF10501204600F00AFD9DF8D9
:103BCC00052012F0C00136D132B1204600F001FDC3
:103BDC009DF80530002BECD1022202A9204600F002
:103BEC00F8FC02220DF10A01204600F0F2FC04223E
:103BFC000021204600F0EDFC022220460DF10601CA
:103C0C0000F0E7FCBDF80830BDF80620B3F5807F66
:103C1C0019D052BA0021204692B208F1010800F0E6
:103C2C00D8FC1FFA88F3BB42C3D3204600F03EFCFD
:103C3C004FF6F6757FE701220021204600F0C9FC03
:103C4C008DF80590C8E7BDF80A506DBAADB2012DDC
:103C5C00DFD152BA92B2042A05D0204600F026FCDD
:103C6C004FF6F77567E72046311D00F0B2FC62E7AE
:103C7C004FF6FF755FE74FF6FE755CE74FF6FD7587
:103C8C0059E700002DE9F74306460D469146984644
:103C9C00FFF768FE044658BB1B4B72685B689A4280
:103CAC0028D004F0DBFA06F10C0700F00F0101F547
:103CBC008061384600F007FC012815D1134B3522E2
:103CCC000093736869463846019300F04FFC40B18D
:103CDC0029463046FFF778FE18B1384600F04FFC05
:103CEC0058B9384600F0E3FB204603B0BDE8F0833A
:103CFC000124F9E76FF00104F6E74A4641463046E5
:103D0C00FFF7D5FE0446ECE7F406002004B80008E3
:103D1C0002729DF80020416082720BB9437205E07B
:103D2C00012BFBD0022BF9D0032BF7D0704710B529
:103D3C0086B003AC84E80E00059B2321009394E825
:103D4C000C0001F05DFD06B010BD232101F090BD0B
:103D5C0001460422012001F01DBA0146042205206F
:103D6C0001F018BA01460622092001F013BA0146E7
:103D7C0004220F2001F00EBA2DE9F0473D4D80468C
:103D8C002B68894613F0010392463B4C86B00ED14A
:103D9C00E3644FF47A732365384B04F15C00A3643D
:103DAC0004F054FE082384F8683001232B60344F50
:103DBC0000263C6001F0CCFB0546002855D003AC36
:103DCC00334601222F4920460096FFF7A1FF94E8C5
:103DDC000E002D48FFF7ABFF4046FFF7C3FF3346FD
:103DEC00324631462046009604F038FE04A8FFF710
:103DFC00BEFF2548FFF7A9FF53464A46414638689F
:103E0C00FFF793FD012805462FD1024633461D4985
:103E1C0020460096FFF77CFF94E80E001A48FFF747
:103E2C0086FF39682046FFF7E6FA04A8FFF79FFFE4
:103E3C0039682046FFF7EDFA04A8FFF789FF3968C7
:103E4C002046FFF7DFFA04A8FFF787FF0E48FFF7BD
:103E5C007CFF20463968FFF7E3FA049A0B4B5A6053
:103E6C0004F0FEF980B200F033FD284606B0BDE840
:103E7C00F08700BFFC060020140700205CB200088D
:103E8C0010070020809FD500FC07002008070020A9
:103E9C002DE9F04186B080460F4615461E4601F0CE
:103EAC0057FBF8B1002303AC0122104900932046C4
:103EBC00FFF72EFF94E80E000D48FFF738FF404641
:103ECC00FFF750FF381DFFF752FF301DFFF740FF83
:103EDC000C980430FFF741FF0548FFF736FF6A687E
:103EEC00044B5A6006B0BDE8F08100BF809FD5003E
:103EFC00FC07002008070020014B1870704700BF1A
:103F0C005600002008B501F095FB012802D00228CC
:103F1C0018BF002008BD0000044B1B78333BDBB2FC
:103F2C00042B9ABF024AD05C00207047F90700208E
:103F3C00EAB1000870B586B0044604F087FD002392
:103F4C000B4E03AD0093012228460A49FFF7E0FE11
:103F5C0095E80E003046FFF7EAFE04220F20A11868
:103F6C0001F0D8F93046FFF7F0FE204606B070BDE0
:103F7C00FC070020809FD50070B586B0044604F085
:103F8C0065FD00230B4E03AD0093012228460A4920
:103F9C00FFF7BEFE95E80E003046FFF7C8FE042280
:103FAC000520A11801F0B6F93046FFF7CEFE2046E9
:103FBC0006B070BDFC070020809FD50070B586B0A0
:103FCC00044604F043FD00230B4E03AD0093012285
:103FDC0028460A49FFF79CFE95E80E003046FFF78D
:103FEC00A6FE04220120A11801F094F93046FFF737
:103FFC00ACFE204606B070BDFC070020809FD500AB
:10400C00002307B51A4619460093044804F026FD10
:10401C00034803B05DF804EB04F018BD0007002062
:10402C0008070020007C07288CBF00200120704767
:10403C0081F0010070470846704708B503685B6C57
:10404C00984780F00100C0B208BD4182704707B5A7
:10405C0003688DF8071001225B680DF10701984782
:10406C0003B05DF804FB007C0B7C984204D107285C
:10407C008CBF0020012070470020704710B504460B
:10408C00007C072816D800F07BFD182809D91C28BD
:10409C000ED1236820469B689847003818BF012032
:1040AC0005E0054B23FA00F0C04300F0010010BD01
:1040BC000120FCE70020FAE701001001F0B591B0F7
:1040CC00044604A80E46154604F0C0FC00224FF42A
:1040DC007A73CDE90823194B0CA8079304F0B6FCAE
:1040EC00082368468DF83C3004F0B0FC207C07288F
:1040FC0007D800F045FD10B1207C00F0ABFD082383
:10410C0023740F4B0F4F5B6802A904A8039302970B
:10411C00FFF723FC41F288336A46314604A8FFF7C7
:10412C00B1FD40B1019A236820461B6A02A9039293
:10413C0002972A46984711B0F0BD00BF5CB2000848
:10414C000807002004B8000808B5007C072802D82E
:10415C0000F022FF08BD0020FCE710B50446207CCF
:10416C0007280BD800F00CFD172801D01C2805D10E
:10417C00207C00F011FFB0F5006FF0D310BD38B506
:10418C000546007C1446072805D892B200F07EFE46
:10419C0010B901236B600024204638BD08B5007CA3
:1041AC00072802D800F012FE08BD0020FCE7007CB6
:1041BC00072802D812B200F06BBD0020704707B57B
:1041CC0001220DF10701007C00F062FD0028D4BF34
:1041DC004FF0FF309DF8070003B05DF804FB10B5FD
:1041EC00037C0446072B02D94FF0FF3010BD036847
:1041FC009B6898470028F7D0207C00F019FEF5E763
:10420C0038B50446007C07280AD800F023FD04F0DA
:10421C0025F80546207C00F0B3FC10B90823237464
:10422C0038BD012004F01EF804F018F8628A431B14
:10423C009342EFD3207C00F0C3FCEFE77FB504463C
:10424C00007C0D460728164607D800F099FC10B1E3
:10425C00207C00F0FFFC082323740021684604F046
:10426C0009FC6A68019B9A4202D1002004B070BD1F
:10427C004FF0FF3102A804F0FDFB6A68039B9A42E1
:10428C00F3D00021212000F02DFB07282074ECD85E
:10429C00291D324600F0B2FC03F0E0FF0546207CFD
:1042AC0000F06EFC172813D01C2811D00028DCD08D
:1042BC0003F0D4FF638A401B984203D8012003F01B
:1042CC00D1FFECE7207C00F07BFC08232374CCE7C7
:1042DC000120CBE710B40C461146054A127804EBCA
:1042EC00022404EB00201A4610BC80B201F012B874
:1042FC00F807002070B5037C0546072B88B04FF0FB
:10430C00000326D802AE05AC0122134900933046B7
:10431C00FFF7FEFC96E8070084E80700079B2321C3
:10432C00009394E80C000D4801F06AFA022322462F
:10433C000421287CFFF7CEFF9DF814409DF8153022
:10434C002321064843EA042401F092FA204608B0DF
:10435C0070BD1C46FAE700BF809FD500FC0700200B
:10436C00F0B50B7C0546072B0E4689B005D900210C
:10437C0004F080FB284609B0F0BD002302AF05AC69
:10438C000093012238460F49FFF7C2FC97E807005B
:10439C0084E80700079B2321009394E80C000A484B
:1043AC0001F02EFA042322460C21307CFFF792FFF9
:1043BC002321054801F05CFA2146284604F060FBF5
:1043CC00D8E700BF809FD500FC07002070B5037CA8
:1043DC000546072B88B04FF0000326D802AE05AC7B
:1043EC000122134900933046FFF792FC96E8070030
:1043FC0084E80700079B2321009394E80C000D48E8
:10440C0001F0FEF9022322461021287CFFF762FFFF
:10441C009DF814409DF815302321064843EA0424E6
:10442C0001F026FA204608B070BD1C46FAE700BF22
:10443C00809FD500FC070020002307B51A461946BB
:10444C000093034804F00AFB03B05DF804FB00BFC3
:10445C0080070020002307B51A461946009303482D
:10446C0004F0FCFA03B05DF804FB00BF88070020E1
:10447C000368DB6B18470000024A02608A694260DD
:10448C00704700BF04B80008808B7047008A7047E3
:10449C00408C704707B503688DF8071001225B68E4
:1044AC000DF10701984703B05DF804FB704710B598
:1044BC00044690F82000072804D800F081FB08235C
:1044CC0084F8203010BD38B5044690F820000D4615
:1044DC00072801D800F074FB2946022000F002FAEC
:1044EC00072884F820004FF000009EBF25826084CE
:1044FC00012038BDF0B591B0044604A80E4615460F
:10450C0004F0A4FA00224FF47A73CDE90823144B7B
:10451C000CA8079304F09AFA082368468DF83C30EF
:10452C0004F094FA0F4B104F5B6802A904A8039394
:10453C000297FFF712FA41F288336A46314604A813
:10454C00FFF7A0FB012808D1019A23682046DB6AFB
:10455C0002A9039202972A46984711B0F0BD00BFFA
:10456C005CB200080807002004B8000808B5002356
:10457C000431C38390F8200000F064FD08BD08B539
:10458C0090F8200000F08EFD08BD10B5044693B2E3
:10459C000A46C18B90F8200000F026FDE38B034403
:1045AC00E38310BD438C13B504461BB94FF0FF30A9
:1045BC0002B010BD012290F820000DF1070100F0AF
:1045CC0067FB0028F2DD638C9DF80700013B6384D8
:1045DC00EEE7438C10B5044613B94FF0FF3010BD15
:1045EC00934294BF1AB212B290F8200000F050FB24
:1045FC000028F2DD638C1B1A6384F0E708B50346D0
:10460C0090F82000072804D85B8C13B100F010FC44
:10461C0008BD4FF0FF30FBE773B5044690F820005F
:10462C000E460728154601D800F0CAFA094B2A464F
:10463C000093736869468220019300F0E9F907281A
:10464C0084F820004FF000009EBF6084012025827A
:10465C0002B070BD04B8000813B50446628C2AB1D0
:10466C00236800212046DB6B9847F7E794F820007D
:10467C0000F0ACFBD8B10822694694F8200000F099
:10468C0007FB002813DD694604F1140004F000FA5E
:10469C009DF804209DF805309DF8070003EB0223DC
:1046AC00A3839DF8063000EB032080B2608402B037
:1046BC0010BD0000002307B51A46194600930348A5
:1046CC0004F0CCF903B05DF804FB00BFA007002098
:1046DC0007B5084B01221B7801EB032101EB0020ED
:1046EC0080B20DF1070100F015FE9DF8070003B034
:1046FC005DF804FBF807002007B5094B8DF807207F
:10470C001B78012201EB032101EB002080B20DF19B
:10471C00070100F03FFDC0B203B05DF804FB00BF21
:10472C00F807002010B40C461146054A127804EB29
:10473C00022404EB00201A4610BC80B200F02ABD03
:10474C00F80700202DE9F3470C4605462421904636
:10475C001E4601AA0223FFF7BDFD9DF804109DF82B
:10476C00052042EA012214441F4AA7B21378C4F36D
:10477C000A04332B0CBF05F1080105F11001C90225
:10478C0089B22144372B914688B22AD0A319B3F5AC
:10479C00006F26DDC4F5006A1FFA8AFA52464146BC
:1047AC0000F0F8FC99F80030A6F50062332B0CBF32
:1047BC0005F1080005F11000C002224480B292B24B
:1047CC0008EB0A013E4400F0E5FC76BA02232421F2
:1047DC00284601AAADF80460FFF7A4FF02B0BDE8BB
:1047EC00F08732464146EDE7F907002008B5032172
:1047FC00FFF76EFF08BD07B549BAADF804100223E8
:10480C00042101AAFFF78EFF03B05DF804FB08B585
:10481C000A4604230C21FFF785FF08BD07B549BAEA
:10482C00ADF804100223102101AAFFF77BFF03B09F
:10483C005DF804FB07B50223202101AAFFF74AFD0E
:10484C009DF804009DF8053043EA002003B05DF8A4
:10485C0004FB000038B50446FFF7ECFF0346204686
:10486C001D46FFF7E7FF85420346F8D1024A02EBEB
:10487C00C404A08038BD00BFB007002007B50223D8
:10488C00262101AAFFF726FD9DF804009DF80530AE
:10489C0043EA002003B05DF804FB07B5022328218E
:1048AC0001AAFFF717FD9DF804009DF8053043EAB7
:1048BC00002003B05DF804FB044B1B78332B0CBFBA
:1048CC000C301830C00280B2704700BFF9070020CE
:1048DC00034BC0F30D001A8850401880704700BF7E
:1048EC00540000202DE9F047404B80461B780F46C2
:1048FC0086B093B3002503AE332B4FF001022B4649
:10490C003B493046009514BF4FF008094FF004099D
:10491C00FFF7FEF996E80E003648FFF708FAB246A4
:10492C00ECB22046FFF762FF0AF8010BD8B1013553
:10493C00EBB29945F4D800244FF0345216F8013BF1
:10494C001D2B03D822FA03F3DB0708D40134E4B29D
:10495C00A145F3D12748FFF7F8F9082436E01021D8
:10496C00204600F0BFFE0022234B23F81420234ADC
:10497C00234B1168234A5868B1FBF2F2FA215143D8
:10498C005A68121A9142FBDC424600212046FFF77E
:10499C00B3FEFF2202212046FFF7AEFED7B1394607
:1049AC0000262046184DFFF726FF0121204600F077
:1049BC0099FE204625F83460FFF76FFF05EBC40322
:1049CC0058809E710B489E80FFF7BFF9204606B0B9
:1049DC00BDE8F0870D4B1A88013292B2B2F5404F08
:1049EC0038BF4FF440421A801988D9E7F9070020E4
:1049FC00809FD500FC070020900700207800002045
:104A0C00001000E040420F00B007002054000020CE
:104A1C002DE9F04F504B80461B780E46174689B057
:104A2C009BB300250DF1140A332B4FF001022B46DA
:104A3C004A495046009514BF4FF008094FF004093D
:104A4C00FFF766F99AE80E004548FFF770F9D34670
:104A5C00ECB22046FFF7CAFE0BF8010BD8B10135BA
:104A6C00EBB29945F4D800244FF034521AF8013BBC
:104A7C001D2B03D822FA03F3DB0708D40134E4B26C
:104A8C00A145F3D13648FFF760F9082453E0102113
:104A9C00204600F027FE0022324B23F81420324A25
:104AAC00324B1168324A5868B1FBF2F2FA21514389
:104ABC005A68121A9142FBDC424600212046FFF74D
:104ACC001BFEFF2202212046FFF716FE002F36D0D8
:104ADC0039462046FFF78FFE264B311D1868737937
:104AEC00039003F07F038DF80F30B37920468DF8D7
:104AFC001030F37900268DF81130FFF788FE394617
:104B0C002046FFF78BFE062303AA19461A4D2046B2
:104B1C00FFF708FE0121204600F0E4FD204625F8B1
:104B2C003460FFF7BAFE05EBC40358809E710C4845
:104B3C009E80FFF70AF9204609B0BDE8F08F0F4BB5
:104B4C001988013189B2B1F5404F36BF4FF440425C
:104B5C0019801A801988BCE7F9070020809FD500BE
:104B6C00FC0700209007002078000020001000E0D7
:104B7C0040420F0044A60008B0070020540000205B
:104B8C00002370B5054686B003AC0B4E0093012292
:104B9C0020460A49FFF7BCF894E80E003046FFF7B0
:104BAC00C6F82846FFF722FE04463046FFF7CDF83C
:104BBC00204606B070BD00BFFC070020809FD500CA
:104BCC00002370B5054686B00A4E03AC0093012253
:104BDC0020460949FFF79CF894E80E003046FFF791
:104BEC00A6F81021284600F07DFD3046FFF7ADF801
:104BFC0006B070BDFC070020809FD50000232DE976
:104C0C00F04104460F46164686B0DFF8448003ADEB
:104C1C000093012228460D49FFF77AF895E80E001B
:104C2C004046FFF784F839462046FFF7F0FD314641
:104C3C002046FFF7F3FD0421204600F053FD4046CB
:104C4C00FFF783F806B0BDE8F08100BF809FD50068
:104C5C00FC070020002370B5054686B00A4E03AC55
:104C6C000093012220460949FFF752F894E80E0000
:104C7C003046FFF75CF80821284600F033FD30463B
:104C8C00FFF763F806B070BDFC070020809FD500CD
:104C9C0000232DE9F04F174689B0484E0DF114084A
:104CAC0036F830400122009305468B464046444975
:104CBC00FFF72EF898E80E004248FFF738F8A742A5
:104CCC000EDD2846FFF7DAFD04462846FFF7D6FD31
:104CDC00A042F9D106EBC5039C79041B26F835409C
:104CEC008CB92846FFF782FD142805D020B1B0F10D
:104CFC001C0418BF4FF0FF343248FFF726F820464B
:104D0C0009B0BDE8F08FBC42A8BF3C46EB00039352
:104D1C0006EBC503B3F802A0A7B2BBF1000F22D07B
:104D2C002846FFF7C9FD284ACAF30A0912784844F5
:104D3C00372A80B23DD03A464A44B2F5006F38DD8E
:104D4C00C9F50062594692B2039200F0E3FA039A55
:104D5C0028469344FFF7B0FDA9F500623A4492B29D
:104D6C00594600F0D7FAEB00F218917936F8353045
:104D7C00BA44DB1B0F44BFB21FFA8AFA9BB2F92F5D
:104D8C00A2F802A026F8353000D8A3B9EB001E44D7
:104D9C0000234246B3712821022328469AFA9AFA34
:104DAC00ADF814A0FFF7BEFC4021284600F09AFC99
:104DBC00A2E73A46D4E797719EE700BFB007002000
:104DCC00809FD500FC070020F9070020F0B5154E98
:104DDC00054636F8303087B003BB03AC01222046C1
:104DEC0011490093FEF794FF94E80E000F48FEF76C
:104DFC009EFF2846FFF742FD044628462746FFF74C
:104E0C003DFDB8420446F8D10848FEF79EFF06EB7C
:104E1C00C5039B79E31A9BB226F83530184607B0C8
:104E2C00F0BD00BFB0070020809FD500FC0700201C
:104E3C00002370B5054686B003AC114E00930122D9
:104E4C0020461049FEF764FF94E80E003046FEF74A
:104E5C006EFF2846FFF730FD0B4B012203EBC50517
:104E6C006B882146C3F30A03184480B200F052FA4F
:104E7C003046FEF76AFF9DF80C0006B070BD00BF0F
:104E8C00FC070020809FD500B0070020B2F5006F12
:104E9C0028BF4FF400622DE9F04F05460F46164629
:104EAC0089B0DFF8ECB0DFF8ECA005AC4FF00008EF
:104EBC000122434659462046CDF80080FEF728FFD4
:104ECC0094E80E005046FEF732FF2846FFF7C2FC6E
:104EDC0081462846FFF78AFC03905046FEF735FFC3
:104EEC00039B172B01D01C2B34D103F01EF9B145B9
:104EFC00DCD34FF000080122434625492046CDF86B
:104F0C000080FEF705FF94E80E002248FEF70FFF25
:104F1C0033463A4641462846FFF714FC20212846E2
:104F2C0000F0E0FBDFF86C90DFF864A0022128466B
:104F3C00FFF7CEFB10F0100720D12846FFF756FCE8
:104F4C00804648B91348FEF700FF4646304609B084
:104F5C00BDE8F08F4646CCE74846FEF7F6FE03F078
:104F6C00E4F83B465146012220460097FEF7D0FE5E
:104F7C0094E80E004846FEF7DAFED7E7102202212D
:104F8C002846FFF7B9FB0348FEF7DFFEDEE700BF5C
:104F9C00809FD500FC070020002330B5054687B064
:104FAC0003AC012220460E490093FEF7B1FE94E8B3
:104FBC000E000C48FEF7BBFE2846FFF74BFC0446E0
:104FCC002846FFF713FC05460648FEF7BEFE172DD4
:104FDC0002D01C2D18BF0024204607B030BD00BFE6
:104FEC00809FD500FC0700202DE9F0431C460023D0
:104FFC00054687B0DFF8489003AE0F469046009305
:10500C00012230460D49FEF783FE96E80E00484615
:10501C00FEF78DFE2846FFF71DFCA04228BF204658
:10502C0084B22346424639462846FFF78BFB484656
:10503C00FEF78BFE204607B0BDE8F083809FD500BD
:10504C00FC070020F0B50B7806460D46144687B0D9
:10505C002BB94B781BB98B780BB9C878C8B1002326
:10506C00CCB103AF01220D4900933846FEF750FE38
:10507C0097E80E000A48FEF75AFE29463046FFF71D
:10508C00C6FB21463046FFF7C9FB0548FEF75DFE1F
:10509C00012007B0F0BD2046FBE700BF809FD50084
:1050AC00FC07002000232DE9F043064687B003AC33
:1050BC000122244900932046FEF72AFE94E80E00B4
:1050CC002148FEF734FE2021304600F00BFBDFF8C0
:1050DC007880DFF8709002213046FFF7F9FA10F073
:1050EC00100524D102213046FFF7F2FA10F0080720
:1050FC000BD0182202213046FFF7FEFA1248FEF7B9
:10510C0024FE284607B0BDE8F0834046FEF71DFE9E
:10511C0003F00BF83B464946012220460097FEF768
:10512C00F7FD94E80E004046FEF701FED3E710228F
:10513C0002213046FFF7E0FA0348FEF706FE012095
:10514C00E0E700BF809FD500FC070020002307B5D7
:10515C001A4619460093034803F080FC03B05DF82F
:10516C0004FB00BFA807002013460A46232100F0C9
:10517C009FBB0000024B0021187803F025B800BF3C
:10518C0056000020024B0121187803F01DB800BF17
:10519C00560000202DE9FF41534B04461B780D4669
:1051AC00332B164623D100EB0208504F4D1E1FFA2D
:1051BC0088F8A0457DD0FFF7DDFF0122F0213846AD
:1051CC00FFF7D2FF210A01223846FFF7CDFFE1B2EB
:1051DC0001223846FFF7C8FF0134012215F8011FE0
:1051EC003846A4B2FFF7C0FFFFF7CCFFE1E7342B42
:1051FC00C7B21ED1FFF7BEFF330A63F07F038DF8F1
:10520C000A30012364BA009323210423374802AAED
:10521C00ADF808408DF80B6000F098FB334CAF19DB
:10522C00AF4244D00122204615F8011BFFF79CFF2A
:10523C00F6E7FFF79FFFFF2C08D800238DF8083006
:10524C0004238DF809708DF80A300DE0230417D46F
:10525C000023E41024F01F0444F00C048DF80830F3
:10526C008DF809708DF80A40052E26D80023B3421C
:10527C0015DAE95C04AA1A4402F8051C0133F6E7B6
:10528C0044F38713B4F5404F23F01F0364BAADF811
:10529C00084034BF43F0140343F01C03D3E701234D
:1052AC00232100931148F31C02AA00F04FFBFFF7D7
:1052BC0069FF304604B0BDE8F0810123232100933F
:1052CC000A48032302AA00F041FB711E89B2074F62
:1052DC006C1E0D4414F8011F01223846FFF744FFE1
:1052EC00AC42F7D1E3E700BFF9070020FC07002030
:1052FC0007B501228DF807100DF10701FFF74AFFE2
:10530C00C0B203B05DF804FB08B501460020FFF7FE
:10531C00EFFF08BD2DE9FF41404B04461B780E46BC
:10532C00332B154624D100EB02083D4F4E1E1FFABD
:10533C0088F8A04540D0FFF71DFF01220F21384609
:10534C00FFF712FF210A01223846FFF70DFFE1B2E9
:10535C0001223846FFF708FF012200213846FFF7EB
:10536C0003FF013406F8010FA4B2FFF70BFFE0E7CF
:10537C00342BC7B224D164BAFFF7FCFEC5F3062365
:10538C00ADF80C4001248DF80E3004238DF80F502D
:10539C0000942321224803AA00F0D8FA2A460021BF
:1053AC00304603F01AFE2B46324623211C4800944B
:1053BC0000F0CCFAFFF7E6FE284604B0BDE8F08119
:1053CC00FFF7D8FEFF2C07D800238DF80D708DF851
:1053DC000C308DF80E300DE023040FD40023E410B4
:1053EC0024F01F0444F008048DF80C308DF80D7077
:1053FC008DF80E40012403230094CAE744F387136D
:10540C00B4F5404F23F01F0364BAADF80C4034BF21
:10541C0043F0100343F01803DBE700BFF90700204B
:10542C00FC07002007B501220DF10701FFF772FF01
:10543C009DF8070003B05DF804FB08B50020FFF7EA
:10544C00F1FF08BD10B58020FFF75EFF1424FFF7B5
:10545C00F4FF40B1013C0120A4B202F003FF002C88
:10546C00F5D1204610BD0120FCE70000332208B521
:10547C000E4B1A70FFF7E6FF08B9002008BD10208C
:10548C00FFF742FFFFF7D9FF1028F6D11220FFF7E4
:10549C003BFFFFF7D2FF1228EFD10020FFF734FFBC
:1054AC00FFF7CBFFB0FA80F04009E7E7F9070020DF
:1054BC00342208B5114B1A70FFF7C4FF08B900204D
:1054CC0008BD0820FFF720FFFFF7B7FF0828F6D12B
:1054DC001020FFF719FFFFF7B0FF1028EFD10020C5
:1054EC00FFF712FFFFF7A9FF0028E8D11F20FFF7F5
:1054FC0099FFC31E58425841E2E700BFF90700204C
:10550C00372208B5114B1A70FFF79CFF08B9002021
:10551C0008BD0820FFF7F8FEFFF78FFF0828F6D12B
:10552C001020FFF7F1FEFFF788FF1028EFD10020C5
:10553C00FFF7EAFEFFF781FF0028E8D13920FFF7DB
:10554C0071FF031F58425841E2E700BFF9070020E2
:10555C0070B5324D88B02C78002C5DD14FF40C70A6
:10556C0002F080FE23212E4800F022F92D4B012160
:10557C00187802AE02F0DAFDFFF704FE2346012292
:10558C00294930460094FEF7C3FB96E8070005ABAB
:10559C0083E80700079A2321009221480CCB00F0E6
:1055AC002FF9FFF785FFB8B14022204B1A70E6B2F5
:1055BC0002221E213046FFF79FF8013402221F21E0
:1055CC003046FFF799F8082CF1D101242321144817
:1055DC0000F04EF92C701CE0FFF792FF18B110226E
:1055EC00124B1A70F1E7FFF741FF044658B1042241
:1055FC000E4B55211B201A70FFF77AFE55211A20ED
:10560C00FFF776FEE1E70A4B23211870044800F0FF
:10561C002FF9204608B070BD0124FAE7FA070020E4
:10562C00FC07002056000020809FD500F8070020C2
:10563C00F907002010B588B0FFF78AFF38B1264B68
:10564C001A780023342A04D0372A23D0184608B0FD
:10565C0010BD02AC0122204620490093FEF758FBF6
:10566C0094E8070005AB83E80700079A2321009212
:10567C000CCB1B4800F0C4F83520FFF7D3FE0446D2
:10568C002321174800F0F4F814F0200F0CBF02206F
:10569C000120DCE702AC0122204610490093FEF702
:1056AC0037FB94E8070005AB83E80700079A232132
:1056BC0000920CCB0A4800F0A3F82E20FFF7B2FEA4
:1056CC0004462321064800F0D3F804F00100C0F191
:1056DC000200C0B2BBE700BFF9070020809FD500D5
:1056EC00FC07002038B50A4604460121FFF704F8F0
:1056FC00054D2402287804EB0020013080B2FFF71E
:10570C0091FE0028F6D138BDF8070020002307B51C
:10571C001A4619460093034803F0A0F903B05DF84C
:10572C0004FB00BFF0070020232970B504461BD8EA
:10573C0000230C2505FB03F6A65FD8B2B1420DD0B1
:10574C000133042BF6D1012A0CD100230C2505FBC7
:10575C0003F2A65ED8B2013601D1A15270BD01335D
:10576C00042BF4D11846F9E70420F7E770B503468B
:10577C004FF6FF72012500240B4E00F130011A8008
:10578C005E601D725C720C338B42F8D1074B028643
:10579C00998EA0F89010D98EA0F892105B8EA0F87C
:1057AC009620A0F8943070BD00093D002CB600087E
:1057BC00232970B505460E4621D80122FFF7B4FF08
:1057CC00032804461BD8232E0BD0B5F99630013391
:1057DC0007D10121304602F0A9FC0121304602F02C
:1057EC00F3FC0C20002300FB045485F88530627A0E
:1057FC00237A616805F1340000F02AF92E8670BD19
:10580C0082B0F8B5232906AC05460E4684E80C0098
:10581C0029D80122FFF788FF0328044623D80C2738
:10582C0007FB0057079BBDF820207B609DF82230BA
:10583C00232E3A81BB720BD0B5F99630013307D1C8
:10584C000121304602F072FC0121304602F0BCFC12
:10585C000C2000FB04547968237A627A05F1340039
:10586C0000F0F6F82E86BDE8F84002B07047000054
:10587C002329F0B519D803464FF6FF7401260027EB
:10588C000A4D00F13002B3F900C00C338C4501BF56
:10589C0023F80C4C43F8085C03F8046C03F8037C05
:1058AC009342F0D14FF6FF730386F0BD00093D0023
:1058BC00F0B587B08DF80F200022232904460D4641
:1058CC001F468DF817203FD8FFF72EFFB4F9303064
:1058DC0006469D4210D0032803D99DF8170007B047
:1058EC00F0BD0C2101FB004104F134000B7A4A7A23
:1058FC00496800F0ADF82586232D07D0B4F9963011
:10590C00013303D10021284602F05EFC0C2000FB81
:10591C000646B37A0DF1170201934FF47A730DF129
:10592C000F01009304F13400012300F0B9F9232D89
:10593C00D3D0012FD1D1B4F996300133CDD1394622
:10594C00284602F041FCC8E71046C8E72DE9F743AA
:10595C0004460D46174698469DF82890002B42D0D9
:10596C00002A40D023293ED80022FFF7DDFEB4F9EF
:10597C00303006469D420CD0032834D80C2101FB54
:10598C00004104F134000B7A4A7A496800F060F85F
:10599C002586232D07D0B4F99630013303D100218D
:1059AC00284602F011FC0C2000FB0646B37A3A465E
:1059BC0001934FF47A733946009304F134001FFAC3
:1059CC0088F300F06DF9232D0DD0B9F1010F0AD138
:1059DC00B4F99630013306D14946284603B0BDE8E8
:1059EC00F04302F0F1BB03B0BDE8F0830148FFF7D0
:1059FC00BDBE00BFFC07002070B50D0E445991FAD6
:105A0C00A1F3B3FA83F30F269B0006FA03F324EAFF
:105A1C00030491FAA1F1B1FA81F1890002FA01F1C2
:105A2C002143415170BD00000346074A106853B131
:105A3C00064A934205D002F57842934203D100F016
:105A4C007FBE00F06DBE704778000020003800402B
:105A5C002DE9F74F0D46174698460446002800F0EE
:105A6C00D0808649B0F95E0001F02AFE8449814657
:105A7C00B4F95C0001F024FE82498246B4F960005E
:105A8C0001F01EFE80490646B4F9620001F018FED2
:105A9C008346B9F1000F00F0B480BAF1000F00F0AA
:105AAC00B080002E00F0AD805146484601F020FE3B
:105ABC0059468246304601F01BFE0146814650464F
:105ACC0001F016FEA065BAF1000F00F09A80B9F152
