:020000040800F2
:1000000000500020154D00085D4D00085D4D0008B2
:100010005D4D00085D4D00085D4D000800000000CA
:100020000000000000000000000000005D4D00081E
:100030005D4D0008000000005D4D0008F3740008ED
:100040005D4D00085D4D00085D4D00085D4D0008E8
:100050005D4D00085D4D0008ED900008F39000082C
:10006000F9900008FF900008059100085D4D000818
:100070005D4D00085D4D00085D4D00085D4D0008B8
:100080005D4D00085D4D00085D4D00085D4D0008A8
:100090005D4D00085D4D00085D4D00080B910008A6
:1000A0005D4D0008498C00085D4D00085D8C00081E
:1000B000618C0008758C0008898C00080980000894
:1000C00015800008218000082D8000085D4D000883
:1000D0005D4D0008758400088D840008A584000823
:1000E00021910008FD7900085D4D00080000000026
:1000F0000000000000000000000000000000000000
:0C01000000000000000000005FF808F1A3
:10010C0010F8012B11F8013B012A28BF9A42F7D0B5
:10011C00D01A7047034613F8012B002AFBD1181A8A
:10012C000138704781F0004102E000BF83F00043CA
:10013C0030B54FEA41044FEA430594EA050F08BF76
:10014C0090EA020F1FBF54EA000C55EA020C7FEA3A
:10015C00645C7FEA655C00F0E2804FEA5454D4EBB7
:10016C005555B8BF6D420CDD2C4480EA020281EA81
:10017C00030382EA000083EA010180EA020281EAB9
:10018C000303362D88BF30BD11F0004F4FEA01310B
:10019C004FF4801C4CEA113102D0404261EB41011A
:1001AC0013F0004F4FEA03334CEA133302D05242A0
:1001BC0063EB430394EA050F00F0A780A4F101045C
:1001CC00D5F1200E0DDB02FA0EFC22FA05F2801896
:1001DC0041F1000103FA0EF2801843FA05F359417C
:1001EC000EE0A5F120050EF1200E012A03FA0EFCFB
:1001FC0028BF4CF0020C43FA05F3C01851EBE37125
:10020C0001F0004507D54FF0000EDCF1000C7EEB41
:10021C0000006EEB0101B1F5801F1BD3B1F5001F7F
:10022C000CD349085FEA30004FEA3C0C04F101049E
:10023C004FEA445212F5800F80F09A80BCF1004FC7
:10024C0008BF5FEA500C50F1000041EB045141EA49
:10025C00050130BD5FEA4C0C404141EB010111F44A
:10026C00801FA4F10104E9D191F0000F04BF0146F5
:10027C000020B1FA81F308BF2033A3F10B03B3F1D3
:10028C0020020CDA0C3208DD02F1140CC2F10C0263
:10029C0001FA0CF021FA02F10CE002F11402D8BFC1
:1002AC00C2F1200C01FA02F120FA0CFCDCBF41EA8D
:1002BC000C019040E41AA2BF01EB0451294330BD5C
:1002CC006FEA04041F3C1CDA0C340EDC04F1140439
:1002DC00C4F1200220FA04F001FA02F340EA030010
:1002EC0021FA04F345EA030130BDC4F10C04C4F156
:1002FC00200220FA02F001FA04F340EA0300294636
:10030C0030BD21FA04F0294630BD94F0000F83F47F
:10031C00801306BF81F480110134013D4EE77FEA62
:10032C00645C18BF7FEA655C29D094EA050F08BFAE
:10033C0090EA020F05D054EA000C04BF194610468F
:10034C0030BD91EA030F1EBF0021002030BD5FEAD3
:10035C00545C05D14000494128BF41F0004130BDFB
:10036C0014F580043CBF01F5801130BD01F000454F
:10037C0045F0FE4141F470014FF0000030BD7FEAC2
:10038C00645C1ABF194610467FEA655C1CBF0B46BD
:10039C00024650EA013406BF52EA033591EA030FD4
:1003AC0041F4002130BD00BF90F0000F04BF0021CC
:1003BC00704730B54FF4806404F132044FF00005FF
:1003CC004FF0000150E700BF90F0000F04BF002178
:1003DC00704730B54FF4806404F1320410F00045DE
:1003EC0048BF40424FF000013EE700BF42004FEAD9
:1003FC00E2014FEA31014FEA02701FBF12F07F4356
:10040C0093F07F4F81F06051704732F07F4208BF0C
:10041C00704793F07F4F04BF41F40021704730B513
:10042C004FF4607401F0004521F000411CE700BF5F
:10043C0050EA010208BF704730B54FF000050AE0E2
:10044C0050EA010208BF704730B511F0004502D5E3
:10045C00404261EB41014FF4806404F132045FEAE5
:10046C00915C3FF4D8AE4FF003025FEADC0C18BF8E
:10047C0003325FEADC0C18BF033202EBDC02C2F180
:10048C00200300FA03FC20FA02F001FA03FE40EA12
:10049C000E0021FA02F11444BDE600BF4FF0FF3C00
:1004AC0006E000BF4FF0010C02E000BF4FF0010C62
:1004BC004DF804CD4FEA410C7FEA6C5C4FEA430CDB
:1004CC0018BF7FEA6C5C1BD001B050EA410C0CBF2A
:1004DC0052EA430C91EA030F02BF90EA020F00208C
:1004EC00704710F1000F91EA030F58BF994208BFF3
:1004FC0090422CBFD8176FEAE37040F001007047B0
:10050C004FEA410C7FEA6C5C02D150EA013C07D106
:10051C004FEA430C7FEA6C5CD6D152EA033CD3D051
:10052C005DF8040B704700BF8446104662468C464B
:10053C001946634600E000BF01B5FFF7B7FF00287E
:10054C0048BF10F1000F01BD4DF808EDFFF7F4FFA7
:10055C000CBF012000205DF808FB00BF4DF808ED32
:10056C00FFF7EAFF34BF012000205DF808FB00BF55
:10057C004DF808EDFFF7E0FF94BF012000205DF877
:10058C0008FB00BF4DF808EDFFF7CEFF94BF01202C
:10059C0000205DF808FB00BF4DF808EDFFF7C4FF25
:1005AC0034BF012000205DF808FB00BF80F0004044
:1005BC0002E000BF81F0004142001FBF5FEA41032F
:1005CC0092EA030F7FEA226C7FEA236C6AD04FEA2F
:1005DC001262D2EB1363C1BFD21841404840414074
:1005EC00B8BF5B42192B88BF704710F0004F40F426
:1005FC00000020F07F4018BF404211F0004F41F442
:10060C00000121F07F4118BF494292EA030F3FD00D
:10061C00A2F1010241FA03FC10EB0C00C3F1200320
:10062C0001FA03F100F0004302D5494260EB4000AF
:10063C00B0F5000F13D3B0F1807F06D340084FEA1A
:10064C00310102F10102FE2A51D2B1F1004F40EB0F
:10065C00C25008BF20F0010040EA03007047490077
:10066C0040EB000010F4000FA2F10102EDD1B0FA42
:10067C0080FCACF1080CB2EB0C0200FA0CF0AABF37
:10068C0000EBC25052421843BCBFD04018437047D5
:10069C0092F0000F81F4000106BF80F400000132DB
:1006AC00013BB5E74FEA41037FEA226C18BF7FEAB2
:1006BC00236C21D092EA030F04D092F0000F08BFF4
:1006CC000846704790EA010F1CBF0020704712F0DB
:1006DC007F4F04D1400028BF40F00040704712F11A
:1006EC0000723CBF00F50000704700F0004343F07F
:1006FC00FE4040F4000070477FEA226216BF0846B5
:10070C007FEA23630146420206BF5FEA412390EA77
:10071C00010F40F4800070474FF0000304E000BF6D
:10072C0010F0004348BF40425FEA000C08BF70471E
:10073C0043F0964301464FF000001CE050EA0102E2
:10074C0008BF70474FF000030AE000BF50EA0102F7
:10075C0008BF704711F0004302D5404261EB4101E4
:10076C005FEA010C02BF84460146002043F0B64309
:10077C0008BFA3F18053A3F50003BCFA8CF2083A2E
:10078C00A3EBC25310DB01FA02FC634400FA02FC37
:10079C00C2F12002BCF1004F20FA02F243EB02003E
:1007AC0008BF20F00100704702F1200201FA02FCA0
:1007BC00C2F1200250EA4C0021FA02F243EB020093
:1007CC0008BF20EADC7070474FF0FF0C1CEAD052D7
:1007DC001EBF1CEAD15392EA0C0F93EA0C0F6FD098
:1007EC001A4480EA010C400218BF5FEA41211ED076
:1007FC004FF0006343EA501043EA5111A0FB013162
:10080C000CF00040B1F5000F3EBF490041EAD37136
:10081C005B0040EA010062F17F02FD2A1DD8B3F1B2
:10082C00004F40EBC25008BF20F00100704790F021
:10083C00000F0CF0004C08BF49024CEA502040EA73
:10084C0051207F3AC2BFD2F1FF0340EAC250704739
:10085C0040F400004FF00003013A5DDC12F1190F77
:10086C00DCBF00F000407047C2F10002410021FAE9
:10087C0002F1C2F1200200FA02FC5FEA310040F101
:10088C00000053EA4C0308BF20EADC70704792F07A
:10089C00000F00F0004C02BF400010F4000F013AB2
:1008AC00F9D040EA0C0093F0000F01F0004C02BFAD
:1008BC00490011F4000F013BF9D041EA0C018FE71C
:1008CC000CEAD15392EA0C0F18BF93EA0C0F0AD022
:1008DC0030F0004C18BF31F0004CD8D180EA010048
:1008EC0000F00040704790F0000F17BF90F0004FE1
:1008FC00084691F0000F91F0004F14D092EA0C0FC3
:10090C0001D142020FD193EA0C0F03D14B0218BF55
:10091C00084608D180EA010000F0004040F0FE409B
:10092C0040F40000704740F0FE4040F44000704737
:10093C004FF0FF0C1CEAD0521EBF1CEAD15392EAB6
:10094C000C0F93EA0C0F69D0A2EB030280EA010CA6
:10095C0049024FEA402037D04FF0805343EA11113F
:10096C0043EA10130CF000408B4238BF5B0042F19D
:10097C007D024FF4000C8B4224BF5B1A40EA0C0042
:10098C00B3EB510F24BFA3EB510340EA5C00B3EB74
:10099C00910F24BFA3EB910340EA9C00B3EBD10F62
:1009AC0024BFA3EBD10340EADC001B0118BF5FEAB4
:1009BC001C1CE0D1FD2A3FF650AF8B4240EBC250DD
:1009CC0008BF20F0010070470CF0004C4CEA50209E
:1009DC007F32C2BFD2F1FF0340EAC250704740F4ED
:1009EC0000004FF00003013A37E792F0000F00F0DF
:1009FC00004C02BF400010F4000F013AF9D040EA5D
:100A0C000C0093F0000F01F0004C02BF490011F4F0
:100A1C00000F013BF9D041EA0C0195E70CEAD153E8
:100A2C0092EA0C0F08D142027FF47DAF93EA0C0FCF
:100A3C007FF470AF084676E793EA0C0F04D14B02B3
:100A4C003FF44CAF08466EE730F0004C18BF31F065
:100A5C00004CCAD130F000427FF45CAF31F000435F
:100A6C007FF43CAF5FE700BF4FF0FF3C06E000BFF8
:100A7C004FF0010C02E000BF4FF0010C4DF804CD1B
:100A8C004FEA40024FEA41037FEA226C18BF7FEA2B
:100A9C00236C11D001B052EA530C18BF90EA010F2D
:100AAC0058BFB2EB030088BFC81738BF6FEAE170BC
:100ABC0018BF40F0010070477FEA226C02D15FEA58
:100ACC00402C05D17FEA236CE4D15FEA412CE1D0C4
:100ADC005DF8040B704700BF844608466146FFE78B
:100AEC000FB5FFF7C9FF002848BF10F1000F0FBD6D
:100AFC004DF808EDFFF7F4FF0CBF012000205DF866
:100B0C0008FB00BF4DF808EDFFF7EAFF34BF0120EA
:100B1C0000205DF808FB00BF4DF808EDFFF7E0FF83
:100B2C0094BF012000205DF808FB00BF4DF808EDD4
:100B3C00FFF7D2FF94BF012000205DF808FB00BF37
:100B4C004DF808EDFFF7C8FF34BF012000205DF819
:100B5C0008FB00BF42000ED2B2F1FE4F0BD34FF098
:100B6C009E03B3EB126209D44FEA002343F0004317
:100B7C0023FA02F070474FF00000704712F1610F3A
:100B8C0001D1420202D14FF0FF3070474FF000000C
:100B9C00704700BF0348044B834202D0034B03B1A0
:100BAC001847704740010020400100200000000061
:100BBC0005480649091A891001EBD171491002D078
:100BCC00034B03B11847704740010020400100203F
:100BDC000000000010B5064C237843B9FFF7DAFF8C
:100BEC00044B13B10448AFF300800123237010BDF4
:100BFC00400100200000000020A7000808B5054BAC
:100C0C001BB105490548AFF30080BDE80840FFF76C
:100C1C00CFBF00BF000000004401002020A7000847
:100C2C00BFF34F8F0549064BCA6802F4E0621343C9
:100C3C00CB60BFF34F8F00BFFDE700BF00ED00E0BE
:100C4C000400FA05704708B5112007F0D5FCBDE883
:100C5C000840B0FA80F11120490907F0A9BC07F04F
:100C6C0071B8000010B5064B01211C5C204607F042
:100C7C009FFC2046BDE81040002107F099BC00BF46
:100C8C0034A900082DE9F04105460F4608240E4B07
:100C9C0013F801802B064CBF01210021404607F0C0
:100CAC0087FC0A4B0121DE5D013C304607F080FCDD
:100CBC000021304607F07CFC6D0014F0FF04EDB20F
:100CCC00E8D1BDE8F08100BF13A900080EA9000807
:100CDC002DE9F0470C460826174FDFF864A00021D9
:100CEC000546385D07F064FC00211AF8040007F093
:100CFC005FFC124B13F804902B064CBF0121002112
:100D0C00484607F055FC1AF804800121404607F0CC
:100D1C004FFC0021404607F04BFC6D00013EEDB24C
:100D2C00EAD13C5D0121204607F042FC31462046C9
:100D3C00BDE8F04707F03CBC34A9000813A9000833
:100D4C000EA9000870B51546044610460E46FFF76E
:100D5C0089FF0A4B0021585D07F02AFC2644B44257
:100D6C0006D02CB1294614F8010BFFF78BFFF6E7E0
:100D7C002846BDE87040FFF775BF00BF0EA90008FC
:100D8C0008B5584808F0B8FB0221062007F0C2FB52
:100D9C000221012007F0BEFB0221042007F0BAFB60
:100DAC000221052007F0B6FB0221032007F0B2FB5D
:100DBC000221084607F0AEFB0221002007F0AAFB37
:100DCC000121112007F0A6FB0121132007F0A2FB43
:100DDC000121122007F09EFB0121142007F09AFB41
:100DEC000121162007F096FB0121152007F092FB3C
:100DFC000121102007F08EFB01210E2007F08AFB49
:100E0C0001210F2007F086FB0121092007F082FB4E
:100E1C000121072007F07EFB0121082007F07AFB57
:100E2C0001211C2007F076FB01211F2007F072FB2B
:100E3C0001211E2007F06EFB0021112007F0B8FBEA
:100E4C000021132007F0B4FB0021122007F0B0FBA7
:100E5C000021142007F0ACFB0021162007F0A8FBA2
:100E6C000021152007F0A4FB0021102007F0A0FBA7
:100E7C0000210E2007F09CFB00210F2007F098FBAF
:100E8C000021092007F094FB0021072007F090FBBC
:100E9C000021082007F08CFB00211C2007F088FBA8
:100EAC0000211F2007F084FB00211E2007F080FB8F
:100EBC000121182007F02EFB0121172007F02AFB37
:100ECC000121182007F074FB0121172007F070FB9B
:100EDC000121112007F01EFBBDE808400021112064
:100EEC0007F066BBDAA8000838B1037A016023F07A
:100EFC007F0343F00803037201207047D1E90132EC
:100F0C0010339A4210B502D20023184610BDA2F13C
:100F1C0010038B60002BF7D0416859B15C1A241177
:100F2C004C810021436022F8061C02F8081C42F890
:100F3C00041CEAE70360F4E730B544680A44D0E9DE
:100F4C000053AB4207D2914205D05D1C456011F8AD
:100F5C00015B1D70F3E700221A704068001B30BD66
:100F6C0010B50446044808F0C7FA0020042120708C
:100F7C00BDE81040FFF7ACBEC6AB0008134B70B514
:100F8C000D1E04461249134808BF194608F02EFAE4
:100F9C00A5B105250626042106202670FFF798FE2C
:100FAC00142007F051FB002004212070FFF790FE65
:100FBC00142007F049FB013DEDD170BDFF20042149
:100FCC002070BDE87040FFF783BE00BF01AB000886
:100FDC00F5AA000806AB000838B5054602F078F90A
:100FEC00044630B90E4808F087FA2046A5F8284484
:100FFC0038BD02F063F9022804D14FF48073A5F8D0
:10100C002834F5E7012395F8282485F829340AB902
:10101C0085F8733485F8283485F82A340120E7E7FD
:10102C0008AD000810B5044686B0182002F040F94F
:10103C000E4808F061FA04A802F058F904A90C480B
:10104C0007F0A8FE0223A8220093C021002302A8C7
:10105C0007F046FE074B601C0493039B04A9059301
:10106C0002F010F9012006B010BD00BF1DAA000847
:10107C00E40B00204CB6000810B50446FFF7ACFF9B
:10108C0094F873343BB10023204684F87334BDE8E4
:10109C001040FFF7C7BF10BD2DE9F04100F25C46D0
:1010AC0092B0044630460F4602F07EF90546002801
:1010BC0036D1228AA168304602F096F92369194A82
:1010CC0000934021A36802A808F036FA02A808F0A1
:1010DC008DF96423B7FBF3F7DFF85480304602F048
:1010EC0063F948B9BD4207DA642007F0ADFA40460F
:1010FC00013508F001FAF1E7304602F055F92269A2
:10110C00A16858B1084808F071F9304602F04CF962
:10111C00003018BF012012B0BDE8F0810348F2E79F
:10112C000120F8E71FAC000844AC00086DAC0008C7
:10113C0041AC0008F0B500F25C4491B00546204685
:10114C0002F032F978B944F620612846FFF7A4FF83
:10115C00064628B9194808F0CFF9304611B0F0BD51
:10116C00174808F0C9F905F128063046FEF7D2FFFA
:10117C00074640220021684608F08AF83B46114A8F
:10118C004021684608F0D8F96969204607F0F8FD57
:10119C00E968204607F0F4FDA969204607F0F0FD48
:1011AC006946204607F0ECFD204607F0E1FD31468C
:1011BC00204607F0E5FD0126CFE700BFBDAA0008D9
:1011CC00CEAA0008E2AA000838B50D460446074826
:1011DC0008F00CF945B9207800F0FE0020700421CD
:1011EC00BDE83840FFF774BD0120F7E78EAE00086C
:1011FC0038B50D460446074808F0F8F845B920788C
:10120C0000F0FD0020700421BDE83840FFF760BD00
:10121C000220F7E7D7AE000810B50C46054808F0D9
:10122C00E5F8054B002113F81400BDE81040FFF75A
:10123C004FBD00BFD4AB0008E4A8000810B50C46A5
:10124C00054808F0D3F8054B012113F81400BDE84C
:10125C001040FFF73DBD00BF8FAC0008E4A80008AC
:10126C0010B50C46054808F0C1F8054B012113F8E0
:10127C001400BDE81040FFF72BBD00BFB8AD00084F
:10128C00E4A800082DE9F84300240646164808F0A7
:10129C0033F9164808F030F92546DFF85C80144F16
:1012AC00DFF85890D6F85024D6F854349B1A08FB23
:1012BC0003F39C4212D204EB44031A44537838468D
:1012CC00FF2B05BF19F81430012100211D4308F034
:1012DC008DF8084808F010F90134E3E72846BDE81A
:1012EC00F8430221FFF7F4BCF0AB000809AC00088E
:1012FC00F2AA00081DAC0008ABAAAAAAE4A8000830
:10130C0070B590F8703405460E4614466BB3174B07
:10131C0017491268002E08BF1946164808F066F8DF
:10132C002368AEB1D5F85424D5F850140133511AB2
:10133C00114A23604A43934201D30023236023685C
:10134C00284685F82E342168BDE87040FFF764BF4D
:10135C00013B002B2360F2DAD5F85014D5F8542455
:10136C00521A054901FB0233E8E770BD65AE00086F
:10137C0062AE00086AAE0008ABAAAAAA70B590F8D3
:10138C00713405460E46144633B3144B1449126897
:10139C00002E08BF1946134808F028F823682EB110
:1013AC000133072B88BF0023236002E05A1E11D49F
:1013BC00226023680C4885F82D3408F09DF895F8C8
:1013CC002D140120FFF74BFC21682846BDE8704026
:1013DC00FFF734BF0733E7E770BD00BF65AE000809
:1013EC0062AE0008C8AC0008EEAC00084FF0FF334A
:1013FC0073B5044601930D4661B190F87164F6B96A
:10140C00314600F021F801AA01212046FFF7B6FF72
:10141C0084F8726494F871340A48002B18BF0025C4
:10142C0008F06AF894F82D140120FFF718FC84F8E2
:10143C00715429462046FFF7DBFE02B070BD002533
:10144C00E8E700BFEEAC00084FF0FF3373B504467D
:10145C0001930D4661B190F87064B6B93146FFF74F
:10146C00C5FF01AA01212046FFF74AFF84F87264E8
:10147C0094F870342046002B18BF002584F8705463
:10148C002946FFF7A1FE02B070BD0025F0E7000071
:10149C0070B590F8723405460E461446F3B1104BF5
:1014AC0010491268002E08BF19460F4807F09EFF1E
:1014BC0023682EB101330B2B88BF0023236002E07D
:1014CC005A1E09D422602368284685F82F342168D7
:1014DC00BDE87040FFF7C4BE0B33EFE770BD00BF33
:1014EC0065AE000862AE0008B2AE000813B5044643
:1014FC00144808F001F8042121700846FFF7E8FBB6
:10150C00114B03221B8802216846ADF80030FFF70F
:10151C0019FC322007F098F80023032202216846B8
:10152C00ADF80030FFF70EFC322007F08DF84FF0CD
:10153C00FF3301AA012120460193FFF7A9FF02B056
:10154C0010BD00BFADAC000838A7000837B5044685
:10155C0001250D4807F0D0FF204684F87254002175
:10156C00FFF772FF00212046FFF740FF2046FFF7F0
:10157C00BDFF4FF0FF3301AA294620460193FFF728
:10158C0087FF03B030BD00BFF7AE000838B590F848
:10159C00703404460D469BB31A4B1B491B48002D57
:1015AC0018BF194607F022FFD4F85434D4F850244D
:1015BC0094F82E149A1A164B53438B420FD215489B
:1015CC0007F09AFF2046FFF75DFECDB920460121BA
:1015DC00FFF7BCFF2046BDE83840FFF787BF0E4839
:1015EC0007F004FF29460D4807F000FF94F82E344D
:1015FC00D4F8502403EB430313445D700848DFE731
:10160C0038BD00BFD8AD0008D4AD0008DBAD000874
:10161C00ABAAAAAA02AE000819AE000831AE0008A7
:10162C0044AE000838B590F8723404460D46002BD1
:10163C0044D0234807F060FFD4F85434D4F8502435
:10164C0094F82E149A1A1F4B53438B4231D394F8AF
:10165C002F340C2B2DD81C4807F0C8FE94F82F14EF
:10166C001A4807F0C3FE94F82E34D4F8502403EB38
:10167C0043031344164994F82F2416488A5C9A7035
:10168C0007F03AFF144807F037FF20460021FFF718
:10169C00ADFE20462A460121FFF732FE0023012130
:1016AC0084F87234A4F870142046BDE83840FFF773
:1016BC008BBD0A48BDE8384007F01EBF38BD00BFDF
:1016CC004BAD0008ABAAAAAA19AE000860AD000881
:1016DC0028A9000878AD00088EAD0008A9AD000857
:1016EC0070B51C4807F008FF1B4D1C4B1C4C2B60A5
:1016FC004FF080434FF48670236007F0A5FC06463C
:10170C002968184D07F0D6F94FF486702E6007F053
:10171C009BFC06462168144C07F0CCF92868012282
:10172C004CF25031266007F05DFA012220680F4917
:10173C0007F058FA28680E4907F063F920680D493C
:10174C0007F05FF9286807F033F92068BDE87040AE
:10175C0007F02EB9E6A70008E4050020002C014094
:10176C0024060020D80500206001002080969800F7
:10177C00530C0008510C000810B50C461146FFF72D
:10178C00BDFB20B1037AC46003F07F03037210BD6C
:10179C0038B50D46046884B1E168A9420DD035B165
:1017AC0029B12846FEF7ACFC10F0FF0F05D0B4F9B8
:1017BC000A0018B104EB0014EDE7204638BD0331E4
:1017CC0038B521F003040546204607F029FD50B139
:1017DC0004442B7FC5E9010023F07F03C5E90344D2
:1017EC002B77284638BD0446F3E700002DE9F84F67
:1017FC00D0E90069214CA9EB06035C4314BF2346D6
:10180C000123E418074688469346A1EB06052CD223
:10181C00B4F1553F29D854BBA246BBF800200AEBC3
:10182C0005032AF805209BF80220B0459A7004D0D5
:10183C002A463146504607F011FD0335C84555443C
:10184C00A9EB080B04D05A464146284607F0F8FC91
:10185C005D4416B1304607F0F9FB04EB44045444E4
:10186C00C7E900A5BC60BDE8F88F4FF0553404EB18
:10187C00440007F0E9FB8246CFE700BFABAAAAAA57
:10188C002DE9F74304460D4600261C4807F0AEFD33
:10189C00D4E90932934218BFA362194B25705F5DDE
:1018AC001848394607F0A2FD2946174807F09EFD57
:1018BC00B14604F1240804EB8505B7421AD96B68CC
:1018CC009B5D8DF805908DF80430D4E90A1399428C
:1018DC008DF8069009D0BDF804205FFA89F30A80D0
:1018EC008B700331A1620136E7E701AA4046FFF78E
:1018FC007DFFF8E703B0BDE8F08300BFA4A90008A2
:10190C0018A90008B7A90008CDA90008F8B5054624
:10191C001D4807F0F1FD002006F0DAF9044601201D
:10192C0006F0D6F906462146184807F05FFD314609
:10193C00174807F05BFD631EDBB2092B04D90121AC
:10194C000020FFF78CF901240A2E04D90121084646
:10195C00FFF785F901262C7021466E702846FFF79B
:10196C008FFF00240B4FD5E909239B1A7B439C4224
:10197C0008D204EB4406A01C164406F0A9F9013465
:10198C007070F0E7F8BD00BF4EA900086EA9000802
:10199C0088A90008ABAAAAAA10B50446054807F006
:1019AC00ABFD04F22C40FFF7B1FF2046BDE8104020
:1019BC00FFF738BBFFA9000810B50A4C642120467C
:1019CC0007F05BFA204606224FF4E13106F006FFE1
:1019DC00FFF7D6F9FFF784FEBDE810400248FFF789
:1019EC00DBBF00BFE40B00206401002070B504468F
:1019FC00007A0D4610F07F03164611D120F07F00BF
:101A0C00C4E9003340F02000207229462046FFF73D
:101A1C00BFFE40B9324629462046FFF7ADFE02E034
:101A2C0010F02000F1D170BD837B33B943685A1C90
:101A3C0042601B78437301238373407B704770B5FE
:101A4C00044600252046FFF7EFFF0A2805D8092891
:101A5C0009D2D8B14FF000001AE0202803D02F286B
:101A6C0003D00D28F6D1A573ECE7A5732046FFF73C
:101A7C00DBFF2A2804D02F2815D04FF0020007E0F6
:101A8C000026A5732046FFF7CFFF10B94FF00100D9
:101A9C0070BD2F2801D1002EE5D1A0F12A035E42A2
:101AAC005E41A573EEE7A5732046FFF7BDFF002846
:101ABC00ECD00A28F7D1C5E770B50C46164605469A
:101ACC0040B141B1FFF764FE20B9324621462846A9
:101ADC00FFF752FE70BD0846FCE700002DE9F0410F
:101AEC0004460F468668FFF79FFF00258046A573C6
:101AFC002046FFF799FF8045A57323D018B94FF006
:101B0C000100BDE8F0815C2817D12046FFF78CFF5F
:101B1C000028F4D075280CD0104B1A79191D5AB125
:101B2C00904203F10203F8D1487828B94FF0020033
:101B3C00E7E74FF00400E4E7A573A3685A1CA26022
:101B4C001870D5E7A3685A1CA2601D703E6016B9C8
:101B5C004FF00300D5E74FF00000D2E7F0A90008E2
:101B6C002F2807D9392803D95E280CD97A2805D80B
:101B7C00012070472B28FBD02D28F9D0A0F12E0383
:101B8C005842584170474028F8D95A28EFE72DE9B8
:101B9C00F04104460E46FFF747FF272825D02228A0
:101BAC0023D02046A568FFF73FFF074618B3FFF781
:101BBC00D7FF10B34FF00008A36884F80E805A1CAE
:101BCC00A26020461F70FFF72FFF0746FFF7C8FFE4
:101BDC000028F1D1A368002D03F10102A260187056
:101BEC0035600CBF0320002003E031462046FFF790
:101BFC0075FFBDE8F0810120FBE70220F9E700004A
:101C0C002DE9F0410B7805462B2B12D02D2B11D141
:101C1C00012701310B78A3F13002092A0CD92E2BA4
:101C2C000AD0002300222B606A602B722846BDE884
:101C3C00F08101310027EDE700204FF00A0C534EE4
:101C4C000A4612F8014BA4F13003DBB2092B09D878
:101C5C00B04208D8DC430CFB00F0844203D3184498
:101C6C001146EDE754B100230A24494EB04203F16A
:101C7C0001020CD9B0FBF4F01346F7E72860FEF72D
:101C8C004BFD002F686014BF0A230823CDE75B1AB5
:101C9C005C180E4611F8012B64B2A2F1300CBCF1A9
:101CAC00090FF5D92E2A11D10A460A21DFF8E8C00E
:101CBC00164633780132303BDBB2092B06D860452F
:101CCC00F6D8013C01FB003064B2F1E7337803F045
:101CDC00DF03452B48D173782D2B19D10121B21C70
:101CEC0000234FF00A0E164612F801CBACF1300C63
:101CFC005FFA8CF8B8F1090F19D80EFB03C3E6187C
:101D0C00262EF0DD69B14FB900236B600C238CE7F4
:101D1C002B2B14BF721CB21C0021E1E74FF00043C7
:101D2C00F3E717B94FF0FF43EFE71A4BEDE701B1BB
:101D3C005B423678002E7FF474AF1C44FEF7ECFC4B
:101D4C00002C13DDDFF85480E20704D5F3B258F809
:101D5C002310FEF739FD641006F10106F4D10FB122
:101D6C0000F100406860D1E70023E2E7DFF8308043
:101D7C006442002CF3D0E30704D5F3B258F82310D7
:101D8C00FEF722FD64100136F3E700BF999999190B
:101D9C00FFFF7F00000080FFCBCC0C003000002048
:101DAC00180000202DE9F04794B080460D46002421
:101DBC00FFF73AFEA24607460DF110093846E6B287
:101DCC00FFF7CEFE60B13F2C09D088F80EA040463C
:101DDC0004F80970FFF728FE01340746EEE72646A3
:101DEC00002414AB334403F8404C9DF81030742B92
:101DFC0009D12B7A23F07F0343F006032B720123C6
:101E0C002B60301F09E0662B0CD12B7A2C6023F051
:101E1C007F0343F006032B72701F18BF012014B010
:101E2C00BDE8F0876E2BECD004A901A8FFF7E8FE03
:101E3C009DF80C30019A0A2B09D00C2B10D0082BD2
:101E4C0017D12B7A23F07F0343F0080304E02B7A9D
:101E5C0023F07F0343F00A032B722A602046DEE74F
:101E6C002B7A23F07F0343F00C032B72029B2B6025
:101E7C00F4E74FF00200D2E773B505460C46FFF7C6
:101E8C00DEFDC6B2002E39D12846FFF7CDFD27283E
:101E9C0026D006D8222823D021462846FFF782FFD9
:101EAC001CE05B280ED07B28F6D1237AC4E90066AF
:101EBC0023F07F0343F0200323722146284600F0D1
:101ECC0004F90BE0237AC4E9006623F07F0343F0A6
:101EDC00400323722146284600F0B0F8C0B20DE052
:101EEC0001A92846FFF7FAFDC0B238B9237A23F0CE
:101EFC007F0343F005032372019B236002B070BD86
:101F0C00F0B500F25C468DB00546304601F0DCFAC7
:101F1C0000287BDD304601F0D7FA074605F128048E
:101F2C004FF480620021204607F0B2F93B4622466E
:101F3C000A21304606F089FF21463A4807F056FA46
:101F4C007B21204607F02CFB00285FD0364807F099
:101F5C00D3FA4FF000024FF4806104A8FFF72FFC76
:101F6C00059B09A90693089B684607939DF82C309E
:101F7C00029423F07F038DF82C3005ABCDE90034AF
:101F8C000A238DF80C3000238DF80E30FFF774FF08
:101F9C00C4B25CBB9DF80D3053B19DF82C3013F0DE
:101FAC00600F05D103F07F03043B012B88BF022493
:101FBC001E4B53F824101E4807F018FA1CBB9DF852
:101FCC002C309B062CD51B4909A8FFF7E1FB38B335
:101FDC00037A03F07F030C2B11D8DFE803F02110F8
:101FEC00101010100B100B100B101900052CDFD952
:101FFC001149E0E70068003018BF012080B10121D1
:10200C002846FEF7BBFF059807F012F90DB0F0BD9E
:10201C0000210068FEF76CFDB0FA80F04009EDE796
:10202C000021EDE7B0AA000883AA000870A70008F9
:10203C0098AA0008B5AA00087FAA000870B5037B0F
:10204C0005460E4613B94FF0050070BDFFF7ECFCCA
:10205C005B2802D04FF00200F7E700232846AB7351
:10206C00FFF7EDFC10F0FF0FEFD12846FFF7DCFC7B
:10207C005D281ED10020A873E7E72B7B2846013B87
:10208C002B73FFF7F9FE2B7BC0B201332B730028A7
:10209C00DBD12846FFF7D3FCC4B2A4B92846FFF71E
:1020AC00C3FC5D28E6D02846FFF7BEFC2C28D1D116
:1020BC00AC7329683046FEF721FF01460028DCD1BD
:1020CC004FF00300C1E72046BFE7F7B5037B054699
:1020DC000E461BB94FF0050003B0F0BDFFF7A4FC92
:1020EC007B2802D04FF00200F6E700232846AB73A2
:1020FC00FFF7A5FCC4B2002CEED12846FFF794FCE8
:10210C007D2839D1AC732046E6E70746037A63F0A5
:10211C007F030372019BC3602846FFF790FCC4B297
:10212C00002CF0D12846FFF77FFC3A28DAD12B7B24
:10213C00AC73013B2B7339462846FFF79DFE2B7B76
:10214C00C0B201332B730028C6D12846FFF777FCA9
:10215C00C4B2002CD7D12846FFF766FC7D28D1D01D
:10216C002846FFF761FC2C28BCD1AC732846FFF73E
:10217C0066FCC0B20028AFD101A92846FFF707FDC5
:10218C00C0B20028A8D101993046FFF701FB0746E1
:10219C000028C1D129683046FEF7B0FE0028B4D122
:1021AC004FF0030098E738B5044608460D46FDF796
:1021BC00B1FF294602462046FEF7BEFEA36818442E
:1021CC00A06038BDD0E9002393423FBF5A1C426047
:1021DC000022197037BF436800221A7001228368ED
:1021EC00134483607047000070B505460C4619B95E
:1021FC001049FFF7D8FF70BD2221FFF7E3FF013C28
:10220C0014F8011F39B10C4B1E7876B15A788A42FA
:10221C0006D00233F8E722212846FFF7D3FFEAE77E
:10222C005C212846FFF7CEFF31462846FFF7CAFF50
:10223C00E6E700BFEBA90008F0A900082DE9F0477C
:10224C0006230E460746837252493046FEF76EFC53
:10225C00002841D0052500244FF02008DFF83891E4
:10226C00DFF838A1314659F82500FEF755FC38B196
:10227C0030465AF82510FEF7A7FA0646444424B215
:10228C0015F1FF354FEA6808ECD200213046FEF715
:10229C0057FC30B33046FEF7A9F83CA3D3E9002332
:1022AC00FEF766F9E8B1DFF8F890DFF8ECA02B0642
:1022BC0017D4314659F82500FEF742FC40B13046A0
:1022CC005AF82510FEF780FA0646A4EB080424B24F
:1022DC004FEA6808013DEAE74FF02008052504465F
:1022EC00D3E73C813046FEF735FC0A210546034610
:1022FC00DFF8B0803860092B07D9BA7AB8FBF1F84F
:10230C00013ABA72B3FBF1F3F5E72846FEF704FA8B
:10231C0001463046FEF74EF906464046FEF7FCF9FC
:10232C0001463046FEF750FA8146FEF713FC06468E
:10233C00FEF7F2F901464846FEF73CF90146FEF776
:10234C003BF9FEF707FC304440450FD278600A2178
:10235C007B68B3FBF1F201FB1233A3B997F90A3096
:10236C00002B10DD013B7A60BB72F1E700230135D5
:10237C007B603D60002CEAD0092D81BF0123013424
:10238C003C813B60E3E73846BDE8F087F168E388C1
:10239C00B5F8E43E8096184B300000201800002061
:1023AC000000002040420F0010B50446521AFEF700
:1023BC00C3FDA3681844A06010BD70B586B00DF1C4
:1023CC0016031A460A26B1FBF6F506FB1514092965
:1023DC0004F1300403F8014D04D81946FFF7E4FF6B
:1023EC0006B070BD2946EEE770B505468AB00846C2
:1023FC000C46FEF77DFB28B93F492846FFF7D3FE74
:10240C000AB070BD00212046FEF772FB48B9214688
:10241C002046FEF7D1F801462046FEF769FB00285E
:10242C00EAD100212046FEF76DFB28B12D2128466C
:10243C00FFF7C8FE04F10044214601A8FFF7FEFE99
:10244C0001992846FFF7B9FF9DF90E10E1B10A4634
:10245C000A26029B0DF11F04013A52B2501C08D0FF
:10246C00B3FBF6F006FB1033303304F801390346A6
:10247C00F2E7C9B208AA531A2E20C94303F8010C7B
:10248C0011442846FFF790FFBDF90C30002B17DAEA
:10249C001A492846FFF787FE0DF126010A460A2441
:1024AC00BDF90C305B4293FBF4F004FB103330337A
:1024BC0001F8013D03460028F5D12846FFF774FFCB
:1024CC00BDF90C30002B9BDD65212846FFF77AFE09
:1024DC000DF126010A460A24BDF90C3093FBF4F0E9
:1024EC0004FB1033303301F8013D03B2002BF5D15E
:1024FC002846FFF759FF83E7EBA90008E8A9000875
:10250C0038B5037A054603F07F03062B0C4669D0D9
:10251C000CD8022B11D3032B53D8D0E90012204630
:10252C00FEF70AFDA3681844A06025E00C2B1FD011
:10253C0005D8082B54D00A2B48D02F4955E0202B16
:10254C0020D0402BF9D15B212046FFF73BFE2D68B4
:10255C009DB121462846FFF7D3FFB5F90A3063B188
:10256C0015EB031509D02C212046FFF72BFEEFE7C6
:10257C0001682046FFF738FF38BD5D212046FFF784
:10258C0021FEF9E77B212046FFF71CFE2D68B5B133
:10259C00E9682046FFF728FE3A212046FFF712FE95
:1025AC0021462846FFF7ACFFB5F90A303BB115EBD5
:1025BC00031504D02C212046FFF704FEE7E77D210C
:1025CC00DCE701682046FFF70FFED5E705682D21F3
:1025DC002046FFF7F7FD29462046FFF7EEFECBE736
:1025EC000168F9E7036823B104492046FFF7DBFDD6
:1025FC00C2E70349F9E700BFEBA900080DAF0008DB
:10260C0012AF00082DE9F04F0446D0F85024D0F852
:10261C0054348DB09B1A4C4A4FF4006102FB03F802
:10262C0004A84FF0000204F12809FFF7C8F84FF492
:10263C0080620021484606F02BFE05AA434909A8F2
:10264C00FFF7D4F994F82C14FEF74EFC94F82D34C3
:10265C003F4A4049D55C09A805AAFFF7C7F92946A6
:10266C00FEF742FC05AA3C4909A8FFF7BFF906464C
:10267C0040B1037A23F07F0343F04003037200233D
:10268C00C0E90033354806F037FF4146344806F0C0
:10269C00ADFE002747453ED0002E3AD005A9304666
:1026AC00FEF72CFC054640B1037A23F07F0343F080
:1026BC00200303720023C0E90033D4F850B407EBB5
:1026CC00470A05AA27492846FFF7F6F91BF80A100E
:1026DC00FEF70AFCD4F8503405AA03EB0A0B224986
:1026EC002846FFF7E9F99BF80110FEF7FDFBD4F83B
:1026FC00503405AA9A441D492846FFF7DDF99AF88B
:10270C000210FEF7F1FB3946194806F06FFE01374F
:10271C00C0E73546D1E7002301A984F8283009A881
:10272C0004F227440393CDE90149FFF7E9FE114870
:10273C0006F0E2FE4946104806F058FE059806F0F1
:10274C0077FD0DB0BDE8F08FABAAAAAA1FAB0008AD
:10275C0020A9000827AB000836AB000841AB0008E5
:10276C005EAB000879AB00087EAB000885AB0008B7
:10277C008AAB0008A6AB0008B0AA000870B50446E6
:10278C00184806F0B9FE94F870342BB32046FEF7C7
:10279C00E7FB2046FFF736FF2046FEF7CBFC014651
:1027AC00D8B1114806F0A8FE0025104ED4F85024DC
:1027BC00D4F854349B1A7343AB4208D905EB450348
:1027CC001A44A81C5178FEF74AFA0135EEE70023AB
:1027DC00A4F8703484F8723470BD2046BDE87040A3
:1027EC00FEF7CCBB3CAA00085EAA0008ABAAAAAABA
:1027FC00F7B50026254D334632463146009624481F
:10280C0006F06EFA2A46234C52F8021F2346928891
:10281C0003F8016B9A80204BC4F80110A3601F4B86
:10282C001F49E36047F6F87323611E4B04F11C004B
:10283C0063611D4B04F58667A36106F092FB0123CF
:10284C000835C4F82C340FCD0FC795E80F0087E876
:10285C000F00164A4FF47A73C4F85C240822A4F8CB
:10286C00286484F82A64C4F85064C4F85464C4F826
:10287C005864C4F86064C4F8643484F86C24A4F814
:10288C006E34C4F8706403B0F0BD00BF38A7000804
:10289C00640600206401002088A7000892A70008A5
:1028AC00FEA90008A8A70008C7A7000868B0000880
:1028BC0008B5054BD3F8500408B106F0C7FBBDE8CA
:1028CC000840024806F008BB64010020800100208B
:1028DC0010B5654886B005F0D6FE002840F3C280DE
:1028EC006149684606F0CCFA684606F082FB00990E
:1028FC005E4806F07BFD5E4903A806F032FB03A997
:10290C00684606F073FB044603A806F0E5FA002CB3
:10291C0005DB584806F0F0FD0122574B1A70574959
:10292C0003A806F01EFB03A9684606F05FFB0446ED
:10293C0003A806F0D1FA002C05DB514806F0DCFDAB
:10294C0002224D4B1A704F4903A806F00AFB03A94B
:10295C00684606F04BFB044603A806F0BDFA002CB3
:10296C0005DB444806F0C8FD0522434B1A70464966
:10297C0003A806F0F6FA03A9684606F037FB0446EE
:10298C0003A806F0A9FA002C05DB404806F0B4FDBC
:10299C000322394B1A703E4903A806F0E2FA03A948
:1029AC00684606F023FB044603A806F095FA002CB3
:1029BC0005DB384806F0A0FD04222F4B1A7036496F
:1029CC0003A806F0CEFA03A9684606F00FFB0446EE
:1029DC0003A806F081FA002C05DB304806F08CFDCC
:1029EC000622254B1A702E4903A806F0BAFA03A941
:1029FC00684606F0FBFA044603A806F06DFA002CB4
:102A0C0005DB284806F078FD07221B4B1A70264977
:102A1C0003A806F0A6FA03A9684606F0E7FA0446EE
:102A2C0003A806F059FA002C05DB204806F064FDDB
:102A3C000822114B1A701E4903A806F092FA03A93A
:102A4C00684606F0D3FA044603A806F045FA002CB3
:102A5C0005DB184806F050FD0922074B1A70684632
:102A6C0006F03AFA06B010BDE40B0020B0AA00083C
:102A7C00F2A70008FFA700085C01002011A80008BD
:102A8C001FA8000839A8000844A800084DA8000891
:102A9C005BA8000862A800086EA8000875A80008CA
:102AAC0081A8000889A8000896A80008A5A8000815
:102ABC00B7A80008C6A80008F0B5062085B005F038
:102ACC009BFD58B9062005F097FD0028FAD08C48DC
:102ADC0006F012FD01218B48FEF7B6FC012005F033
:102AEC008BFD58B9012005F087FD0028FAD08648E7
:102AFC0006F002FD01218348FEF778FC002005F06A
:102B0C007BFD50B9002005F077FD0028FAD07F48F6
:102B1C0006F06CFC7B48FFF731FE032005F06CFDE2
:102B2C0080B9032005F068FD0028FAD0784806F03B
:102B3C00E3FCFF217348FEF729FD764A764971487C
:102B4C00FEF770FD022005F057FD044630B97348BE
:102B5C0006F0D2FC21466B48FEF718FD042005F068
:102B6C004BFDB0B9042005F047FD0028FAD06C48A5
:102B7C0006F0C2FC684A00216248FEF7C1FB694AB4
:102B8C0000216048FEF7FAFB624A00215D48FEF71F
:102B9C007FFC052005F030FDB0B9052005F02CFDBB
:102BAC000028FAD0604806F0A7FC5B4A0121554882
:102BBC00FEF7A6FB5B4A01215248FEF7DFFB554AA4
:102BCC0001215048FEF764FC4E48FFF799F9FFF7D6
:102BDC007FFE4C48FEF750FA0021544B544A554C9A
:102BEC00554D236013782960013B1170082B0AD8CE
:102BFC00DFE803F0050E172713343E438400012150
:102C0C004048FEF721FC022005F01EFD05B0F0BD8A
:102C1C0001213C48FEF7EAFBF5E73A48FFF7AEFD29
:102C2C00F1E73D4A00213748FEF76AFB3D4A002197
:102C3C003448FEF7A3FB0021364A3248FEF728FC45
:102C4C00E1E7354A01212F48FEF75AFB354A0121AD
:102C5C002C48FEF793FB2F4A0121EEE7FF21294870
:102C6C00FEF794FC2B4A2C492648FEF7DBFCCAE7FE
:102C7C0000212448FEF78AFCC5E7304806F03CFCEE
:102C8C002F4E304F2368002BBDDD143B30462360A4
:102C9C0005F0F9FC002811DD314601A806F0F0F82A
:102CAC0001A806F0B2F90146286008B10A2809DD2E
:102CBC00384606F09BFB01A806F00EF9142005F02F
:102CCC00C3FCDFE7204806F091FB0E4C2D681F4833
:102CDC0084F82C5406F010FC94F82C141C4806F0C4
:102CEC0085FB94F82C140020FDF7B9FF04F22C405E
:102CFC00E9B2FEF7C5FD174806F0FEFBFDF790FFA5
:102D0C0018AF00086401002031AF00084FAF000875
:102D1C005EAF00084C000020480000206AAF00089D
:102D2C0077AF00085000002084AF0008E093040047
:102D3C005C010020E0050020DC05002090AF0008BD
:102D4C00E40B0020ACAF0008F2AA0008DCAF0008CE
:102D5C00F5AF000810B00008002307B51A46009321
:102D6C001946034805F0BCFF03B05DF804FB00BF37
:102D7C006C0600204B68436000230381704770B5DC
:102D8C0000242346013911F8010FB8B1A0F1300528
:102D9C00EEB2092E08D803EB830305EB43039BB279
:102DAC00FF2BF0D900200DE02E28FBD1032CF9D0FD
:102DBC00601C14442371C4B20023E4E7032C01D13A
:102DCC000120D37170BD0000002307B51A46009393
:102DDC001946034805F084FF03B05DF804FB00BFFF
:102DEC00740600202DE9F34106460D4605F02AFC39
:102DFC0006F10C04308106F108010222204600F095
:102E0C0054FD012302220DF106012046ADF80630D7
:102E1C0000F04BFD4FF4807302220DF106012046A9
:102E2C00ADF8063000F041FD002302220DF1060141
:102E3C002046ADF8063000F038FD02220DF10601F7
:102E4C00204600F032FD02220DF10601204600F072
:102E5C002CFD2E462B78E3B135462F4617F8013B57
:102E6C000BB12E2B13D1A5EB0608B8F1000F0CDD1E
:102E7C0001220DF1050120468DF8058000F015FDAD
:102E8C0042463146204600F010FD3E46E2E73D4604
:102E9C00E3E74FF480750DF10501012220468DF812
:102EAC00053000F002FD0DF1060102222046ADF8BE
:102EBC00065000F0FAFC02220DF106012046ADF896
:102ECC00065000F0F2FC012002B0BDE8F0812DE9C3
:102EDC00F04387B006460F46904605F0B3FB054617
:102EEC0006F10C04204600F047FD002809DC05F033
:102EFC00A9FB401BB84200F2C980322005F0A4FBAC
:102F0C00F0E7726A73689A4240F0C380338D352BB8
:102F1C0040F0BF80204600F04BFC0B2840F3BC80F7
:102F2C000C2220460DEB020100F0E3FCBDF80E2054
:102F3C003189130A43EA0223BDF80C201BB29DB25F
:102F4C009142ADF8065001D1002B07DB204600F072
:102F5C003DFC4FF6FC7007B0BDE8F08340F20F2348
:102F6C001D4005D0204600F031FC4FF6FB70F2E717
:102F7C00BDF812301E0A46EA0326B6B22EB9204618
:102F8C0000F024FC4FF6FA70E5E7BDF81030AAB259
:102F9C005BBA9BB29A4218DA01220DF10A01204663
:102FAC0000F0A7FC9DF80A2032B90422002120462B
:102FBC0000F09FFC0135E8E70021204600F099FC69
:102FCC009DF80A30002BE7D1EFE70027B946012224
:102FDC000DF10501204600F08CFC9DF8052012F047
:102FEC00C00134D132B1204600F083FC9DF805308D
:102FFC00002BECD1022202A9204600F07AFC02221E
:10300C000DF10A01204600F074FC04220021204638
:10301C0000F06FFC02220DF10601204600F069FC65
:10302C00BDF80830BDF80620B3F5807F17D052BA32
:10303C0092B200212046013700F05BFCBBB2B342D8
:10304C00C5D3204600F0C2FB4FF6F67083E7012291
:10305C000021204600F04DFC8DF80590CAE7BDF824
:10306C000A0040BA85B2012DE1D152BA92B2042ABB
:10307C0005D0204600F0AAFB4FF6F7706BE708F17D
:10308C000401204600F035FC284664E74FF6FF703B
:10309C0061E74FF6FE705EE74FF6FD705BE70000F0
:1030AC002DE9F7430546894690461F46FFF767FE14
:1030BC00044688BB1B4B6A685B689A422ED005F0AD
:1030CC00C1FA05F10C0600F00F0101F580613046E4
:1030DC0000F089FB01281BD1134B352200936B6840
:1030EC0069463046019300F0D1FB70B14946284641
:1030FC00FFF778FE48B1304600F0D1FB28B14246CC
:10310C0039462846FFF7E3FE0446304600F05FFBE5
:10311C00204603B0BDE8F0830124F9E76FF0010409
:10312C00F6E700BF740600204CB6000802F1FF3C25
:10313C004160DCF1000141EB0C01817202720BB9B0
:10314C00437205E0012BFBD0022BF9D0032BF7D0F7
:10315C00704710B586B003AC84E80E00059B2321A4
:10316C00009394E80C0001F0AFFC06B010BD2321D5
:10317C0001F0E4BC01460422012001F071B90146C2
:10318C000422052001F06CB901460622092001F049
:10319C0067B9014604220F2001F062B92DE9FF4105
:1031AC0080460F4615461E4601F038FBF0B101ACC7
:1031BC00002301220F492046FFF7B8FF94E80E00C8
:1031CC000D48FFF7C6FF4046FFF7DEFF381DFFF73F
:1031DC00E0FF301DFFF7CEFF0A980430FFF7CFFF5A
:1031EC000548FFF7C4FF6A68044B5A6004B0BDE899
:1031FC00F08100BF809FD5000807002084060020C6
:10320C00F0B51D4600238DB00093FF230F461646E4
:10321C0004461A46194602A805F062FD0B4B7A6863
:10322C000493CDE90523726804A9CDE907236A68E4
:10323C002046CDE90923039B06AA0B930AAB009306
:10324C0008ABFFF7ABFF0DB0F0BD00BF4CB60008EC
:10325C0000B50B4B4968526889B0CDE90231CDE914
:10326C0005230493012301918DF80730019B04AAD7
:10327C00079302A906ABFFF7C3FF09B05DF804FB87
:10328C004CB600087FB5094B4A680493CDE902326D
:10329C00012301928DF80730019B04AA02A9059322
:1032AC00FFF7D6FF07B05DF804FB00BF4CB6000873
:1032BC00014B1870704700BF5600002008B501F094
:1032CC001FFB012803D002280CBF0220002008BDE0
:1032DC00044B1B78333BDBB2042B9ABF024AD05C05
:1032EC0000207047050700205BB000087FB50D4E2D
:1032FC0001AC054605F0ECFC002301220A492046EE
:10330C00FFF714FF94E80E003046FFF722FF04226B
:10331C000F20A91801F064F93046FFF728FF284662
:10332C0004B070BD08070020809FD500002307B5AE
:10333C001A4600931946044805F0D2FC034803B022
:10334C005DF804EB05F0C4BC7C060020840600206C
:10335C00007C07288CBF00200120704781F0010001
:10336C0070470846704708B503685B6C984780F057
:10337C000100C0B208BD4182704707B503688DF8E3
:10338C0007105B6801220DF10701984703B05DF847
:10339C0004FB037C087C984204D107288CBF0020D6
:1033AC00012070470020704710B50446007C0728A8
:1033BC0016D800F073FD182809D91C280ED12368E3
:1033CC0020469B689847003018BF012005E0054B4C
:1033DC0023FA00F0C04300F0010010BD0120FCE70F
:1033EC000020FAE701001001F0B591B0044604A8E2
:1033FC000F46164605F06CFC00224FF47A73CDE9AB
:10340C000823194B0CA8079305F062FC08236846A7
:10341C008DF83C3005F05CFC207C072807D800F0C8
:10342C003DFD10B1207C00F09BFD082323740F4B55
:10343C000F4D5B6802A904A803930295FFF79AFC51
:10344C0041F288336A46394604A8FFF729FE40B199
:10345C00019A236802A91B6A204603920295324600
:10346C00984711B0F0BD00BFCCB000088406002016
:10347C004CB6000808B5007C072802D800F0FCFE0A
:10348C0008BD0020FCE710B50446207C07280BD8AB
:10349C0000F004FD172801D01C2805D1207C00F079
:1034AC00EBFEB0F5006FF0D310BD38B50546007CCF
:1034BC001446072805D892B200F062FE10B9012319
:1034CC006B600024204638BD08B5007C072802D864
:1034DC0000F0FCFD08BD0020FCE7007C072802D8AA
:1034EC0012B200F059BD0020704707B501220DF152
:1034FC000701007C00F050FD0028D4BF4FF0FF30D6
:10350C009DF8070003B05DF804FB10B5037C04467E
:10351C00072B02D94FF0FF3010BD03689B6898470A
:10352C000028F7D0207C00F0FFFDF5E738B5044605
:10353C00007C07280AD800F013FD05F083F8054637
:10354C00207C00F0ABFC10B90823237438BD01209B
:10355C0005F07AF805F076F8638A401B9842EFD3B1
:10356C00207C00F0B9FCEFE77FB50446007C0D46EB
:10357C000728164607D800F091FC10B1207C00F00B
:10358C00EFFC082323740021684605F0B5FB6A683C
:10359C00019B9A4202D1002004B070BD4FF0FF3164
:1035AC0002A805F0A9FB6A68039B9A42F3D000219C
:1035BC00212000F01DFB07282074ECD8291D324671
:1035CC0000F0A6FC05F03EF80546207C00F066FCF9
:1035DC00172813D01C2811D00028DCD005F032F8A5
:1035EC00638A401B984203D8012005F02DF8ECE7C4
:1035FC00207C00F071FC08232374CCE70120CBE77E
:10360C0010B41446054A127801EB022101EB00209C
:10361C001A46214680B210BC00F0E2BF040700201D
:10362C0070B5037C88B0072B064626D802AD05ACD6
:10363C000023012212492846FFF778FD95E8070080
:10364C0084E80700079B2321009394E80C000D48A5
:10365C0001F03AFA022322460421307CFFF7D0FF16
:10366C009DF814309DF815402321064844EA0324A4
:10367C0001F064FA204608B070BD0024FAE700BFE0
:10368C00809FD50008070020F0B50B7C89B0072B74
:10369C0006460F4605D9002105F02EFB304609B031
:1036AC00F0BD02AD05AC002301220F492846FFF7FF
:1036BC003DFD95E8070084E80700079B2321009354
:1036CC0094E80C00094801F0FFF9042322460C2170
:1036DC00387CFFF795FF2321044801F02FFA21468F
:1036EC00304605F00FFBD9E7809FD5000807002076
:1036FC0070B5037C88B0072B064626D802AD05AC06
:10370C000023012212492846FFF710FD95E8070017
:10371C0084E80700079B2321009394E80C000D48D4
:10372C0001F0D2F9022322461021307CFFF768FF0A
:10373C009DF814309DF815402321064844EA0324D3
:10374C0001F0FCF9204608B070BD0024FAE700BF78
:10375C00809FD50008070020002307B51A46009368
:10376C001946034805F0BCFA03B05DF804FB00BF32
:10377C008C060020002307B51A460093194603480F
:10378C0005F0AEFA03B05DF804FB00BF9406002010
:10379C000368DB6B18470000024A02608A694260CA
:1037AC00704700BF4CB60008808B7047008A70478A
:1037BC00408C704707B503688DF807105B680122D1
:1037CC000DF10701984703B05DF804FB704710B585
:1037DC00044690F82000072804D800F07DFB08234D
:1037EC0084F8203010BD38B5044690F820000D4602
:1037FC00072801D800F070FB2946022000F0F8F9E8
:10380C00072884F820004FF000009EBF25826084BA
:10381C00012038BDF0B591B0044604A80F461646F9
:10382C0005F056FA00224FF47A73CDE90823144BB5
:10383C000CA8079305F04CFA082368468DF83C3029
:10384C0005F046FA0F4B104D5B6802A904A80393D0
:10385C000295FFF78FFA41F288336A46394604A87D
:10386C00FFF71EFC012808D1019A236802A9DB6A24
:10387C002046039202953246984711B0F0BD00BF26
:10388C00CCB00008840600204CB6000808B5002314
:10389C000431C38390F8200000F040FD08BD08B54A
:1038AC0090F8200000F068FD08BD10B5044693B2F6
:1038BC000A46C18B90F8200000F004FDE38B034412
:1038CC00E38310BD13B5438C04461BB94FF0FF3096
:1038DC0002B010BD01220DF1070190F8200000F09C
:1038EC005BFB0028F2DD638C9DF80700013B6384D1
:1038FC00EEE710B5438C044613B94FF0FF3010BD02
:10390C00934294BF1AB212B290F8200000F044FB1C
:10391C000028F2DD638C1B1A6384F0E708B590F87D
:10392C002030072B05D8428C1AB1184600F0FCFB4E
:10393C0008BD4FF0FF30FBE773B5044690F820004C
:10394C000E460728154601D800F0C6FA094B2A4640
:10395C000093736869468220019300F0E3F907280D
:10396C0084F820004FF000009EBF60840120258267
:10397C0002B070BD4CB6000813B50446628C2AB177
:10398C0023680021DB6B20469847F7E794F820006A
:10399C0000F09CFBD8B10822694694F8200000F096
:1039AC00FBFA002813DD694604F1140005F0B2F9A6
:1039BC009DF804209DF805309DF8070003EB0223C9
:1039CC00A3839DF8063000EB032080B2608402B024
:1039DC0010BD0000002307B51A4600931946034892
:1039EC0005F07EF903B05DF804FB00BFAC060020C7
:1039FC0007B5084B01221B7801EB032101EB0020DA
:103A0C0080B20DF1070100F0EBFD9DF8070003B04B
:103A1C005DF804FB0407002007B5094B8DF807205F
:103A2C001B78012201EB032101EB002080B20DF188
:103A3C00070100F015FDC0B203B05DF804FB00BF38
:103A4C000407002010B41446054A127801EB022139
:103A5C0001EB00201A46214680B210BC00F000BDDC
:103A6C00040700202DE9F3470C46064690461F46F6
:103A7C0001AA02232421FFF7C3FD9DF804209DF821
:103A8C00053043EA0223204A1C441378A4B2332B9A
:103A9C000CBF06F1080006F11000C002C4F30A05C1
:103AAC0080B22844372B914680B22AD0EB19B3F55B
:103ABC00006F26DDC5F5006A1FFA8AFA52464146A8
:103ACC0000F0CEFC99F80030A7F50062332B0CBF48
:103ADC0006F1080006F11000C0022A4480B292B22E
:103AEC0008EB0A013C4400F0BBFC64BA022301AAB7
:103AFC0024213046ADF80440FFF7A4FF02B0BDE826
:103B0C00F0873A464146EDE70507002008B503214A
:103B1C00FFF76EFF08BD07B549BAADF804100223D4
:103B2C0001AA0421FFF78EFF03B05DF804FB08B572
:103B3C000A4604230C21FFF785FF08BD07B549BAD7
:103B4C00ADF80410022301AA1021FFF77BFF03B08C
:103B5C005DF804FB07B5022301AA2021FFF750FDF5
:103B6C009DF804009DF8053043EA002003B05DF891
:103B7C0004FB000038B50546FFF7ECFF0446284669
:103B8C00FFF7E8FF8442034604D1034B03EBC50364
:103B9C009C8038BD1C46F2E7BC06002007B502230A
:103BAC0001AA2621FFF72CFD9DF804009DF8053095
:103BBC0043EA002003B05DF804FB07B5022301AA19
:103BCC002821FFF71DFD9DF804009DF8053043EA00
:103BDC00002003B05DF804FB044B1B78332B0CBFA7
:103BEC000C301830C00280B2704700BF05070020AF
:103BFC002DE9FF47424B07461B780E46B3B301AD88
:103C0C00332B4FF001024FF000033E49284614BFFE
:103C1C004FF008084FF00408FFF788FA95E80E00FB
:103C2C003948FFF796FAAA464FF000095FFA89F473
:103C3C002046FFF76BFF0AF8010BE8B109F1010907
:103C4C005FFA89F39845F1D800244FF0345215F8F7
:103C5C00013B1D2B03D822FA03F3DB0708D40134F4
:103C6C00E4B2A045F3D12848FFF781FA082436E0E6
:103C7C001021204600F098FE0022244B23F814203B
:103C8C00234A244B1168244A5868B1FBF2F2FA21FA
:103C9C0051435A68121A9142FBDC3A4600212046E5
:103CAC00FFF7BAFEFF2202212046FFF7B5FED6B180
:103CBC00314600262046194DFFF72DFF01212046E5
:103CCC0000F072FE25F834602046FFF776FF05EB16
:103CDC00C40358809E719E800B48FFF748FA20461B
:103CEC0004B0BDE8F0870E4B1A88013292B2B2F5DF
:103CFC00404F38BF4FF440421A801988D9E700BFB3
:103D0C0005070020809FD500080700209C06002096
:103D1C0070000020001000E040420F00BC060020A4
:103D2C00540000202DE9F04F534B87B01B78804690
:103D3C000D461646B3B303AF332B4FF001024FF0D1
:103D4C0000034E49384614BF4FF008094FF00409E0
:103D5C00FFF7ECF997E80E004948FFF7FAF9BB4674
:103D6C004FF0000A5FFA8AF42046FFF7CFFE0BF8FB
:103D7C00010BE8B10AF1010A5FFA8AF39945F1D80F
:103D8C0000244FF0345217F8013B1D2B03D822FAB4
:103D9C0003F3DB0708D40134E4B2A145F3D138486E
:103DAC00FFF7E5F9082456E01021204600F0FCFD51
:103DBC000022344B23F81420334A344B1168344A14
:103DCC005868B1FBF2F2FA2151435A68121A914227
:103DDC00FBDC424600212046FFF71EFEFF2202219B
:103DEC002046FFF719FE002E39D031462046FFF74A
:103DFC0092FE5E2301278DF806306B79291D03F0A6
:103E0C007F038DF80730AB7920468DF80830EB79BD
:103E1C00ADF804708DF80930FFF789FE3146204665
:103E2C00FFF78CFE06230026194601AA194D2046E1
:103E3C00FFF708FE3946204600F0B6FD25F8346041
:103E4C002046FFF7BAFE05EBC40358809E719E8096
:103E5C000B48FFF78CF9204607B0BDE8F08F0E4BEE
:103E6C001A88013292B2B2F5404F38BF4FF440423B
:103E7C001A801988BAE700BF05070020809FD5007B
:103E8C00080700209C06002070000020001000E0B5
:103E9C0040420F00BC060020540000207FB50646AF
:103EAC0001AC0B4D002301220A492046FFF73EF9D5
:103EBC0094E80E002846FFF74CF93046FFF726FE33
:103ECC0004462846FFF753F9204604B070BD00BFE6
:103EDC0008070020809FD5007FB5064601AC0A4D2F
:103EEC000023012209492046FFF720F994E80E002F
:103EFC002846FFF72EF91021304600F055FD2846D4
:103F0C00FFF735F904B070BD08070020809FD5007D
:103F1C002DE9FF4105468846174601AC0E4E00239D
:103F2C0001220E492046FFF701F994E80E003046B5
:103F3C00FFF70FF941462846FFF7F9FD39462846A9
:103F4C00FFF7FCFD0421284600F02EFD3046FFF75C
:103F5C000EF904B0BDE8F08108070020809FD50061
:103F6C007FB5064601AC0A4D0023012209492046C3
:103F7C00FFF7DCF894E80E002846FFF7EAF8082172
:103F8C00304600F011FD2846FFF7F1F804B070BD83
:103F9C0008070020809FD5002DE9F04F174687B009
:103FAC00464E0DF10C0936F830400023012205462F
:103FBC008A4648464249FFF7B9F899E80E0041484D
:103FCC00FFF7C7F8A7420EDD2846FFF7E7FD0446CA
:103FDC002846FFF7E3FDA042F9D106EBC5039B7918
:103FEC00E41A26F835408CB92846FFF78FFD1428C3
:103FFC0005D020B1B0F11C0418BF4FF0FF3431488C
:10400C00FFF7B5F8204607B0BDE8F08FBC42A8BF5B
:10401C003C464FEAC50B06EB0B035B88A7B200933B
:10402C00BAF1000F23D02846C3F30A08FFF7D4FDDA
:10403C00254B40441B7880B2372B3BD03B46434446
:10404C00B3F5006F36DDC8F500639BB21A465146D6
:10405C00019300F0C5FA019B28469A44FFF7BCFD7A
:10406C00A8F500623A4492B2514600F0B9FA06EB58
:10407C000B0136F83520009B88793B44D21B074452
:10408C00BFB29BB292B2F92F4B8026F8352000D8E4
:10409C0092B900225E445BBAB271ADF80C304A465C
:1040AC00022328212846FFF7CDFC4021284600F0AA
:1040BC007BFCA4E73A46D7E78F71A0E7BC0600204B
:1040CC00809FD50008070020050700207FB5134D01
:1040DC00064635F83030EBB901AC012210492046C8
:1040EC00FFF724F894E80E000E48FFF732F830463C
:1040FC00FFF754FD04463046FFF750FDA042F9D1BE
:10410C000848FFF734F805EBC6039B79E31A9BB21A
:10411C0025F83630184604B070BD00BFBC06002030
:10412C00809FD500080700207FB5064601AC114DD5
:10413C000023012210492046FEF7F8FF94E80E00F8
:10414C002846FFF706F83046FFF746FD0B4B0122D9
:10415C0003EBC6035B882146C3F30A03184480B201
:10416C0000F03EFA2846FFF702F89DF8040004B070
:10417C0070BD00BF08070020809FD500BC06002042
:10418C00B2F5006F28BF4FF400622DE9F04F0546E1
:10419C008946164685B0DFF8DCB0354F01AC0023FC
:1041AC00012259462046FEF7C1FF94E80E0038461E
:1041BC00FEF7CFFF2846FFF7DDFC82462846FFF7C7
:1041CC00A5FC80463846FEF7D2FFB8F1170F02D097
:1041DC00B8F11C0F2FD100F0BEFDB245DFD3002388
:1041EC00012224492046FEF7A1FF94E80E00204846
:1041FC00FEF7AFFF4A46334600212846FFF732FC54
:10420C002021284600F0D0FB194FDFF868900221DE
:10421C002846FFF7EDFB10F0100A1FD12846FFF7D8
:10422C0075FC804648B91248FEF7A1FF4646304659
:10423C0005B0BDE8F08F0026D1E73846FEF797FFB2
:10424C0000F089FD5346494601222046FEF76EFFD9
:10425C0094E80E003846FEF77CFFD8E710220221C6
:10426C002846FFF7D9FB0248FEF781FFDFE700BFC6
:10427C0008070020809FD50030B5054685B001ACFD
:10428C00002301220D492046FEF750FF94E80E0052
:10429C000B48FEF75EFF2846FFF76CFC04462846E9
:1042AC00FFF734FC05460648FEF761FF172D02D0D8
:1042BC001C2D18BF0024204605B030BD809FD500B2
:1042CC00080700202DE9F043074685B001AD114EDB
:1042DC001C4688469146002301220F492846FEF7CA
:1042EC0025FF95E80E003046FEF733FF3846FFF702
:1042FC0041FC844228BF0446A4B223464A464146A8
:10430C003846FFF7AFFB3046FEF731FF204605B0CD
:10431C00BDE8F08308070020809FD500F0B50B782E
:10432C0085B007460D4614462BB94B781BB98B78D4
:10433C000BB9C878C0B1CCB101AE002301220C4935
:10434C003046FEF7F3FE96E80E000A48FEF701FF32
:10435C0029463846FFF7EBFB21463846FFF7EEFBC4
:10436C000448FEF704FF012005B0F0BD2046FBE732
:10437C00809FD500080700202DE9F043054685B045
:10438C0001AC0023012222492046FEF7CFFE94E81F
:10439C000E002048FEF7DDFE2021284600F004FB2D
:1043AC001C4FDFF86C8002212846FFF721FB10F030
:1043BC00100623D102212846FFF71AFB10F008093A
:1043CC000BD0182202212846FFF726FB1148FEF7D6
:1043DC00CEFE304605B0BDE8F0833846FEF7C7FE8A
:1043EC0000F0B9FC4B46414601222046FEF79EFEEA
:1043FC0094E80E003846FEF7ACFED4E710220221FA
:10440C002846FFF709FB0348FEF7B1FE0120E1E760
:10441C00809FD50008070020002307B51A4600939B
:10442C001946034804F05CFC03B05DF804FB00BFC4
:10443C00B406002013460A46232100F09DBB000061
:10444C00024B0021187804F0B3B800BF56000020CE
:10445C00024B0121187804F0ABB800BF56000020C5
:10446C002DE9FF41534B04461B780D46332B164662
:10447C0023D100EB0208504F4D1E1FFA88F8A045BF
:10448C007DD0FFF7DDFF0122F0213846FFF7D2FF88
:10449C00210A01223846FFF7CDFFE1B2012238464E
:1044AC00FFF7C8FF0134012215F8011F3846A4B2EA
:1044BC00FFF7C0FFFFF7CCFFE1E7342BC7B21ED1EB
:1044CC00FFF7BEFF330A63F07F038DF80A30012338
:1044DC0064BA009302AA042323213748ADF808409C
:1044EC008DF80B6000F090FB334CAF19AF4244D009
:1044FC00012215F8011B2046FFF79CFFF6E7FFF79A
:10450C009FFFFF2C08D800238DF8083004238DF86A
:10451C0009708DF80A300DE0230417D40023E41041
:10452C0024F01F0444F00C048DF808308DF8097049
:10453C008DF80A40052E26D80023B34215DAE95C23
:10454C0004AA1A4402F8051C0133F6E744F3871356
:10455C00B4F5404F23F01F0364BAADF8084034BFE4
:10456C0043F0140343F01C03D3E7012302AA009386
:10457C002321F31C104800F047FBFFF769FF30467E
:10458C0004B0BDE8F081012302AA00932321032388
:10459C00094800F039FB731E9BB2074F6C1E1D447B
:1045AC0014F8011F01223846FFF744FFAC42F7D143
:1045BC00E3E700BF050700200807002007B501222C
:1045CC008DF807100DF10701FFF74AFFC0B203B0D9
:1045DC005DF804FB08B501460020FFF7EFFF08BDAE
:1045EC002DE9FF41404B04461B780E46332B1546F4
:1045FC0024D100EB02083D4F4E1E1FFA88F8A0454F
:10460C0040D0FFF71DFF01220F213846FFF712FFA4
:10461C00210A01223846FFF70DFFE1B2012238468C
:10462C00FFF708FF012200213846FFF703FF013492
:10463C0006F8010FA4B2FFF70BFFE0E7342BC7B26B
:10464C0024D164BAFFF7FCFEC5F30623ADF80C4089
:10465C0001248DF80E3004238DF80F50009403AA1A
:10466C002321224800F0D0FA2A460021304604F0DB
:10467C000FFE2B46324623211C48009400F0C4FA4E
:10468C00FFF7E6FE284604B0BDE8F081FFF7D8FE40
:10469C00FF2C07D800238DF80D708DF80C308DF899
:1046AC000E300DE023040FD40023E41024F01F047B
:1046BC0044F008048DF80C308DF80D708DF80E4018
:1046CC00012403230094CAE744F38713B4F5404F45
:1046DC0023F01F0364BAADF80C4034BF43F0100351
:1046EC0043F01803DBE700BF050700200807002094
:1046FC0007B501220DF10701FFF772FF9DF80700C6
:10470C0003B05DF804FB08B50020FFF7F1FF08BD0E
:10471C0010B58020FFF75EFF1424FFF7F4FF40B1C3
:10472C00013C0120A4B203F08FFF002CF5D12046F0
:10473C0010BD0120FCE70000332208B50E4B1A70A7
:10474C00FFF7E6FF08B9002008BD1020FFF742FF75
:10475C00FFF7D9FF1028F6D11220FFF73BFFFFF728
:10476C00D2FF1228EFD10020FFF734FFFFF7CBFF69
:10477C00B0FA80F04009E7E705070020342208B5BD
:10478C00114B1A70FFF7C4FF08B9002008BD0820B0
:10479C00FFF720FFFFF7B7FF0828F6D11020FFF72F
:1047AC0019FFFFF7B0FF1028EFD10020FFF712FF21
:1047BC00FFF7A9FF0028E8D11F20FFF799FFC31EC0
:1047CC0058425841E2E700BF05070020372208B5E0
:1047DC00114B1A70FFF79CFF08B9002008BD082088
:1047EC00FFF7F8FEFFF78FFF0828F6D11020FFF730
:1047FC00F1FEFFF788FF1028EFD10020FFF7EAFE4B
:10480C00FFF781FF0028E8D13920FFF771FF031F64
:10481C0058425841E2E700BF0507002070B5324E00
:10482C0088B03478002C5CD14FF40C7003F00CFF82
:10483C0023212E4800F020F92D4B0121187802ADD0
:10484C0003F068FEFFF704FE23460122294928469F
:10485C00FEF76CFC95E8070005AB83E80700079AA8
:10486C00232100920CCB214800F02EF9FFF786FF94
:10487C00B8B14022204B1A70E5B202221E21284604
:10488C00FFF7CAF8013402221F212846FFF7C4F8AB
:10489C00082CF1D101242321144800F04FF9347075
:1048AC001CE0FFF793FF18B11022134B1A70F1E7BD
:1048BC00FFF742FF044658B104220F4B55211B2031
:1048CC001A70FFF77BFE55211A20FFF777FEE1E700
:1048DC000A4B23211870054800F030F9204608B027
:1048EC0070BD0124FAE700BF06070020080700206E
:1048FC0056000020809FD5000407002005070020EB
:10490C0010B588B0FFF78AFF30B1244B1B78342BDD
:10491C0004D0372B23D0002008B010BD02AC0023EC
:10492C0001221F492046FEF701FC94E8070005AB65
:10493C0083E80700079A232100920CCB194800F05A
:10494C00C3F83520FFF7D4FE04462321154800F0A8
:10495C00F5F814F0200F0CBF02200120DCE702ACAC
:10496C00002301220E492046FEF7E0FB94E80700E5
:10497C0005AB83E80700079A232100920CCB09486A
:10498C0000F0A2F82E20FFF7B3FE044623210548C1
:10499C0000F0D4F814F0010FDDE700BF050700208C
:1049AC00809FD5000807002038B50A46044601212F
:1049BC00FFF732F8054D2402287804EB0020013073
:1049CC0080B2FFF795FE0028F6D138BD0407002011
:1049DC00002307B51A4600931946034804F080F9E2
:1049EC0003B05DF804FB00BFFC060020232970B562
:1049FC0004461BD800230C2505FB03F6A65FD8B292
:104A0C00B1420DD00133042BF6D1012A0CD1002375
:104A1C000C2505FB03F2A65ED8B2013601D1A152DA
:104A2C0070BD0133042BF4D11846F9E70420F7E7E5
:104A3C0070B503464FF6FF72012100250C4E00F1B4
:104A4C0030041A805E60197299725D720C33A34245
:104A5C00F7D1084B0286998EA0F89010D98EA0F849
:104A6C0092105B8EA0F89620A0F8943070BD00BF19
:104A7C0000093D008CB30008232970B505460E468D
:104A8C0021D80122FFF7B2FF032804461BD8232E9E
:104A9C000BD0B5F99630013307D10121304603F024
:104AAC0039FD0121304603F083FD0C20002300FB6F
:104ABC00045085F88530837A427A416805F13400D8
:104ACC0002F0C6FF2E8670BD82B0F8B5232906AC65
:104ADC0006460F4684E80C002CD80122FFF786FF0F
:104AEC000328054626D80C2404FB0064079BBDF85C
:104AFC00202063609DF8203022815A1E534253417E
:104B0C00232FA3720BD0B6F99630013307D10121B4
:104B1C00384603F0FFFC0121384603F049FD0C2315
:104B2C0003FB05656168AB7A6A7A06F1340002F022
:104B3C008FFF3786BDE8F84002B070472329F0B5E7
:104B4C0016D803464FF6FF7501220027094E00F1D7
:104B5C003004B3F900C08C4504D11D805E601A721C
:104B6C009A725F720C33A342F3D14FF6FF73038634
:104B7C00F0BD00BF00093D0070B586B08DF80F2068
:104B8C000022232905460C461E468DF8172039D8DD
:104B9C00B0F93030994212D0FFF728FF032803D91F
:104BAC009DF8170006B070BD0C2303FB0050837AF0
:104BBC00427A416805F1340002F04AFF2C86232C1E
:104BCC0007D0B5F99630013303D10021204603F00C
:104BDC00EFFC4FF47A730DF1170200930DF10F01F6
:104BEC00012305F1340003F057F8232CD8D0012E03
:104BFC00D6D1B5F996300133D2D13146204603F0E7
:104C0C00D7FCCDE71046CDE72DE9F34105460C4620
:104C1C0017469DF820609846002B3BD0002A39D0CF
:104C2C00232937D8B0F9303099420FD00022FFF742
:104C3C00DDFE03282ED80C2303FB0050837A427A26
:104C4C00416805F1340002F003FF2C86232C07D0B9
:104C5C00B5F99630013303D10021204603F0A8FCAE
:104C6C004FF47A733A46009339461FFA88F305F1EC
:104C7C00340003F011F8232C0CD0012E0AD1B5F915
:104C8C009630013306D13146204602B0BDE8F041E2
:104C9C0003F08EBC02B0BDE8F08100000148FFF7C4
:104CAC00C7BE00BF0807002010B54FF480330122A7
:104CBC00022494B0CDE90A230021CDE911434FF42D
:104CCC00E0130AA80C910E92139301F0E3F800B1D3
:104CDC00FEE70F23CDE905344FF480630790CDE94F
:104CEC000830214605A801F0ADFA00B1FEE7122309
:104CFC0001934FF40043CDE9033001A801F07CFB94
:104D0C0000B1FEE714B010BD002103E00B4B5B5863
:104D1C00435004310A480B4B42189A42F6D30A4AC4
:104D2C0002E0002342F8043B084B9A42F9D303F00B
:104D3C000FF804F051FA04F077F9704730B8000816
:104D4C00000000204001002040010020700E0020D7
:104D5C00FEE702F0EDBB70477047000038B50E4B14
:104D6C00054618784FF47A73B3FBF0F30B4A1068CE
:104D7C00B0FBF3F000F0A2F8044658B90F2D09D897
:104D8C00024629464FF0FF3000F042F82046044B13
:104D9C001D6038BD0120FCE757000020700000208A
:104DAC0058000020074A08B51368032043F010038D
:104DBC00136000F01BF80020FFF7D0FFFFF7CCFFCB
:104DCC00002008BD00200240034A044B11681B78E8
:104DDC000B441360704700BF3C0E002057000020AE
:104DEC00014B1868704700BF3C0E0020074A0002B8
:104DFC00D36800F4E06023F4E0631B041B0C18433D
:104E0C0040F0BF6040F40030D060704700ED00E02F
:104E1C00174B70B5DC684FF0FF36C4F30224C4F1B5
:104E2C000705042D04F1040328BF0425062B98BFA5
:104E3C00002406FA05F588BF033C21EA0501A140D0
:104E4C0006FA04F422EA0403002843EA0103A8BF8B
:104E5C0000F160404FEA0313B8BF064ADBB2ABBFA8
:104E6C0000F5614000F00F0080F80033135470BD62
:104E7C0000ED00E014ED00E0002808DB01234209FE
:104E8C0000F01F0003FA00F0014B43F822007047BA
:104E9C0000E100E000280DDB0122430900F01F00B7
:104EAC0002FA00F0044A203342F82300BFF34F8F7C
:104EBC00BFF36F8F704700BF00E100E00138B0F125
:104ECC00807F0AD2F021064B064A586082F82310E4
:104EDC000020072298601A6070470120704700BFBD
:104EEC0010E000E000ED00E0002809DB012243099E
:104EFC0000F01F0002FA00F0024A603342F823006F
:104F0C00704700BF00E100E0704708B5FFF7FCFFF9
:104F1C0008BD000008B590F82130022B03D0042303
:104F2C008363012008BD03681A6822F00E021A6020
:104F3C001A6822F001021A60174A93421CD01432EC
:104F4C0093421BD0143293421AD0143293421AD08B
:104F5C00143293421AD0143293420CBF4FF4801384
:104F6C004FF080730D4A53604FF480730384436B8E
:104F7C007BB198470020D5E70123F3E71023F1E735
:104F8C004FF48073EEE74FF48053EBE74FF480332C
:104F9C00E8E71846C6E700BF0800024000000240E0
:104FAC0090F8210070470000114AD36813F01003E9
:104FBC0005D01049CB6943F00203CB611023D268B2
:104FCC00500706D50B4943F00403CA6942F00102AD
:104FDC00CA61074AD169C90708D50648C16941F0B9
:104FEC000401C161D16921F00101D161D360704725
:104FFC0000200240400E0020064B186910F0800083
:10500C0007D0054A5A6002F188325A601869C0F319
:10501C00C01070470020024023016745034A00205E
:10502C00136943F080031361704700BF00200240F6
:10503C00F8B50646FFF7D4FE114C07462546E36843
:10504C00D80712D4E368990644BF2023E360EB68C9
:10505C00DA0606D4EB69DB0703D4E86810F0040029
:10506C0007D0FFF7A1FF012003E0731CE7D00EB9B6
:10507C000320F8BDFFF7B4FEC01BB042DFD9F7E741
:10508C00002002402DE9F84F244C1E46237E054695
:10509C00012B0F4690463FD001234CF25030237623
:1050AC00FFF7C6FFA0BB012D03D0022D0CBF0225BC
:1050BC0004254FF00009CB46DFF864A04FEA091332
:1050CC00C3F12001A3F1200206FA01F128FA03F33F
:1050DC00C4F81CB00B4326FA02F21343DAF8102082
:1050EC009BB242F00102CAF810204CF2503027F863
:1050FC001930FFF79DFFDAF8103023F00103CAF8DE
:10510C00103028B909F101095FFA89F39D42D5D80D
:10511C0000232376BDE8F88F0220FBE7400E002029
:10512C00002002400022064BDA61064B1A6942F05D
:10513C0004021A611A6942F040021A61704700BFFA
:10514C00400E0020002002400022064BDA61064B84
:10515C001A6942F002021A6158611A6942F040025F
:10516C001A617047400E0020002002402DE9F041EA
:10517C00224D07462B7E8846012B3DD00124036827
:10518C002C76022B4CF2503013D1FFF751FF20B18B
:10519C00012000232B76BDE8F081FFF7C3FF4CF212
:1051AC005030FFF745FF164A136923F004031361CF
:1051BC00EFE7FFF73DFF0028EAD14FF0FF33C8F8C7
:1051CC0000302046BE680E4CD7E9023203EB822336
:1051DC00B342DED93046FFF7B7FF4CF25030FFF741
:1051EC0027FF236923F00203236110B1C8F8006084
:1051FC00CFE706F58066E7E70220CCE7400E0020FB
:10520C000020024008B5044B5969014202D0586194
:10521C0003F050FF08BD00BF0004014037B590F803
:10522C003D4004F02804282C34D1002930D0002A29
:10523C002ED090F83C40012C2CD00124056880F82D
:10524C003C402C68E4075EBF2C6844F001042C60E1
:10525C002C6824F400642C60292480F83D40202420
:10526C0080F83E40002404644285428DC362019460
:10527C006B6941620193AB69028580F83C40204622
:10528C000193019B6B6843F4E0636B6003B030BD2A
:10529C000120FBE70220F9E737B590F83D4004F018
:1052AC002804282C34D1002930D0002A2ED090F894
:1052BC003C40012C2CD00124056880F83C402C6823
:1052CC00E4075EBF2C6844F001042C602C6824F4C5
:1052DC0000642C602A2480F83D40202480F83E4055
:1052EC00002404644285428DC36201946B6941625F
:1052FC000193AB69028580F83C4020460193019BE9
:10530C006B6843F4E0636B6003B030BD0120FBE7D6
:10531C000220F9E790F83D30202B14D1282380F897
:10532C003D30036800201A68D2075EBF1A6842F04D
:10533C0001021A601A6842F480621A605A6842F4D8
:10534C0040725A6070470220704770477047704730
:10535C00704770470023406A70B5026890F83D10A2
:10536C001468466B856B24F48064B362AB62146082
:10537C0043851468736324F001046B63146090F824
:10538C003D40C9B2602C08D1202280F83D2080F825
:10539C003E300364FFF7DDFF70BD01F028012829C2
:1053AC000DD1146844F001041460146844F4806452
:1053BC001460036380F83D1002F01AFEECE7202223
:1053CC0080F83D2080F83E30F6E7000090F83D2054
:1053DC0090F83E1010B510290446D2B2036812D1D1
:1053EC00222A10D1196821F4006119605968090545
:1053FC0004D4602A1CBF202284F83D2000222263A2
:10540C0084F83E2007E002F028012829EED1002282
:10541C00226384F83D105A6812F400624CD05A682A
:10542C00606B22F400625A6090F82130012B364BED
:10543C0028D04363FFF76EFD50B12268606B136890
:10544C0023F001031360202384F83D30436B98470D
:10545C0094F83D30226CDBB2520712D5282B10D1B8
:10546C0022682046536823F4E0635360274B2022C4
:10547C00E3620023236384F83D2084F83E3002F07D
:10548C008AFD10BDA06B4363FFF744FD0028DFD0FD
:10549C0023685A69520605D51A69636A1A70636AD9
:1054AC00013363622268A06B136823F0010313605D
:1054BC00202384F83D30C9E794F83D10602915D1BC
:1054CC00202184F83D1022645A69500605D51A69CA
:1054DC00636A1A70636A0133636222682046136838
:1054EC0023F001031360FFF734FFB1E75A6951064B
:1054FC0005D51A69636A1A70636A013363622046C0
:10550C0002F076FDA4E700BF615300080000FFFF26
:10551C00036830B55A68C56A90F83E100446C9B2A3
:10552C0090F83D0010298DB0C0B202D0402940F057
:10553C00B9829969586910F0010F07D1B5F52A0F96
:10554C0002D0B5F12A4F52D10DB030BD95054ED5D4
:10555C00E26AB2F52A0F0CD10122E26294F83E20E5
:10556C00402A11D1226D52B9626C02F0FE021A610E
:10557C00EAE7E26AB2F12A4FF0D10822EDE7626C59
:10558C0042F00102D2B2F2E72269B2F5804F1BD190
:10559C0094F83D20212A626C12D102F0FE021A61AD
:1055AC00626B12B9A16B0029CED0926A1AB9A26BA8
:1055BC00926A002AC8D05A6842F400625A60C3E763
:1055CC0042F00102D2B2EAE7226D32B9626CD2111A
:1055DC0002F0060242F0F002C9E7226D012AB3D1B3
:1055EC00626CD21102F0060242F0F102BFE705072D
:1055FC0003D5950501D5626CE4E7850740F1E6809B
:10560C00950540F1E38094F83E10E26A256B94F81E
:10561C003D00C9B2222840F0D180206D40B940290C
:10562C0006D100905A6900929B690093009B8BE70E
:10563C00216D81B92069B0F5404F0CD101915A69A7
:10564C0001929A690192019A1A6842F480721A6066
:10565C00236D013328E0618D89B251B902915A69E9
:10566C0002929A690292029A1A6842F400721A60C3
:10567C0019E0618D89B201294AD112F5803F1CD104
:10568C001A6822F480621A605A6812F400620DD013
:10569C001A6822F480621A60002203925A690392FB
:1056AC009B690393039B002323654DE704925A697E
:1056BC0004929A690492049AD6E7082A1CD0202AEC
:1056CC001AD0122D0DD1012A16D11A6822F480623B
:1056DC001A60002205925A6905929B690593059BF5
:1056EC00E1E7102AF1D8904921FA02F2D207ECD561
:1056FC001A6842F48062EBE71A6822F480621A603E
:10570C00002206925A6906929A690692069AABE7AB
:10571C00618D89B2022933D1102A05D88249D14032
:10572C00C94311F0010120D0196841F400611960DE
:10573C00002107915969079199690791079919688F
:10574C0021F48061196059680D05ACD512F5803FC4
:10575C0006D0511E1F29A6D8744ACA40D007A2D51C
:10576C005A6842F480525A609DE7186840F4806091
:10577C001860089159690891996908910899E2E7AC
:10578C00196841F480611960596809050ED512F544
:10579C00803F07D0013A1F2A08D8644921FA02F247
:1057AC00D20703D55A6842F480525A6000220992FB
:1057BC005A6909929B690993099B74E700220A9222
:1057CC005A690A929B690A930A9BBDE611F0040F71
:1057DC00596800F0AD800D053FF5B6AEC0F3800101
:1057EC00000669D5550567D5002968D194F83D2088
:1057FC00258D94F83E10D2B2C9B2E06AC5B9212AFF
:10580C0018D1082878D0202876D010F5803F73D096
:10581C005A6822F4E0625A6011232363002384F84F
:10582C003E302023204684F83D30FFF78EFD8BE67A
:10583C00212A05D040297FF487AE222A7FF484AE3A
:10584C00628D92B21AB95A6822F48062B6E694F864
:10585C003E20402A26D1226D62B9E26C012AA26C4C
:10586C0004D1D2B21A61236D02331DE7C2F30722B1
:10587C001A61EDE6226D012A02D1A26CD2B2F7E7D1
:10588C00226D022A7FF460AE94F83D20222A04D1C6
:10589C001A6842F480721A6056E694F83D20212A68
:1058AC007FF452AE626A12F8011B19616262638D59
:1058BC00013B9BB2638547E600293FF445AE90055A
:1058CC007FF542AEE16A94F83D20212A7FF43CAE8C
:1058DC00628D92B2002AE5D108290DD020290BD077
:1058EC0011F5803F08D0596821F4E061596011230B
:1058FC00236384F83E2094E75A68204622F4E06241
:10590C005A601A6842F400721A6000232022236342
:10591C0084F83D2094F83E2084F83E30402A84D10F
:10592C00FFF715FD10E600BF140001008180008018
:10593C0009053FF509AE4506C0F3800148D5500571
:10594C0046D5002947D194F83D20222A7FF4FCAD9E
:10595C00628D92B2032A14D91A69636A1A70636A47
:10596C0001336362638D013B9BB26385638D9BB294
:10597C00032B7FF4E9AD2268536823F480635360F2
:10598C00E2E5E06A02283FF4DFAD012A3FF6DCAD28
:10599C001A6822F480621A605A6822F4E0625A6033
:1059AC001A69636A1A70636A01336362638D013B1F
:1059BC009BB26385202384F83D3094F83E3084F804
:1059CC003E10402B68D121632046FFF7C1FCBBE59C
:1059DC0000293FF4B9AD92057FF5B6ADE26A608D52
:1059EC00616A80B2042809D15A6822F480625A6034
:1059FC001B690B70636A0133636258E7608D80B278
:105A0C0003280CD15868042A20F480605860EFD029
:105A1C00022AEDD01A6822F480621A60E8E7608DE1
:105A2C0080B20228E4D1012A01D0102A28D11A68A8
:105A3C0022F480621A601B690B70626A531C6362E9
:105A4C00638D013B9BB2638523681B695370636A4A
:105A5C00226801336362638D013B9BB2638553689B
:105A6C0023F440735360202384F83D3094F83E3087
:105A7C00402B4FF0000384F83E300DD12363A3E795
:105A8C00042A01D0022A03D11A6842F48062D1E7B9
:105A9C001A6842F40072CDE7122320462363FFF705
:105AAC0055FC51E5216C21B30025596911F0020F09
:105ABC0029D012F4007F26D0226C02B19D6994F893
:105ACC003D2002F02802282A16D15A686FEA950167
